{
  "address": "0xfa9e424214137a299f08e840F46D78d320D5870A",
  "abi": [
    {
      "anonymous": false,
      "inputs": [
        {
          "indexed": false,
          "internalType": "address",
          "name": "previousAdmin",
          "type": "address"
        },
        {
          "indexed": false,
          "internalType": "address",
          "name": "newAdmin",
          "type": "address"
        }
      ],
      "name": "AdminChanged",
      "type": "event"
    },
    {
      "anonymous": false,
      "inputs": [
        {
          "indexed": true,
          "internalType": "address",
          "name": "beacon",
          "type": "address"
        }
      ],
      "name": "BeaconUpgraded",
      "type": "event"
    },
    {
      "anonymous": false,
      "inputs": [
        {
          "indexed": true,
          "internalType": "address",
          "name": "user",
          "type": "address"
        },
        {
          "indexed": false,
          "internalType": "uint256",
          "name": "amount",
          "type": "uint256"
        }
      ],
      "name": "Claim",
      "type": "event"
    },
    {
      "anonymous": false,
      "inputs": [
        {
          "indexed": false,
          "internalType": "uint256",
          "name": "amount",
          "type": "uint256"
        }
      ],
      "name": "DepositRewardToken",
      "type": "event"
    },
    {
      "anonymous": false,
      "inputs": [
        {
          "indexed": false,
          "internalType": "uint8",
          "name": "version",
          "type": "uint8"
        }
      ],
      "name": "Initialized",
      "type": "event"
    },
    {
      "anonymous": false,
      "inputs": [
        {
          "indexed": true,
          "internalType": "address",
          "name": "previousOwner",
          "type": "address"
        },
        {
          "indexed": true,
          "internalType": "address",
          "name": "newOwner",
          "type": "address"
        }
      ],
      "name": "OwnershipTransferred",
      "type": "event"
    },
    {
      "anonymous": false,
      "inputs": [
        {
          "indexed": true,
          "internalType": "address",
          "name": "implementation",
          "type": "address"
        }
      ],
      "name": "Upgraded",
      "type": "event"
    },
    {
      "inputs": [],
      "name": "PRECENT_DENOMINATOR",
      "outputs": [
        {
          "internalType": "uint128",
          "name": "",
          "type": "uint128"
        }
      ],
      "stateMutability": "view",
      "type": "function"
    },
    {
      "inputs": [],
      "name": "PRICE_PRECISION",
      "outputs": [
        {
          "internalType": "uint128",
          "name": "",
          "type": "uint128"
        }
      ],
      "stateMutability": "view",
      "type": "function"
    },
    {
      "inputs": [],
      "name": "claim",
      "outputs": [],
      "stateMutability": "nonpayable",
      "type": "function"
    },
    {
      "inputs": [],
      "name": "config",
      "outputs": [
        {
          "internalType": "contract IConfig",
          "name": "",
          "type": "address"
        }
      ],
      "stateMutability": "view",
      "type": "function"
    },
    {
      "inputs": [
        {
          "internalType": "uint256",
          "name": "amount",
          "type": "uint256"
        }
      ],
      "name": "depositRewardToken",
      "outputs": [],
      "stateMutability": "nonpayable",
      "type": "function"
    },
    {
      "inputs": [
        {
          "internalType": "address",
          "name": "user",
          "type": "address"
        }
      ],
      "name": "getInvites",
      "outputs": [
        {
          "internalType": "address[]",
          "name": "",
          "type": "address[]"
        }
      ],
      "stateMutability": "view",
      "type": "function"
    },
    {
      "inputs": [
        {
          "internalType": "contract IConfig",
          "name": "config_",
          "type": "address"
        }
      ],
      "name": "initialize",
      "outputs": [],
      "stateMutability": "nonpayable",
      "type": "function"
    },
    {
      "inputs": [],
      "name": "inviteEarnPointPercent",
      "outputs": [
        {
          "internalType": "uint256",
          "name": "",
          "type": "uint256"
        }
      ],
      "stateMutability": "view",
      "type": "function"
    },
    {
      "inputs": [],
      "name": "invitePoint",
      "outputs": [
        {
          "internalType": "uint256",
          "name": "basicPoint",
          "type": "uint256"
        },
        {
          "internalType": "uint256",
          "name": "invite2Point",
          "type": "uint256"
        },
        {
          "internalType": "uint256",
          "name": "invite5Point",
          "type": "uint256"
        }
      ],
      "stateMutability": "view",
      "type": "function"
    },
    {
      "inputs": [
        {
          "internalType": "address",
          "name": "",
          "type": "address"
        },
        {
          "internalType": "uint256",
          "name": "",
          "type": "uint256"
        }
      ],
      "name": "invites",
      "outputs": [
        {
          "internalType": "address",
          "name": "",
          "type": "address"
        }
      ],
      "stateMutability": "view",
      "type": "function"
    },
    {
      "inputs": [],
      "name": "latestCheckPoint",
      "outputs": [
        {
          "internalType": "uint256",
          "name": "",
          "type": "uint256"
        }
      ],
      "stateMutability": "view",
      "type": "function"
    },
    {
      "inputs": [
        {
          "internalType": "address",
          "name": "",
          "type": "address"
        }
      ],
      "name": "latestClaimedAts",
      "outputs": [
        {
          "internalType": "uint256",
          "name": "",
          "type": "uint256"
        }
      ],
      "stateMutability": "view",
      "type": "function"
    },
    {
      "inputs": [],
      "name": "liquidityStakeInflation",
      "outputs": [
        {
          "internalType": "uint256",
          "name": "",
          "type": "uint256"
        }
      ],
      "stateMutability": "view",
      "type": "function"
    },
    {
      "inputs": [],
      "name": "maxInvites",
      "outputs": [
        {
          "internalType": "uint256",
          "name": "",
          "type": "uint256"
        }
      ],
      "stateMutability": "view",
      "type": "function"
    },
    {
      "inputs": [
        {
          "internalType": "address",
          "name": "staker",
          "type": "address"
        },
        {
          "internalType": "uint256",
          "name": "",
          "type": "uint256"
        },
        {
          "internalType": "uint256",
          "name": "stakeLP",
          "type": "uint256"
        }
      ],
      "name": "onLiquidityStake",
      "outputs": [],
      "stateMutability": "nonpayable",
      "type": "function"
    },
    {
      "inputs": [
        {
          "internalType": "address",
          "name": "staker",
          "type": "address"
        },
        {
          "internalType": "uint256",
          "name": "",
          "type": "uint256"
        },
        {
          "internalType": "uint256",
          "name": "unstakeLP",
          "type": "uint256"
        }
      ],
      "name": "onLiquidityUnstake",
      "outputs": [],
      "stateMutability": "nonpayable",
      "type": "function"
    },
    {
      "inputs": [
        {
          "internalType": "address",
          "name": "staker",
          "type": "address"
        },
        {
          "internalType": "uint256",
          "name": "amount",
          "type": "uint256"
        }
      ],
      "name": "onUtilityStake",
      "outputs": [],
      "stateMutability": "nonpayable",
      "type": "function"
    },
    {
      "inputs": [
        {
          "internalType": "address",
          "name": "staker",
          "type": "address"
        },
        {
          "internalType": "uint256",
          "name": "amount",
          "type": "uint256"
        }
      ],
      "name": "onUtilityUnstake",
      "outputs": [],
      "stateMutability": "nonpayable",
      "type": "function"
    },
    {
      "inputs": [],
      "name": "owner",
      "outputs": [
        {
          "internalType": "address",
          "name": "",
          "type": "address"
        }
      ],
      "stateMutability": "view",
      "type": "function"
    },
    {
      "inputs": [],
      "name": "periodFinish",
      "outputs": [
        {
          "internalType": "uint256",
          "name": "",
          "type": "uint256"
        }
      ],
      "stateMutability": "view",
      "type": "function"
    },
    {
      "inputs": [],
      "name": "proxiableUUID",
      "outputs": [
        {
          "internalType": "bytes32",
          "name": "",
          "type": "bytes32"
        }
      ],
      "stateMutability": "view",
      "type": "function"
    },
    {
      "inputs": [],
      "name": "referrerAirdropBegin",
      "outputs": [],
      "stateMutability": "nonpayable",
      "type": "function"
    },
    {
      "inputs": [
        {
          "internalType": "address",
          "name": "referrer",
          "type": "address"
        }
      ],
      "name": "referrerAirdropCommit",
      "outputs": [],
      "stateMutability": "nonpayable",
      "type": "function"
    },
    {
      "inputs": [
        {
          "internalType": "address",
          "name": "",
          "type": "address"
        }
      ],
      "name": "referrers",
      "outputs": [
        {
          "internalType": "address",
          "name": "",
          "type": "address"
        }
      ],
      "stateMutability": "view",
      "type": "function"
    },
    {
      "inputs": [],
      "name": "renounceOwnership",
      "outputs": [],
      "stateMutability": "nonpayable",
      "type": "function"
    },
    {
      "inputs": [],
      "name": "rewardRate",
      "outputs": [
        {
          "internalType": "uint256",
          "name": "",
          "type": "uint256"
        }
      ],
      "stateMutability": "view",
      "type": "function"
    },
    {
      "inputs": [],
      "name": "stakeInflation",
      "outputs": [
        {
          "internalType": "uint256",
          "name": "",
          "type": "uint256"
        }
      ],
      "stateMutability": "view",
      "type": "function"
    },
    {
      "inputs": [
        {
          "internalType": "address",
          "name": "",
          "type": "address"
        }
      ],
      "name": "stakePointCheckpoints",
      "outputs": [
        {
          "internalType": "uint256",
          "name": "pointRate",
          "type": "uint256"
        },
        {
          "internalType": "uint256",
          "name": "latestCheckPoint",
          "type": "uint256"
        }
      ],
      "stateMutability": "view",
      "type": "function"
    },
    {
      "inputs": [],
      "name": "swapLUAAirdropBegin",
      "outputs": [],
      "stateMutability": "nonpayable",
      "type": "function"
    },
    {
      "inputs": [],
      "name": "swapLUAAirdropCommit",
      "outputs": [],
      "stateMutability": "nonpayable",
      "type": "function"
    },
    {
      "inputs": [],
      "name": "totalPoint",
      "outputs": [
        {
          "internalType": "uint256",
          "name": "",
          "type": "uint256"
        }
      ],
      "stateMutability": "view",
      "type": "function"
    },
    {
      "inputs": [],
      "name": "totalPointRate",
      "outputs": [
        {
          "internalType": "uint256",
          "name": "",
          "type": "uint256"
        }
      ],
      "stateMutability": "view",
      "type": "function"
    },
    {
      "inputs": [
        {
          "internalType": "address",
          "name": "newOwner",
          "type": "address"
        }
      ],
      "name": "transferOwnership",
      "outputs": [],
      "stateMutability": "nonpayable",
      "type": "function"
    },
    {
      "inputs": [
        {
          "internalType": "address",
          "name": "newImplementation",
          "type": "address"
        }
      ],
      "name": "upgradeTo",
      "outputs": [],
      "stateMutability": "nonpayable",
      "type": "function"
    },
    {
      "inputs": [
        {
          "internalType": "address",
          "name": "newImplementation",
          "type": "address"
        },
        {
          "internalType": "bytes",
          "name": "data",
          "type": "bytes"
        }
      ],
      "name": "upgradeToAndCall",
      "outputs": [],
      "stateMutability": "payable",
      "type": "function"
    },
    {
      "inputs": [
        {
          "internalType": "address",
          "name": "",
          "type": "address"
        }
      ],
      "name": "userPoints",
      "outputs": [
        {
          "internalType": "uint256",
          "name": "",
          "type": "uint256"
        }
      ],
      "stateMutability": "view",
      "type": "function"
    },
    {
      "inputs": [
        {
          "internalType": "address",
          "name": "user",
          "type": "address"
        }
      ],
      "name": "viewClaimable",
      "outputs": [
        {
          "internalType": "uint256",
          "name": "",
          "type": "uint256"
        }
      ],
      "stateMutability": "nonpayable",
      "type": "function"
    },
    {
      "inputs": [
        {
          "internalType": "address",
          "name": "user",
          "type": "address"
        }
      ],
      "name": "viewUserPoint",
      "outputs": [
        {
          "internalType": "uint256",
          "name": "",
          "type": "uint256"
        }
      ],
      "stateMutability": "nonpayable",
      "type": "function"
    }
  ],
  "transactionHash": "0xb1c3bdfe155d8ac191bdf86199a9b461e3af2922510e6ef019ae1fd8259c53fb",
  "args": [],
  "numDeployments": 1,
  "solcInputHash": "4f1f45ca5fe8f6515b42ba0264732978",
  "bytecode": "0x60a06040523060805234801561001457600080fd5b5060805161269661004c600039600081816108210152818161086a01528181610d4401528181610d840152610e1701526126966000f3fe6080604052600436106102255760003560e01c806379502c5511610123578063aba62291116100ab578063ddc83fd11161006f578063ddc83fd114610661578063ebe2b12b14610681578063f1a8892214610697578063f2fde38b146106ac578063f50ddbc7146106cc57600080fd5b8063aba62291146105c8578063b87bf76e146105de578063c089bd741461060b578063c4d66de81461062b578063dbc4feb61461064b57600080fd5b806395082d25116100f257806395082d25146105185780639cc182a41461054c5780639dec3de014610565578063a8c66a5e1461057b578063ab422702146105a857600080fd5b806379502c55146104ae5780637b0a47ee146104ce5780638ceda37e146104e45780638da5cb5b146104fa57600080fd5b80634a3b68cc116101b157806356c807161161017557806356c80716146104055780636d8fda431461042557806370d1a2f21461043a578063715018a614610483578063756b54141461049857600080fd5b80634a3b68cc146103585780634e71d92d1461038e5780634f1ef286146103a357806350579efc146103b657806352d1902d146103f057600080fd5b806323628b57116101f857806323628b57146102ab5780633659cfe6146102e357806337586ef8146103035780633cb521ce146103235780634388afe61461034357600080fd5b80630c82acac1461022a5780630f4d53d81461025357806311748de3146102735780631619047414610295575b600080fd5b34801561023657600080fd5b5061024060d35481565b6040519081526020015b60405180910390f35b34801561025f57600080fd5b5061024061026e366004612192565b6106f9565b34801561027f57600080fd5b5061029361028e3660046121af565b610772565b005b3480156102a157600080fd5b5061024060ce5481565b3480156102b757600080fd5b506102cb6102c63660046121e4565b6107df565b6040516001600160a01b03909116815260200161024a565b3480156102ef57600080fd5b506102936102fe366004612192565b610817565b34801561030f57600080fd5b5061029361031e3660046121e4565b6108ff565b34801561032f57600080fd5b5061024061033e366004612192565b61096b565b34801561034f57600080fd5b50610293610a19565b34801561036457600080fd5b506102cb610373366004612192565b60ca602052600090815260409020546001600160a01b031681565b34801561039a57600080fd5b50610293610bd6565b6102936103b1366004612226565b610d3a565b3480156103c257600080fd5b5060d05460d15460d2546103d592919083565b6040805193845260208401929092529082015260600161024a565b3480156103fc57600080fd5b50610240610e0a565b34801561041157600080fd5b506102936104203660046121af565b610ebd565b34801561043157600080fd5b50610293610f1e565b34801561044657600080fd5b5061046e610455366004612192565b60cc602052600090815260409020805460019091015482565b6040805192835260208301919091520161024a565b34801561048f57600080fd5b5061029361105c565b3480156104a457600080fd5b5061024060d85481565b3480156104ba57600080fd5b5060cf546102cb906001600160a01b031681565b3480156104da57600080fd5b5061024060d95481565b3480156104f057600080fd5b5061024060d45481565b34801561050657600080fd5b506033546001600160a01b03166102cb565b34801561052457600080fd5b50610534670de0b6b3a764000081565b6040516001600160801b03909116815260200161024a565b34801561055857600080fd5b506105346402540be40081565b34801561057157600080fd5b5061024060d75481565b34801561058757600080fd5b50610240610596366004612192565b60cd6020526000908152604090205481565b3480156105b457600080fd5b506102936105c3366004612192565b611070565b3480156105d457600080fd5b5061024060d55481565b3480156105ea57600080fd5b506105fe6105f9366004612192565b6112ad565b60405161024a91906122ea565b34801561061757600080fd5b50610293610626366004612337565b611323565b34801561063757600080fd5b50610293610646366004612192565b6114b1565b34801561065757600080fd5b5061024060d65481565b34801561066d57600080fd5b5061029361067c3660046121e4565b611648565b34801561068d57600080fd5b5061024060da5481565b3480156106a357600080fd5b506102936116a9565b3480156106b857600080fd5b506102936106c7366004612192565b611940565b3480156106d857600080fd5b506102406106e7366004612192565b60c96020526000908152604090205481565b60006107048261096b565b506001600160a01b038216600090815260c960205260409020548015610769576001600160a01b038316600090815260cd60205260408120546107479042612366565b90506107616107568284612379565b60d95460d6546119b6565b949350505050565b50600092915050565b61077b83611a6b565b600061078d8260d554620151806119b6565b6001600160a01b038516600090815260cc60205260408120805492935091839183916107ba908490612366565b925050819055508160d760008282546107d39190612366565b90915550505050505050565b60cb60205281600052604060002081815481106107fb57600080fd5b6000918252602090912001546001600160a01b03169150829050565b6001600160a01b037f00000000000000000000000000000000000000000000000000000000000000001630036108685760405162461bcd60e51b815260040161085f90612390565b60405180910390fd5b7f00000000000000000000000000000000000000000000000000000000000000006001600160a01b03166108b160008051602061261a833981519152546001600160a01b031690565b6001600160a01b0316146108d75760405162461bcd60e51b815260040161085f906123dc565b6108e081611bbe565b604080516000808252602082019092526108fc91839190611bc6565b50565b61090882611a6b565b600061091a8260d454620151806119b6565b6001600160a01b038416600090815260cc6020526040812080549293509183918391610947908490612366565b925050819055508160d760008282546109609190612366565b909155505050505050565b600061097682611a6b565b60005b6001600160a01b038316600090815260cb60205260409020548110156109fc576001600160a01b038316600090815260cb602052604081208054839081106109c3576109c3612428565b6000918252602090912001546001600160a01b0316905080156109e9576109e981611a6b565b50806109f48161243e565b915050610979565b50506001600160a01b0316600090815260c9602052604090205490565b60cf60009054906101000a90046001600160a01b03166001600160a01b0316639b6b02bc6040518163ffffffff1660e01b8152600401602060405180830381865afa158015610a6c573d6000803e3d6000fd5b505050506040513d601f19601f82011682018060405250810190610a909190612457565b6001600160a01b0316630910a5106040518163ffffffff1660e01b8152600401608060405180830381865afa158015610acd573d6000803e3d6000fd5b505050506040513d601f19601f82011682018060405250810190610af19190612474565b5060dc55505060cf54604080516262667960e01b815290516001600160a01b039092169162626679916004808201926020929091908290030181865afa158015610b3f573d6000803e3d6000fd5b505050506040513d601f19601f82011682018060405250810190610b639190612457565b6001600160a01b03166318160ddd6040518163ffffffff1660e01b8152600401602060405180830381865afa158015610ba0573d6000803e3d6000fd5b505050506040513d601f19601f82011682018060405250810190610bc491906124aa565b60dd5560de805460ff19166001179055565b33610be081611a6b565b6000610beb826106f9565b90508015610ce15760cf60009054906101000a90046001600160a01b03166001600160a01b031663316cb88a6040518163ffffffff1660e01b8152600401602060405180830381865afa158015610c46573d6000803e3d6000fd5b505050506040513d601f19601f82011682018060405250810190610c6a9190612457565b60405163a9059cbb60e01b81526001600160a01b03848116600483015260248201849052919091169063a9059cbb906044016020604051808303816000875af1158015610cbb573d6000803e3d6000fd5b505050506040513d601f19601f82011682018060405250810190610cdf91906124c3565b505b6001600160a01b038216600081815260cd602052604090819020429055517f47cee97cb7acd717b3c0aa1435d004cd5b3c8c57d70dbceb4e4458bbd60e39d490610d2e9084815260200190565b60405180910390a25050565b6001600160a01b037f0000000000000000000000000000000000000000000000000000000000000000163003610d825760405162461bcd60e51b815260040161085f90612390565b7f00000000000000000000000000000000000000000000000000000000000000006001600160a01b0316610dcb60008051602061261a833981519152546001600160a01b031690565b6001600160a01b031614610df15760405162461bcd60e51b815260040161085f906123dc565b610dfa82611bbe565b610e0682826001611bc6565b5050565b6000306001600160a01b037f00000000000000000000000000000000000000000000000000000000000000001614610eaa5760405162461bcd60e51b815260206004820152603860248201527f555550535570677261646561626c653a206d757374206e6f742062652063616c60448201527f6c6564207468726f7567682064656c656761746563616c6c0000000000000000606482015260840161085f565b5060008051602061261a83398151915290565b610ec683611a6b565b6000610ed88260d554620151806119b6565b6001600160a01b038516600090815260cc6020526040812080549293509183918391610f059084906124e5565b925050819055508160d760008282546107d391906124e5565b60cf60009054906101000a90046001600160a01b03166001600160a01b0316639b6b02bc6040518163ffffffff1660e01b8152600401602060405180830381865afa158015610f71573d6000803e3d6000fd5b505050506040513d601f19601f82011682018060405250810190610f959190612457565b6001600160a01b031663daeea5ba6040518163ffffffff1660e01b8152600401602060405180830381865afa158015610fd2573d6000803e3d6000fd5b505050506040513d601f19601f82011682018060405250810190610ff69190612457565b6001600160a01b031663d8950f426040518163ffffffff1660e01b8152600401602060405180830381865afa158015611033573d6000803e3d6000fd5b505050506040513d601f19601f8201168201806040525081019061105791906124aa565b60db55565b611064611d36565b61106e6000611d90565b565b336001600160a01b0382168103611085575050565b60cf54604080516326dac0af60e21b815290516000926001600160a01b031691639b6b02bc9160048083019260209291908290030181865afa1580156110cf573d6000803e3d6000fd5b505050506040513d601f19601f820116820180604052508101906110f39190612457565b6001600160a01b031663daeea5ba6040518163ffffffff1660e01b8152600401602060405180830381865afa158015611130573d6000803e3d6000fd5b505050506040513d601f19601f820116820180604052508101906111549190612457565b6001600160a01b031663d8950f426040518163ffffffff1660e01b8152600401602060405180830381865afa158015611191573d6000803e3d6000fd5b505050506040513d601f19601f820116820180604052508101906111b591906124aa565b9050600060db541180156111ca57508060db54115b156111d457505050565b600060db8190556001600160a01b03808516825260cb60209081526040808420868416855260ca9092529092205416158015611212575060ce548154105b156112a75780546001810182556000828152602080822090920180546001600160a01b03199081166001600160a01b03888116918217909355835260ca9093526040909120805490921690861617905560d05481546002036112825760d15461127b90826124e5565b905061129b565b815460050361129b5760d25461129890826124e5565b90505b6112a58582611de2565b505b50505050565b6001600160a01b038116600090815260cb602090815260409182902080548351818402810184019094528084526060939283018282801561131757602002820191906000526020600020905b81546001600160a01b031681526001909101906020018083116112f9575b50505050509050919050565b60cf54604080516318b65c4560e11b815290516000926001600160a01b03169163316cb88a9160048083019260209291908290030181865afa15801561136d573d6000803e3d6000fd5b505050506040513d601f19601f820116820180604052508101906113919190612457565b6040516323b872dd60e01b8152336004820152306024820152604481018490529091506001600160a01b038216906323b872dd906064016020604051808303816000875af11580156113e7573d6000803e3d6000fd5b505050506040513d601f19601f8201168201806040525081019061140b91906124c3565b5060da54421061143a5761142262278d008361250e565b60d9556114324262278d006124e5565b60da55611479565b60004260da5461144a9190612366565b9050600060d9548261145c9190612379565b90508161146982866124e5565b611473919061250e565b60d95550505b6040518281527fe619301f0901e4a00d3162e32da1fe10865c5af10c99c45e134f72939166ab8f906020015b60405180910390a15050565b600054610100900460ff16158080156114d15750600054600160ff909116105b806114eb5750303b1580156114eb575060005460ff166001145b61154e5760405162461bcd60e51b815260206004820152602e60248201527f496e697469616c697a61626c653a20636f6e747261637420697320616c72656160448201526d191e481a5b9a5d1a585b1a5e995960921b606482015260840161085f565b6000805460ff191660011790558015611571576000805461ff0019166101001790555b611579611eb2565b611581611ee1565b61158a32611d90565b60cf80546001600160a01b0319166001600160a01b038416179055600560ce5560408051606081018252600a80825260326020830181905260c89290930182905260d05560d19190915560d255637735940060d35564037e11d60060d4556404a817c80060d555600060d9556116034262278d006124e5565b60da558015610e06576000805461ff0019169055604051600181527f7f26b83ff96e1f2b6a682f133852f6798a09c465da95921460cefb3847402498906020016114a5565b61165182611a6b565b60006116638260d454620151806119b6565b6001600160a01b038416600090815260cc60205260408120805492935091839183916116909084906124e5565b925050819055508160d7600082825461096091906124e5565b60de5460ff166116e45760405162461bcd60e51b815260040161085f906020808252600490820152630736330360e41b604082015260600190565b600033905060008060cf60009054906101000a90046001600160a01b03166001600160a01b0316626266796040518163ffffffff1660e01b8152600401602060405180830381865afa15801561173e573d6000803e3d6000fd5b505050506040513d601f19601f820116820180604052508101906117629190612457565b6001600160a01b03166318160ddd6040518163ffffffff1660e01b8152600401602060405180830381865afa15801561179f573d6000803e3d6000fd5b505050506040513d601f19601f820116820180604052508101906117c391906124aa565b905060dd5481116117ff5760405162461bcd60e51b815260040161085f906020808252600490820152637363303160e01b604082015260600190565b60cf60009054906101000a90046001600160a01b03166001600160a01b0316639b6b02bc6040518163ffffffff1660e01b8152600401602060405180830381865afa158015611852573d6000803e3d6000fd5b505050506040513d601f19601f820116820180604052508101906118769190612457565b6001600160a01b0316630910a5106040518163ffffffff1660e01b8152600401608060405180830381865afa1580156118b3573d6000803e3d6000fd5b505050506040513d601f19601f820116820180604052508101906118d79190612474565b5060dc54909450841191505080156118f15750600060dc54115b1561192757600061191960dc54846119099190612366565b6001670de0b6b3a76400006119b6565b90506119258482611de2565b505b5050600060dc81905560dd555060de805460ff19169055565b611948611d36565b6001600160a01b0381166119ad5760405162461bcd60e51b815260206004820152602660248201527f4f776e61626c653a206e6577206f776e657220697320746865207a65726f206160448201526564647265737360d01b606482015260840161085f565b6108fc81611d90565b60008080600019858709858702925082811083820303915050806000036119f0578382816119e6576119e66124f8565b0492505050611a64565b8084116119fc57600080fd5b600084868809851960019081018716968790049682860381900495909211909303600082900391909104909201919091029190911760038402600290811880860282030280860282030280860282030280860282030280860282030280860290910302029150505b9392505050565b6001600160a01b038116600090815260cc60205260409020805415801590611a97575060008160010154115b8015611aa65750428160010154105b15611afe576000816001015442611abd9190612366565b8254909150600090611aef9083611ae16402540be400670de0b6b3a7640000612530565b6001600160801b03166119b6565b9050611afb8482611de2565b50505b600060d854118015611b1157504260d854105b8015611b1f5750600060d754115b15611b7457600060d85442611b349190612366565b90506000611b5860d754836402540be400670de0b6b3a7640000611ae19190612530565b90508060d66000828254611b6c91906124e5565b909155505050505b6001600160a01b038216600090815260cd60205260408120549003611baf576001600160a01b038216600090815260cd602052604090204290555b42600190910181905560d85550565b6108fc611d36565b7f4910fdfa16fed3260ed0e7147f7cc6da11a60208b5b9406d12a635614ffd91435460ff1615611bfe57611bf983611f08565b505050565b826001600160a01b03166352d1902d6040518163ffffffff1660e01b8152600401602060405180830381865afa925050508015611c58575060408051601f3d908101601f19168201909252611c55918101906124aa565b60015b611cbb5760405162461bcd60e51b815260206004820152602e60248201527f45524331393637557067726164653a206e657720696d706c656d656e7461746960448201526d6f6e206973206e6f74205555505360901b606482015260840161085f565b60008051602061261a8339815191528114611d2a5760405162461bcd60e51b815260206004820152602960248201527f45524331393637557067726164653a20756e737570706f727465642070726f786044820152681a58589b195555525160ba1b606482015260840161085f565b50611bf9838383611fa4565b6033546001600160a01b0316331461106e5760405162461bcd60e51b815260206004820181905260248201527f4f776e61626c653a2063616c6c6572206973206e6f7420746865206f776e6572604482015260640161085f565b603380546001600160a01b038381166001600160a01b0319831681179093556040519116919082907f8be0079c531659141344cd1fd0a4f28419497f9722a3daafe3b4186f6b6457e090600090a35050565b6001600160a01b03828116600090815260ca602052604081205490911615611e6357611e1f8260d3546402540be4006001600160801b03166119b6565b6001600160a01b03808516600090815260ca6020908152604080832054909316825260c9905290812080549293508392909190611e5d9084906124e5565b90915550505b6001600160a01b038316600090815260c9602052604081208054849290611e8b9084906124e5565b909155505060d6548190611ea09084906124e5565b611eaa91906124e5565b60d655505050565b600054610100900460ff16611ed95760405162461bcd60e51b815260040161085f9061255b565b61106e611fc9565b600054610100900460ff1661106e5760405162461bcd60e51b815260040161085f9061255b565b6001600160a01b0381163b611f755760405162461bcd60e51b815260206004820152602d60248201527f455243313936373a206e657720696d706c656d656e746174696f6e206973206e60448201526c1bdd08184818dbdb9d1c9858dd609a1b606482015260840161085f565b60008051602061261a83398151915280546001600160a01b0319166001600160a01b0392909216919091179055565b611fad83611ff9565b600082511180611fba5750805b15611bf9576112a78383612039565b600054610100900460ff16611ff05760405162461bcd60e51b815260040161085f9061255b565b61106e33611d90565b61200281611f08565b6040516001600160a01b038216907fbc7cd75a20ee27fd9adebab32041f755214dbc6bffa90cc0225b39da2e5c2d3b90600090a250565b606061205e838360405180606001604052806027815260200161263a60279139612067565b90505b92915050565b6060600080856001600160a01b03168560405161208491906125ca565b600060405180830381855af49150503d80600081146120bf576040519150601f19603f3d011682016040523d82523d6000602084013e6120c4565b606091505b50915091506120d5868383876120df565b9695505050505050565b6060831561214e578251600003612147576001600160a01b0385163b6121475760405162461bcd60e51b815260206004820152601d60248201527f416464726573733a2063616c6c20746f206e6f6e2d636f6e7472616374000000604482015260640161085f565b5081610761565b61076183838151156121635781518083602001fd5b8060405162461bcd60e51b815260040161085f91906125e6565b6001600160a01b03811681146108fc57600080fd5b6000602082840312156121a457600080fd5b8135611a648161217d565b6000806000606084860312156121c457600080fd5b83356121cf8161217d565b95602085013595506040909401359392505050565b600080604083850312156121f757600080fd5b82356122028161217d565b946020939093013593505050565b634e487b7160e01b600052604160045260246000fd5b6000806040838503121561223957600080fd5b82356122448161217d565b9150602083013567ffffffffffffffff8082111561226157600080fd5b818501915085601f83011261227557600080fd5b81358181111561228757612287612210565b604051601f8201601f19908116603f011681019083821181831017156122af576122af612210565b816040528281528860208487010111156122c857600080fd5b8260208601602083013760006020848301015280955050505050509250929050565b6020808252825182820181905260009190848201906040850190845b8181101561232b5783516001600160a01b031683529284019291840191600101612306565b50909695505050505050565b60006020828403121561234957600080fd5b5035919050565b634e487b7160e01b600052601160045260246000fd5b8181038181111561206157612061612350565b808202811582820484141761206157612061612350565b6020808252602c908201527f46756e6374696f6e206d7573742062652063616c6c6564207468726f7567682060408201526b19195b1959d85d1958d85b1b60a21b606082015260800190565b6020808252602c908201527f46756e6374696f6e206d7573742062652063616c6c6564207468726f7567682060408201526b6163746976652070726f787960a01b606082015260800190565b634e487b7160e01b600052603260045260246000fd5b60006001820161245057612450612350565b5060010190565b60006020828403121561246957600080fd5b8151611a648161217d565b6000806000806080858703121561248a57600080fd5b505082516020840151604085015160609095015191969095509092509050565b6000602082840312156124bc57600080fd5b5051919050565b6000602082840312156124d557600080fd5b81518015158114611a6457600080fd5b8082018082111561206157612061612350565b634e487b7160e01b600052601260045260246000fd5b60008261252b57634e487b7160e01b600052601260045260246000fd5b500490565b6001600160801b0381811683821602808216919082811461255357612553612350565b505092915050565b6020808252602b908201527f496e697469616c697a61626c653a20636f6e7472616374206973206e6f74206960408201526a6e697469616c697a696e6760a81b606082015260800190565b60005b838110156125c15781810151838201526020016125a9565b50506000910152565b600082516125dc8184602087016125a6565b9190910192915050565b60208152600082518060208401526126058160408501602087016125a6565b601f01601f1916919091016040019291505056fe360894a13ba1a3210667c828492db98dca3e2076cc3735a920a3ca505d382bbc416464726573733a206c6f772d6c6576656c2064656c65676174652063616c6c206661696c6564a26469706673582212207bb75c43558b0845e35a778558bc111e84f1c7988fb4f68ffb5ea1c670727bee64736f6c63430008120033",
  "devdoc": {
    "events": {
      "AdminChanged(address,address)": {
        "details": "Emitted when the admin account has changed."
      },
      "BeaconUpgraded(address)": {
        "details": "Emitted when the beacon is changed."
      },
      "Initialized(uint8)": {
        "details": "Triggered when the contract has been initialized or reinitialized."
      },
      "Upgraded(address)": {
        "details": "Emitted when the implementation is upgraded."
      }
    },
    "kind": "dev",
    "methods": {
      "owner()": {
        "details": "Returns the address of the current owner."
      },
      "proxiableUUID()": {
        "details": "Implementation of the ERC1822 {proxiableUUID} function. This returns the storage slot used by the implementation. It is used to validate the implementation's compatibility when performing an upgrade. IMPORTANT: A proxy pointing at a proxiable contract should not be considered proxiable itself, because this risks bricking a proxy that upgrades to it, by delegating to itself until out of gas. Thus it is critical that this function revert if invoked through a proxy. This is guaranteed by the `notDelegated` modifier."
      },
      "renounceOwnership()": {
        "details": "Leaves the contract without owner. It will not be possible to call `onlyOwner` functions. Can only be called by the current owner. NOTE: Renouncing ownership will leave the contract without an owner, thereby disabling any functionality that is only available to the owner."
      },
      "transferOwnership(address)": {
        "details": "Transfers ownership of the contract to a new account (`newOwner`). Can only be called by the current owner."
      },
      "upgradeTo(address)": {
        "custom:oz-upgrades-unsafe-allow-reachable": "delegatecall",
        "details": "Upgrade the implementation of the proxy to `newImplementation`. Calls {_authorizeUpgrade}. Emits an {Upgraded} event."
      },
      "upgradeToAndCall(address,bytes)": {
        "custom:oz-upgrades-unsafe-allow-reachable": "delegatecall",
        "details": "Upgrade the implementation of the proxy to `newImplementation`, and subsequently execute the function call encoded in `data`. Calls {_authorizeUpgrade}. Emits an {Upgraded} event."
      }
    },
    "version": 1
  },
  "userdoc": {
    "kind": "user",
    "methods": {
      "maxInvites()": {
        "notice": "params"
      }
    },
    "version": 1
  },
  "storageLayout": {
    "storage": [
      {
        "astId": 590,
        "contract": "contracts/Airdrop.sol:Airdrop",
        "label": "_initialized",
        "offset": 0,
        "slot": "0",
        "type": "t_uint8"
      },
      {
        "astId": 593,
        "contract": "contracts/Airdrop.sol:Airdrop",
        "label": "_initializing",
        "offset": 1,
        "slot": "0",
        "type": "t_bool"
      },
      {
        "astId": 1812,
        "contract": "contracts/Airdrop.sol:Airdrop",
        "label": "__gap",
        "offset": 0,
        "slot": "1",
        "type": "t_array(t_uint256)50_storage"
      },
      {
        "astId": 10,
        "contract": "contracts/Airdrop.sol:Airdrop",
        "label": "_owner",
        "offset": 0,
        "slot": "51",
        "type": "t_address"
      },
      {
        "astId": 130,
        "contract": "contracts/Airdrop.sol:Airdrop",
        "label": "__gap",
        "offset": 0,
        "slot": "52",
        "type": "t_array(t_uint256)49_storage"
      },
      {
        "astId": 572,
        "contract": "contracts/Airdrop.sol:Airdrop",
        "label": "__gap",
        "offset": 0,
        "slot": "101",
        "type": "t_array(t_uint256)50_storage"
      },
      {
        "astId": 887,
        "contract": "contracts/Airdrop.sol:Airdrop",
        "label": "__gap",
        "offset": 0,
        "slot": "151",
        "type": "t_array(t_uint256)50_storage"
      },
      {
        "astId": 13402,
        "contract": "contracts/Airdrop.sol:Airdrop",
        "label": "userPoints",
        "offset": 0,
        "slot": "201",
        "type": "t_mapping(t_address,t_uint256)"
      },
      {
        "astId": 13406,
        "contract": "contracts/Airdrop.sol:Airdrop",
        "label": "referrers",
        "offset": 0,
        "slot": "202",
        "type": "t_mapping(t_address,t_address)"
      },
      {
        "astId": 13411,
        "contract": "contracts/Airdrop.sol:Airdrop",
        "label": "invites",
        "offset": 0,
        "slot": "203",
        "type": "t_mapping(t_address,t_array(t_address)dyn_storage)"
      },
      {
        "astId": 13421,
        "contract": "contracts/Airdrop.sol:Airdrop",
        "label": "stakePointCheckpoints",
        "offset": 0,
        "slot": "204",
        "type": "t_mapping(t_address,t_struct(StakePointCheckpoint)13416_storage)"
      },
      {
        "astId": 13425,
        "contract": "contracts/Airdrop.sol:Airdrop",
        "label": "latestClaimedAts",
        "offset": 0,
        "slot": "205",
        "type": "t_mapping(t_address,t_uint256)"
      },
      {
        "astId": 13428,
        "contract": "contracts/Airdrop.sol:Airdrop",
        "label": "maxInvites",
        "offset": 0,
        "slot": "206",
        "type": "t_uint256"
      },
      {
        "astId": 13431,
        "contract": "contracts/Airdrop.sol:Airdrop",
        "label": "config",
        "offset": 0,
        "slot": "207",
        "type": "t_contract(IConfig)20550"
      },
      {
        "astId": 13441,
        "contract": "contracts/Airdrop.sol:Airdrop",
        "label": "invitePoint",
        "offset": 0,
        "slot": "208",
        "type": "t_struct(InvitePoint)13438_storage"
      },
      {
        "astId": 13443,
        "contract": "contracts/Airdrop.sol:Airdrop",
        "label": "inviteEarnPointPercent",
        "offset": 0,
        "slot": "211",
        "type": "t_uint256"
      },
      {
        "astId": 13445,
        "contract": "contracts/Airdrop.sol:Airdrop",
        "label": "stakeInflation",
        "offset": 0,
        "slot": "212",
        "type": "t_uint256"
      },
      {
        "astId": 13447,
        "contract": "contracts/Airdrop.sol:Airdrop",
        "label": "liquidityStakeInflation",
        "offset": 0,
        "slot": "213",
        "type": "t_uint256"
      },
      {
        "astId": 13449,
        "contract": "contracts/Airdrop.sol:Airdrop",
        "label": "totalPoint",
        "offset": 0,
        "slot": "214",
        "type": "t_uint256"
      },
      {
        "astId": 13451,
        "contract": "contracts/Airdrop.sol:Airdrop",
        "label": "totalPointRate",
        "offset": 0,
        "slot": "215",
        "type": "t_uint256"
      },
      {
        "astId": 13453,
        "contract": "contracts/Airdrop.sol:Airdrop",
        "label": "latestCheckPoint",
        "offset": 0,
        "slot": "216",
        "type": "t_uint256"
      },
      {
        "astId": 13455,
        "contract": "contracts/Airdrop.sol:Airdrop",
        "label": "rewardRate",
        "offset": 0,
        "slot": "217",
        "type": "t_uint256"
      },
      {
        "astId": 13457,
        "contract": "contracts/Airdrop.sol:Airdrop",
        "label": "periodFinish",
        "offset": 0,
        "slot": "218",
        "type": "t_uint256"
      },
      {
        "astId": 13595,
        "contract": "contracts/Airdrop.sol:Airdrop",
        "label": "_lastExerciseAmount",
        "offset": 0,
        "slot": "219",
        "type": "t_uint256"
      },
      {
        "astId": 13725,
        "contract": "contracts/Airdrop.sol:Airdrop",
        "label": "_marketSupport",
        "offset": 0,
        "slot": "220",
        "type": "t_uint256"
      },
      {
        "astId": 13727,
        "contract": "contracts/Airdrop.sol:Airdrop",
        "label": "_utilityTokenSupply",
        "offset": 0,
        "slot": "221",
        "type": "t_uint256"
      },
      {
        "astId": 13729,
        "contract": "contracts/Airdrop.sol:Airdrop",
        "label": "_startSwap",
        "offset": 0,
        "slot": "222",
        "type": "t_bool"
      }
    ],
    "types": {
      "t_address": {
        "encoding": "inplace",
        "label": "address",
        "numberOfBytes": "20"
      },
      "t_array(t_address)dyn_storage": {
        "base": "t_address",
        "encoding": "dynamic_array",
        "label": "address[]",
        "numberOfBytes": "32"
      },
      "t_array(t_uint256)49_storage": {
        "base": "t_uint256",
        "encoding": "inplace",
        "label": "uint256[49]",
        "numberOfBytes": "1568"
      },
      "t_array(t_uint256)50_storage": {
        "base": "t_uint256",
        "encoding": "inplace",
        "label": "uint256[50]",
        "numberOfBytes": "1600"
      },
      "t_bool": {
        "encoding": "inplace",
        "label": "bool",
        "numberOfBytes": "1"
      },
      "t_contract(IConfig)20550": {
        "encoding": "inplace",
        "label": "contract IConfig",
        "numberOfBytes": "20"
      },
      "t_mapping(t_address,t_address)": {
        "encoding": "mapping",
        "key": "t_address",
        "label": "mapping(address => address)",
        "numberOfBytes": "32",
        "value": "t_address"
      },
      "t_mapping(t_address,t_array(t_address)dyn_storage)": {
        "encoding": "mapping",
        "key": "t_address",
        "label": "mapping(address => address[])",
        "numberOfBytes": "32",
        "value": "t_array(t_address)dyn_storage"
      },
      "t_mapping(t_address,t_struct(StakePointCheckpoint)13416_storage)": {
        "encoding": "mapping",
        "key": "t_address",
        "label": "mapping(address => struct Airdrop.StakePointCheckpoint)",
        "numberOfBytes": "32",
        "value": "t_struct(StakePointCheckpoint)13416_storage"
      },
      "t_mapping(t_address,t_uint256)": {
        "encoding": "mapping",
        "key": "t_address",
        "label": "mapping(address => uint256)",
        "numberOfBytes": "32",
        "value": "t_uint256"
      },
      "t_struct(InvitePoint)13438_storage": {
        "encoding": "inplace",
        "label": "struct Airdrop.InvitePoint",
        "members": [
          {
            "astId": 13433,
            "contract": "contracts/Airdrop.sol:Airdrop",
            "label": "basicPoint",
            "offset": 0,
            "slot": "0",
            "type": "t_uint256"
          },
          {
            "astId": 13435,
            "contract": "contracts/Airdrop.sol:Airdrop",
            "label": "invite2Point",
            "offset": 0,
            "slot": "1",
            "type": "t_uint256"
          },
          {
            "astId": 13437,
            "contract": "contracts/Airdrop.sol:Airdrop",
            "label": "invite5Point",
            "offset": 0,
            "slot": "2",
            "type": "t_uint256"
          }
        ],
        "numberOfBytes": "96"
      },
      "t_struct(StakePointCheckpoint)13416_storage": {
        "encoding": "inplace",
        "label": "struct Airdrop.StakePointCheckpoint",
        "members": [
          {
            "astId": 13413,
            "contract": "contracts/Airdrop.sol:Airdrop",
            "label": "pointRate",
            "offset": 0,
            "slot": "0",
            "type": "t_uint256"
          },
          {
            "astId": 13415,
            "contract": "contracts/Airdrop.sol:Airdrop",
            "label": "latestCheckPoint",
            "offset": 0,
            "slot": "1",
            "type": "t_uint256"
          }
        ],
        "numberOfBytes": "64"
      },
      "t_uint256": {
        "encoding": "inplace",
        "label": "uint256",
        "numberOfBytes": "32"
      },
      "t_uint8": {
        "encoding": "inplace",
        "label": "uint8",
        "numberOfBytes": "1"
      }
    }
  }
}