{
  "address": "0x8C8Db80b14C928DA222B88937A0643C48c7B0b66",
  "abi": [
    {
      "inputs": [
        {
          "internalType": "address",
          "name": "acceptCoin_",
          "type": "address"
        },
        {
          "internalType": "int128",
          "name": "acceptCoinIndex_",
          "type": "int128"
        },
        {
          "internalType": "contract IConfig",
          "name": "config_",
          "type": "address"
        }
      ],
      "stateMutability": "nonpayable",
      "type": "constructor"
    },
    {
      "inputs": [],
      "name": "acceptCoin",
      "outputs": [
        {
          "internalType": "address",
          "name": "",
          "type": "address"
        }
      ],
      "stateMutability": "view",
      "type": "function"
    },
    {
      "inputs": [],
      "name": "acceptCoinIndex",
      "outputs": [
        {
          "internalType": "int128",
          "name": "",
          "type": "int128"
        }
      ],
      "stateMutability": "view",
      "type": "function"
    },
    {
      "inputs": [
        {
          "internalType": "uint256",
          "name": "payAmount",
          "type": "uint256"
        },
        {
          "internalType": "uint256",
          "name": "minLPAmount",
          "type": "uint256"
        },
        {
          "internalType": "uint256",
          "name": "mintVammAmount",
          "type": "uint256"
        }
      ],
      "name": "buy",
      "outputs": [],
      "stateMutability": "nonpayable",
      "type": "function"
    },
    {
      "inputs": [
        {
          "internalType": "uint256",
          "name": "buyAmount",
          "type": "uint256"
        },
        {
          "internalType": "uint256",
          "name": "minLPAmount",
          "type": "uint256"
        },
        {
          "internalType": "uint256",
          "name": "maxPayAmount",
          "type": "uint256"
        }
      ],
      "name": "buyWithPRToken",
      "outputs": [],
      "stateMutability": "nonpayable",
      "type": "function"
    },
    {
      "inputs": [
        {
          "internalType": "uint256",
          "name": "payAmount",
          "type": "uint256"
        }
      ],
      "name": "calcDeposit",
      "outputs": [
        {
          "internalType": "uint256",
          "name": "",
          "type": "uint256"
        }
      ],
      "stateMutability": "view",
      "type": "function"
    },
    {
      "inputs": [
        {
          "internalType": "uint256",
          "name": "tokenAmount",
          "type": "uint256"
        }
      ],
      "name": "calcWithdraw",
      "outputs": [
        {
          "internalType": "uint256",
          "name": "",
          "type": "uint256"
        }
      ],
      "stateMutability": "view",
      "type": "function"
    },
    {
      "inputs": [],
      "name": "config",
      "outputs": [
        {
          "internalType": "contract IConfig",
          "name": "",
          "type": "address"
        }
      ],
      "stateMutability": "view",
      "type": "function"
    },
    {
      "inputs": [],
      "name": "curvePool",
      "outputs": [
        {
          "internalType": "address",
          "name": "",
          "type": "address"
        }
      ],
      "stateMutability": "view",
      "type": "function"
    },
    {
      "inputs": [],
      "name": "get_virtual_price",
      "outputs": [
        {
          "internalType": "uint256",
          "name": "",
          "type": "uint256"
        }
      ],
      "stateMutability": "view",
      "type": "function"
    },
    {
      "inputs": [
        {
          "internalType": "uint256",
          "name": "burnAmount",
          "type": "uint256"
        },
        {
          "internalType": "uint256",
          "name": "minReceive2CRVAmount",
          "type": "uint256"
        },
        {
          "internalType": "uint256",
          "name": "minReceiveUSDTAmount",
          "type": "uint256"
        }
      ],
      "name": "sell",
      "outputs": [],
      "stateMutability": "nonpayable",
      "type": "function"
    }
  ],
  "transactionHash": "0xd09eb456a92f382059fe2c8f71f4df3ead915e919a683070e5b2813d7f183724",
  "args": [
    "0xFF970A61A04b1cA14834A43f5dE4533eBDDB5CC8",
    0,
    "0x1218554369a87Ce4B29F6De3C050C2D13BE9E71D"
  ],
  "numDeployments": 1,
  "solcInputHash": "9e3433254464ad8d77185c6cb44a57d0",
  "bytecode": "0x60c060405234801561001057600080fd5b50604051620015923803806200159283398101604081905261003191610077565b600080546001600160a01b0319166001600160a01b0392831617905591909116608052600f0b60a0526100cb565b6001600160a01b038116811461007457600080fd5b50565b60008060006060848603121561008c57600080fd5b83516100978161005f565b80935050602084015180600f0b81146100af57600080fd5b60408501519092506100c08161005f565b809150509250925092565b60805160a0516114696200012960003960008181610108015281816104d3015281816109c701528181610d0c01526112260152600081816101a4015281816102d2015281816103a301528181610873015261093b01526114696000f3fe608060405234801561001057600080fd5b506004361061009e5760003560e01c80638f2b29a7116100665780638f2b29a7146101505780639b05f5e414610171578063bb7b8b8014610184578063d3c9727c1461018c578063f1073a741461019f57600080fd5b8063218751b2146100a357806333f2fdbf146100db57806340993b26146100f057806346d50bd11461010357806379502c551461013d575b600080fd5b6100be737f90122bf0700f9e7e1f688fe926940e8839f35381565b6040516001600160a01b0390911681526020015b60405180910390f35b6100ee6100e93660046112bc565b6101c6565b005b6100ee6100fe3660046112bc565b6107e1565b61012a7f000000000000000000000000000000000000000000000000000000000000000081565b604051600f9190910b81526020016100d2565b6000546100be906001600160a01b031681565b61016361015e3660046112e8565b610c60565b6040519081526020016100d2565b61016361017f3660046112e8565b610cf6565b610163610d9c565b6100ee61019a3660046112bc565b610e19565b6100be7f000000000000000000000000000000000000000000000000000000000000000081565b60008060009054906101000a90046001600160a01b03166001600160a01b031663316cb88a6040518163ffffffff1660e01b8152600401602060405180830381865afa15801561021a573d6000803e3d6000fd5b505050506040513d601f19601f8201168201806040525081019061023e9190611319565b905060008060009054906101000a90046001600160a01b03166001600160a01b0316639b6b02bc6040518163ffffffff1660e01b8152600401602060405180830381865afa158015610294573d6000803e3d6000fd5b505050506040513d601f19601f820116820180604052508101906102b89190611319565b6040516323b872dd60e01b81529091506001600160a01b037f000000000000000000000000000000000000000000000000000000000000000016906323b872dd9061030b90339030908890600401611336565b6020604051808303816000875af115801561032a573d6000803e3d6000fd5b505050506040513d601f19601f8201168201806040525081019061034e919061135a565b6103735760405162461bcd60e51b815260040161036a9061137c565b60405180910390fd5b60405163095ea7b360e01b8152737f90122bf0700f9e7e1f688fe926940e8839f3536004820152602481018490527f00000000000000000000000000000000000000000000000000000000000000006001600160a01b03169063095ea7b3906044016020604051808303816000875af11580156103f4573d6000803e3d6000fd5b505050506040513d601f19601f82011682018060405250810190610418919061135a565b506040516323b872dd60e01b81526001600160a01b038316906323b872dd9061044990339030908a90600401611336565b6020604051808303816000875af1158015610468573d6000803e3d6000fd5b505050506040513d601f19601f8201168201806040525081019061048c919061135a565b6104bd5760405162461bcd60e51b8152602060048201526002602482015261623160f01b604482015260640161036a565b60408051808201909152838152602081018490527f0000000000000000000000000000000000000000000000000000000000000000600f0b60000361050b5783815260006020820152610517565b60008152602081018490525b6040516370a0823160e01b8152306004820152737f90122bf0700f9e7e1f688fe926940e8839f3539060009082906370a0823190602401602060405180830381865afa15801561056b573d6000803e3d6000fd5b505050506040513d601f19601f8201168201806040525081019061058f9190611398565b604051630b4c7e4d60e01b81529091506001600160a01b03831690630b4c7e4d906105c09086908b906004016113da565b6020604051808303816000875af11580156105df573d6000803e3d6000fd5b505050506040513d601f19601f820116820180604052508101906106039190611398565b506040516370a0823160e01b815230600482015260009082906001600160a01b038516906370a0823190602401602060405180830381865afa15801561064d573d6000803e3d6000fd5b505050506040513d601f19601f820116820180604052508101906106719190611398565b61067b91906113f5565b60405163095ea7b360e01b81526001600160a01b038781166004830152602482018390529192509084169063095ea7b3906044016020604051808303816000875af11580156106ce573d6000803e3d6000fd5b505050506040513d601f19601f820116820180604052508101906106f2919061135a565b5060405163095ea7b360e01b81526001600160a01b038681166004830152602482018b905287169063095ea7b3906044016020604051808303816000875af1158015610742573d6000803e3d6000fd5b505050506040513d601f19601f82011682018060405250810190610766919061135a565b50604051631a1c20f160e01b81526001600160a01b038481166004830152602482018b905260448201839052336064830152861690631a1c20f190608401600060405180830381600087803b1580156107be57600080fd5b505af11580156107d2573d6000803e3d6000fd5b50505050505050505050505050565b60008060009054906101000a90046001600160a01b03166001600160a01b0316639b6b02bc6040518163ffffffff1660e01b8152600401602060405180830381865afa158015610835573d6000803e3d6000fd5b505050506040513d601f19601f820116820180604052508101906108599190611319565b6040516323b872dd60e01b81529091506001600160a01b037f000000000000000000000000000000000000000000000000000000000000000016906323b872dd906108ac90339030908990600401611336565b6020604051808303816000875af11580156108cb573d6000803e3d6000fd5b505050506040513d601f19601f820116820180604052508101906108ef919061135a565b61090b5760405162461bcd60e51b815260040161036a9061137c565b60405163095ea7b360e01b8152737f90122bf0700f9e7e1f688fe926940e8839f3536004820152602481018590527f00000000000000000000000000000000000000000000000000000000000000006001600160a01b03169063095ea7b3906044016020604051808303816000875af115801561098c573d6000803e3d6000fd5b505050506040513d601f19601f820116820180604052508101906109b0919061135a565b5060408051808201909152848152602081018590527f0000000000000000000000000000000000000000000000000000000000000000600f0b6000036109ff5784815260006020820152610a0b565b60008152602081018590525b6040516370a0823160e01b8152306004820152737f90122bf0700f9e7e1f688fe926940e8839f3539060009082906370a0823190602401602060405180830381865afa158015610a5f573d6000803e3d6000fd5b505050506040513d601f19601f82011682018060405250810190610a839190611398565b604051630b4c7e4d60e01b81529091506001600160a01b03831690630b4c7e4d90610ab49086908a906004016113da565b6020604051808303816000875af1158015610ad3573d6000803e3d6000fd5b505050506040513d601f19601f82011682018060405250810190610af79190611398565b506040516370a0823160e01b815230600482015260009082906001600160a01b038516906370a0823190602401602060405180830381865afa158015610b41573d6000803e3d6000fd5b505050506040513d601f19601f82011682018060405250810190610b659190611398565b610b6f91906113f5565b60405163095ea7b360e01b81526001600160a01b038781166004830152602482018390529192509084169063095ea7b3906044016020604051808303816000875af1158015610bc2573d6000803e3d6000fd5b505050506040513d601f19601f82011682018060405250810190610be6919061135a565b50604051637ba5ff4760e11b81526001600160a01b038481166004830152602482018890526044820183905233606483015286169063f74bfe8e90608401600060405180830381600087803b158015610c3e57600080fd5b505af1158015610c52573d6000803e3d6000fd5b505050505050505050505050565b604080518082018252828152600060208201819052915163ed8e84f360e01b8152737f90122bf0700f9e7e1f688fe926940e8839f3539063ed8e84f390610cae908490600190600401611416565b602060405180830381865afa158015610ccb573d6000803e3d6000fd5b505050506040513d601f19601f82011682018060405250810190610cef9190611398565b9392505050565b60405163cc2b27d760e01b8152600481018290527f0000000000000000000000000000000000000000000000000000000000000000600f0b6024820152600090737f90122bf0700f9e7e1f688fe926940e8839f3539063cc2b27d790604401602060405180830381865afa158015610d72573d6000803e3d6000fd5b505050506040513d601f19601f82011682018060405250810190610d969190611398565b92915050565b6000737f90122bf0700f9e7e1f688fe926940e8839f3536001600160a01b031663bb7b8b806040518163ffffffff1660e01b8152600401602060405180830381865afa158015610df0573d6000803e3d6000fd5b505050506040513d601f19601f82011682018060405250810190610e149190611398565b905090565b60008060009054906101000a90046001600160a01b03166001600160a01b0316639b6b02bc6040518163ffffffff1660e01b8152600401602060405180830381865afa158015610e6d573d6000803e3d6000fd5b505050506040513d601f19601f82011682018060405250810190610e919190611319565b905060008060009054906101000a90046001600160a01b03166001600160a01b0316626266796040518163ffffffff1660e01b8152600401602060405180830381865afa158015610ee6573d6000803e3d6000fd5b505050506040513d601f19601f82011682018060405250810190610f0a9190611319565b6040516323b872dd60e01b81529091506001600160a01b038216906323b872dd90610f3d90339030908a90600401611336565b6020604051808303816000875af1158015610f5c573d6000803e3d6000fd5b505050506040513d601f19601f82011682018060405250810190610f80919061135a565b5060405163095ea7b360e01b81526001600160a01b0383811660048301526024820187905282169063095ea7b3906044016020604051808303816000875af1158015610fd0573d6000803e3d6000fd5b505050506040513d601f19601f82011682018060405250810190610ff4919061135a565b506040516370a0823160e01b8152306004820152737f90122bf0700f9e7e1f688fe926940e8839f3539060009082906370a0823190602401602060405180830381865afa158015611049573d6000803e3d6000fd5b505050506040513d601f19601f8201168201806040525081019061106d9190611398565b604051630bf7be2160e41b815260048101899052737f90122bf0700f9e7e1f688fe926940e8839f3536024820152604481018890523060648201529091506001600160a01b0385169063bf7be21090608401600060405180830381600087803b1580156110d957600080fd5b505af11580156110ed573d6000803e3d6000fd5b50506040516370a0823160e01b8152306004820152600092508391506001600160a01b038516906370a0823190602401602060405180830381865afa15801561113a573d6000803e3d6000fd5b505050506040513d601f19601f8201168201806040525081019061115e9190611398565b61116891906113f5565b90508681101561118a5760405162461bcd60e51b815260040161036a9061137c565b60405163095ea7b360e01b8152737f90122bf0700f9e7e1f688fe926940e8839f3536004820152602481018290526001600160a01b0384169063095ea7b3906044016020604051808303816000875af11580156111eb573d6000803e3d6000fd5b505050506040513d601f19601f8201168201806040525081019061120f919061135a565b5060405163081579a560e01b8152600481018290527f0000000000000000000000000000000000000000000000000000000000000000600f0b6024820152604481018790523360648201526001600160a01b0384169063081579a5906084016020604051808303816000875af115801561128d573d6000803e3d6000fd5b505050506040513d601f19601f820116820180604052508101906112b19190611398565b505050505050505050565b6000806000606084860312156112d157600080fd5b505081359360208301359350604090920135919050565b6000602082840312156112fa57600080fd5b5035919050565b6001600160a01b038116811461131657600080fd5b50565b60006020828403121561132b57600080fd5b8151610cef81611301565b6001600160a01b039384168152919092166020820152604081019190915260600190565b60006020828403121561136c57600080fd5b81518015158114610cef57600080fd5b602080825260029082015261062360f41b604082015260600190565b6000602082840312156113aa57600080fd5b5051919050565b8060005b60028110156113d45781518452602093840193909101906001016113b5565b50505050565b606081016113e882856113b1565b8260408301529392505050565b81810381811115610d9657634e487b7160e01b600052601160045260246000fd5b6060810161142482856113b1565b8215156040830152939250505056fea264697066735822122062474ee4967dc40248a789bd74a6749d983944ac5789565f434729d95e66194764736f6c63430008120033",
  "devdoc": {
    "kind": "dev",
    "methods": {},
    "version": 1
  },
  "userdoc": {
    "kind": "user",
    "methods": {},
    "version": 1
  },
  "storageLayout": {
    "storage": [
      {
        "astId": 12033,
        "contract": "contracts/curve/Bridged2CRVProxy.sol:Bridged2CRVProxy",
        "label": "config",
        "offset": 0,
        "slot": "0",
        "type": "t_contract(IConfig)12016"
      }
    ],
    "types": {
      "t_contract(IConfig)12016": {
        "encoding": "inplace",
        "label": "contract IConfig",
        "numberOfBytes": "20"
      }
    }
  }
}