{
  "address": "0xFaCA20a0078221d42824b78E818fF69a599F71C8",
  "abi": [
    {
      "anonymous": false,
      "inputs": [
        {
          "indexed": false,
          "internalType": "address",
          "name": "previousAdmin",
          "type": "address"
        },
        {
          "indexed": false,
          "internalType": "address",
          "name": "newAdmin",
          "type": "address"
        }
      ],
      "name": "AdminChanged",
      "type": "event"
    },
    {
      "anonymous": false,
      "inputs": [
        {
          "indexed": true,
          "internalType": "address",
          "name": "beacon",
          "type": "address"
        }
      ],
      "name": "BeaconUpgraded",
      "type": "event"
    },
    {
      "anonymous": false,
      "inputs": [
        {
          "indexed": false,
          "internalType": "uint8",
          "name": "version",
          "type": "uint8"
        }
      ],
      "name": "Initialized",
      "type": "event"
    },
    {
      "anonymous": false,
      "inputs": [
        {
          "indexed": true,
          "internalType": "address",
          "name": "previousOwner",
          "type": "address"
        },
        {
          "indexed": true,
          "internalType": "address",
          "name": "newOwner",
          "type": "address"
        }
      ],
      "name": "OwnershipTransferred",
      "type": "event"
    },
    {
      "anonymous": false,
      "inputs": [
        {
          "indexed": true,
          "internalType": "address",
          "name": "implementation",
          "type": "address"
        }
      ],
      "name": "Upgraded",
      "type": "event"
    },
    {
      "inputs": [
        {
          "internalType": "address",
          "name": "operator_",
          "type": "address"
        }
      ],
      "name": "checkIsOperator",
      "outputs": [
        {
          "internalType": "bool",
          "name": "",
          "type": "bool"
        }
      ],
      "stateMutability": "view",
      "type": "function"
    },
    {
      "inputs": [],
      "name": "getCurveStableCoin2CRVPoolAddress",
      "outputs": [
        {
          "internalType": "address",
          "name": "",
          "type": "address"
        }
      ],
      "stateMutability": "view",
      "type": "function"
    },
    {
      "inputs": [],
      "name": "getFeeRouter",
      "outputs": [
        {
          "internalType": "contract IFeeRouter",
          "name": "",
          "type": "address"
        }
      ],
      "stateMutability": "view",
      "type": "function"
    },
    {
      "inputs": [],
      "name": "getGovToken",
      "outputs": [
        {
          "internalType": "contract IUtilityToken",
          "name": "",
          "type": "address"
        }
      ],
      "stateMutability": "view",
      "type": "function"
    },
    {
      "inputs": [],
      "name": "getInitializedVersion",
      "outputs": [
        {
          "internalType": "uint8",
          "name": "",
          "type": "uint8"
        }
      ],
      "stateMutability": "view",
      "type": "function"
    },
    {
      "inputs": [],
      "name": "getLiquidityStakeAddress",
      "outputs": [
        {
          "internalType": "address",
          "name": "",
          "type": "address"
        }
      ],
      "stateMutability": "view",
      "type": "function"
    },
    {
      "inputs": [],
      "name": "getMaxOnceExchangeAmount",
      "outputs": [
        {
          "internalType": "uint256",
          "name": "",
          "type": "uint256"
        }
      ],
      "stateMutability": "view",
      "type": "function"
    },
    {
      "inputs": [],
      "name": "getMinterAddress",
      "outputs": [
        {
          "internalType": "address",
          "name": "",
          "type": "address"
        }
      ],
      "stateMutability": "view",
      "type": "function"
    },
    {
      "inputs": [],
      "name": "getPRToken",
      "outputs": [
        {
          "internalType": "contract IUtilityToken",
          "name": "",
          "type": "address"
        }
      ],
      "stateMutability": "view",
      "type": "function"
    },
    {
      "inputs": [],
      "name": "getStableCoinToken",
      "outputs": [
        {
          "internalType": "contract IUtilityToken",
          "name": "",
          "type": "address"
        }
      ],
      "stateMutability": "view",
      "type": "function"
    },
    {
      "inputs": [],
      "name": "getStableCoins",
      "outputs": [
        {
          "internalType": "address[]",
          "name": "",
          "type": "address[]"
        }
      ],
      "stateMutability": "view",
      "type": "function"
    },
    {
      "inputs": [],
      "name": "getUtilityStakeAddress",
      "outputs": [
        {
          "internalType": "address",
          "name": "",
          "type": "address"
        }
      ],
      "stateMutability": "view",
      "type": "function"
    },
    {
      "inputs": [],
      "name": "getUtilityToken",
      "outputs": [
        {
          "internalType": "contract IUtilityToken",
          "name": "",
          "type": "address"
        }
      ],
      "stateMutability": "view",
      "type": "function"
    },
    {
      "inputs": [],
      "name": "getVAMMAddress",
      "outputs": [
        {
          "internalType": "address",
          "name": "",
          "type": "address"
        }
      ],
      "stateMutability": "view",
      "type": "function"
    },
    {
      "inputs": [
        {
          "internalType": "address",
          "name": "stablecoin",
          "type": "address"
        }
      ],
      "name": "getVAMMStableCoin",
      "outputs": [
        {
          "components": [
            {
              "internalType": "bool",
              "name": "buyEnabled",
              "type": "bool"
            },
            {
              "internalType": "bool",
              "name": "sellEnabled",
              "type": "bool"
            },
            {
              "internalType": "bool",
              "name": "exists",
              "type": "bool"
            },
            {
              "internalType": "address",
              "name": "gauge",
              "type": "address"
            },
            {
              "internalType": "bool",
              "name": "isMetaGauge",
              "type": "bool"
            }
          ],
          "internalType": "struct IConfig.StableCoinEnabled",
          "name": "",
          "type": "tuple"
        }
      ],
      "stateMutability": "view",
      "type": "function"
    },
    {
      "inputs": [
        {
          "internalType": "address",
          "name": "liquidityStake_",
          "type": "address"
        }
      ],
      "name": "initLiquidityStake",
      "outputs": [],
      "stateMutability": "nonpayable",
      "type": "function"
    },
    {
      "inputs": [
        {
          "internalType": "address",
          "name": "minter_",
          "type": "address"
        }
      ],
      "name": "initMinter",
      "outputs": [],
      "stateMutability": "nonpayable",
      "type": "function"
    },
    {
      "inputs": [
        {
          "internalType": "address",
          "name": "stakeAddress_",
          "type": "address"
        }
      ],
      "name": "initUtilityStake",
      "outputs": [],
      "stateMutability": "nonpayable",
      "type": "function"
    },
    {
      "inputs": [
        {
          "internalType": "address",
          "name": "vammAddress_",
          "type": "address"
        }
      ],
      "name": "initVAMM",
      "outputs": [],
      "stateMutability": "nonpayable",
      "type": "function"
    },
    {
      "inputs": [
        {
          "internalType": "contract IFeeRouter",
          "name": "feerouter_",
          "type": "address"
        },
        {
          "internalType": "contract IUtilityToken",
          "name": "utilityToken_",
          "type": "address"
        },
        {
          "internalType": "contract IUtilityToken",
          "name": "govToken_",
          "type": "address"
        },
        {
          "internalType": "contract IUtilityToken",
          "name": "prToken_",
          "type": "address"
        },
        {
          "internalType": "contract IUtilityToken",
          "name": "stableCoinToken_",
          "type": "address"
        },
        {
          "internalType": "uint256",
          "name": "maxOnceExchangeAmount_",
          "type": "uint256"
        },
        {
          "internalType": "uint256",
          "name": "initMarketBuyfee_",
          "type": "uint256"
        },
        {
          "internalType": "uint256",
          "name": "initMarketSellfee_",
          "type": "uint256"
        }
      ],
      "name": "initialize",
      "outputs": [],
      "stateMutability": "nonpayable",
      "type": "function"
    },
    {
      "inputs": [],
      "name": "marketBuyfee",
      "outputs": [
        {
          "internalType": "uint256",
          "name": "",
          "type": "uint256"
        }
      ],
      "stateMutability": "view",
      "type": "function"
    },
    {
      "inputs": [],
      "name": "marketSellfee",
      "outputs": [
        {
          "internalType": "uint256",
          "name": "",
          "type": "uint256"
        }
      ],
      "stateMutability": "view",
      "type": "function"
    },
    {
      "inputs": [],
      "name": "owner",
      "outputs": [
        {
          "internalType": "address",
          "name": "",
          "type": "address"
        }
      ],
      "stateMutability": "view",
      "type": "function"
    },
    {
      "inputs": [],
      "name": "proxiableUUID",
      "outputs": [
        {
          "internalType": "bytes32",
          "name": "",
          "type": "bytes32"
        }
      ],
      "stateMutability": "view",
      "type": "function"
    },
    {
      "inputs": [],
      "name": "renounceOwnership",
      "outputs": [],
      "stateMutability": "nonpayable",
      "type": "function"
    },
    {
      "inputs": [
        {
          "internalType": "address",
          "name": "operator_",
          "type": "address"
        },
        {
          "internalType": "bool",
          "name": "enabled_",
          "type": "bool"
        }
      ],
      "name": "setOperator",
      "outputs": [],
      "stateMutability": "nonpayable",
      "type": "function"
    },
    {
      "inputs": [
        {
          "internalType": "address",
          "name": "newOwner",
          "type": "address"
        }
      ],
      "name": "transferOwnership",
      "outputs": [],
      "stateMutability": "nonpayable",
      "type": "function"
    },
    {
      "inputs": [
        {
          "internalType": "uint256",
          "name": "buyFee",
          "type": "uint256"
        },
        {
          "internalType": "uint256",
          "name": "sellFee",
          "type": "uint256"
        }
      ],
      "name": "updateFees",
      "outputs": [],
      "stateMutability": "nonpayable",
      "type": "function"
    },
    {
      "inputs": [
        {
          "internalType": "uint256",
          "name": "maxOnceExchangeAmount_",
          "type": "uint256"
        }
      ],
      "name": "updateMaxOnceExchangeAmount",
      "outputs": [],
      "stateMutability": "nonpayable",
      "type": "function"
    },
    {
      "inputs": [
        {
          "internalType": "address",
          "name": "stableCoin_",
          "type": "address"
        },
        {
          "internalType": "bool",
          "name": "canBuy",
          "type": "bool"
        },
        {
          "internalType": "bool",
          "name": "canSell",
          "type": "bool"
        },
        {
          "internalType": "address",
          "name": "gauge_",
          "type": "address"
        },
        {
          "internalType": "bool",
          "name": "isMetaGauge",
          "type": "bool"
        }
      ],
      "name": "updateStableCoin",
      "outputs": [],
      "stateMutability": "nonpayable",
      "type": "function"
    },
    {
      "inputs": [
        {
          "internalType": "address",
          "name": "newImplementation",
          "type": "address"
        }
      ],
      "name": "upgradeTo",
      "outputs": [],
      "stateMutability": "nonpayable",
      "type": "function"
    },
    {
      "inputs": [
        {
          "internalType": "address",
          "name": "newImplementation",
          "type": "address"
        },
        {
          "internalType": "bytes",
          "name": "data",
          "type": "bytes"
        }
      ],
      "name": "upgradeToAndCall",
      "outputs": [],
      "stateMutability": "payable",
      "type": "function"
    },
    {
      "inputs": [
        {
          "internalType": "uint256",
          "name": "totalPrice",
          "type": "uint256"
        }
      ],
      "name": "vammBuyFees",
      "outputs": [
        {
          "internalType": "uint256",
          "name": "",
          "type": "uint256"
        }
      ],
      "stateMutability": "view",
      "type": "function"
    },
    {
      "inputs": [
        {
          "internalType": "uint256",
          "name": "totalPrice",
          "type": "uint256"
        }
      ],
      "name": "vammSellFees",
      "outputs": [
        {
          "internalType": "uint256",
          "name": "",
          "type": "uint256"
        }
      ],
      "stateMutability": "view",
      "type": "function"
    }
  ],
  "transactionHash": "0x43f2d3a4787f07b39e2931cad3facd230aa69661eb0dead71f333fe1d135ca85",
  "args": [],
  "numDeployments": 1,
  "solcInputHash": "4f1f45ca5fe8f6515b42ba0264732978",
  "bytecode": "0x60a06040523060805234801561001457600080fd5b50608051611b8e61004c60003960008181610840015281816108800152818161091f0152818161095f0152610a2a0152611b8e6000f3fe6080604052600436106101f85760003560e01c80638f8935d01161010d578063cbaa2e22116100a0578063e3fbec781161006f578063e3fbec7814610693578063e686ae8c146106b1578063ea6b5328146106c7578063ea9c5e0d146106e5578063f2fde38b1461070357600080fd5b8063cbaa2e2214610613578063cf0cccae14610633578063d11f3a5314610651578063e21959041461067157600080fd5b8063abc50505116100dc578063abc50505146105a6578063b3c65015146105bb578063c15092cc146105dd578063cb9ca959146105fd57600080fd5b80638f8935d01461052a57806393e5d42a1461054a5780639b6b02bc14610568578063a890eec11461058657600080fd5b80634f1ef286116101905780636db794371161015f5780636db7943714610497578063715018a6146104b75780637403c6cd146104cc57806381caaaf3146104ec5780638da5cb5b1461050c57600080fd5b80634f1ef28614610421578063522e37281461043457806352d1902d14610462578063558a72971461047757600080fd5b8063316cb88a116101cc578063316cb88a146103a7578063337ed93a146103c55780633659cfe6146103e357806343d9d6dc1461040357600080fd5b8062626679146101fd5780631f8e5f911461023457806328fd151f1461027d5780632f3d081414610385575b600080fd5b34801561020957600080fd5b5060cb546001600160a01b03165b6040516001600160a01b0390911681526020015b60405180910390f35b34801561024057600080fd5b5061026d61024f3660046115df565b6001600160a01b0316600090815260d8602052604090205460ff1690565b604051901515815260200161022b565b34801561028957600080fd5b506103376102983660046115df565b6040805160a081018252600080825260208201819052918101829052606081018290526080810191909152506001600160a01b03908116600090815260c96020908152604091829020825160a081018452905460ff80821615158352610100820481161515938301939093526201000081048316151593820193909352630100000083049093166060840152600160b81b909104161515608082015290565b60405161022b91908151151581526020808301511515908201526040808301511515908201526060808301516001600160a01b03169082015260809182015115159181019190915260a00190565b34801561039157600080fd5b506103a56103a03660046115df565b610723565b005b3480156103b357600080fd5b5060cc546001600160a01b0316610217565b3480156103d157600080fd5b5060d4546001600160a01b0316610217565b3480156103ef57600080fd5b506103a56103fe3660046115df565b610836565b34801561040f57600080fd5b5060ce546001600160a01b0316610217565b6103a561042f366004611612565b610915565b34801561044057600080fd5b5061045461044f3660046116d6565b6109e5565b60405190815260200161022b565b34801561046e57600080fd5b50610454610a1d565b34801561048357600080fd5b506103a5610492366004611704565b610ad0565b3480156104a357600080fd5b506103a56104b2366004611739565b610b03565b3480156104c357600080fd5b506103a5610b16565b3480156104d857600080fd5b506103a56104e736600461175b565b610b2a565b3480156104f857600080fd5b506104546105073660046116d6565b610cc1565b34801561051857600080fd5b506033546001600160a01b0316610217565b34801561053657600080fd5b506103a56105453660046116d6565b610ce9565b34801561055657600080fd5b5060d7546001600160a01b0316610217565b34801561057457600080fd5b5060d5546001600160a01b0316610217565b34801561059257600080fd5b506103a56105a13660046115df565b610cf6565b3480156105b257600080fd5b5060d254610454565b3480156105c757600080fd5b5060005460405160ff909116815260200161022b565b3480156105e957600080fd5b506103a56105f83660046115df565b610d70565b34801561060957600080fd5b5061045460d15481565b34801561061f57600080fd5b506103a561062e3660046117e5565b610dc3565b34801561063f57600080fd5b5060d3546001600160a01b0316610217565b34801561065d57600080fd5b506103a561066c3660046115df565b610eac565b34801561067d57600080fd5b50610686610f26565b60405161022b919061184e565b34801561069f57600080fd5b5060cd546001600160a01b0316610217565b3480156106bd57600080fd5b5061045460d05481565b3480156106d357600080fd5b5060d6546001600160a01b0316610217565b3480156106f157600080fd5b5060cf546001600160a01b0316610217565b34801561070f57600080fd5b506103a561071e3660046115df565b610f88565b61072b610ffe565b60d7546001600160a01b03161561075d5760405162461bcd60e51b81526004016107549061189b565b60405180910390fd5b60d780546001600160a01b0319166001600160a01b0383811691821790925560cc5460405163f2fde38b60e01b815260048101929092529091169063f2fde38b90602401600060405180830381600087803b1580156107bb57600080fd5b505af11580156107cf573d6000803e3d6000fd5b505060ce5460405163f2fde38b60e01b81526001600160a01b038581166004830152909116925063f2fde38b91506024015b600060405180830381600087803b15801561081b57600080fd5b505af115801561082f573d6000803e3d6000fd5b5050505050565b6001600160a01b037f000000000000000000000000000000000000000000000000000000000000000016300361087e5760405162461bcd60e51b8152600401610754906118c1565b7f00000000000000000000000000000000000000000000000000000000000000006001600160a01b03166108c7600080516020611b12833981519152546001600160a01b031690565b6001600160a01b0316146108ed5760405162461bcd60e51b81526004016107549061190d565b6108f681611058565b6040805160008082526020820190925261091291839190611060565b50565b6001600160a01b037f000000000000000000000000000000000000000000000000000000000000000016300361095d5760405162461bcd60e51b8152600401610754906118c1565b7f00000000000000000000000000000000000000000000000000000000000000006001600160a01b03166109a6600080516020611b12833981519152546001600160a01b031690565b6001600160a01b0316146109cc5760405162461bcd60e51b81526004016107549061190d565b6109d582611058565b6109e182826001611060565b5050565b600060d1546000036109f957506000919050565b6402540be40060d15483610a0d9190611959565b610a17919061197e565b92915050565b6000306001600160a01b037f00000000000000000000000000000000000000000000000000000000000000001614610abd5760405162461bcd60e51b815260206004820152603860248201527f555550535570677261646561626c653a206d757374206e6f742062652063616c60448201527f6c6564207468726f7567682064656c656761746563616c6c00000000000000006064820152608401610754565b50600080516020611b1283398151915290565b610ad8610ffe565b6001600160a01b0391909116600090815260d860205260409020805460ff1916911515919091179055565b610b0b610ffe565b60d09190915560d155565b610b1e610ffe565b610b2860006111d0565b565b600054610100900460ff1615808015610b4a5750600054600160ff909116105b80610b645750303b158015610b64575060005460ff166001145b610bc75760405162461bcd60e51b815260206004820152602e60248201527f496e697469616c697a61626c653a20636f6e747261637420697320616c72656160448201526d191e481a5b9a5d1a585b1a5e995960921b6064820152608401610754565b6000805460ff191660011790558015610bea576000805461ff0019166101001790555b610bf2611222565b610bfa611251565b610c03326111d0565b60cf80546001600160a01b03199081166001600160a01b038c81169190911790925560d286905560cb805482168b841617905560cc8054821689841617905560cd8054821688841617905560ce805490911691891691909117905560d083905560d1829055610c70611278565b8015610cb6576000805461ff0019169055604051600181527f7f26b83ff96e1f2b6a682f133852f6798a09c465da95921460cefb38474024989060200160405180910390a15b505050505050505050565b600060d054600003610cd557506000919050565b6402540be40060d05483610a0d9190611959565b610cf1610ffe565b60d255565b610cfe610ffe565b60d5546001600160a01b031615610d275760405162461bcd60e51b81526004016107549061189b565b60d580546001600160a01b0319166001600160a01b0383811691821790925560cb5460405163f2fde38b60e01b815260048101929092529091169063f2fde38b90602401610801565b610d78610ffe565b60d4546001600160a01b031615610da15760405162461bcd60e51b81526004016107549061189b565b60d480546001600160a01b0319166001600160a01b0392909216919091179055565b610dcb610ffe565b6001600160a01b038516600090815260c960205260409020805462010000900460ff16610e4f5760ca80546001810182556000919091527f42d72674974f694b5f5159593243114d38a5c39c89d6b62fee061ff523240ee10180546001600160a01b0388166001600160a01b0319909116179055805462ff00001916620100001781555b805461ffff191694151561ff0019169490941761010093151593909302929092176301000000600160c01b03191663010000006001600160a01b03929092169190910260ff60b81b191617600160b81b9115159190910217905550565b610eb4610ffe565b60d3546001600160a01b031615610edd5760405162461bcd60e51b81526004016107549061189b565b60d380546001600160a01b0319166001600160a01b0383811691821790925560cd5460405163f2fde38b60e01b815260048101929092529091169063f2fde38b90602401610801565b606060ca805480602002602001604051908101604052809291908181526020018280548015610f7e57602002820191906000526020600020905b81546001600160a01b03168152600190910190602001808311610f60575b5050505050905090565b610f90610ffe565b6001600160a01b038116610ff55760405162461bcd60e51b815260206004820152602660248201527f4f776e61626c653a206e6577206f776e657220697320746865207a65726f206160448201526564647265737360d01b6064820152608401610754565b610912816111d0565b6033546001600160a01b03163314610b285760405162461bcd60e51b815260206004820181905260248201527f4f776e61626c653a2063616c6c6572206973206e6f7420746865206f776e65726044820152606401610754565b610912610ffe565b7f4910fdfa16fed3260ed0e7147f7cc6da11a60208b5b9406d12a635614ffd91435460ff16156110985761109383611344565b505050565b826001600160a01b03166352d1902d6040518163ffffffff1660e01b8152600401602060405180830381865afa9250505080156110f2575060408051601f3d908101601f191682019092526110ef918101906119a0565b60015b6111555760405162461bcd60e51b815260206004820152602e60248201527f45524331393637557067726164653a206e657720696d706c656d656e7461746960448201526d6f6e206973206e6f74205555505360901b6064820152608401610754565b600080516020611b1283398151915281146111c45760405162461bcd60e51b815260206004820152602960248201527f45524331393637557067726164653a20756e737570706f727465642070726f786044820152681a58589b195555525160ba1b6064820152608401610754565b506110938383836113e0565b603380546001600160a01b038381166001600160a01b0319831681179093556040519116919082907f8be0079c531659141344cd1fd0a4f28419497f9722a3daafe3b4186f6b6457e090600090a35050565b600054610100900460ff166112495760405162461bcd60e51b8152600401610754906119b9565b610b2861140b565b600054610100900460ff16610b285760405162461bcd60e51b8152600401610754906119b9565b60cd5460405163de7fe3bf60e01b815273b17b674d9c5cb2e441f8e196a2f048a81355d0319163de7fe3bf916112df91737f90122bf0700f9e7e1f688fe926940e8839f353916001600160a01b0390911690620186a090623d090090600190600401611a04565b6020604051808303816000875af11580156112fe573d6000803e3d6000fd5b505050506040513d601f19601f820116820180604052508101906113229190611a81565b60d680546001600160a01b0319166001600160a01b0392909216919091179055565b6001600160a01b0381163b6113b15760405162461bcd60e51b815260206004820152602d60248201527f455243313936373a206e657720696d706c656d656e746174696f6e206973206e60448201526c1bdd08184818dbdb9d1c9858dd609a1b6064820152608401610754565b600080516020611b1283398151915280546001600160a01b0319166001600160a01b0392909216919091179055565b6113e98361143b565b6000825111806113f65750805b1561109357611405838361147b565b50505050565b600054610100900460ff166114325760405162461bcd60e51b8152600401610754906119b9565b610b28336111d0565b61144481611344565b6040516001600160a01b038216907fbc7cd75a20ee27fd9adebab32041f755214dbc6bffa90cc0225b39da2e5c2d3b90600090a250565b60606114a08383604051806060016040528060278152602001611b32602791396114a7565b9392505050565b6060600080856001600160a01b0316856040516114c49190611ac2565b600060405180830381855af49150503d80600081146114ff576040519150601f19603f3d011682016040523d82523d6000602084013e611504565b606091505b50915091506115158683838761151f565b9695505050505050565b6060831561158e578251600003611587576001600160a01b0385163b6115875760405162461bcd60e51b815260206004820152601d60248201527f416464726573733a2063616c6c20746f206e6f6e2d636f6e74726163740000006044820152606401610754565b5081611598565b61159883836115a0565b949350505050565b8151156115b05781518083602001fd5b8060405162461bcd60e51b81526004016107549190611ade565b6001600160a01b038116811461091257600080fd5b6000602082840312156115f157600080fd5b81356114a0816115ca565b634e487b7160e01b600052604160045260246000fd5b6000806040838503121561162557600080fd5b8235611630816115ca565b9150602083013567ffffffffffffffff8082111561164d57600080fd5b818501915085601f83011261166157600080fd5b813581811115611673576116736115fc565b604051601f8201601f19908116603f0116810190838211818310171561169b5761169b6115fc565b816040528281528860208487010111156116b457600080fd5b8260208601602083013760006020848301015280955050505050509250929050565b6000602082840312156116e857600080fd5b5035919050565b803580151581146116ff57600080fd5b919050565b6000806040838503121561171757600080fd5b8235611722816115ca565b9150611730602084016116ef565b90509250929050565b6000806040838503121561174c57600080fd5b50508035926020909101359150565b600080600080600080600080610100898b03121561177857600080fd5b8835611783816115ca565b97506020890135611793816115ca565b965060408901356117a3816115ca565b955060608901356117b3816115ca565b945060808901356117c3816115ca565b979a969950949793969560a0850135955060c08501359460e001359350915050565b600080600080600060a086880312156117fd57600080fd5b8535611808816115ca565b9450611816602087016116ef565b9350611824604087016116ef565b92506060860135611834816115ca565b9150611842608087016116ef565b90509295509295909350565b6020808252825182820181905260009190848201906040850190845b8181101561188f5783516001600160a01b03168352928401929184019160010161186a565b50909695505050505050565b6020808252600c908201526b185b1c9958591e481a5b9a5d60a21b604082015260600190565b6020808252602c908201527f46756e6374696f6e206d7573742062652063616c6c6564207468726f7567682060408201526b19195b1959d85d1958d85b1b60a21b606082015260800190565b6020808252602c908201527f46756e6374696f6e206d7573742062652063616c6c6564207468726f7567682060408201526b6163746976652070726f787960a01b606082015260800190565b8082028115828204841417610a1757634e487b7160e01b600052601160045260246000fd5b60008261199b57634e487b7160e01b600052601260045260246000fd5b500490565b6000602082840312156119b257600080fd5b5051919050565b6020808252602b908201527f496e697469616c697a61626c653a20636f6e7472616374206973206e6f74206960408201526a6e697469616c697a696e6760a81b606082015260800190565b6001600160a01b03868116825260e0602083018190526005908301526413139554d160da1b61010083015260009061012083018381036040850152611a5b81600581526413139554d160da1b602082015260400190565b9790911660608401525050608081019390935260a083019190915260c090910152919050565b600060208284031215611a9357600080fd5b81516114a0816115ca565b60005b83811015611ab9578181015183820152602001611aa1565b50506000910152565b60008251611ad4818460208701611a9e565b9190910192915050565b6020815260008251806020840152611afd816040850160208701611a9e565b601f01601f1916919091016040019291505056fe360894a13ba1a3210667c828492db98dca3e2076cc3735a920a3ca505d382bbc416464726573733a206c6f772d6c6576656c2064656c65676174652063616c6c206661696c6564a2646970667358221220117c66f913209a7c88374ec0718dca4a78fef04540face920f6c1e7b647e05a264736f6c63430008120033",
  "devdoc": {
    "events": {
      "AdminChanged(address,address)": {
        "details": "Emitted when the admin account has changed."
      },
      "BeaconUpgraded(address)": {
        "details": "Emitted when the beacon is changed."
      },
      "Initialized(uint8)": {
        "details": "Triggered when the contract has been initialized or reinitialized."
      },
      "Upgraded(address)": {
        "details": "Emitted when the implementation is upgraded."
      }
    },
    "kind": "dev",
    "methods": {
      "owner()": {
        "details": "Returns the address of the current owner."
      },
      "proxiableUUID()": {
        "details": "Implementation of the ERC1822 {proxiableUUID} function. This returns the storage slot used by the implementation. It is used to validate the implementation's compatibility when performing an upgrade. IMPORTANT: A proxy pointing at a proxiable contract should not be considered proxiable itself, because this risks bricking a proxy that upgrades to it, by delegating to itself until out of gas. Thus it is critical that this function revert if invoked through a proxy. This is guaranteed by the `notDelegated` modifier."
      },
      "renounceOwnership()": {
        "details": "Leaves the contract without owner. It will not be possible to call `onlyOwner` functions. Can only be called by the current owner. NOTE: Renouncing ownership will leave the contract without an owner, thereby disabling any functionality that is only available to the owner."
      },
      "transferOwnership(address)": {
        "details": "Transfers ownership of the contract to a new account (`newOwner`). Can only be called by the current owner."
      },
      "upgradeTo(address)": {
        "custom:oz-upgrades-unsafe-allow-reachable": "delegatecall",
        "details": "Upgrade the implementation of the proxy to `newImplementation`. Calls {_authorizeUpgrade}. Emits an {Upgraded} event."
      },
      "upgradeToAndCall(address,bytes)": {
        "custom:oz-upgrades-unsafe-allow-reachable": "delegatecall",
        "details": "Upgrade the implementation of the proxy to `newImplementation`, and subsequently execute the function call encoded in `data`. Calls {_authorizeUpgrade}. Emits an {Upgraded} event."
      }
    },
    "version": 1
  },
  "userdoc": {
    "kind": "user",
    "methods": {},
    "version": 1
  },
  "storageLayout": {
    "storage": [
      {
        "astId": 590,
        "contract": "contracts/config/Config.sol:Config",
        "label": "_initialized",
        "offset": 0,
        "slot": "0",
        "type": "t_uint8"
      },
      {
        "astId": 593,
        "contract": "contracts/config/Config.sol:Config",
        "label": "_initializing",
        "offset": 1,
        "slot": "0",
        "type": "t_bool"
      },
      {
        "astId": 1812,
        "contract": "contracts/config/Config.sol:Config",
        "label": "__gap",
        "offset": 0,
        "slot": "1",
        "type": "t_array(t_uint256)50_storage"
      },
      {
        "astId": 10,
        "contract": "contracts/config/Config.sol:Config",
        "label": "_owner",
        "offset": 0,
        "slot": "51",
        "type": "t_address"
      },
      {
        "astId": 130,
        "contract": "contracts/config/Config.sol:Config",
        "label": "__gap",
        "offset": 0,
        "slot": "52",
        "type": "t_array(t_uint256)49_storage"
      },
      {
        "astId": 572,
        "contract": "contracts/config/Config.sol:Config",
        "label": "__gap",
        "offset": 0,
        "slot": "101",
        "type": "t_array(t_uint256)50_storage"
      },
      {
        "astId": 887,
        "contract": "contracts/config/Config.sol:Config",
        "label": "__gap",
        "offset": 0,
        "slot": "151",
        "type": "t_array(t_uint256)50_storage"
      },
      {
        "astId": 19887,
        "contract": "contracts/config/Config.sol:Config",
        "label": "_stableCoinEnabled",
        "offset": 0,
        "slot": "201",
        "type": "t_mapping(t_address,t_struct(StableCoinEnabled)20454_storage)"
      },
      {
        "astId": 19890,
        "contract": "contracts/config/Config.sol:Config",
        "label": "_stableCoins",
        "offset": 0,
        "slot": "202",
        "type": "t_array(t_address)dyn_storage"
      },
      {
        "astId": 19893,
        "contract": "contracts/config/Config.sol:Config",
        "label": "_utilityToken",
        "offset": 0,
        "slot": "203",
        "type": "t_contract(IUtilityToken)14596"
      },
      {
        "astId": 19896,
        "contract": "contracts/config/Config.sol:Config",
        "label": "_prToken",
        "offset": 0,
        "slot": "204",
        "type": "t_contract(IUtilityToken)14596"
      },
      {
        "astId": 19899,
        "contract": "contracts/config/Config.sol:Config",
        "label": "_stableCoinToken",
        "offset": 0,
        "slot": "205",
        "type": "t_contract(IUtilityToken)14596"
      },
      {
        "astId": 19902,
        "contract": "contracts/config/Config.sol:Config",
        "label": "_govToken",
        "offset": 0,
        "slot": "206",
        "type": "t_contract(IUtilityToken)14596"
      },
      {
        "astId": 19905,
        "contract": "contracts/config/Config.sol:Config",
        "label": "_feerouter",
        "offset": 0,
        "slot": "207",
        "type": "t_contract(IFeeRouter)23517"
      },
      {
        "astId": 19907,
        "contract": "contracts/config/Config.sol:Config",
        "label": "marketBuyfee",
        "offset": 0,
        "slot": "208",
        "type": "t_uint256"
      },
      {
        "astId": 19909,
        "contract": "contracts/config/Config.sol:Config",
        "label": "marketSellfee",
        "offset": 0,
        "slot": "209",
        "type": "t_uint256"
      },
      {
        "astId": 19911,
        "contract": "contracts/config/Config.sol:Config",
        "label": "_maxOnceExchangeAmount",
        "offset": 0,
        "slot": "210",
        "type": "t_uint256"
      },
      {
        "astId": 19913,
        "contract": "contracts/config/Config.sol:Config",
        "label": "_utilityStakeAddress",
        "offset": 0,
        "slot": "211",
        "type": "t_address"
      },
      {
        "astId": 19915,
        "contract": "contracts/config/Config.sol:Config",
        "label": "_liquidityStakeAddress",
        "offset": 0,
        "slot": "212",
        "type": "t_address"
      },
      {
        "astId": 19917,
        "contract": "contracts/config/Config.sol:Config",
        "label": "_vammAddress",
        "offset": 0,
        "slot": "213",
        "type": "t_address"
      },
      {
        "astId": 19919,
        "contract": "contracts/config/Config.sol:Config",
        "label": "_curve2CRVXPoolAddress",
        "offset": 0,
        "slot": "214",
        "type": "t_address"
      },
      {
        "astId": 19921,
        "contract": "contracts/config/Config.sol:Config",
        "label": "_minter",
        "offset": 0,
        "slot": "215",
        "type": "t_address"
      },
      {
        "astId": 19925,
        "contract": "contracts/config/Config.sol:Config",
        "label": "_operators",
        "offset": 0,
        "slot": "216",
        "type": "t_mapping(t_address,t_bool)"
      }
    ],
    "types": {
      "t_address": {
        "encoding": "inplace",
        "label": "address",
        "numberOfBytes": "20"
      },
      "t_array(t_address)dyn_storage": {
        "base": "t_address",
        "encoding": "dynamic_array",
        "label": "address[]",
        "numberOfBytes": "32"
      },
      "t_array(t_uint256)49_storage": {
        "base": "t_uint256",
        "encoding": "inplace",
        "label": "uint256[49]",
        "numberOfBytes": "1568"
      },
      "t_array(t_uint256)50_storage": {
        "base": "t_uint256",
        "encoding": "inplace",
        "label": "uint256[50]",
        "numberOfBytes": "1600"
      },
      "t_bool": {
        "encoding": "inplace",
        "label": "bool",
        "numberOfBytes": "1"
      },
      "t_contract(IFeeRouter)23517": {
        "encoding": "inplace",
        "label": "contract IFeeRouter",
        "numberOfBytes": "20"
      },
      "t_contract(IUtilityToken)14596": {
        "encoding": "inplace",
        "label": "contract IUtilityToken",
        "numberOfBytes": "20"
      },
      "t_mapping(t_address,t_bool)": {
        "encoding": "mapping",
        "key": "t_address",
        "label": "mapping(address => bool)",
        "numberOfBytes": "32",
        "value": "t_bool"
      },
      "t_mapping(t_address,t_struct(StableCoinEnabled)20454_storage)": {
        "encoding": "mapping",
        "key": "t_address",
        "label": "mapping(address => struct IConfig.StableCoinEnabled)",
        "numberOfBytes": "32",
        "value": "t_struct(StableCoinEnabled)20454_storage"
      },
      "t_struct(StableCoinEnabled)20454_storage": {
        "encoding": "inplace",
        "label": "struct IConfig.StableCoinEnabled",
        "members": [
          {
            "astId": 20445,
            "contract": "contracts/config/Config.sol:Config",
            "label": "buyEnabled",
            "offset": 0,
            "slot": "0",
            "type": "t_bool"
          },
          {
            "astId": 20447,
            "contract": "contracts/config/Config.sol:Config",
            "label": "sellEnabled",
            "offset": 1,
            "slot": "0",
            "type": "t_bool"
          },
          {
            "astId": 20449,
            "contract": "contracts/config/Config.sol:Config",
            "label": "exists",
            "offset": 2,
            "slot": "0",
            "type": "t_bool"
          },
          {
            "astId": 20451,
            "contract": "contracts/config/Config.sol:Config",
            "label": "gauge",
            "offset": 3,
            "slot": "0",
            "type": "t_address"
          },
          {
            "astId": 20453,
            "contract": "contracts/config/Config.sol:Config",
            "label": "isMetaGauge",
            "offset": 23,
            "slot": "0",
            "type": "t_bool"
          }
        ],
        "numberOfBytes": "32"
      },
      "t_uint256": {
        "encoding": "inplace",
        "label": "uint256",
        "numberOfBytes": "32"
      },
      "t_uint8": {
        "encoding": "inplace",
        "label": "uint8",
        "numberOfBytes": "1"
      }
    }
  }
}