{
  "address": "0x7401094D8d254B06B88aA67705bE4B79e2def9eE",
  "abi": [
    {
      "anonymous": false,
      "inputs": [
        {
          "indexed": false,
          "internalType": "address",
          "name": "previousAdmin",
          "type": "address"
        },
        {
          "indexed": false,
          "internalType": "address",
          "name": "newAdmin",
          "type": "address"
        }
      ],
      "name": "AdminChanged",
      "type": "event"
    },
    {
      "anonymous": false,
      "inputs": [
        {
          "indexed": true,
          "internalType": "address",
          "name": "beacon",
          "type": "address"
        }
      ],
      "name": "BeaconUpgraded",
      "type": "event"
    },
    {
      "anonymous": false,
      "inputs": [
        {
          "indexed": false,
          "internalType": "address",
          "name": "token",
          "type": "address"
        },
        {
          "indexed": false,
          "internalType": "address",
          "name": "depositer",
          "type": "address"
        },
        {
          "indexed": false,
          "internalType": "uint256",
          "name": "amount",
          "type": "uint256"
        }
      ],
      "name": "DepositToken2Game",
      "type": "event"
    },
    {
      "anonymous": false,
      "inputs": [
        {
          "indexed": false,
          "internalType": "uint8",
          "name": "version",
          "type": "uint8"
        }
      ],
      "name": "Initialized",
      "type": "event"
    },
    {
      "anonymous": false,
      "inputs": [
        {
          "indexed": true,
          "internalType": "address",
          "name": "previousOwner",
          "type": "address"
        },
        {
          "indexed": true,
          "internalType": "address",
          "name": "newOwner",
          "type": "address"
        }
      ],
      "name": "OwnershipTransferred",
      "type": "event"
    },
    {
      "anonymous": false,
      "inputs": [
        {
          "indexed": true,
          "internalType": "address",
          "name": "implementation",
          "type": "address"
        }
      ],
      "name": "Upgraded",
      "type": "event"
    },
    {
      "inputs": [],
      "name": "PRECENT_DENOMINATOR",
      "outputs": [
        {
          "internalType": "uint128",
          "name": "",
          "type": "uint128"
        }
      ],
      "stateMutability": "view",
      "type": "function"
    },
    {
      "inputs": [],
      "name": "PRICE_PRECISION",
      "outputs": [
        {
          "internalType": "uint128",
          "name": "",
          "type": "uint128"
        }
      ],
      "stateMutability": "view",
      "type": "function"
    },
    {
      "inputs": [],
      "name": "balanceOf",
      "outputs": [
        {
          "internalType": "uint256[]",
          "name": "",
          "type": "uint256[]"
        }
      ],
      "stateMutability": "nonpayable",
      "type": "function"
    },
    {
      "inputs": [],
      "name": "config",
      "outputs": [
        {
          "internalType": "contract IConfig",
          "name": "",
          "type": "address"
        }
      ],
      "stateMutability": "view",
      "type": "function"
    },
    {
      "inputs": [
        {
          "internalType": "address",
          "name": "token",
          "type": "address"
        },
        {
          "internalType": "uint256",
          "name": "amount",
          "type": "uint256"
        }
      ],
      "name": "depositToken2Game",
      "outputs": [],
      "stateMutability": "nonpayable",
      "type": "function"
    },
    {
      "inputs": [],
      "name": "initialize",
      "outputs": [],
      "stateMutability": "nonpayable",
      "type": "function"
    },
    {
      "inputs": [],
      "name": "owner",
      "outputs": [
        {
          "internalType": "address",
          "name": "",
          "type": "address"
        }
      ],
      "stateMutability": "view",
      "type": "function"
    },
    {
      "inputs": [],
      "name": "proxiableUUID",
      "outputs": [
        {
          "internalType": "bytes32",
          "name": "",
          "type": "bytes32"
        }
      ],
      "stateMutability": "view",
      "type": "function"
    },
    {
      "inputs": [],
      "name": "renounceOwnership",
      "outputs": [],
      "stateMutability": "nonpayable",
      "type": "function"
    },
    {
      "inputs": [
        {
          "internalType": "contract IConfig",
          "name": "config_",
          "type": "address"
        }
      ],
      "name": "setConfig",
      "outputs": [],
      "stateMutability": "nonpayable",
      "type": "function"
    },
    {
      "inputs": [
        {
          "internalType": "address",
          "name": "newOwner",
          "type": "address"
        }
      ],
      "name": "transferOwnership",
      "outputs": [],
      "stateMutability": "nonpayable",
      "type": "function"
    },
    {
      "inputs": [
        {
          "internalType": "address",
          "name": "newImplementation",
          "type": "address"
        }
      ],
      "name": "upgradeTo",
      "outputs": [],
      "stateMutability": "nonpayable",
      "type": "function"
    },
    {
      "inputs": [
        {
          "internalType": "address",
          "name": "newImplementation",
          "type": "address"
        },
        {
          "internalType": "bytes",
          "name": "data",
          "type": "bytes"
        }
      ],
      "name": "upgradeToAndCall",
      "outputs": [],
      "stateMutability": "payable",
      "type": "function"
    }
  ],
  "transactionHash": "0x60488bfe3223da6a8f639fddf845215b540c2831c2f09ec30de49361c62a45a4",
  "args": [],
  "numDeployments": 1,
  "solcInputHash": "4f1f45ca5fe8f6515b42ba0264732978",
  "bytecode": "0x60a06040523060805234801561001457600080fd5b5060805161140761004c600039600081816102b0015281816102f901528181610398015281816103d8015261046b01526114076000f3fe6080604052600436106100c25760003560e01c806379502c551161007f5780638da5cb5b116100595780638da5cb5b146101e857806395082d25146102065780639cc182a414610243578063f2fde38b1461025c57600080fd5b806379502c551461017b5780638129fc1c146101b3578063898ad680146101c857600080fd5b806320e3dbd4146100c75780633659cfe6146100e95780634f1ef2861461010957806352d1902d1461011c578063715018a614610144578063722713f714610159575b600080fd5b3480156100d357600080fd5b506100e76100e2366004610f71565b61027c565b005b3480156100f557600080fd5b506100e7610104366004610f71565b6102a6565b6100e7610117366004610fd5565b61038e565b34801561012857600080fd5b5061013161045e565b6040519081526020015b60405180910390f35b34801561015057600080fd5b506100e7610511565b34801561016557600080fd5b5061016e610525565b60405161013b919061107d565b34801561018757600080fd5b5060c95461019b906001600160a01b031681565b6040516001600160a01b03909116815260200161013b565b3480156101bf57600080fd5b506100e761064b565b3480156101d457600080fd5b506100e76101e33660046110c1565b61076c565b3480156101f457600080fd5b506033546001600160a01b031661019b565b34801561021257600080fd5b50610222670de0b6b3a764000081565b6040516fffffffffffffffffffffffffffffffff909116815260200161013b565b34801561024f57600080fd5b506102226402540be40081565b34801561026857600080fd5b506100e7610277366004610f71565b610837565b6102846108ad565b60c980546001600160a01b0319166001600160a01b0392909216919091179055565b6001600160a01b037f00000000000000000000000000000000000000000000000000000000000000001630036102f75760405162461bcd60e51b81526004016102ee906110ed565b60405180910390fd5b7f00000000000000000000000000000000000000000000000000000000000000006001600160a01b031661034060008051602061138b833981519152546001600160a01b031690565b6001600160a01b0316146103665760405162461bcd60e51b81526004016102ee90611139565b61036f81610907565b6040805160008082526020820190925261038b9183919061090f565b50565b6001600160a01b037f00000000000000000000000000000000000000000000000000000000000000001630036103d65760405162461bcd60e51b81526004016102ee906110ed565b7f00000000000000000000000000000000000000000000000000000000000000006001600160a01b031661041f60008051602061138b833981519152546001600160a01b031690565b6001600160a01b0316146104455760405162461bcd60e51b81526004016102ee90611139565b61044e82610907565b61045a8282600161090f565b5050565b6000306001600160a01b037f000000000000000000000000000000000000000000000000000000000000000016146104fe5760405162461bcd60e51b815260206004820152603860248201527f555550535570677261646561626c653a206d757374206e6f742062652063616c60448201527f6c6564207468726f7567682064656c656761746563616c6c000000000000000060648201526084016102ee565b5060008051602061138b83398151915290565b6105196108ad565b6105236000610a7f565b565b606061052f610ad1565b6000610539610b97565b90506000815167ffffffffffffffff81111561055757610557610f8e565b604051908082528060200260200182016040528015610580578160200160208202803683370190505b50905060005b8251811015610644578281815181106105a1576105a1611185565b60209081029190910101516040516370a0823160e01b81523060048201526001600160a01b03909116906370a0823190602401602060405180830381865afa1580156105f1573d6000803e3d6000fd5b505050506040513d601f19601f82011682018060405250810190610615919061119b565b82828151811061062757610627611185565b60209081029190910101528061063c816111b4565b915050610586565b5092915050565b600054610100900460ff161580801561066b5750600054600160ff909116105b806106855750303b158015610685575060005460ff166001145b6106e85760405162461bcd60e51b815260206004820152602e60248201527f496e697469616c697a61626c653a20636f6e747261637420697320616c72656160448201526d191e481a5b9a5d1a585b1a5e995960921b60648201526084016102ee565b6000805460ff19166001179055801561070b576000805461ff0019166101001790555b610713610c80565b61071b610caf565b61072432610a7f565b801561038b576000805461ff0019169055604051600181527f7f26b83ff96e1f2b6a682f133852f6798a09c465da95921460cefb38474024989060200160405180910390a150565b6040516323b872dd60e01b8152336004820181905230602483015260448201839052906001600160a01b038416906323b872dd906064016020604051808303816000875af11580156107c2573d6000803e3d6000fd5b505050506040513d601f19601f820116820180604052508101906107e691906111db565b50604080516001600160a01b038086168252831660208201529081018390527fd3ab51e1278579514aea6029ac36fe5427907bb47c4f6630e3f25d50fc921f8e9060600160405180910390a1505050565b61083f6108ad565b6001600160a01b0381166108a45760405162461bcd60e51b815260206004820152602660248201527f4f776e61626c653a206e6577206f776e657220697320746865207a65726f206160448201526564647265737360d01b60648201526084016102ee565b61038b81610a7f565b6033546001600160a01b031633146105235760405162461bcd60e51b815260206004820181905260248201527f4f776e61626c653a2063616c6c6572206973206e6f7420746865206f776e657260448201526064016102ee565b61038b6108ad565b7f4910fdfa16fed3260ed0e7147f7cc6da11a60208b5b9406d12a635614ffd91435460ff16156109475761094283610cd6565b505050565b826001600160a01b03166352d1902d6040518163ffffffff1660e01b8152600401602060405180830381865afa9250505080156109a1575060408051601f3d908101601f1916820190925261099e9181019061119b565b60015b610a045760405162461bcd60e51b815260206004820152602e60248201527f45524331393637557067726164653a206e657720696d706c656d656e7461746960448201526d6f6e206973206e6f74205555505360901b60648201526084016102ee565b60008051602061138b8339815191528114610a735760405162461bcd60e51b815260206004820152602960248201527f45524331393637557067726164653a20756e737570706f727465642070726f786044820152681a58589b195555525160ba1b60648201526084016102ee565b50610942838383610d72565b603380546001600160a01b038381166001600160a01b0319831681179093556040519116919082907f8be0079c531659141344cd1fd0a4f28419497f9722a3daafe3b4186f6b6457e090600090a35050565b60c9546040805163ea9c5e0d60e01b815290516000926001600160a01b03169163ea9c5e0d9160048083019260209291908290030181865afa158015610b1b573d6000803e3d6000fd5b505050506040513d601f19601f82011682018060405250810190610b3f91906111fd565b9050806001600160a01b03166313dbe4646040518163ffffffff1660e01b8152600401600060405180830381600087803b158015610b7c57600080fd5b505af1158015610b90573d6000803e3d6000fd5b5050505050565b6060600060c960009054906101000a90046001600160a01b03166001600160a01b031663ea9c5e0d6040518163ffffffff1660e01b8152600401602060405180830381865afa158015610bee573d6000803e3d6000fd5b505050506040513d601f19601f82011682018060405250810190610c1291906111fd565b9050806001600160a01b031663aa6ca8086040518163ffffffff1660e01b8152600401600060405180830381865afa158015610c52573d6000803e3d6000fd5b505050506040513d6000823e601f3d908101601f19168201604052610c7a919081019061121a565b91505090565b600054610100900460ff16610ca75760405162461bcd60e51b81526004016102ee906112cc565b610523610d9d565b600054610100900460ff166105235760405162461bcd60e51b81526004016102ee906112cc565b6001600160a01b0381163b610d435760405162461bcd60e51b815260206004820152602d60248201527f455243313936373a206e657720696d706c656d656e746174696f6e206973206e60448201526c1bdd08184818dbdb9d1c9858dd609a1b60648201526084016102ee565b60008051602061138b83398151915280546001600160a01b0319166001600160a01b0392909216919091179055565b610d7b83610dcd565b600082511180610d885750805b1561094257610d978383610e0d565b50505050565b600054610100900460ff16610dc45760405162461bcd60e51b81526004016102ee906112cc565b61052333610a7f565b610dd681610cd6565b6040516001600160a01b038216907fbc7cd75a20ee27fd9adebab32041f755214dbc6bffa90cc0225b39da2e5c2d3b90600090a250565b6060610e3283836040518060600160405280602781526020016113ab60279139610e39565b9392505050565b6060600080856001600160a01b031685604051610e56919061133b565b600060405180830381855af49150503d8060008114610e91576040519150601f19603f3d011682016040523d82523d6000602084013e610e96565b606091505b5091509150610ea786838387610eb1565b9695505050505050565b60608315610f20578251600003610f19576001600160a01b0385163b610f195760405162461bcd60e51b815260206004820152601d60248201527f416464726573733a2063616c6c20746f206e6f6e2d636f6e747261637400000060448201526064016102ee565b5081610f2a565b610f2a8383610f32565b949350505050565b815115610f425781518083602001fd5b8060405162461bcd60e51b81526004016102ee9190611357565b6001600160a01b038116811461038b57600080fd5b600060208284031215610f8357600080fd5b8135610e3281610f5c565b634e487b7160e01b600052604160045260246000fd5b604051601f8201601f1916810167ffffffffffffffff81118282101715610fcd57610fcd610f8e565b604052919050565b60008060408385031215610fe857600080fd5b8235610ff381610f5c565b915060208381013567ffffffffffffffff8082111561101157600080fd5b818601915086601f83011261102557600080fd5b81358181111561103757611037610f8e565b611049601f8201601f19168501610fa4565b9150808252878482850101111561105f57600080fd5b80848401858401376000848284010152508093505050509250929050565b6020808252825182820181905260009190848201906040850190845b818110156110b557835183529284019291840191600101611099565b50909695505050505050565b600080604083850312156110d457600080fd5b82356110df81610f5c565b946020939093013593505050565b6020808252602c908201527f46756e6374696f6e206d7573742062652063616c6c6564207468726f7567682060408201526b19195b1959d85d1958d85b1b60a21b606082015260800190565b6020808252602c908201527f46756e6374696f6e206d7573742062652063616c6c6564207468726f7567682060408201526b6163746976652070726f787960a01b606082015260800190565b634e487b7160e01b600052603260045260246000fd5b6000602082840312156111ad57600080fd5b5051919050565b6000600182016111d457634e487b7160e01b600052601160045260246000fd5b5060010190565b6000602082840312156111ed57600080fd5b81518015158114610e3257600080fd5b60006020828403121561120f57600080fd5b8151610e3281610f5c565b6000602080838503121561122d57600080fd5b825167ffffffffffffffff8082111561124557600080fd5b818501915085601f83011261125957600080fd5b81518181111561126b5761126b610f8e565b8060051b915061127c848301610fa4565b818152918301840191848101908884111561129657600080fd5b938501935b838510156112c057845192506112b083610f5c565b828252938501939085019061129b565b98975050505050505050565b6020808252602b908201527f496e697469616c697a61626c653a20636f6e7472616374206973206e6f74206960408201526a6e697469616c697a696e6760a81b606082015260800190565b60005b8381101561133257818101518382015260200161131a565b50506000910152565b6000825161134d818460208701611317565b9190910192915050565b6020815260008251806020840152611376816040850160208701611317565b601f01601f1916919091016040019291505056fe360894a13ba1a3210667c828492db98dca3e2076cc3735a920a3ca505d382bbc416464726573733a206c6f772d6c6576656c2064656c65676174652063616c6c206661696c6564a26469706673582212208a56eb08500691faff2287e3bb514c8994f7f2830d41575f04a6cccb3e50744164736f6c63430008120033",
  "devdoc": {
    "events": {
      "AdminChanged(address,address)": {
        "details": "Emitted when the admin account has changed."
      },
      "BeaconUpgraded(address)": {
        "details": "Emitted when the beacon is changed."
      },
      "Initialized(uint8)": {
        "details": "Triggered when the contract has been initialized or reinitialized."
      },
      "Upgraded(address)": {
        "details": "Emitted when the implementation is upgraded."
      }
    },
    "kind": "dev",
    "methods": {
      "owner()": {
        "details": "Returns the address of the current owner."
      },
      "proxiableUUID()": {
        "details": "Implementation of the ERC1822 {proxiableUUID} function. This returns the storage slot used by the implementation. It is used to validate the implementation's compatibility when performing an upgrade. IMPORTANT: A proxy pointing at a proxiable contract should not be considered proxiable itself, because this risks bricking a proxy that upgrades to it, by delegating to itself until out of gas. Thus it is critical that this function revert if invoked through a proxy. This is guaranteed by the `notDelegated` modifier."
      },
      "renounceOwnership()": {
        "details": "Leaves the contract without owner. It will not be possible to call `onlyOwner` functions. Can only be called by the current owner. NOTE: Renouncing ownership will leave the contract without an owner, thereby disabling any functionality that is only available to the owner."
      },
      "transferOwnership(address)": {
        "details": "Transfers ownership of the contract to a new account (`newOwner`). Can only be called by the current owner."
      },
      "upgradeTo(address)": {
        "custom:oz-upgrades-unsafe-allow-reachable": "delegatecall",
        "details": "Upgrade the implementation of the proxy to `newImplementation`. Calls {_authorizeUpgrade}. Emits an {Upgraded} event."
      },
      "upgradeToAndCall(address,bytes)": {
        "custom:oz-upgrades-unsafe-allow-reachable": "delegatecall",
        "details": "Upgrade the implementation of the proxy to `newImplementation`, and subsequently execute the function call encoded in `data`. Calls {_authorizeUpgrade}. Emits an {Upgraded} event."
      }
    },
    "version": 1
  },
  "userdoc": {
    "kind": "user",
    "methods": {},
    "version": 1
  },
  "storageLayout": {
    "storage": [
      {
        "astId": 590,
        "contract": "contracts/feerouter/DAOValut.sol:DAOValut",
        "label": "_initialized",
        "offset": 0,
        "slot": "0",
        "type": "t_uint8"
      },
      {
        "astId": 593,
        "contract": "contracts/feerouter/DAOValut.sol:DAOValut",
        "label": "_initializing",
        "offset": 1,
        "slot": "0",
        "type": "t_bool"
      },
      {
        "astId": 1812,
        "contract": "contracts/feerouter/DAOValut.sol:DAOValut",
        "label": "__gap",
        "offset": 0,
        "slot": "1",
        "type": "t_array(t_uint256)50_storage"
      },
      {
        "astId": 10,
        "contract": "contracts/feerouter/DAOValut.sol:DAOValut",
        "label": "_owner",
        "offset": 0,
        "slot": "51",
        "type": "t_address"
      },
      {
        "astId": 130,
        "contract": "contracts/feerouter/DAOValut.sol:DAOValut",
        "label": "__gap",
        "offset": 0,
        "slot": "52",
        "type": "t_array(t_uint256)49_storage"
      },
      {
        "astId": 572,
        "contract": "contracts/feerouter/DAOValut.sol:DAOValut",
        "label": "__gap",
        "offset": 0,
        "slot": "101",
        "type": "t_array(t_uint256)50_storage"
      },
      {
        "astId": 887,
        "contract": "contracts/feerouter/DAOValut.sol:DAOValut",
        "label": "__gap",
        "offset": 0,
        "slot": "151",
        "type": "t_array(t_uint256)50_storage"
      },
      {
        "astId": 22534,
        "contract": "contracts/feerouter/DAOValut.sol:DAOValut",
        "label": "config",
        "offset": 0,
        "slot": "201",
        "type": "t_contract(IConfig)20550"
      }
    ],
    "types": {
      "t_address": {
        "encoding": "inplace",
        "label": "address",
        "numberOfBytes": "20"
      },
      "t_array(t_uint256)49_storage": {
        "base": "t_uint256",
        "encoding": "inplace",
        "label": "uint256[49]",
        "numberOfBytes": "1568"
      },
      "t_array(t_uint256)50_storage": {
        "base": "t_uint256",
        "encoding": "inplace",
        "label": "uint256[50]",
        "numberOfBytes": "1600"
      },
      "t_bool": {
        "encoding": "inplace",
        "label": "bool",
        "numberOfBytes": "1"
      },
      "t_contract(IConfig)20550": {
        "encoding": "inplace",
        "label": "contract IConfig",
        "numberOfBytes": "20"
      },
      "t_uint256": {
        "encoding": "inplace",
        "label": "uint256",
        "numberOfBytes": "32"
      },
      "t_uint8": {
        "encoding": "inplace",
        "label": "uint8",
        "numberOfBytes": "1"
      }
    }
  }
}