{
  "address": "0x37ee4999008eb0CBA38b947F383AFAcB569d65B5",
  "abi": [
    {
      "anonymous": false,
      "inputs": [
        {
          "indexed": false,
          "internalType": "address",
          "name": "previousAdmin",
          "type": "address"
        },
        {
          "indexed": false,
          "internalType": "address",
          "name": "newAdmin",
          "type": "address"
        }
      ],
      "name": "AdminChanged",
      "type": "event"
    },
    {
      "anonymous": false,
      "inputs": [
        {
          "indexed": true,
          "internalType": "address",
          "name": "beacon",
          "type": "address"
        }
      ],
      "name": "BeaconUpgraded",
      "type": "event"
    },
    {
      "anonymous": false,
      "inputs": [
        {
          "indexed": false,
          "internalType": "contract IERC20Metadata",
          "name": "token",
          "type": "address"
        },
        {
          "indexed": false,
          "internalType": "uint256",
          "name": "daoAmount",
          "type": "uint256"
        },
        {
          "indexed": false,
          "internalType": "uint256",
          "name": "gewardAmount",
          "type": "uint256"
        }
      ],
      "name": "CollectedFees",
      "type": "event"
    },
    {
      "anonymous": false,
      "inputs": [
        {
          "indexed": false,
          "internalType": "uint8",
          "name": "version",
          "type": "uint8"
        }
      ],
      "name": "Initialized",
      "type": "event"
    },
    {
      "anonymous": false,
      "inputs": [
        {
          "indexed": true,
          "internalType": "address",
          "name": "previousOwner",
          "type": "address"
        },
        {
          "indexed": true,
          "internalType": "address",
          "name": "newOwner",
          "type": "address"
        }
      ],
      "name": "OwnershipTransferred",
      "type": "event"
    },
    {
      "anonymous": false,
      "inputs": [
        {
          "indexed": false,
          "internalType": "address",
          "name": "vault",
          "type": "address"
        }
      ],
      "name": "UpdateDAOVault",
      "type": "event"
    },
    {
      "anonymous": false,
      "inputs": [
        {
          "indexed": false,
          "internalType": "uint256",
          "name": "percent",
          "type": "uint256"
        }
      ],
      "name": "UpdateGewardPercent",
      "type": "event"
    },
    {
      "anonymous": false,
      "inputs": [
        {
          "indexed": false,
          "internalType": "address",
          "name": "vault",
          "type": "address"
        }
      ],
      "name": "UpdateGewardVault",
      "type": "event"
    },
    {
      "anonymous": false,
      "inputs": [
        {
          "indexed": true,
          "internalType": "address",
          "name": "implementation",
          "type": "address"
        }
      ],
      "name": "Upgraded",
      "type": "event"
    },
    {
      "inputs": [],
      "name": "PRECENT_DENOMINATOR",
      "outputs": [
        {
          "internalType": "uint128",
          "name": "",
          "type": "uint128"
        }
      ],
      "stateMutability": "view",
      "type": "function"
    },
    {
      "inputs": [],
      "name": "PRICE_PRECISION",
      "outputs": [
        {
          "internalType": "uint128",
          "name": "",
          "type": "uint128"
        }
      ],
      "stateMutability": "view",
      "type": "function"
    },
    {
      "inputs": [],
      "name": "_percentForGeward",
      "outputs": [
        {
          "internalType": "uint256",
          "name": "",
          "type": "uint256"
        }
      ],
      "stateMutability": "view",
      "type": "function"
    },
    {
      "inputs": [],
      "name": "colletFees",
      "outputs": [],
      "stateMutability": "nonpayable",
      "type": "function"
    },
    {
      "inputs": [],
      "name": "config",
      "outputs": [
        {
          "internalType": "contract IConfig",
          "name": "",
          "type": "address"
        }
      ],
      "stateMutability": "view",
      "type": "function"
    },
    {
      "inputs": [],
      "name": "curve2CRV",
      "outputs": [
        {
          "internalType": "address",
          "name": "",
          "type": "address"
        }
      ],
      "stateMutability": "view",
      "type": "function"
    },
    {
      "inputs": [],
      "name": "getDAOVault",
      "outputs": [
        {
          "internalType": "address",
          "name": "",
          "type": "address"
        }
      ],
      "stateMutability": "view",
      "type": "function"
    },
    {
      "inputs": [],
      "name": "getGewardVault",
      "outputs": [
        {
          "internalType": "address",
          "name": "",
          "type": "address"
        }
      ],
      "stateMutability": "view",
      "type": "function"
    },
    {
      "inputs": [],
      "name": "getPercentForGeward",
      "outputs": [
        {
          "internalType": "uint256",
          "name": "",
          "type": "uint256"
        }
      ],
      "stateMutability": "view",
      "type": "function"
    },
    {
      "inputs": [],
      "name": "getTokens",
      "outputs": [
        {
          "internalType": "address[]",
          "name": "",
          "type": "address[]"
        }
      ],
      "stateMutability": "view",
      "type": "function"
    },
    {
      "inputs": [
        {
          "internalType": "address",
          "name": "vaultForDAO_",
          "type": "address"
        },
        {
          "internalType": "address",
          "name": "vaultForGeward_",
          "type": "address"
        },
        {
          "internalType": "uint256",
          "name": "percentForGeward_",
          "type": "uint256"
        }
      ],
      "name": "initialize",
      "outputs": [],
      "stateMutability": "nonpayable",
      "type": "function"
    },
    {
      "inputs": [],
      "name": "owner",
      "outputs": [
        {
          "internalType": "address",
          "name": "",
          "type": "address"
        }
      ],
      "stateMutability": "view",
      "type": "function"
    },
    {
      "inputs": [],
      "name": "proxiableUUID",
      "outputs": [
        {
          "internalType": "bytes32",
          "name": "",
          "type": "bytes32"
        }
      ],
      "stateMutability": "view",
      "type": "function"
    },
    {
      "inputs": [],
      "name": "renounceOwnership",
      "outputs": [],
      "stateMutability": "nonpayable",
      "type": "function"
    },
    {
      "inputs": [
        {
          "internalType": "contract IConfig",
          "name": "config_",
          "type": "address"
        }
      ],
      "name": "setConfig",
      "outputs": [],
      "stateMutability": "nonpayable",
      "type": "function"
    },
    {
      "inputs": [
        {
          "internalType": "address",
          "name": "vault",
          "type": "address"
        }
      ],
      "name": "setDAOVault",
      "outputs": [],
      "stateMutability": "nonpayable",
      "type": "function"
    },
    {
      "inputs": [
        {
          "internalType": "address",
          "name": "vault",
          "type": "address"
        }
      ],
      "name": "setGewardVault",
      "outputs": [],
      "stateMutability": "nonpayable",
      "type": "function"
    },
    {
      "inputs": [
        {
          "internalType": "uint256",
          "name": "percent",
          "type": "uint256"
        }
      ],
      "name": "setPercentForGeward",
      "outputs": [],
      "stateMutability": "nonpayable",
      "type": "function"
    },
    {
      "inputs": [
        {
          "internalType": "address",
          "name": "newOwner",
          "type": "address"
        }
      ],
      "name": "transferOwnership",
      "outputs": [],
      "stateMutability": "nonpayable",
      "type": "function"
    },
    {
      "inputs": [
        {
          "internalType": "address",
          "name": "newImplementation",
          "type": "address"
        }
      ],
      "name": "upgradeTo",
      "outputs": [],
      "stateMutability": "nonpayable",
      "type": "function"
    },
    {
      "inputs": [
        {
          "internalType": "address",
          "name": "newImplementation",
          "type": "address"
        },
        {
          "internalType": "bytes",
          "name": "data",
          "type": "bytes"
        }
      ],
      "name": "upgradeToAndCall",
      "outputs": [],
      "stateMutability": "payable",
      "type": "function"
    }
  ],
  "transactionHash": "0x00f59ea483aa5602f2e9c0c04c923e1c88991ea41ec8b95e7260d9fd82e88b3c",
  "args": [],
  "numDeployments": 1,
  "solcInputHash": "4f1f45ca5fe8f6515b42ba0264732978",
  "bytecode": "0x60a06040523060805234801561001457600080fd5b50608051611b6561004c600039600081816109230152818161096301528181610a0201528181610a420152610ad50152611b656000f3fe60806040526004361061012a5760003560e01c80635f7b4e0f116100ab57806395082d251161006f57806395082d25146102fb5780639cc182a41461032f578063a8564b9014610348578063aa6ca80814610368578063bfe8fff71461038a578063f2fde38b146103aa57600080fd5b80635f7b4e0f14610275578063715018a61461029357806379502c55146102a85780638da5cb5b146102c85780638fbed1ef146102e657600080fd5b806320e3dbd4116100f257806320e3dbd4146101ed57806327b4ecd81461020d5780633659cfe61461022d5780634f1ef2861461024d57806352d1902d1461026057600080fd5b80630ccc94081461012f57806313dbe4641461015857806313f59c291461016f5780631794bb3c146101af5780631af6c064146101cf575b600080fd5b34801561013b57600080fd5b5061014560cc5481565b6040519081526020015b60405180910390f35b34801561016457600080fd5b5061016d6103ca565b005b34801561017b57600080fd5b50610197737f90122bf0700f9e7e1f688fe926940e8839f35381565b6040516001600160a01b03909116815260200161014f565b3480156101bb57600080fd5b5061016d6101ca366004611654565b610730565b3480156101db57600080fd5b5060c9546001600160a01b0316610197565b3480156101f957600080fd5b5061016d610208366004611695565b610892565b34801561021957600080fd5b5061016d610228366004611695565b6108bc565b34801561023957600080fd5b5061016d610248366004611695565b610919565b61016d61025b3660046116f9565b6109f8565b34801561026c57600080fd5b50610145610ac8565b34801561028157600080fd5b5060ca546001600160a01b0316610197565b34801561029f57600080fd5b5061016d610b7b565b3480156102b457600080fd5b5060cb54610197906001600160a01b031681565b3480156102d457600080fd5b506033546001600160a01b0316610197565b3480156102f257600080fd5b5060cc54610145565b34801561030757600080fd5b50610317670de0b6b3a764000081565b6040516001600160801b03909116815260200161014f565b34801561033b57600080fd5b506103176402540be40081565b34801561035457600080fd5b5061016d610363366004611695565b610b8f565b34801561037457600080fd5b5061037d610be5565b60405161014f91906117a1565b34801561039657600080fd5b5061016d6103a53660046117ee565b610bf4565b3480156103b657600080fd5b5061016d6103c5366004611695565b610c05565b60006103d4610c7b565b90507311cdb42b0eb46d95f990bedd4695a6e3fa0349786103f3610eaf565b6103fb610f75565b610403610fbf565b60005b825181101561063e57600083828151811061042357610423611807565b60200260200101519050826001600160a01b0316816001600160a01b03160361044c575061062c565b6040516370a0823160e01b81523060048201526000906001600160a01b038316906370a0823190602401602060405180830381865afa158015610493573d6000803e3d6000fd5b505050506040513d601f19601f820116820180604052508101906104b7919061181d565b905080156106295760006104dc8260cc546402540be4006001600160801b0316611009565b905060006104ea828461184c565b60c95460405163a9059cbb60e01b81526001600160a01b0391821660048201526024810183905291925085169063a9059cbb906044016020604051808303816000875af115801561053f573d6000803e3d6000fd5b505050506040513d601f19601f82011682018060405250810190610563919061185f565b5060ca5460405163a9059cbb60e01b81526001600160a01b039182166004820152602481018490529085169063a9059cbb906044016020604051808303816000875af11580156105b7573d6000803e3d6000fd5b505050506040513d601f19601f820116820180604052508101906105db919061185f565b50604080516001600160a01b0386168152602081018390529081018390527f8404a1a2361459f75beb2db6d92cfcb81d7bc0be7b5f01fd7596a9ca1c649e699060600160405180910390a150505b50505b8061063681611881565b915050610406565b506040516370a0823160e01b81523060048201526000906001600160a01b038316906370a0823190602401602060405180830381865afa158015610686573d6000803e3d6000fd5b505050506040513d601f19601f820116820180604052508101906106aa919061181d565b9050801561072b5760c95460405163a9059cbb60e01b81526001600160a01b039182166004820152602481018390529083169063a9059cbb906044016020604051808303816000875af1158015610705573d6000803e3d6000fd5b505050506040513d601f19601f82011682018060405250810190610729919061185f565b505b505050565b600054610100900460ff16158080156107505750600054600160ff909116105b8061076a5750303b15801561076a575060005460ff166001145b6107d25760405162461bcd60e51b815260206004820152602e60248201527f496e697469616c697a61626c653a20636f6e747261637420697320616c72656160448201526d191e481a5b9a5d1a585b1a5e995960921b60648201526084015b60405180910390fd5b6000805460ff1916600117905580156107f5576000805461ff0019166101001790555b6107fd6110be565b6108056110ed565b61080e32611114565b60c980546001600160a01b038087166001600160a01b03199283161790925560ca80549286169290911691909117905561084782611166565b8015610729576000805461ff0019169055604051600181527f7f26b83ff96e1f2b6a682f133852f6798a09c465da95921460cefb38474024989060200160405180910390a150505050565b61089a6111f0565b60cb80546001600160a01b0319166001600160a01b0392909216919091179055565b6108c46111f0565b60ca80546001600160a01b0319166001600160a01b0383169081179091556040519081527f2c6f60d1aabc2192353325ea79ec3a25a727cc3e13b097b64fa56003f25257c9906020015b60405180910390a150565b6001600160a01b037f00000000000000000000000000000000000000000000000000000000000000001630036109615760405162461bcd60e51b81526004016107c99061189a565b7f00000000000000000000000000000000000000000000000000000000000000006001600160a01b03166109aa600080516020611ae9833981519152546001600160a01b031690565b6001600160a01b0316146109d05760405162461bcd60e51b81526004016107c9906118e6565b6109d98161124a565b604080516000808252602082019092526109f591839190611252565b50565b6001600160a01b037f0000000000000000000000000000000000000000000000000000000000000000163003610a405760405162461bcd60e51b81526004016107c99061189a565b7f00000000000000000000000000000000000000000000000000000000000000006001600160a01b0316610a89600080516020611ae9833981519152546001600160a01b031690565b6001600160a01b031614610aaf5760405162461bcd60e51b81526004016107c9906118e6565b610ab88261124a565b610ac482826001611252565b5050565b6000306001600160a01b037f00000000000000000000000000000000000000000000000000000000000000001614610b685760405162461bcd60e51b815260206004820152603860248201527f555550535570677261646561626c653a206d757374206e6f742062652063616c60448201527f6c6564207468726f7567682064656c656761746563616c6c000000000000000060648201526084016107c9565b50600080516020611ae983398151915290565b610b836111f0565b610b8d6000611114565b565b610b976111f0565b60c980546001600160a01b0319166001600160a01b0383169081179091556040519081527f63a2918a379daf8bdb30ec10673d7f07643c1500c604893e6bdfe14be1fbd87a9060200161090e565b6060610bef610c7b565b905090565b610bfc6111f0565b6109f581611166565b610c0d6111f0565b6001600160a01b038116610c725760405162461bcd60e51b815260206004820152602660248201527f4f776e61626c653a206e6577206f776e657220697320746865207a65726f206160448201526564647265737360d01b60648201526084016107c9565b6109f581611114565b6060600060cb60009054906101000a90046001600160a01b03166001600160a01b031663e21959046040518163ffffffff1660e01b8152600401600060405180830381865afa158015610cd2573d6000803e3d6000fd5b505050506040513d6000823e601f3d908101601f19168201604052610cfa9190810190611932565b9050600081516002610d0c91906119e4565b67ffffffffffffffff811115610d2457610d246116b2565b604051908082528060200260200182016040528015610d4d578160200160208202803683370190505b50905060005b8251811015610db257828181518110610d6e57610d6e611807565b6020026020010151828281518110610d8857610d88611807565b6001600160a01b039092166020928302919091019091015280610daa81611881565b915050610d53565b5060cb60009054906101000a90046001600160a01b03166001600160a01b031663e3fbec786040518163ffffffff1660e01b8152600401602060405180830381865afa158015610e06573d6000803e3d6000fd5b505050506040513d601f19601f82011682018060405250810190610e2a91906119f7565b81835181518110610e3d57610e3d611807565b60200260200101906001600160a01b031690816001600160a01b0316815250507311cdb42b0eb46d95f990bedd4695a6e3fa0349788183516001610e8191906119e4565b81518110610e9157610e91611807565b6001600160a01b039092166020928302919091019091015292915050565b60cb54604080516326dac0af60e21b815290516000926001600160a01b031691639b6b02bc9160048083019260209291908290030181865afa158015610ef9573d6000803e3d6000fd5b505050506040513d601f19601f82011682018060405250810190610f1d91906119f7565b9050806001600160a01b031663476343ee6040518163ffffffff1660e01b8152600401600060405180830381600087803b158015610f5a57600080fd5b505af1158015610f6e573d6000803e3d6000fd5b5050505050565b60cb5460408051636786665760e11b815290516000926001600160a01b03169163cf0cccae9160048083019260209291908290030181865afa158015610ef9573d6000803e3d6000fd5b60cb54604080516319bf6c9d60e11b815290516000926001600160a01b03169163337ed93a9160048083019260209291908290030181865afa158015610ef9573d6000803e3d6000fd5b60008080600019858709858702925082811083820303915050806000036110435783828161103957611039611a14565b04925050506110b7565b80841161104f57600080fd5b600084868809851960019081018716968790049682860381900495909211909303600082900391909104909201919091029190911760038402600290811880860282030280860282030280860282030280860282030280860282030280860290910302029150505b9392505050565b600054610100900460ff166110e55760405162461bcd60e51b81526004016107c990611a2a565b610b8d6113bd565b600054610100900460ff16610b8d5760405162461bcd60e51b81526004016107c990611a2a565b603380546001600160a01b038381166001600160a01b0319831681179093556040519116919082907f8be0079c531659141344cd1fd0a4f28419497f9722a3daafe3b4186f6b6457e090600090a35050565b6402540be4008111156111bb5760405162461bcd60e51b815260206004820152601c60248201527f466565526f757465723a2070657263656e7420746f6f206c617267650000000060448201526064016107c9565b60cc8190556040518181527f322eea8b0a4bd72cf321f2b07612d7dd80c0fd1e6f7fc7bef3aa0d56334224eb9060200161090e565b6033546001600160a01b03163314610b8d5760405162461bcd60e51b815260206004820181905260248201527f4f776e61626c653a2063616c6c6572206973206e6f7420746865206f776e657260448201526064016107c9565b6109f56111f0565b7f4910fdfa16fed3260ed0e7147f7cc6da11a60208b5b9406d12a635614ffd91435460ff16156112855761072b836113ed565b826001600160a01b03166352d1902d6040518163ffffffff1660e01b8152600401602060405180830381865afa9250505080156112df575060408051601f3d908101601f191682019092526112dc9181019061181d565b60015b6113425760405162461bcd60e51b815260206004820152602e60248201527f45524331393637557067726164653a206e657720696d706c656d656e7461746960448201526d6f6e206973206e6f74205555505360901b60648201526084016107c9565b600080516020611ae983398151915281146113b15760405162461bcd60e51b815260206004820152602960248201527f45524331393637557067726164653a20756e737570706f727465642070726f786044820152681a58589b195555525160ba1b60648201526084016107c9565b5061072b838383611489565b600054610100900460ff166113e45760405162461bcd60e51b81526004016107c990611a2a565b610b8d33611114565b6001600160a01b0381163b61145a5760405162461bcd60e51b815260206004820152602d60248201527f455243313936373a206e657720696d706c656d656e746174696f6e206973206e60448201526c1bdd08184818dbdb9d1c9858dd609a1b60648201526084016107c9565b600080516020611ae983398151915280546001600160a01b0319166001600160a01b0392909216919091179055565b611492836114ae565b60008251118061149f5750805b1561072b5761072983836114ee565b6114b7816113ed565b6040516001600160a01b038216907fbc7cd75a20ee27fd9adebab32041f755214dbc6bffa90cc0225b39da2e5c2d3b90600090a250565b60606115138383604051806060016040528060278152602001611b096027913961151c565b90505b92915050565b6060600080856001600160a01b0316856040516115399190611a99565b600060405180830381855af49150503d8060008114611574576040519150601f19603f3d011682016040523d82523d6000602084013e611579565b606091505b509150915061158a86838387611594565b9695505050505050565b606083156116035782516000036115fc576001600160a01b0385163b6115fc5760405162461bcd60e51b815260206004820152601d60248201527f416464726573733a2063616c6c20746f206e6f6e2d636f6e747261637400000060448201526064016107c9565b508161160d565b61160d8383611615565b949350505050565b8151156116255781518083602001fd5b8060405162461bcd60e51b81526004016107c99190611ab5565b6001600160a01b03811681146109f557600080fd5b60008060006060848603121561166957600080fd5b83356116748161163f565b925060208401356116848161163f565b929592945050506040919091013590565b6000602082840312156116a757600080fd5b81356110b78161163f565b634e487b7160e01b600052604160045260246000fd5b604051601f8201601f1916810167ffffffffffffffff811182821017156116f1576116f16116b2565b604052919050565b6000806040838503121561170c57600080fd5b82356117178161163f565b915060208381013567ffffffffffffffff8082111561173557600080fd5b818601915086601f83011261174957600080fd5b81358181111561175b5761175b6116b2565b61176d601f8201601f191685016116c8565b9150808252878482850101111561178357600080fd5b80848401858401376000848284010152508093505050509250929050565b6020808252825182820181905260009190848201906040850190845b818110156117e25783516001600160a01b0316835292840192918401916001016117bd565b50909695505050505050565b60006020828403121561180057600080fd5b5035919050565b634e487b7160e01b600052603260045260246000fd5b60006020828403121561182f57600080fd5b5051919050565b634e487b7160e01b600052601160045260246000fd5b8181038181111561151657611516611836565b60006020828403121561187157600080fd5b815180151581146110b757600080fd5b60006001820161189357611893611836565b5060010190565b6020808252602c908201527f46756e6374696f6e206d7573742062652063616c6c6564207468726f7567682060408201526b19195b1959d85d1958d85b1b60a21b606082015260800190565b6020808252602c908201527f46756e6374696f6e206d7573742062652063616c6c6564207468726f7567682060408201526b6163746976652070726f787960a01b606082015260800190565b6000602080838503121561194557600080fd5b825167ffffffffffffffff8082111561195d57600080fd5b818501915085601f83011261197157600080fd5b815181811115611983576119836116b2565b8060051b91506119948483016116c8565b81815291830184019184810190888411156119ae57600080fd5b938501935b838510156119d857845192506119c88361163f565b82825293850193908501906119b3565b98975050505050505050565b8082018082111561151657611516611836565b600060208284031215611a0957600080fd5b81516110b78161163f565b634e487b7160e01b600052601260045260246000fd5b6020808252602b908201527f496e697469616c697a61626c653a20636f6e7472616374206973206e6f74206960408201526a6e697469616c697a696e6760a81b606082015260800190565b60005b83811015611a90578181015183820152602001611a78565b50506000910152565b60008251611aab818460208701611a75565b9190910192915050565b6020815260008251806020840152611ad4816040850160208701611a75565b601f01601f1916919091016040019291505056fe360894a13ba1a3210667c828492db98dca3e2076cc3735a920a3ca505d382bbc416464726573733a206c6f772d6c6576656c2064656c65676174652063616c6c206661696c6564a26469706673582212202fc3abd04584d79aaca650ddd48fe1eff0755c9f6ce359d1faf73424bd8e5df664736f6c63430008120033",
  "devdoc": {
    "events": {
      "AdminChanged(address,address)": {
        "details": "Emitted when the admin account has changed."
      },
      "BeaconUpgraded(address)": {
        "details": "Emitted when the beacon is changed."
      },
      "Initialized(uint8)": {
        "details": "Triggered when the contract has been initialized or reinitialized."
      },
      "Upgraded(address)": {
        "details": "Emitted when the implementation is upgraded."
      }
    },
    "kind": "dev",
    "methods": {
      "owner()": {
        "details": "Returns the address of the current owner."
      },
      "proxiableUUID()": {
        "details": "Implementation of the ERC1822 {proxiableUUID} function. This returns the storage slot used by the implementation. It is used to validate the implementation's compatibility when performing an upgrade. IMPORTANT: A proxy pointing at a proxiable contract should not be considered proxiable itself, because this risks bricking a proxy that upgrades to it, by delegating to itself until out of gas. Thus it is critical that this function revert if invoked through a proxy. This is guaranteed by the `notDelegated` modifier."
      },
      "renounceOwnership()": {
        "details": "Leaves the contract without owner. It will not be possible to call `onlyOwner` functions. Can only be called by the current owner. NOTE: Renouncing ownership will leave the contract without an owner, thereby disabling any functionality that is only available to the owner."
      },
      "transferOwnership(address)": {
        "details": "Transfers ownership of the contract to a new account (`newOwner`). Can only be called by the current owner."
      },
      "upgradeTo(address)": {
        "custom:oz-upgrades-unsafe-allow-reachable": "delegatecall",
        "details": "Upgrade the implementation of the proxy to `newImplementation`. Calls {_authorizeUpgrade}. Emits an {Upgraded} event."
      },
      "upgradeToAndCall(address,bytes)": {
        "custom:oz-upgrades-unsafe-allow-reachable": "delegatecall",
        "details": "Upgrade the implementation of the proxy to `newImplementation`, and subsequently execute the function call encoded in `data`. Calls {_authorizeUpgrade}. Emits an {Upgraded} event."
      }
    },
    "version": 1
  },
  "userdoc": {
    "kind": "user",
    "methods": {},
    "version": 1
  },
  "storageLayout": {
    "storage": [
      {
        "astId": 590,
        "contract": "contracts/feerouter/FeeRouter.sol:FeeRouter",
        "label": "_initialized",
        "offset": 0,
        "slot": "0",
        "type": "t_uint8"
      },
      {
        "astId": 593,
        "contract": "contracts/feerouter/FeeRouter.sol:FeeRouter",
        "label": "_initializing",
        "offset": 1,
        "slot": "0",
        "type": "t_bool"
      },
      {
        "astId": 1812,
        "contract": "contracts/feerouter/FeeRouter.sol:FeeRouter",
        "label": "__gap",
        "offset": 0,
        "slot": "1",
        "type": "t_array(t_uint256)50_storage"
      },
      {
        "astId": 10,
        "contract": "contracts/feerouter/FeeRouter.sol:FeeRouter",
        "label": "_owner",
        "offset": 0,
        "slot": "51",
        "type": "t_address"
      },
      {
        "astId": 130,
        "contract": "contracts/feerouter/FeeRouter.sol:FeeRouter",
        "label": "__gap",
        "offset": 0,
        "slot": "52",
        "type": "t_array(t_uint256)49_storage"
      },
      {
        "astId": 572,
        "contract": "contracts/feerouter/FeeRouter.sol:FeeRouter",
        "label": "__gap",
        "offset": 0,
        "slot": "101",
        "type": "t_array(t_uint256)50_storage"
      },
      {
        "astId": 887,
        "contract": "contracts/feerouter/FeeRouter.sol:FeeRouter",
        "label": "__gap",
        "offset": 0,
        "slot": "151",
        "type": "t_array(t_uint256)50_storage"
      },
      {
        "astId": 22744,
        "contract": "contracts/feerouter/FeeRouter.sol:FeeRouter",
        "label": "_vaultForDAO",
        "offset": 0,
        "slot": "201",
        "type": "t_address"
      },
      {
        "astId": 22746,
        "contract": "contracts/feerouter/FeeRouter.sol:FeeRouter",
        "label": "_vaultForGeward",
        "offset": 0,
        "slot": "202",
        "type": "t_address"
      },
      {
        "astId": 22749,
        "contract": "contracts/feerouter/FeeRouter.sol:FeeRouter",
        "label": "config",
        "offset": 0,
        "slot": "203",
        "type": "t_contract(IConfig)20550"
      },
      {
        "astId": 22751,
        "contract": "contracts/feerouter/FeeRouter.sol:FeeRouter",
        "label": "_percentForGeward",
        "offset": 0,
        "slot": "204",
        "type": "t_uint256"
      }
    ],
    "types": {
      "t_address": {
        "encoding": "inplace",
        "label": "address",
        "numberOfBytes": "20"
      },
      "t_array(t_uint256)49_storage": {
        "base": "t_uint256",
        "encoding": "inplace",
        "label": "uint256[49]",
        "numberOfBytes": "1568"
      },
      "t_array(t_uint256)50_storage": {
        "base": "t_uint256",
        "encoding": "inplace",
        "label": "uint256[50]",
        "numberOfBytes": "1600"
      },
      "t_bool": {
        "encoding": "inplace",
        "label": "bool",
        "numberOfBytes": "1"
      },
      "t_contract(IConfig)20550": {
        "encoding": "inplace",
        "label": "contract IConfig",
        "numberOfBytes": "20"
      },
      "t_uint256": {
        "encoding": "inplace",
        "label": "uint256",
        "numberOfBytes": "32"
      },
      "t_uint8": {
        "encoding": "inplace",
        "label": "uint8",
        "numberOfBytes": "1"
      }
    }
  }
}