{
  "address": "0xd9122A034Ac66BF12eb17e1786eAbdF70eb71EE0",
  "abi": [
    {
      "anonymous": false,
      "inputs": [
        {
          "indexed": false,
          "internalType": "address",
          "name": "previousAdmin",
          "type": "address"
        },
        {
          "indexed": false,
          "internalType": "address",
          "name": "newAdmin",
          "type": "address"
        }
      ],
      "name": "AdminChanged",
      "type": "event"
    },
    {
      "anonymous": false,
      "inputs": [
        {
          "indexed": true,
          "internalType": "address",
          "name": "account",
          "type": "address"
        },
        {
          "indexed": true,
          "internalType": "address",
          "name": "operator",
          "type": "address"
        },
        {
          "indexed": false,
          "internalType": "bool",
          "name": "approved",
          "type": "bool"
        }
      ],
      "name": "ApprovalForAll",
      "type": "event"
    },
    {
      "anonymous": false,
      "inputs": [
        {
          "indexed": true,
          "internalType": "address",
          "name": "beacon",
          "type": "address"
        }
      ],
      "name": "BeaconUpgraded",
      "type": "event"
    },
    {
      "anonymous": false,
      "inputs": [
        {
          "indexed": true,
          "internalType": "address",
          "name": "operator",
          "type": "address"
        },
        {
          "indexed": true,
          "internalType": "address",
          "name": "from",
          "type": "address"
        },
        {
          "indexed": true,
          "internalType": "address",
          "name": "to",
          "type": "address"
        },
        {
          "indexed": false,
          "internalType": "uint256[]",
          "name": "tokenIds",
          "type": "uint256[]"
        },
        {
          "indexed": false,
          "internalType": "uint256[]",
          "name": "values",
          "type": "uint256[]"
        }
      ],
      "name": "Bridge2GameChain",
      "type": "event"
    },
    {
      "anonymous": false,
      "inputs": [
        {
          "indexed": true,
          "internalType": "address",
          "name": "operator",
          "type": "address"
        },
        {
          "indexed": true,
          "internalType": "address",
          "name": "from",
          "type": "address"
        },
        {
          "indexed": true,
          "internalType": "address",
          "name": "to",
          "type": "address"
        },
        {
          "indexed": false,
          "internalType": "uint256[]",
          "name": "tokenIds",
          "type": "uint256[]"
        },
        {
          "indexed": false,
          "internalType": "uint256[]",
          "name": "values",
          "type": "uint256[]"
        }
      ],
      "name": "Bridge2PublicChain",
      "type": "event"
    },
    {
      "anonymous": false,
      "inputs": [
        {
          "indexed": false,
          "internalType": "uint8",
          "name": "version",
          "type": "uint8"
        }
      ],
      "name": "Initialized",
      "type": "event"
    },
    {
      "anonymous": false,
      "inputs": [
        {
          "indexed": true,
          "internalType": "address",
          "name": "previousOwner",
          "type": "address"
        },
        {
          "indexed": true,
          "internalType": "address",
          "name": "newOwner",
          "type": "address"
        }
      ],
      "name": "OwnershipTransferred",
      "type": "event"
    },
    {
      "anonymous": false,
      "inputs": [
        {
          "indexed": true,
          "internalType": "address",
          "name": "operator",
          "type": "address"
        },
        {
          "indexed": true,
          "internalType": "address",
          "name": "from",
          "type": "address"
        },
        {
          "indexed": true,
          "internalType": "address",
          "name": "to",
          "type": "address"
        },
        {
          "indexed": false,
          "internalType": "uint256[]",
          "name": "ids",
          "type": "uint256[]"
        },
        {
          "indexed": false,
          "internalType": "uint256[]",
          "name": "values",
          "type": "uint256[]"
        }
      ],
      "name": "TransferBatch",
      "type": "event"
    },
    {
      "anonymous": false,
      "inputs": [
        {
          "indexed": true,
          "internalType": "address",
          "name": "operator",
          "type": "address"
        },
        {
          "indexed": true,
          "internalType": "address",
          "name": "from",
          "type": "address"
        },
        {
          "indexed": true,
          "internalType": "address",
          "name": "to",
          "type": "address"
        },
        {
          "indexed": false,
          "internalType": "uint256",
          "name": "id",
          "type": "uint256"
        },
        {
          "indexed": false,
          "internalType": "uint256",
          "name": "value",
          "type": "uint256"
        }
      ],
      "name": "TransferSingle",
      "type": "event"
    },
    {
      "anonymous": false,
      "inputs": [
        {
          "indexed": false,
          "internalType": "string",
          "name": "value",
          "type": "string"
        },
        {
          "indexed": true,
          "internalType": "uint256",
          "name": "id",
          "type": "uint256"
        }
      ],
      "name": "URI",
      "type": "event"
    },
    {
      "anonymous": false,
      "inputs": [
        {
          "indexed": true,
          "internalType": "address",
          "name": "implementation",
          "type": "address"
        }
      ],
      "name": "Upgraded",
      "type": "event"
    },
    {
      "inputs": [],
      "name": "ERC1155NFTPrefix",
      "outputs": [
        {
          "internalType": "uint8",
          "name": "",
          "type": "uint8"
        }
      ],
      "stateMutability": "view",
      "type": "function"
    },
    {
      "inputs": [],
      "name": "ERC20NFTPrefix",
      "outputs": [
        {
          "internalType": "uint8",
          "name": "",
          "type": "uint8"
        }
      ],
      "stateMutability": "view",
      "type": "function"
    },
    {
      "inputs": [],
      "name": "ERC721NFTPrefix",
      "outputs": [
        {
          "internalType": "uint8",
          "name": "",
          "type": "uint8"
        }
      ],
      "stateMutability": "view",
      "type": "function"
    },
    {
      "inputs": [],
      "name": "GameNFTPrefix",
      "outputs": [
        {
          "internalType": "uint8",
          "name": "",
          "type": "uint8"
        }
      ],
      "stateMutability": "view",
      "type": "function"
    },
    {
      "inputs": [
        {
          "internalType": "address",
          "name": "account",
          "type": "address"
        },
        {
          "internalType": "uint256",
          "name": "id",
          "type": "uint256"
        }
      ],
      "name": "balanceOf",
      "outputs": [
        {
          "internalType": "uint256",
          "name": "",
          "type": "uint256"
        }
      ],
      "stateMutability": "view",
      "type": "function"
    },
    {
      "inputs": [
        {
          "internalType": "address[]",
          "name": "accounts",
          "type": "address[]"
        },
        {
          "internalType": "uint256[]",
          "name": "ids",
          "type": "uint256[]"
        }
      ],
      "name": "balanceOfBatch",
      "outputs": [
        {
          "internalType": "uint256[]",
          "name": "",
          "type": "uint256[]"
        }
      ],
      "stateMutability": "view",
      "type": "function"
    },
    {
      "inputs": [
        {
          "internalType": "address",
          "name": "to",
          "type": "address"
        },
        {
          "internalType": "address[]",
          "name": "tokenAddresss",
          "type": "address[]"
        },
        {
          "internalType": "uint256[]",
          "name": "amounts",
          "type": "uint256[]"
        },
        {
          "internalType": "bytes",
          "name": "data",
          "type": "bytes"
        }
      ],
      "name": "batchMintByERC20",
      "outputs": [],
      "stateMutability": "nonpayable",
      "type": "function"
    },
    {
      "inputs": [
        {
          "internalType": "address",
          "name": "tokenAddress",
          "type": "address"
        }
      ],
      "name": "calcERC20TokenId",
      "outputs": [
        {
          "internalType": "uint256",
          "name": "",
          "type": "uint256"
        }
      ],
      "stateMutability": "pure",
      "type": "function"
    },
    {
      "inputs": [],
      "name": "config",
      "outputs": [
        {
          "internalType": "contract IConfig",
          "name": "",
          "type": "address"
        }
      ],
      "stateMutability": "view",
      "type": "function"
    },
    {
      "inputs": [
        {
          "internalType": "uint256",
          "name": "tokenId",
          "type": "uint256"
        }
      ],
      "name": "getItemId",
      "outputs": [
        {
          "internalType": "uint8",
          "name": "",
          "type": "uint8"
        },
        {
          "internalType": "uint256",
          "name": "",
          "type": "uint256"
        }
      ],
      "stateMutability": "pure",
      "type": "function"
    },
    {
      "inputs": [
        {
          "internalType": "bytes",
          "name": "b",
          "type": "bytes"
        }
      ],
      "name": "hex2Uint256",
      "outputs": [
        {
          "internalType": "uint256",
          "name": "value",
          "type": "uint256"
        }
      ],
      "stateMutability": "pure",
      "type": "function"
    },
    {
      "inputs": [
        {
          "internalType": "contract IConfig",
          "name": "config_",
          "type": "address"
        }
      ],
      "name": "initialize",
      "outputs": [],
      "stateMutability": "nonpayable",
      "type": "function"
    },
    {
      "inputs": [
        {
          "internalType": "address",
          "name": "account",
          "type": "address"
        },
        {
          "internalType": "address",
          "name": "operator",
          "type": "address"
        }
      ],
      "name": "isApprovedForAll",
      "outputs": [
        {
          "internalType": "bool",
          "name": "",
          "type": "bool"
        }
      ],
      "stateMutability": "view",
      "type": "function"
    },
    {
      "inputs": [],
      "name": "owner",
      "outputs": [
        {
          "internalType": "address",
          "name": "",
          "type": "address"
        }
      ],
      "stateMutability": "view",
      "type": "function"
    },
    {
      "inputs": [],
      "name": "proxiableUUID",
      "outputs": [
        {
          "internalType": "bytes32",
          "name": "",
          "type": "bytes32"
        }
      ],
      "stateMutability": "view",
      "type": "function"
    },
    {
      "inputs": [],
      "name": "renounceOwnership",
      "outputs": [],
      "stateMutability": "nonpayable",
      "type": "function"
    },
    {
      "inputs": [
        {
          "internalType": "address",
          "name": "from",
          "type": "address"
        },
        {
          "internalType": "address",
          "name": "to",
          "type": "address"
        },
        {
          "internalType": "uint256[]",
          "name": "ids",
          "type": "uint256[]"
        },
        {
          "internalType": "uint256[]",
          "name": "amounts",
          "type": "uint256[]"
        }
      ],
      "name": "safeBatchBridge2GameFrom",
      "outputs": [],
      "stateMutability": "nonpayable",
      "type": "function"
    },
    {
      "inputs": [
        {
          "internalType": "address",
          "name": "from",
          "type": "address"
        },
        {
          "internalType": "address",
          "name": "to",
          "type": "address"
        },
        {
          "internalType": "uint256[]",
          "name": "ids",
          "type": "uint256[]"
        },
        {
          "internalType": "uint256[]",
          "name": "amounts",
          "type": "uint256[]"
        },
        {
          "internalType": "bytes",
          "name": "data",
          "type": "bytes"
        }
      ],
      "name": "safeBatchBridge2PublicChainFrom",
      "outputs": [],
      "stateMutability": "nonpayable",
      "type": "function"
    },
    {
      "inputs": [
        {
          "internalType": "address",
          "name": "from",
          "type": "address"
        },
        {
          "internalType": "address",
          "name": "to",
          "type": "address"
        },
        {
          "internalType": "uint256[]",
          "name": "ids",
          "type": "uint256[]"
        },
        {
          "internalType": "uint256[]",
          "name": "amounts",
          "type": "uint256[]"
        },
        {
          "internalType": "bytes",
          "name": "data",
          "type": "bytes"
        }
      ],
      "name": "safeBatchTransferFrom",
      "outputs": [],
      "stateMutability": "nonpayable",
      "type": "function"
    },
    {
      "inputs": [
        {
          "internalType": "address",
          "name": "from",
          "type": "address"
        },
        {
          "internalType": "address",
          "name": "to",
          "type": "address"
        },
        {
          "internalType": "uint256",
          "name": "id",
          "type": "uint256"
        },
        {
          "internalType": "uint256",
          "name": "amount",
          "type": "uint256"
        },
        {
          "internalType": "bytes",
          "name": "data",
          "type": "bytes"
        }
      ],
      "name": "safeTransferFrom",
      "outputs": [],
      "stateMutability": "nonpayable",
      "type": "function"
    },
    {
      "inputs": [
        {
          "internalType": "address",
          "name": "operator",
          "type": "address"
        },
        {
          "internalType": "bool",
          "name": "approved",
          "type": "bool"
        }
      ],
      "name": "setApprovalForAll",
      "outputs": [],
      "stateMutability": "nonpayable",
      "type": "function"
    },
    {
      "inputs": [
        {
          "internalType": "bytes4",
          "name": "interfaceId",
          "type": "bytes4"
        }
      ],
      "name": "supportsInterface",
      "outputs": [
        {
          "internalType": "bool",
          "name": "",
          "type": "bool"
        }
      ],
      "stateMutability": "view",
      "type": "function"
    },
    {
      "inputs": [
        {
          "internalType": "address",
          "name": "newOwner",
          "type": "address"
        }
      ],
      "name": "transferOwnership",
      "outputs": [],
      "stateMutability": "nonpayable",
      "type": "function"
    },
    {
      "inputs": [
        {
          "internalType": "address",
          "name": "newImplementation",
          "type": "address"
        }
      ],
      "name": "upgradeTo",
      "outputs": [],
      "stateMutability": "nonpayable",
      "type": "function"
    },
    {
      "inputs": [
        {
          "internalType": "address",
          "name": "newImplementation",
          "type": "address"
        },
        {
          "internalType": "bytes",
          "name": "data",
          "type": "bytes"
        }
      ],
      "name": "upgradeToAndCall",
      "outputs": [],
      "stateMutability": "payable",
      "type": "function"
    },
    {
      "inputs": [
        {
          "internalType": "uint256",
          "name": "",
          "type": "uint256"
        }
      ],
      "name": "uri",
      "outputs": [
        {
          "internalType": "string",
          "name": "",
          "type": "string"
        }
      ],
      "stateMutability": "view",
      "type": "function"
    }
  ],
  "transactionHash": "0xf35930a398b87433559e2168a7af7eb5e2c82127d03acb5f8175846a620655e9",
  "args": [],
  "numDeployments": 1,
  "solcInputHash": "39f1b54c5265685ed1d1f58ca78aab39",
  "bytecode": "0x60a06040523060805234801561001457600080fd5b506080516136f461004c600039600081816108c80152818161090801528181610ad001528181610b100152610ba301526136f46000f3fe6080604052600436106101805760003560e01c8063715018a6116100d1578063b14c86c21161008a578063e985e9c511610064578063e985e9c514610477578063f242432a146104c0578063f2fde38b146104e0578063f76056ef1461050057600080fd5b8063b14c86c214610417578063c4d66de814610437578063c5ad899b1461045757600080fd5b8063715018a61461033d57806379502c55146103525780638da5cb5b1461038b57806395c109e2146103a9578063a22cb465146103be578063a9a76ece146103de57600080fd5b80633b6f049a1161013e5780634e1273f4116101185780634e1273f4146102c85780634f1ef286146102f557806352d1902d146103085780636c4dac1b1461031d57600080fd5b80633b6f049a1461027757806340856a651461029e57806348825de9146102b357600080fd5b8062fdd58e1461018557806301ffc9a7146101b85780630e89341c146101e857806325d10477146102155780632eb2c2d6146102375780633659cfe614610257575b600080fd5b34801561019157600080fd5b506101a56101a03660046128a2565b610520565b6040519081526020015b60405180910390f35b3480156101c457600080fd5b506101d86101d33660046128e4565b6105bc565b60405190151581526020016101af565b3480156101f457600080fd5b50610208610203366004612901565b6105e1565b6040516101af919061296a565b34801561022157600080fd5b50610235610230366004612b35565b610675565b005b34801561024357600080fd5b50610235610252366004612bcf565b61082e565b34801561026357600080fd5b50610235610272366004612c7c565b6108be565b34801561028357600080fd5b5061028c601081565b60405160ff90911681526020016101af565b3480156102aa57600080fd5b5061028c602081565b3480156102bf57600080fd5b5061028c604081565b3480156102d457600080fd5b506102e86102e3366004612c99565b61099d565b6040516101af9190612d37565b610235610303366004612d4a565b610ac6565b34801561031457600080fd5b506101a5610b96565b34801561032957600080fd5b50610235610338366004612dda565b610c4a565b34801561034957600080fd5b50610235610eab565b34801561035e57600080fd5b5061012d54610373906001600160a01b031681565b6040516001600160a01b0390911681526020016101af565b34801561039757600080fd5b506097546001600160a01b0316610373565b3480156103b557600080fd5b5061028c603081565b3480156103ca57600080fd5b506102356103d9366004612ed3565b610ebf565b3480156103ea57600080fd5b506103fe6103f9366004612901565b610eca565b6040805160ff90931683526020830191909152016101af565b34801561042357600080fd5b506101a5610432366004612f0c565b610edf565b34801561044357600080fd5b50610235610452366004612c7c565b610f67565b34801561046357600080fd5b50610235610472366004612f40565b6110a5565b34801561048357600080fd5b506101d8610492366004612fd4565b6001600160a01b03918216600090815260666020908152604080832093909416825291909152205460ff1690565b3480156104cc57600080fd5b506102356104db366004613002565b61145b565b3480156104ec57600080fd5b506102356104fb366004612c7c565b6114e2565b34801561050c57600080fd5b506101a561051b366004612c7c565b611558565b60006001600160a01b0383166105915760405162461bcd60e51b815260206004820152602b60248201527f455243313135353a2062616c616e636520717565727920666f7220746865207a60448201526a65726f206164647265737360a81b60648201526084015b60405180910390fd5b5060008181526065602090815260408083206001600160a01b03861684529091529020545b92915050565b60006001600160e01b031982166325964f3960e01b14806105b657506105b6826115a4565b6060606780546105f09061306a565b80601f016020809104026020016040519081016040528092919081815260200182805461061c9061306a565b80156106695780601f1061063e57610100808354040283529160200191610669565b820191906000526020600020905b81548152906001019060200180831161064c57829003601f168201915b50505050509050919050565b600083516001600160401b038111156106905761069061297d565b6040519080825280602002602001820160405280156106b9578160200160208202803683370190505b50905060005b84518110156108195760008582815181106106dc576106dc6130a4565b6020026020010151905060006106f182611558565b9050816001600160a01b03166323b872dd3330898781518110610716576107166130a4565b60209081029190910101516040516001600160e01b031960e086901b1681526001600160a01b03938416600482015292909116602483015260448201526064016020604051808303816000875af1158015610775573d6000803e3d6000fd5b505050506040513d601f19601f8201168201806040525081019061079991906130ba565b6107e55760405162461bcd60e51b815260206004820152601c60248201527f47616d654e46543a207472616e7366657246726f6d206661696c6564000000006044820152606401610588565b808484815181106107f8576107f86130a4565b60200260200101818152505050508080610811906130ed565b9150506106bf565b5061082733868386866115f4565b5050505050565b6001600160a01b03851633148061084a575061084a8533610492565b6108b15760405162461bcd60e51b815260206004820152603260248201527f455243313135353a207472616e736665722063616c6c6572206973206e6f74206044820152711bdddb995c881b9bdc88185c1c1c9bdd995960721b6064820152608401610588565b610827858585858561179e565b6001600160a01b037f00000000000000000000000000000000000000000000000000000000000000001630036109065760405162461bcd60e51b815260040161058890613106565b7f00000000000000000000000000000000000000000000000000000000000000006001600160a01b031661094f600080516020613678833981519152546001600160a01b031690565b6001600160a01b0316146109755760405162461bcd60e51b815260040161058890613152565b61097e816118cf565b6040805160008082526020820190925261099a918391906118d7565b50565b60608151835114610a025760405162461bcd60e51b815260206004820152602960248201527f455243313135353a206163636f756e747320616e6420696473206c656e677468604482015268040dad2e6dac2e8c6d60bb1b6064820152608401610588565b600083516001600160401b03811115610a1d57610a1d61297d565b604051908082528060200260200182016040528015610a46578160200160208202803683370190505b50905060005b8451811015610abe57610a91858281518110610a6a57610a6a6130a4565b6020026020010151858381518110610a8457610a846130a4565b6020026020010151610520565b828281518110610aa357610aa36130a4565b6020908102919091010152610ab7816130ed565b9050610a4c565b509392505050565b6001600160a01b037f0000000000000000000000000000000000000000000000000000000000000000163003610b0e5760405162461bcd60e51b815260040161058890613106565b7f00000000000000000000000000000000000000000000000000000000000000006001600160a01b0316610b57600080516020613678833981519152546001600160a01b031690565b6001600160a01b031614610b7d5760405162461bcd60e51b815260040161058890613152565b610b86826118cf565b610b92828260016118d7565b5050565b6000306001600160a01b037f00000000000000000000000000000000000000000000000000000000000000001614610c365760405162461bcd60e51b815260206004820152603860248201527f555550535570677261646561626c653a206d757374206e6f742062652063616c60448201527f6c6564207468726f7567682064656c656761746563616c6c00000000000000006064820152608401610588565b506000805160206136788339815191525b90565b61012d54604051631f8e5f9160e01b81523360048201526001600160a01b0390911690631f8e5f9190602401602060405180830381865afa158015610c93573d6000803e3d6000fd5b505050506040513d601f19601f82011682018060405250810190610cb791906130ba565b610d0f5760405162461bcd60e51b815260206004820152602360248201527f47616d654e46543a2063616c6c6572206973206e6f7420746865206f706572616044820152623a37b960e91b6064820152608401610588565b60005b85811015610da2576000610d3d888884818110610d3157610d316130a4565b90506020020135611a47565b50905060ff8116601014610d8f5760405162461bcd60e51b815260206004820152601960248201527811d85b595391950e881a5b9d985b1a59081d1bdad95b881a59603a1b6044820152606401610588565b5080610d9a816130ed565b915050610d12565b50610e46888888888080602002602001604051908101604052809392919081815260200183836020028082843760009201919091525050604080516020808c0282810182019093528b82529093508b92508a91829185019084908082843760009201919091525050604080516020601f8b0181900481028201810190925289815292508991508890819084018382808284376000920191909152506115f492505050565b866001600160a01b0316886001600160a01b0316336001600160a01b03167f7137e43d6a9f5c703f6da89e5957ad7de90d528d898a5e26d490a81232a1aa7189898989604051610e9994939291906131d0565b60405180910390a45050505050505050565b610eb3611d5e565b610ebd6000611db8565b565b610b92338383611e0a565b600080610ed683611a47565b91509150915091565b600080610f0383600081518110610ef857610ef86130a4565b016020015160f81c90565b60ff1690508251600103610f175792915050565b60015b8351811015610f6057600882901b9150610f3f848281518110610ef857610ef86130a4565b610f4c9060ff1683613202565b915080610f58816130ed565b915050610f1a565b5092915050565b600054610100900460ff1615808015610f875750600054600160ff909116105b80610fa15750303b158015610fa1575060005460ff166001145b6110045760405162461bcd60e51b815260206004820152602e60248201527f496e697469616c697a61626c653a20636f6e747261637420697320616c72656160448201526d191e481a5b9a5d1a585b1a5e995960921b6064820152608401610588565b6000805460ff191660011790558015611027576000805461ff0019166101001790555b61102f611eea565b611037611f19565b61104032611db8565b61012d80546001600160a01b0319166001600160a01b0384161790558015610b92576000805461ff0019169055604051600181527f7f26b83ff96e1f2b6a682f133852f6798a09c465da95921460cefb38474024989060200160405180910390a15050565b6111138685858080602002602001604051908101604052809392919081815260200183836020028082843760009201919091525050604080516020808902828101820190935288825290935088925087918291850190849080828437600092019190915250611f4092505050565b6000805b848110156112aa57600080611137888885818110610d3157610d316130a4565b9092509050600f1960ff83160161115a5783611152816130ed565b945050611295565b601f1960ff83160161125157806001600160a01b031663a9059cbb8a888887818110611188576111886130a4565b6040516001600160e01b031960e087901b1681526001600160a01b03909416600485015260200291909101356024830152506044016020604051808303816000875af11580156111dc573d6000803e3d6000fd5b505050506040513d601f19601f8201168201806040525081019061120091906130ba565b61124c5760405162461bcd60e51b815260206004820152601c60248201527f47616d654e46543a207472616e7366657246726f6d206661696c6564000000006044820152606401610588565b611295565b60405162461bcd60e51b815260206004820152601960248201527811d85b595391950e881a5b9d985b1a59081d1bdad95b881a59603a1b6044820152606401610588565b505080806112a2906130ed565b915050611117565b506000816001600160401b038111156112c5576112c561297d565b6040519080825280602002602001820160405280156112ee578160200160208202803683370190505b5090506000826001600160401b0381111561130b5761130b61297d565b604051908082528060200260200182016040528015611334578160200160208202803683370190505b5090506000805b878110156113f757600061135a8a8a84818110610d3157610d316130a4565b509050600f1960ff8216016113e45789898381811061137b5761137b6130a4565b90506020020135858481518110611394576113946130a4565b6020026020010181815250508787838181106113b2576113b26130a4565b905060200201358484815181106113cb576113cb6130a4565b6020908102919091010152826113e0816130ed565b9350505b50806113ef816130ed565b91505061133b565b50886001600160a01b03168a6001600160a01b0316336001600160a01b03167f22b2c7f57b709228dd96c386762092b2eac289df7ba937e8626c49e35166d78d8686604051611447929190613215565b60405180910390a450505050505050505050565b6001600160a01b03851633148061147757506114778533610492565b6114d55760405162461bcd60e51b815260206004820152602960248201527f455243313135353a2063616c6c6572206973206e6f74206f776e6572206e6f7260448201526808185c1c1c9bdd995960ba1b6064820152608401610588565b6108278585858585612147565b6114ea611d5e565b6001600160a01b03811661154f5760405162461bcd60e51b815260206004820152602660248201527f4f776e61626c653a206e6577206f776e657220697320746865207a65726f206160448201526564647265737360d01b6064820152608401610588565b61099a81611db8565b60408051600160fd1b6020820152606083901b6bffffffffffffffffffffffff1916602182015281516015818303018152603590910190915260009061159d81610edf565b9392505050565b60006001600160e01b03198216636cdb3d1360e11b14806115d557506001600160e01b031982166303a24d0760e21b145b806105b657506301ffc9a760e01b6001600160e01b03198316146105b6565b6001600160a01b0384166116545760405162461bcd60e51b815260206004820152602160248201527f455243313135353a206d696e7420746f20746865207a65726f206164647265736044820152607360f81b6064820152608401610588565b81518351146116755760405162461bcd60e51b815260040161058890613243565b836001600160a01b0316856001600160a01b03160361169357600094505b3360005b8451811015611730578381815181106116b2576116b26130a4565b6020026020010151606560008784815181106116d0576116d06130a4565b602002602001015181526020019081526020016000206000886001600160a01b03166001600160a01b0316815260200190815260200160002060008282546117189190613202565b90915550819050611728816130ed565b915050611697565b50846001600160a01b0316866001600160a01b0316826001600160a01b03167f4a39dc06d4c0dbc64b70af90fd698a233a518aa5d07e595d983b8c0526c8f7fb8787604051611780929190613215565b60405180910390a4611796818787878787612275565b505050505050565b81518351146117bf5760405162461bcd60e51b815260040161058890613243565b6001600160a01b0384166117e55760405162461bcd60e51b81526004016105889061328b565b3360005b8451811015611730576000858281518110611806576118066130a4565b602002602001015190506000858381518110611824576118246130a4565b60209081029190910181015160008481526065835260408082206001600160a01b038e1683529093529190912054909150818110156118755760405162461bcd60e51b8152600401610588906132d0565b60008381526065602090815260408083206001600160a01b038e8116855292528083208585039055908b168252812080548492906118b4908490613202565b92505081905550505050806118c8906130ed565b90506117e9565b61099a611d5e565b7f4910fdfa16fed3260ed0e7147f7cc6da11a60208b5b9406d12a635614ffd91435460ff161561190f5761190a836123d9565b505050565b826001600160a01b03166352d1902d6040518163ffffffff1660e01b8152600401602060405180830381865afa925050508015611969575060408051601f3d908101601f191682019092526119669181019061331a565b60015b6119cc5760405162461bcd60e51b815260206004820152602e60248201527f45524331393637557067726164653a206e657720696d706c656d656e7461746960448201526d6f6e206973206e6f74205555505360901b6064820152608401610588565b6000805160206136788339815191528114611a3b5760405162461bcd60e51b815260206004820152602960248201527f45524331393637557067726164653a20756e737570706f727465642070726f786044820152681a58589b195555525160ba1b6064820152608401610588565b5061190a838383612475565b6000806000611a558461249a565b8051909150601082600083611a6c57611a6c6130a4565b016020015160f81c03611c58576012811015611b74576000611a8f600283613333565b6001600160401b03811115611aa657611aa661297d565b6040519080825280601f01601f191660200182016040528015611ad0576020820181803683370190505b50905060005b611ae1600184613333565b811015611b5c57611af3600284613333565b8114611b4a5783611b05826001613202565b81518110611b1557611b156130a4565b602001015160f81c60f81b828281518110611b3257611b326130a4565b60200101906001600160f81b031916908160001a9053505b80611b54816130ed565b915050611ad6565b506010611b6882610edf565b94509450505050915091565b6000611b81601283613333565b6001600160401b03811115611b9857611b9861297d565b6040519080825280601f01601f191660200182016040528015611bc2576020820181803683370190505b50905060005b611bd3601184613333565b811015611b5c57611be5600184613333565b611bf0826011613202565b14611c465783611c01826011613202565b81518110611c1157611c116130a4565b602001015160f81c60f81b828281518110611c2e57611c2e6130a4565b60200101906001600160f81b031916908160001a9053505b80611c50816130ed565b915050611bc8565b602060ff1682600081518110611c7057611c706130a4565b016020015160f81c03611d51576000611c8a600183613333565b6001600160401b03811115611ca157611ca161297d565b6040519080825280601f01601f191660200182016040528015611ccb576020820181803683370190505b50905060005b611cdc600184613333565b811015611d455783611cef826001613202565b81518110611cff57611cff6130a4565b602001015160f81c60f81b828281518110611d1c57611d1c6130a4565b60200101906001600160f81b031916908160001a90535080611d3d816130ed565b915050611cd1565b506020611b6882610edf565b5060009485945092505050565b6097546001600160a01b03163314610ebd5760405162461bcd60e51b815260206004820181905260248201527f4f776e61626c653a2063616c6c6572206973206e6f7420746865206f776e65726044820152606401610588565b609780546001600160a01b038381166001600160a01b0319831681179093556040519116919082907f8be0079c531659141344cd1fd0a4f28419497f9722a3daafe3b4186f6b6457e090600090a35050565b816001600160a01b0316836001600160a01b031603611e7d5760405162461bcd60e51b815260206004820152602960248201527f455243313135353a2073657474696e6720617070726f76616c20737461747573604482015268103337b91039b2b63360b91b6064820152608401610588565b6001600160a01b03838116600081815260666020908152604080832094871680845294825291829020805460ff191686151590811790915591519182527f17307eab39ab6107e8899845ad3d59bd9653f200f220920489ca2b5937696c31910160405180910390a3505050565b600054610100900460ff16611f115760405162461bcd60e51b815260040161058890613346565b610ebd61257f565b600054610100900460ff16610ebd5760405162461bcd60e51b815260040161058890613346565b6001600160a01b038316611fa25760405162461bcd60e51b815260206004820152602360248201527f455243313135353a206275726e2066726f6d20746865207a65726f206164647260448201526265737360e81b6064820152608401610588565b8051825114611fc35760405162461bcd60e51b815260040161058890613243565b604080516020810190915260009081905233905b83518110156120d8576000848281518110611ff457611ff46130a4565b602002602001015190506000848381518110612012576120126130a4565b60209081029190910181015160008481526065835260408082206001600160a01b038c16835290935291909120549091508181101561209f5760405162461bcd60e51b8152602060048201526024808201527f455243313135353a206275726e20616d6f756e7420657863656564732062616c604482015263616e636560e01b6064820152608401610588565b60009283526065602090815260408085206001600160a01b038b16865290915290922091039055806120d0816130ed565b915050611fd7565b5060006001600160a01b0316846001600160a01b0316826001600160a01b03167f4a39dc06d4c0dbc64b70af90fd698a233a518aa5d07e595d983b8c0526c8f7fb8686604051612129929190613215565b60405180910390a46040805160208101909152600090525b50505050565b6001600160a01b03841661216d5760405162461bcd60e51b81526004016105889061328b565b336000612179856125af565b90506000612186856125af565b905060008681526065602090815260408083206001600160a01b038c168452909152902054858110156121cb5760405162461bcd60e51b8152600401610588906132d0565b60008781526065602090815260408083206001600160a01b038d8116855292528083208985039055908a1682528120805488929061220a908490613202565b909155505060408051888152602081018890526001600160a01b03808b16928c821692918816917fc3d58168c5ae7397731d063d5bbf3d657854427343f4c083240f7aacaa2d0f62910160405180910390a461226a848a8a8a8a8a6125fa565b505050505050505050565b6001600160a01b0384163b156117965760405163bc197c8160e01b81526001600160a01b0385169063bc197c81906122b99089908990889088908890600401613391565b6020604051808303816000875af19250505080156122f4575060408051601f3d908101601f191682019092526122f1918101906133ef565b60015b6123a05761230061340c565b806308c379a0036123395750612314613427565b8061231f575061233b565b8060405162461bcd60e51b8152600401610588919061296a565b505b60405162461bcd60e51b815260206004820152603460248201527f455243313135353a207472616e7366657220746f206e6f6e20455243313135356044820152732932b1b2b4bb32b91034b6b83632b6b2b73a32b960611b6064820152608401610588565b6001600160e01b0319811663bc197c8160e01b146123d05760405162461bcd60e51b8152600401610588906134b0565b50505050505050565b6001600160a01b0381163b6124465760405162461bcd60e51b815260206004820152602d60248201527f455243313936373a206e657720696d706c656d656e746174696f6e206973206e60448201526c1bdd08184818dbdb9d1c9858dd609a1b6064820152608401610588565b60008051602061367883398151915280546001600160a01b0319166001600160a01b0392909216919091179055565b61247e836126b5565b60008251118061248b5750805b1561190a5761214183836126f5565b606060006124a78361271a565b6124b2906001613202565b9050806001600160401b038111156124cc576124cc61297d565b6040519080825280601f01601f1916602001820160405280156124f6576020820181803683370190505b50915060005b818110156125785780612510600184613333565b61251a9190613333565b6125259060086134f8565b6125309060026135f3565b61253a90856135ff565b60f81b83828151811061254f5761254f6130a4565b60200101906001600160f81b031916908160001a90535080612570816130ed565b9150506124fc565b5050919050565b600054610100900460ff166125a65760405162461bcd60e51b815260040161058890613346565b610ebd33611db8565b604080516001808252818301909252606091600091906020808301908036833701905050905082816000815181106125e9576125e96130a4565b602090810291909101015292915050565b6001600160a01b0384163b156117965760405163f23a6e6160e01b81526001600160a01b0385169063f23a6e619061263e9089908990889088908890600401613621565b6020604051808303816000875af1925050508015612679575060408051601f3d908101601f19168201909252612676918101906133ef565b60015b6126855761230061340c565b6001600160e01b0319811663f23a6e6160e01b146123d05760405162461bcd60e51b8152600401610588906134b0565b6126be816123d9565b6040516001600160a01b038216907fbc7cd75a20ee27fd9adebab32041f755214dbc6bffa90cc0225b39da2e5c2d3b90600090a250565b606061159d838360405180606001604052806027815260200161369860279139612784565b600080608083901c156127325760809290921c916010015b604083901c156127475760409290921c916008015b602083901c1561275c5760209290921c916004015b601083901c156127715760109290921c916002015b600883901c156105b65760010192915050565b6060600080856001600160a01b0316856040516127a1919061365b565b600060405180830381855af49150503d80600081146127dc576040519150601f19603f3d011682016040523d82523d6000602084013e6127e1565b606091505b50915091506127f2868383876127fc565b9695505050505050565b6060831561286b578251600003612864576001600160a01b0385163b6128645760405162461bcd60e51b815260206004820152601d60248201527f416464726573733a2063616c6c20746f206e6f6e2d636f6e74726163740000006044820152606401610588565b5081612875565b612875838361287d565b949350505050565b81511561231f5781518083602001fd5b6001600160a01b038116811461099a57600080fd5b600080604083850312156128b557600080fd5b82356128c08161288d565b946020939093013593505050565b6001600160e01b03198116811461099a57600080fd5b6000602082840312156128f657600080fd5b813561159d816128ce565b60006020828403121561291357600080fd5b5035919050565b60005b8381101561293557818101518382015260200161291d565b50506000910152565b6000815180845261295681602086016020860161291a565b601f01601f19169290920160200192915050565b60208152600061159d602083018461293e565b634e487b7160e01b600052604160045260246000fd5b601f8201601f191681016001600160401b03811182821017156129b8576129b861297d565b6040525050565b60006001600160401b038211156129d8576129d861297d565b5060051b60200190565b600082601f8301126129f357600080fd5b81356020612a00826129bf565b604051612a0d8282612993565b83815260059390931b8501820192828101915086841115612a2d57600080fd5b8286015b84811015612a51578035612a448161288d565b8352918301918301612a31565b509695505050505050565b600082601f830112612a6d57600080fd5b81356020612a7a826129bf565b604051612a878282612993565b83815260059390931b8501820192828101915086841115612aa757600080fd5b8286015b84811015612a515780358352918301918301612aab565b600082601f830112612ad357600080fd5b81356001600160401b03811115612aec57612aec61297d565b604051612b03601f8301601f191660200182612993565b818152846020838601011115612b1857600080fd5b816020850160208301376000918101602001919091529392505050565b60008060008060808587031215612b4b57600080fd5b8435612b568161288d565b935060208501356001600160401b0380821115612b7257600080fd5b612b7e888389016129e2565b94506040870135915080821115612b9457600080fd5b612ba088838901612a5c565b93506060870135915080821115612bb657600080fd5b50612bc387828801612ac2565b91505092959194509250565b600080600080600060a08688031215612be757600080fd5b8535612bf28161288d565b94506020860135612c028161288d565b935060408601356001600160401b0380821115612c1e57600080fd5b612c2a89838a01612a5c565b94506060880135915080821115612c4057600080fd5b612c4c89838a01612a5c565b93506080880135915080821115612c6257600080fd5b50612c6f88828901612ac2565b9150509295509295909350565b600060208284031215612c8e57600080fd5b813561159d8161288d565b60008060408385031215612cac57600080fd5b82356001600160401b0380821115612cc357600080fd5b612ccf868387016129e2565b93506020850135915080821115612ce557600080fd5b50612cf285828601612a5c565b9150509250929050565b600081518084526020808501945080840160005b83811015612d2c57815187529582019590820190600101612d10565b509495945050505050565b60208152600061159d6020830184612cfc565b60008060408385031215612d5d57600080fd5b8235612d688161288d565b915060208301356001600160401b03811115612d8357600080fd5b612cf285828601612ac2565b60008083601f840112612da157600080fd5b5081356001600160401b03811115612db857600080fd5b6020830191508360208260051b8501011115612dd357600080fd5b9250929050565b60008060008060008060008060a0898b031215612df657600080fd5b8835612e018161288d565b97506020890135612e118161288d565b965060408901356001600160401b0380821115612e2d57600080fd5b612e398c838d01612d8f565b909850965060608b0135915080821115612e5257600080fd5b612e5e8c838d01612d8f565b909650945060808b0135915080821115612e7757600080fd5b818b0191508b601f830112612e8b57600080fd5b813581811115612e9a57600080fd5b8c6020828501011115612eac57600080fd5b6020830194508093505050509295985092959890939650565b801515811461099a57600080fd5b60008060408385031215612ee657600080fd5b8235612ef18161288d565b91506020830135612f0181612ec5565b809150509250929050565b600060208284031215612f1e57600080fd5b81356001600160401b03811115612f3457600080fd5b61287584828501612ac2565b60008060008060008060808789031215612f5957600080fd5b8635612f648161288d565b95506020870135612f748161288d565b945060408701356001600160401b0380821115612f9057600080fd5b612f9c8a838b01612d8f565b90965094506060890135915080821115612fb557600080fd5b50612fc289828a01612d8f565b979a9699509497509295939492505050565b60008060408385031215612fe757600080fd5b8235612ff28161288d565b91506020830135612f018161288d565b600080600080600060a0868803121561301a57600080fd5b85356130258161288d565b945060208601356130358161288d565b9350604086013592506060860135915060808601356001600160401b0381111561305e57600080fd5b612c6f88828901612ac2565b600181811c9082168061307e57607f821691505b60208210810361309e57634e487b7160e01b600052602260045260246000fd5b50919050565b634e487b7160e01b600052603260045260246000fd5b6000602082840312156130cc57600080fd5b815161159d81612ec5565b634e487b7160e01b600052601160045260246000fd5b6000600182016130ff576130ff6130d7565b5060010190565b6020808252602c908201527f46756e6374696f6e206d7573742062652063616c6c6564207468726f7567682060408201526b19195b1959d85d1958d85b1b60a21b606082015260800190565b6020808252602c908201527f46756e6374696f6e206d7573742062652063616c6c6564207468726f7567682060408201526b6163746976652070726f787960a01b606082015260800190565b81835260006001600160fb1b038311156131b757600080fd5b8260051b80836020870137939093016020019392505050565b6040815260006131e460408301868861319e565b82810360208401526131f781858761319e565b979650505050505050565b808201808211156105b6576105b66130d7565b6040815260006132286040830185612cfc565b828103602084015261323a8185612cfc565b95945050505050565b60208082526028908201527f455243313135353a2069647320616e6420616d6f756e7473206c656e677468206040820152670dad2e6dac2e8c6d60c31b606082015260800190565b60208082526025908201527f455243313135353a207472616e7366657220746f20746865207a65726f206164604082015264647265737360d81b606082015260800190565b6020808252602a908201527f455243313135353a20696e73756666696369656e742062616c616e636520666f60408201526939103a3930b739b332b960b11b606082015260800190565b60006020828403121561332c57600080fd5b5051919050565b818103818111156105b6576105b66130d7565b6020808252602b908201527f496e697469616c697a61626c653a20636f6e7472616374206973206e6f74206960408201526a6e697469616c697a696e6760a81b606082015260800190565b6001600160a01b0386811682528516602082015260a0604082018190526000906133bd90830186612cfc565b82810360608401526133cf8186612cfc565b905082810360808401526133e3818561293e565b98975050505050505050565b60006020828403121561340157600080fd5b815161159d816128ce565b600060033d1115610c475760046000803e5060005160e01c90565b600060443d10156134355790565b6040516003193d81016004833e81513d6001600160401b03816024840111818411171561346457505050505090565b828501915081518181111561347c5750505050505090565b843d87010160208285010111156134965750505050505090565b6134a560208286010187612993565b509095945050505050565b60208082526028908201527f455243313135353a204552433131353552656365697665722072656a656374656040820152676420746f6b656e7360c01b606082015260800190565b80820281158282048414176105b6576105b66130d7565b600181815b8085111561354a578160001904821115613530576135306130d7565b8085161561353d57918102915b93841c9390800290613514565b509250929050565b600082613561575060016105b6565b8161356e575060006105b6565b8160018114613584576002811461358e576135aa565b60019150506105b6565b60ff84111561359f5761359f6130d7565b50506001821b6105b6565b5060208310610133831016604e8410600b84101617156135cd575081810a6105b6565b6135d7838361350f565b80600019048211156135eb576135eb6130d7565b029392505050565b600061159d8383613552565b60008261361c57634e487b7160e01b600052601260045260246000fd5b500490565b6001600160a01b03868116825285166020820152604081018490526060810183905260a0608082018190526000906131f79083018461293e565b6000825161366d81846020870161291a565b919091019291505056fe360894a13ba1a3210667c828492db98dca3e2076cc3735a920a3ca505d382bbc416464726573733a206c6f772d6c6576656c2064656c65676174652063616c6c206661696c6564a26469706673582212202c26d30b944f572efce7107293eafca5507ed5b57f8b213e2e52c4048e55f67e64736f6c63430008120033",
  "devdoc": {
    "events": {
      "AdminChanged(address,address)": {
        "details": "Emitted when the admin account has changed."
      },
      "ApprovalForAll(address,address,bool)": {
        "details": "Emitted when `account` grants or revokes permission to `operator` to transfer their tokens, according to `approved`."
      },
      "BeaconUpgraded(address)": {
        "details": "Emitted when the beacon is changed."
      },
      "Initialized(uint8)": {
        "details": "Triggered when the contract has been initialized or reinitialized."
      },
      "TransferBatch(address,address,address,uint256[],uint256[])": {
        "details": "Equivalent to multiple {TransferSingle} events, where `operator`, `from` and `to` are the same for all transfers."
      },
      "TransferSingle(address,address,address,uint256,uint256)": {
        "details": "Emitted when `value` tokens of token type `id` are transferred from `from` to `to` by `operator`."
      },
      "URI(string,uint256)": {
        "details": "Emitted when the URI for token type `id` changes to `value`, if it is a non-programmatic URI. If an {URI} event was emitted for `id`, the standard https://eips.ethereum.org/EIPS/eip-1155#metadata-extensions[guarantees] that `value` will equal the value returned by {IERC1155MetadataURI-uri}."
      },
      "Upgraded(address)": {
        "details": "Emitted when the implementation is upgraded."
      }
    },
    "kind": "dev",
    "methods": {
      "balanceOf(address,uint256)": {
        "details": "See {IERC1155-balanceOf}. Requirements: - `account` cannot be the zero address."
      },
      "balanceOfBatch(address[],uint256[])": {
        "details": "See {IERC1155-balanceOfBatch}. Requirements: - `accounts` and `ids` must have the same length."
      },
      "isApprovedForAll(address,address)": {
        "details": "See {IERC1155-isApprovedForAll}."
      },
      "owner()": {
        "details": "Returns the address of the current owner."
      },
      "proxiableUUID()": {
        "details": "Implementation of the ERC1822 {proxiableUUID} function. This returns the storage slot used by the implementation. It is used to validate the implementation's compatibility when performing an upgrade. IMPORTANT: A proxy pointing at a proxiable contract should not be considered proxiable itself, because this risks bricking a proxy that upgrades to it, by delegating to itself until out of gas. Thus it is critical that this function revert if invoked through a proxy. This is guaranteed by the `notDelegated` modifier."
      },
      "renounceOwnership()": {
        "details": "Leaves the contract without owner. It will not be possible to call `onlyOwner` functions. Can only be called by the current owner. NOTE: Renouncing ownership will leave the contract without an owner, thereby disabling any functionality that is only available to the owner."
      },
      "safeBatchTransferFrom(address,address,uint256[],uint256[],bytes)": {
        "details": "See {IERC1155-safeBatchTransferFrom}."
      },
      "safeTransferFrom(address,address,uint256,uint256,bytes)": {
        "details": "See {IERC1155-safeTransferFrom}."
      },
      "setApprovalForAll(address,bool)": {
        "details": "See {IERC1155-setApprovalForAll}."
      },
      "supportsInterface(bytes4)": {
        "details": "See {IERC165-supportsInterface}."
      },
      "transferOwnership(address)": {
        "details": "Transfers ownership of the contract to a new account (`newOwner`). Can only be called by the current owner."
      },
      "upgradeTo(address)": {
        "custom:oz-upgrades-unsafe-allow-reachable": "delegatecall",
        "details": "Upgrade the implementation of the proxy to `newImplementation`. Calls {_authorizeUpgrade}. Emits an {Upgraded} event."
      },
      "upgradeToAndCall(address,bytes)": {
        "custom:oz-upgrades-unsafe-allow-reachable": "delegatecall",
        "details": "Upgrade the implementation of the proxy to `newImplementation`, and subsequently execute the function call encoded in `data`. Calls {_authorizeUpgrade}. Emits an {Upgraded} event."
      },
      "uri(uint256)": {
        "details": "See {IERC1155MetadataURI-uri}. This implementation returns the same URI for *all* token types. It relies on the token type ID substitution mechanism https://eips.ethereum.org/EIPS/eip-1155#metadata[defined in the EIP]. Clients calling this function must replace the `\\{id\\}` substring with the actual token type ID."
      }
    },
    "version": 1
  },
  "userdoc": {
    "kind": "user",
    "methods": {
      "getItemId(uint256)": {
        "notice": "tokenId = {hash}{itemId}{quality}"
      }
    },
    "version": 1
  },
  "storageLayout": {
    "storage": [
      {
        "astId": 503,
        "contract": "contracts/game/GameNFT.sol:GameNFT",
        "label": "_initialized",
        "offset": 0,
        "slot": "0",
        "type": "t_uint8"
      },
      {
        "astId": 506,
        "contract": "contracts/game/GameNFT.sol:GameNFT",
        "label": "_initializing",
        "offset": 1,
        "slot": "0",
        "type": "t_bool"
      },
      {
        "astId": 1350,
        "contract": "contracts/game/GameNFT.sol:GameNFT",
        "label": "__gap",
        "offset": 0,
        "slot": "1",
        "type": "t_array(t_uint256)50_storage"
      },
      {
        "astId": 1504,
        "contract": "contracts/game/GameNFT.sol:GameNFT",
        "label": "__gap",
        "offset": 0,
        "slot": "51",
        "type": "t_array(t_uint256)50_storage"
      },
      {
        "astId": 3007,
        "contract": "contracts/game/GameNFT.sol:GameNFT",
        "label": "_balances",
        "offset": 0,
        "slot": "101",
        "type": "t_mapping(t_uint256,t_mapping(t_address,t_uint256))"
      },
      {
        "astId": 3013,
        "contract": "contracts/game/GameNFT.sol:GameNFT",
        "label": "_operatorApprovals",
        "offset": 0,
        "slot": "102",
        "type": "t_mapping(t_address,t_mapping(t_address,t_bool))"
      },
      {
        "astId": 3015,
        "contract": "contracts/game/GameNFT.sol:GameNFT",
        "label": "_uri",
        "offset": 0,
        "slot": "103",
        "type": "t_string_storage"
      },
      {
        "astId": 4319,
        "contract": "contracts/game/GameNFT.sol:GameNFT",
        "label": "__gap",
        "offset": 0,
        "slot": "104",
        "type": "t_array(t_uint256)47_storage"
      },
      {
        "astId": 10,
        "contract": "contracts/game/GameNFT.sol:GameNFT",
        "label": "_owner",
        "offset": 0,
        "slot": "151",
        "type": "t_address"
      },
      {
        "astId": 130,
        "contract": "contracts/game/GameNFT.sol:GameNFT",
        "label": "__gap",
        "offset": 0,
        "slot": "152",
        "type": "t_array(t_uint256)49_storage"
      },
      {
        "astId": 485,
        "contract": "contracts/game/GameNFT.sol:GameNFT",
        "label": "__gap",
        "offset": 0,
        "slot": "201",
        "type": "t_array(t_uint256)50_storage"
      },
      {
        "astId": 800,
        "contract": "contracts/game/GameNFT.sol:GameNFT",
        "label": "__gap",
        "offset": 0,
        "slot": "251",
        "type": "t_array(t_uint256)50_storage"
      },
      {
        "astId": 4360,
        "contract": "contracts/game/GameNFT.sol:GameNFT",
        "label": "config",
        "offset": 0,
        "slot": "301",
        "type": "t_contract(IConfig)2950"
      }
    ],
    "types": {
      "t_address": {
        "encoding": "inplace",
        "label": "address",
        "numberOfBytes": "20"
      },
      "t_array(t_uint256)47_storage": {
        "base": "t_uint256",
        "encoding": "inplace",
        "label": "uint256[47]",
        "numberOfBytes": "1504"
      },
      "t_array(t_uint256)49_storage": {
        "base": "t_uint256",
        "encoding": "inplace",
        "label": "uint256[49]",
        "numberOfBytes": "1568"
      },
      "t_array(t_uint256)50_storage": {
        "base": "t_uint256",
        "encoding": "inplace",
        "label": "uint256[50]",
        "numberOfBytes": "1600"
      },
      "t_bool": {
        "encoding": "inplace",
        "label": "bool",
        "numberOfBytes": "1"
      },
      "t_contract(IConfig)2950": {
        "encoding": "inplace",
        "label": "contract IConfig",
        "numberOfBytes": "20"
      },
      "t_mapping(t_address,t_bool)": {
        "encoding": "mapping",
        "key": "t_address",
        "label": "mapping(address => bool)",
        "numberOfBytes": "32",
        "value": "t_bool"
      },
      "t_mapping(t_address,t_mapping(t_address,t_bool))": {
        "encoding": "mapping",
        "key": "t_address",
        "label": "mapping(address => mapping(address => bool))",
        "numberOfBytes": "32",
        "value": "t_mapping(t_address,t_bool)"
      },
      "t_mapping(t_address,t_uint256)": {
        "encoding": "mapping",
        "key": "t_address",
        "label": "mapping(address => uint256)",
        "numberOfBytes": "32",
        "value": "t_uint256"
      },
      "t_mapping(t_uint256,t_mapping(t_address,t_uint256))": {
        "encoding": "mapping",
        "key": "t_uint256",
        "label": "mapping(uint256 => mapping(address => uint256))",
        "numberOfBytes": "32",
        "value": "t_mapping(t_address,t_uint256)"
      },
      "t_string_storage": {
        "encoding": "bytes",
        "label": "string",
        "numberOfBytes": "32"
      },
      "t_uint256": {
        "encoding": "inplace",
        "label": "uint256",
        "numberOfBytes": "32"
      },
      "t_uint8": {
        "encoding": "inplace",
        "label": "uint8",
        "numberOfBytes": "1"
      }
    }
  }
}