{
  "address": "0x2EF90716E1A1d754BfB65389d527b35a7F4E8F4B",
  "abi": [
    {
      "anonymous": false,
      "inputs": [
        {
          "indexed": false,
          "internalType": "address",
          "name": "previousAdmin",
          "type": "address"
        },
        {
          "indexed": false,
          "internalType": "address",
          "name": "newAdmin",
          "type": "address"
        }
      ],
      "name": "AdminChanged",
      "type": "event"
    },
    {
      "anonymous": false,
      "inputs": [
        {
          "indexed": true,
          "internalType": "address",
          "name": "beacon",
          "type": "address"
        }
      ],
      "name": "BeaconUpgraded",
      "type": "event"
    },
    {
      "anonymous": false,
      "inputs": [
        {
          "indexed": false,
          "internalType": "uint8",
          "name": "version",
          "type": "uint8"
        }
      ],
      "name": "Initialized",
      "type": "event"
    },
    {
      "anonymous": false,
      "inputs": [
        {
          "indexed": true,
          "internalType": "address",
          "name": "previousOwner",
          "type": "address"
        },
        {
          "indexed": true,
          "internalType": "address",
          "name": "newOwner",
          "type": "address"
        }
      ],
      "name": "OwnershipTransferred",
      "type": "event"
    },
    {
      "anonymous": false,
      "inputs": [
        {
          "indexed": true,
          "internalType": "address",
          "name": "implementation",
          "type": "address"
        }
      ],
      "name": "Upgraded",
      "type": "event"
    },
    {
      "inputs": [],
      "name": "PRECENT_DENOMINATOR",
      "outputs": [
        {
          "internalType": "uint128",
          "name": "",
          "type": "uint128"
        }
      ],
      "stateMutability": "view",
      "type": "function"
    },
    {
      "inputs": [],
      "name": "PRICE_PRECISION",
      "outputs": [
        {
          "internalType": "uint128",
          "name": "",
          "type": "uint128"
        }
      ],
      "stateMutability": "view",
      "type": "function"
    },
    {
      "inputs": [],
      "name": "balanceOf",
      "outputs": [
        {
          "internalType": "uint256[]",
          "name": "",
          "type": "uint256[]"
        }
      ],
      "stateMutability": "nonpayable",
      "type": "function"
    },
    {
      "inputs": [],
      "name": "config",
      "outputs": [
        {
          "internalType": "contract IConfig",
          "name": "",
          "type": "address"
        }
      ],
      "stateMutability": "view",
      "type": "function"
    },
    {
      "inputs": [],
      "name": "initialize",
      "outputs": [],
      "stateMutability": "nonpayable",
      "type": "function"
    },
    {
      "inputs": [],
      "name": "owner",
      "outputs": [
        {
          "internalType": "address",
          "name": "",
          "type": "address"
        }
      ],
      "stateMutability": "view",
      "type": "function"
    },
    {
      "inputs": [],
      "name": "proxiableUUID",
      "outputs": [
        {
          "internalType": "bytes32",
          "name": "",
          "type": "bytes32"
        }
      ],
      "stateMutability": "view",
      "type": "function"
    },
    {
      "inputs": [],
      "name": "renounceOwnership",
      "outputs": [],
      "stateMutability": "nonpayable",
      "type": "function"
    },
    {
      "inputs": [
        {
          "internalType": "contract IConfig",
          "name": "config_",
          "type": "address"
        }
      ],
      "name": "setConfig",
      "outputs": [],
      "stateMutability": "nonpayable",
      "type": "function"
    },
    {
      "inputs": [
        {
          "internalType": "address",
          "name": "raffle",
          "type": "address"
        },
        {
          "internalType": "address",
          "name": "gameNFT",
          "type": "address"
        },
        {
          "internalType": "string",
          "name": "_raffleName",
          "type": "string"
        },
        {
          "internalType": "uint256",
          "name": "_raffleStart",
          "type": "uint256"
        },
        {
          "internalType": "uint256",
          "name": "_raffleEnd",
          "type": "uint256"
        },
        {
          "internalType": "uint256",
          "name": "_ticketId",
          "type": "uint256"
        },
        {
          "internalType": "uint256",
          "name": "_minTicket",
          "type": "uint256"
        },
        {
          "internalType": "address[]",
          "name": "_tokenList",
          "type": "address[]"
        },
        {
          "internalType": "uint256[]",
          "name": "_amounts",
          "type": "uint256[]"
        },
        {
          "internalType": "uint256[]",
          "name": "_oneTicketPrizeCounts",
          "type": "uint256[]"
        }
      ],
      "name": "startRaffle",
      "outputs": [],
      "stateMutability": "nonpayable",
      "type": "function"
    },
    {
      "inputs": [
        {
          "internalType": "address",
          "name": "newOwner",
          "type": "address"
        }
      ],
      "name": "transferOwnership",
      "outputs": [],
      "stateMutability": "nonpayable",
      "type": "function"
    },
    {
      "inputs": [
        {
          "internalType": "address",
          "name": "newImplementation",
          "type": "address"
        }
      ],
      "name": "upgradeTo",
      "outputs": [],
      "stateMutability": "nonpayable",
      "type": "function"
    },
    {
      "inputs": [
        {
          "internalType": "address",
          "name": "newImplementation",
          "type": "address"
        },
        {
          "internalType": "bytes",
          "name": "data",
          "type": "bytes"
        }
      ],
      "name": "upgradeToAndCall",
      "outputs": [],
      "stateMutability": "payable",
      "type": "function"
    }
  ],
  "transactionHash": "0x395ec713e4fd74870ea58c6bb04f12bdfd66e8e4cd89ada03fc13df9848c30ae",
  "args": [],
  "numDeployments": 1,
  "solcInputHash": "4f1f45ca5fe8f6515b42ba0264732978",
  "bytecode": "0x60a06040523060805234801561001457600080fd5b5060805161195a61004c600039600081816102b0015281816102f901528181610398015281816103d8015261046b015261195a6000f3fe6080604052600436106100c25760003560e01c8063722713f71161007f5780638da5cb5b116100595780638da5cb5b146101e857806395082d25146102065780639cc182a414610243578063f2fde38b1461025c57600080fd5b8063722713f71461017957806379502c551461019b5780638129fc1c146101d357600080fd5b806320e3dbd4146100c75780633659cfe6146100e95780634f1ef2861461010957806352d1902d1461011c578063677102fc14610144578063715018a614610164575b600080fd5b3480156100d357600080fd5b506100e76100e23660046111d0565b61027c565b005b3480156100f557600080fd5b506100e76101043660046111d0565b6102a6565b6100e761011736600461129c565b61038e565b34801561012857600080fd5b5061013161045e565b6040519081526020015b60405180910390f35b34801561015057600080fd5b506100e761015f366004611413565b610511565b34801561017057600080fd5b506100e761083b565b34801561018557600080fd5b5061018e61084f565b60405161013b9190611545565b3480156101a757600080fd5b5060c9546101bb906001600160a01b031681565b6040516001600160a01b03909116815260200161013b565b3480156101df57600080fd5b506100e7610975565b3480156101f457600080fd5b506033546001600160a01b03166101bb565b34801561021257600080fd5b50610222670de0b6b3a764000081565b6040516fffffffffffffffffffffffffffffffff909116815260200161013b565b34801561024f57600080fd5b506102226402540be40081565b34801561026857600080fd5b506100e76102773660046111d0565b610a96565b610284610b0c565b60c980546001600160a01b0319166001600160a01b0392909216919091179055565b6001600160a01b037f00000000000000000000000000000000000000000000000000000000000000001630036102f75760405162461bcd60e51b81526004016102ee90611558565b60405180910390fd5b7f00000000000000000000000000000000000000000000000000000000000000006001600160a01b03166103406000805160206118de833981519152546001600160a01b031690565b6001600160a01b0316146103665760405162461bcd60e51b81526004016102ee906115a4565b61036f81610b66565b6040805160008082526020820190925261038b91839190610b6e565b50565b6001600160a01b037f00000000000000000000000000000000000000000000000000000000000000001630036103d65760405162461bcd60e51b81526004016102ee90611558565b7f00000000000000000000000000000000000000000000000000000000000000006001600160a01b031661041f6000805160206118de833981519152546001600160a01b031690565b6001600160a01b0316146104455760405162461bcd60e51b81526004016102ee906115a4565b61044e82610b66565b61045a82826001610b6e565b5050565b6000306001600160a01b037f000000000000000000000000000000000000000000000000000000000000000016146104fe5760405162461bcd60e51b815260206004820152603860248201527f555550535570677261646561626c653a206d757374206e6f742062652063616c60448201527f6c6564207468726f7567682064656c656761746563616c6c000000000000000060648201526084016102ee565b506000805160206118de83398151915290565b60c954604051631f8e5f9160e01b81523360048201526000916001600160a01b031690631f8e5f9190602401602060405180830381865afa15801561055a573d6000803e3d6000fd5b505050506040513d601f19601f8201168201806040525081019061057e91906115f0565b90506105926033546001600160a01b031690565b6001600160a01b0316336001600160a01b031614806105ae5750805b6105e95760405162461bcd60e51b815260206004820152600c60248201526b30b1b1b2b9b99032b93937b960a11b60448201526064016102ee565b82518451146106335760405162461bcd60e51b81526020600482015260166024820152753a37b5b2b72634b9ba103632b733ba341032b93937b960511b60448201526064016102ee565b815184511461067d5760405162461bcd60e51b81526020600482015260166024820152753a37b5b2b72634b9ba103632b733ba341032b93937b960511b60448201526064016102ee565b610685610cde565b60007f95786fb57b27dc9946944c7fccb978eb91a18a350fde6fcb7240f3cea6ed7fcb8a8a8a8a8a886040516020016106c396959493929190611662565b60408051601f19818403018152908290526106e192916020016116ac565b604051602081830303815290604052905060005b85518110156107c857858181518110610710576107106116dd565b60200260200101516001600160a01b031663095ea7b38d878481518110610739576107396116dd565b60200260200101516040518363ffffffff1660e01b81526004016107729291906001600160a01b03929092168252602082015260400190565b6020604051808303816000875af1158015610791573d6000803e3d6000fd5b505050506040513d601f19601f820116820180604052508101906107b591906115f0565b50806107c0816116f3565b9150506106f5565b506040516325d1047760e01b81526001600160a01b038c16906325d10477906107fb908f9089908990879060040161171a565b600060405180830381600087803b15801561081557600080fd5b505af1158015610829573d6000803e3d6000fd5b50505050505050505050505050505050565b610843610b0c565b61084d6000610da4565b565b6060610859610cde565b6000610863610df6565b90506000815167ffffffffffffffff811115610881576108816111fd565b6040519080825280602002602001820160405280156108aa578160200160208202803683370190505b50905060005b825181101561096e578281815181106108cb576108cb6116dd565b60209081029190910101516040516370a0823160e01b81523060048201526001600160a01b03909116906370a0823190602401602060405180830381865afa15801561091b573d6000803e3d6000fd5b505050506040513d601f19601f8201168201806040525081019061093f919061179e565b828281518110610951576109516116dd565b602090810291909101015280610966816116f3565b9150506108b0565b5092915050565b600054610100900460ff16158080156109955750600054600160ff909116105b806109af5750303b1580156109af575060005460ff166001145b610a125760405162461bcd60e51b815260206004820152602e60248201527f496e697469616c697a61626c653a20636f6e747261637420697320616c72656160448201526d191e481a5b9a5d1a585b1a5e995960921b60648201526084016102ee565b6000805460ff191660011790558015610a35576000805461ff0019166101001790555b610a3d610edf565b610a45610f0e565b610a4e32610da4565b801561038b576000805461ff0019169055604051600181527f7f26b83ff96e1f2b6a682f133852f6798a09c465da95921460cefb38474024989060200160405180910390a150565b610a9e610b0c565b6001600160a01b038116610b035760405162461bcd60e51b815260206004820152602660248201527f4f776e61626c653a206e6577206f776e657220697320746865207a65726f206160448201526564647265737360d01b60648201526084016102ee565b61038b81610da4565b6033546001600160a01b0316331461084d5760405162461bcd60e51b815260206004820181905260248201527f4f776e61626c653a2063616c6c6572206973206e6f7420746865206f776e657260448201526064016102ee565b61038b610b0c565b7f4910fdfa16fed3260ed0e7147f7cc6da11a60208b5b9406d12a635614ffd91435460ff1615610ba657610ba183610f35565b505050565b826001600160a01b03166352d1902d6040518163ffffffff1660e01b8152600401602060405180830381865afa925050508015610c00575060408051601f3d908101601f19168201909252610bfd9181019061179e565b60015b610c635760405162461bcd60e51b815260206004820152602e60248201527f45524331393637557067726164653a206e657720696d706c656d656e7461746960448201526d6f6e206973206e6f74205555505360901b60648201526084016102ee565b6000805160206118de8339815191528114610cd25760405162461bcd60e51b815260206004820152602960248201527f45524331393637557067726164653a20756e737570706f727465642070726f786044820152681a58589b195555525160ba1b60648201526084016102ee565b50610ba1838383610fd1565b60c9546040805163ea9c5e0d60e01b815290516000926001600160a01b03169163ea9c5e0d9160048083019260209291908290030181865afa158015610d28573d6000803e3d6000fd5b505050506040513d601f19601f82011682018060405250810190610d4c91906117b7565b9050806001600160a01b03166313dbe4646040518163ffffffff1660e01b8152600401600060405180830381600087803b158015610d8957600080fd5b505af1158015610d9d573d6000803e3d6000fd5b5050505050565b603380546001600160a01b038381166001600160a01b0319831681179093556040519116919082907f8be0079c531659141344cd1fd0a4f28419497f9722a3daafe3b4186f6b6457e090600090a35050565b6060600060c960009054906101000a90046001600160a01b03166001600160a01b031663ea9c5e0d6040518163ffffffff1660e01b8152600401602060405180830381865afa158015610e4d573d6000803e3d6000fd5b505050506040513d601f19601f82011682018060405250810190610e7191906117b7565b9050806001600160a01b031663aa6ca8086040518163ffffffff1660e01b8152600401600060405180830381865afa158015610eb1573d6000803e3d6000fd5b505050506040513d6000823e601f3d908101601f19168201604052610ed991908101906117d4565b91505090565b600054610100900460ff16610f065760405162461bcd60e51b81526004016102ee90611863565b61084d610ffc565b600054610100900460ff1661084d5760405162461bcd60e51b81526004016102ee90611863565b6001600160a01b0381163b610fa25760405162461bcd60e51b815260206004820152602d60248201527f455243313936373a206e657720696d706c656d656e746174696f6e206973206e60448201526c1bdd08184818dbdb9d1c9858dd609a1b60648201526084016102ee565b6000805160206118de83398151915280546001600160a01b0319166001600160a01b0392909216919091179055565b610fda8361102c565b600082511180610fe75750805b15610ba157610ff6838361106c565b50505050565b600054610100900460ff166110235760405162461bcd60e51b81526004016102ee90611863565b61084d33610da4565b61103581610f35565b6040516001600160a01b038216907fbc7cd75a20ee27fd9adebab32041f755214dbc6bffa90cc0225b39da2e5c2d3b90600090a250565b606061109183836040518060600160405280602781526020016118fe60279139611098565b9392505050565b6060600080856001600160a01b0316856040516110b591906118ae565b600060405180830381855af49150503d80600081146110f0576040519150601f19603f3d011682016040523d82523d6000602084013e6110f5565b606091505b509150915061110686838387611110565b9695505050505050565b6060831561117f578251600003611178576001600160a01b0385163b6111785760405162461bcd60e51b815260206004820152601d60248201527f416464726573733a2063616c6c20746f206e6f6e2d636f6e747261637400000060448201526064016102ee565b5081611189565b6111898383611191565b949350505050565b8151156111a15781518083602001fd5b8060405162461bcd60e51b81526004016102ee91906118ca565b6001600160a01b038116811461038b57600080fd5b6000602082840312156111e257600080fd5b8135611091816111bb565b80356111f8816111bb565b919050565b634e487b7160e01b600052604160045260246000fd5b604051601f8201601f1916810167ffffffffffffffff8111828210171561123c5761123c6111fd565b604052919050565b600067ffffffffffffffff83111561125e5761125e6111fd565b611271601f8401601f1916602001611213565b905082815283838301111561128557600080fd5b828260208301376000602084830101529392505050565b600080604083850312156112af57600080fd5b82356112ba816111bb565b9150602083013567ffffffffffffffff8111156112d657600080fd5b8301601f810185136112e757600080fd5b6112f685823560208401611244565b9150509250929050565b600082601f83011261131157600080fd5b61109183833560208501611244565b600067ffffffffffffffff82111561133a5761133a6111fd565b5060051b60200190565b600082601f83011261135557600080fd5b8135602061136a61136583611320565b611213565b82815260059290921b8401810191818101908684111561138957600080fd5b8286015b848110156113ad5780356113a0816111bb565b835291830191830161138d565b509695505050505050565b600082601f8301126113c957600080fd5b813560206113d961136583611320565b82815260059290921b840181019181810190868411156113f857600080fd5b8286015b848110156113ad57803583529183019183016113fc565b6000806000806000806000806000806101408b8d03121561143357600080fd5b61143c8b6111ed565b995061144a60208c016111ed565b985060408b013567ffffffffffffffff8082111561146757600080fd5b6114738e838f01611300565b995060608d0135985060808d0135975060a08d0135965060c08d0135955060e08d01359150808211156114a557600080fd5b6114b18e838f01611344565b94506101008d01359150808211156114c857600080fd5b6114d48e838f016113b8565b93506101208d01359150808211156114eb57600080fd5b506114f88d828e016113b8565b9150509295989b9194979a5092959850565b600081518084526020808501945080840160005b8381101561153a5781518752958201959082019060010161151e565b509495945050505050565b602081526000611091602083018461150a565b6020808252602c908201527f46756e6374696f6e206d7573742062652063616c6c6564207468726f7567682060408201526b19195b1959d85d1958d85b1b60a21b606082015260800190565b6020808252602c908201527f46756e6374696f6e206d7573742062652063616c6c6564207468726f7567682060408201526b6163746976652070726f787960a01b606082015260800190565b60006020828403121561160257600080fd5b8151801515811461109157600080fd5b60005b8381101561162d578181015183820152602001611615565b50506000910152565b6000815180845261164e816020860160208601611612565b601f01601f19169290920160200192915050565b60c08152600061167560c0830189611636565b87602084015286604084015285606084015284608084015282810360a084015261169f818561150a565b9998505050505050505050565b6001600160e01b03198316815281516000906116cf816004850160208701611612565b919091016004019392505050565b634e487b7160e01b600052603260045260246000fd5b60006001820161171357634e487b7160e01b600052601160045260246000fd5b5060010190565b6001600160a01b0385811682526080602080840182905286519184018290526000928782019290919060a0860190855b8181101561176857855185168352948301949183019160010161174a565b5050858103604087015261177c818961150a565b935050505082810360608401526117938185611636565b979650505050505050565b6000602082840312156117b057600080fd5b5051919050565b6000602082840312156117c957600080fd5b8151611091816111bb565b600060208083850312156117e757600080fd5b825167ffffffffffffffff8111156117fe57600080fd5b8301601f8101851361180f57600080fd5b805161181d61136582611320565b81815260059190911b8201830190838101908783111561183c57600080fd5b928401925b82841015611793578351611854816111bb565b82529284019290840190611841565b6020808252602b908201527f496e697469616c697a61626c653a20636f6e7472616374206973206e6f74206960408201526a6e697469616c697a696e6760a81b606082015260800190565b600082516118c0818460208701611612565b9190910192915050565b602081526000611091602083018461163656fe360894a13ba1a3210667c828492db98dca3e2076cc3735a920a3ca505d382bbc416464726573733a206c6f772d6c6576656c2064656c65676174652063616c6c206661696c6564a2646970667358221220bc6d7d61d6041f2bd66188eb0c2c8ad7abe9058e0989e4cf0f839bb446765cf764736f6c63430008120033",
  "devdoc": {
    "events": {
      "AdminChanged(address,address)": {
        "details": "Emitted when the admin account has changed."
      },
      "BeaconUpgraded(address)": {
        "details": "Emitted when the beacon is changed."
      },
      "Initialized(uint8)": {
        "details": "Triggered when the contract has been initialized or reinitialized."
      },
      "Upgraded(address)": {
        "details": "Emitted when the implementation is upgraded."
      }
    },
    "kind": "dev",
    "methods": {
      "owner()": {
        "details": "Returns the address of the current owner."
      },
      "proxiableUUID()": {
        "details": "Implementation of the ERC1822 {proxiableUUID} function. This returns the storage slot used by the implementation. It is used to validate the implementation's compatibility when performing an upgrade. IMPORTANT: A proxy pointing at a proxiable contract should not be considered proxiable itself, because this risks bricking a proxy that upgrades to it, by delegating to itself until out of gas. Thus it is critical that this function revert if invoked through a proxy. This is guaranteed by the `notDelegated` modifier."
      },
      "renounceOwnership()": {
        "details": "Leaves the contract without owner. It will not be possible to call `onlyOwner` functions. Can only be called by the current owner. NOTE: Renouncing ownership will leave the contract without an owner, thereby disabling any functionality that is only available to the owner."
      },
      "transferOwnership(address)": {
        "details": "Transfers ownership of the contract to a new account (`newOwner`). Can only be called by the current owner."
      },
      "upgradeTo(address)": {
        "custom:oz-upgrades-unsafe-allow-reachable": "delegatecall",
        "details": "Upgrade the implementation of the proxy to `newImplementation`. Calls {_authorizeUpgrade}. Emits an {Upgraded} event."
      },
      "upgradeToAndCall(address,bytes)": {
        "custom:oz-upgrades-unsafe-allow-reachable": "delegatecall",
        "details": "Upgrade the implementation of the proxy to `newImplementation`, and subsequently execute the function call encoded in `data`. Calls {_authorizeUpgrade}. Emits an {Upgraded} event."
      }
    },
    "version": 1
  },
  "userdoc": {
    "kind": "user",
    "methods": {},
    "version": 1
  },
  "storageLayout": {
    "storage": [
      {
        "astId": 590,
        "contract": "contracts/feerouter/GewardValut.sol:GewardValut",
        "label": "_initialized",
        "offset": 0,
        "slot": "0",
        "type": "t_uint8"
      },
      {
        "astId": 593,
        "contract": "contracts/feerouter/GewardValut.sol:GewardValut",
        "label": "_initializing",
        "offset": 1,
        "slot": "0",
        "type": "t_bool"
      },
      {
        "astId": 1812,
        "contract": "contracts/feerouter/GewardValut.sol:GewardValut",
        "label": "__gap",
        "offset": 0,
        "slot": "1",
        "type": "t_array(t_uint256)50_storage"
      },
      {
        "astId": 10,
        "contract": "contracts/feerouter/GewardValut.sol:GewardValut",
        "label": "_owner",
        "offset": 0,
        "slot": "51",
        "type": "t_address"
      },
      {
        "astId": 130,
        "contract": "contracts/feerouter/GewardValut.sol:GewardValut",
        "label": "__gap",
        "offset": 0,
        "slot": "52",
        "type": "t_array(t_uint256)49_storage"
      },
      {
        "astId": 572,
        "contract": "contracts/feerouter/GewardValut.sol:GewardValut",
        "label": "__gap",
        "offset": 0,
        "slot": "101",
        "type": "t_array(t_uint256)50_storage"
      },
      {
        "astId": 887,
        "contract": "contracts/feerouter/GewardValut.sol:GewardValut",
        "label": "__gap",
        "offset": 0,
        "slot": "151",
        "type": "t_array(t_uint256)50_storage"
      },
      {
        "astId": 23221,
        "contract": "contracts/feerouter/GewardValut.sol:GewardValut",
        "label": "config",
        "offset": 0,
        "slot": "201",
        "type": "t_contract(IConfig)20550"
      }
    ],
    "types": {
      "t_address": {
        "encoding": "inplace",
        "label": "address",
        "numberOfBytes": "20"
      },
      "t_array(t_uint256)49_storage": {
        "base": "t_uint256",
        "encoding": "inplace",
        "label": "uint256[49]",
        "numberOfBytes": "1568"
      },
      "t_array(t_uint256)50_storage": {
        "base": "t_uint256",
        "encoding": "inplace",
        "label": "uint256[50]",
        "numberOfBytes": "1600"
      },
      "t_bool": {
        "encoding": "inplace",
        "label": "bool",
        "numberOfBytes": "1"
      },
      "t_contract(IConfig)20550": {
        "encoding": "inplace",
        "label": "contract IConfig",
        "numberOfBytes": "20"
      },
      "t_uint256": {
        "encoding": "inplace",
        "label": "uint256",
        "numberOfBytes": "32"
      },
      "t_uint8": {
        "encoding": "inplace",
        "label": "uint8",
        "numberOfBytes": "1"
      }
    }
  }
}