{
  "address": "0xA88536530eFe2F6a8Bb5B9f985EAD89E6dbd928C",
  "abi": [
    {
      "anonymous": false,
      "inputs": [
        {
          "indexed": false,
          "internalType": "address",
          "name": "previousAdmin",
          "type": "address"
        },
        {
          "indexed": false,
          "internalType": "address",
          "name": "newAdmin",
          "type": "address"
        }
      ],
      "name": "AdminChanged",
      "type": "event"
    },
    {
      "anonymous": false,
      "inputs": [
        {
          "indexed": true,
          "internalType": "address",
          "name": "beacon",
          "type": "address"
        }
      ],
      "name": "BeaconUpgraded",
      "type": "event"
    },
    {
      "anonymous": false,
      "inputs": [
        {
          "indexed": true,
          "internalType": "address",
          "name": "staker",
          "type": "address"
        },
        {
          "indexed": false,
          "internalType": "address",
          "name": "token",
          "type": "address"
        },
        {
          "indexed": false,
          "internalType": "uint256",
          "name": "amount",
          "type": "uint256"
        }
      ],
      "name": "Claim",
      "type": "event"
    },
    {
      "anonymous": false,
      "inputs": [
        {
          "indexed": false,
          "internalType": "uint8",
          "name": "version",
          "type": "uint8"
        }
      ],
      "name": "Initialized",
      "type": "event"
    },
    {
      "anonymous": false,
      "inputs": [
        {
          "indexed": true,
          "internalType": "address",
          "name": "previousOwner",
          "type": "address"
        },
        {
          "indexed": true,
          "internalType": "address",
          "name": "newOwner",
          "type": "address"
        }
      ],
      "name": "OwnershipTransferred",
      "type": "event"
    },
    {
      "anonymous": false,
      "inputs": [
        {
          "indexed": true,
          "internalType": "address",
          "name": "staker",
          "type": "address"
        },
        {
          "indexed": false,
          "internalType": "uint256",
          "name": "amount",
          "type": "uint256"
        }
      ],
      "name": "Stake",
      "type": "event"
    },
    {
      "anonymous": false,
      "inputs": [
        {
          "indexed": true,
          "internalType": "address",
          "name": "staker",
          "type": "address"
        },
        {
          "indexed": false,
          "internalType": "address",
          "name": "recipient",
          "type": "address"
        },
        {
          "indexed": false,
          "internalType": "uint256",
          "name": "lpamount",
          "type": "uint256"
        },
        {
          "indexed": false,
          "internalType": "uint256",
          "name": "burnamount",
          "type": "uint256"
        },
        {
          "indexed": false,
          "internalType": "uint256",
          "name": "repayamount",
          "type": "uint256"
        }
      ],
      "name": "UnStake",
      "type": "event"
    },
    {
      "anonymous": false,
      "inputs": [
        {
          "indexed": true,
          "internalType": "address",
          "name": "implementation",
          "type": "address"
        }
      ],
      "name": "Upgraded",
      "type": "event"
    },
    {
      "inputs": [],
      "name": "MAX_REWARDS",
      "outputs": [
        {
          "internalType": "uint256",
          "name": "",
          "type": "uint256"
        }
      ],
      "stateMutability": "view",
      "type": "function"
    },
    {
      "inputs": [],
      "name": "PRECENT_DENOMINATOR",
      "outputs": [
        {
          "internalType": "uint128",
          "name": "",
          "type": "uint128"
        }
      ],
      "stateMutability": "view",
      "type": "function"
    },
    {
      "inputs": [],
      "name": "PRICE_PRECISION",
      "outputs": [
        {
          "internalType": "uint128",
          "name": "",
          "type": "uint128"
        }
      ],
      "stateMutability": "view",
      "type": "function"
    },
    {
      "inputs": [
        {
          "internalType": "uint256",
          "name": "_amount",
          "type": "uint256"
        }
      ],
      "name": "calcStakeLP",
      "outputs": [
        {
          "internalType": "uint256",
          "name": "",
          "type": "uint256"
        }
      ],
      "stateMutability": "view",
      "type": "function"
    },
    {
      "inputs": [
        {
          "internalType": "address",
          "name": "staker",
          "type": "address"
        },
        {
          "internalType": "uint256",
          "name": "unstakeLP",
          "type": "uint256"
        }
      ],
      "name": "calcUnstakeToUserAmount",
      "outputs": [
        {
          "internalType": "uint256",
          "name": "",
          "type": "uint256"
        }
      ],
      "stateMutability": "view",
      "type": "function"
    },
    {
      "inputs": [
        {
          "internalType": "address",
          "name": "token",
          "type": "address"
        }
      ],
      "name": "claim",
      "outputs": [],
      "stateMutability": "nonpayable",
      "type": "function"
    },
    {
      "inputs": [
        {
          "internalType": "address",
          "name": "",
          "type": "address"
        },
        {
          "internalType": "address",
          "name": "",
          "type": "address"
        }
      ],
      "name": "claimDataByStaker",
      "outputs": [
        {
          "internalType": "uint256",
          "name": "",
          "type": "uint256"
        }
      ],
      "stateMutability": "view",
      "type": "function"
    },
    {
      "inputs": [],
      "name": "config",
      "outputs": [
        {
          "internalType": "contract IConfig",
          "name": "",
          "type": "address"
        }
      ],
      "stateMutability": "view",
      "type": "function"
    },
    {
      "inputs": [],
      "name": "hook",
      "outputs": [
        {
          "internalType": "contract LiquidityStakeHook",
          "name": "",
          "type": "address"
        }
      ],
      "stateMutability": "view",
      "type": "function"
    },
    {
      "inputs": [
        {
          "internalType": "contract IConfig",
          "name": "config_",
          "type": "address"
        }
      ],
      "name": "initialize",
      "outputs": [],
      "stateMutability": "nonpayable",
      "type": "function"
    },
    {
      "inputs": [],
      "name": "owner",
      "outputs": [
        {
          "internalType": "address",
          "name": "",
          "type": "address"
        }
      ],
      "stateMutability": "view",
      "type": "function"
    },
    {
      "inputs": [],
      "name": "proxiableUUID",
      "outputs": [
        {
          "internalType": "bytes32",
          "name": "",
          "type": "bytes32"
        }
      ],
      "stateMutability": "view",
      "type": "function"
    },
    {
      "inputs": [],
      "name": "renounceOwnership",
      "outputs": [],
      "stateMutability": "nonpayable",
      "type": "function"
    },
    {
      "inputs": [
        {
          "internalType": "address",
          "name": "",
          "type": "address"
        }
      ],
      "name": "rewardBalances",
      "outputs": [
        {
          "internalType": "uint256",
          "name": "",
          "type": "uint256"
        }
      ],
      "stateMutability": "view",
      "type": "function"
    },
    {
      "inputs": [
        {
          "internalType": "address",
          "name": "",
          "type": "address"
        }
      ],
      "name": "rewardIntegral",
      "outputs": [
        {
          "internalType": "uint256",
          "name": "",
          "type": "uint256"
        }
      ],
      "stateMutability": "view",
      "type": "function"
    },
    {
      "inputs": [
        {
          "internalType": "address",
          "name": "",
          "type": "address"
        },
        {
          "internalType": "address",
          "name": "",
          "type": "address"
        }
      ],
      "name": "rewardIntegralFor",
      "outputs": [
        {
          "internalType": "uint256",
          "name": "",
          "type": "uint256"
        }
      ],
      "stateMutability": "view",
      "type": "function"
    },
    {
      "inputs": [
        {
          "internalType": "contract LiquidityStakeHook",
          "name": "hook_",
          "type": "address"
        }
      ],
      "name": "setHook",
      "outputs": [],
      "stateMutability": "nonpayable",
      "type": "function"
    },
    {
      "inputs": [
        {
          "internalType": "uint256",
          "name": "_amount",
          "type": "uint256"
        },
        {
          "internalType": "uint256",
          "name": "minMintAmount",
          "type": "uint256"
        }
      ],
      "name": "stake",
      "outputs": [],
      "stateMutability": "nonpayable",
      "type": "function"
    },
    {
      "inputs": [
        {
          "internalType": "address",
          "name": "",
          "type": "address"
        }
      ],
      "name": "stakeInfoByStaker",
      "outputs": [
        {
          "internalType": "uint256",
          "name": "loaned2CRVAmount",
          "type": "uint256"
        },
        {
          "internalType": "uint256",
          "name": "totalSC2CRVLP",
          "type": "uint256"
        }
      ],
      "stateMutability": "view",
      "type": "function"
    },
    {
      "inputs": [],
      "name": "totalBurnSCAmount",
      "outputs": [
        {
          "internalType": "uint256",
          "name": "",
          "type": "uint256"
        }
      ],
      "stateMutability": "view",
      "type": "function"
    },
    {
      "inputs": [],
      "name": "totalLoaned2CRVAmount",
      "outputs": [
        {
          "internalType": "uint256",
          "name": "",
          "type": "uint256"
        }
      ],
      "stateMutability": "view",
      "type": "function"
    },
    {
      "inputs": [
        {
          "internalType": "address",
          "name": "newOwner",
          "type": "address"
        }
      ],
      "name": "transferOwnership",
      "outputs": [],
      "stateMutability": "nonpayable",
      "type": "function"
    },
    {
      "inputs": [
        {
          "internalType": "uint256",
          "name": "_unstakeAmount",
          "type": "uint256"
        },
        {
          "internalType": "uint256",
          "name": "min2userAmount",
          "type": "uint256"
        },
        {
          "internalType": "address",
          "name": "recipient",
          "type": "address"
        }
      ],
      "name": "unstake",
      "outputs": [],
      "stateMutability": "nonpayable",
      "type": "function"
    },
    {
      "inputs": [
        {
          "internalType": "uint256",
          "name": "_unstakeAmount",
          "type": "uint256"
        },
        {
          "internalType": "uint256",
          "name": "min2userAmount",
          "type": "uint256"
        }
      ],
      "name": "unstake",
      "outputs": [],
      "stateMutability": "nonpayable",
      "type": "function"
    },
    {
      "inputs": [
        {
          "internalType": "address",
          "name": "newImplementation",
          "type": "address"
        }
      ],
      "name": "upgradeTo",
      "outputs": [],
      "stateMutability": "nonpayable",
      "type": "function"
    },
    {
      "inputs": [
        {
          "internalType": "address",
          "name": "newImplementation",
          "type": "address"
        },
        {
          "internalType": "bytes",
          "name": "data",
          "type": "bytes"
        }
      ],
      "name": "upgradeToAndCall",
      "outputs": [],
      "stateMutability": "payable",
      "type": "function"
    },
    {
      "inputs": [
        {
          "internalType": "address",
          "name": "staker",
          "type": "address"
        },
        {
          "internalType": "address",
          "name": "token",
          "type": "address"
        }
      ],
      "name": "viewCanClaimAmount",
      "outputs": [
        {
          "internalType": "uint256",
          "name": "",
          "type": "uint256"
        }
      ],
      "stateMutability": "nonpayable",
      "type": "function"
    },
    {
      "inputs": [],
      "name": "withdrawFees",
      "outputs": [],
      "stateMutability": "nonpayable",
      "type": "function"
    }
  ],
  "transactionHash": "0xd4c8f192e3697e532d6020b5688b890dcdcc7efce5be4d22f3f49f6fc2c16560",
  "args": [],
  "numDeployments": 1,
  "solcInputHash": "4f1f45ca5fe8f6515b42ba0264732978",
  "bytecode": "0x60a06040523060805234801561001457600080fd5b5060805161311d61004c600039600081816106c701528181610710015281816109a9015281816109e90152610a7c015261311d6000f3fe6080604052600436106101b75760003560e01c8063873b7820116100ec5780639cc182a41161008a578063c4d66de811610064578063c4d66de81461052e578063f2fde38b1461054e578063f624dac81461056e578063fb5478b31461058e57600080fd5b80639cc182a4146104df5780639dc8342f146104f85780639e2c8a5b1461050e57600080fd5b806393c8dc6d116100c657806393c8dc6d1461043f57806393d4f2c91461046c57806395082d251461048c578063994c5b7f146104c957600080fd5b8063873b7820146103e15780638da5cb5b146104015780638e0752691461041f57600080fd5b806363f577771161015957806379502c551161013357806379502c55146103315780637b0472f0146103695780637f5a7c7b1461038957806380701f0a146103a957600080fd5b806363f57777146102b7578063715018a6146102ef578063762006221461030457600080fd5b80633dfd3873116101955780633dfd38731461024c578063476343ee1461026c5780634f1ef2861461028157806352d1902d1461029457600080fd5b806302267cad146101bc5780631e83409a1461020a5780633659cfe61461022c575b600080fd5b3480156101c857600080fd5b506101f06101d7366004612b74565b60cb602052600090815260409020805460019091015482565b604080519283526020830191909152015b60405180910390f35b34801561021657600080fd5b5061022a610225366004612b74565b6105a3565b005b34801561023857600080fd5b5061022a610247366004612b74565b6106bd565b34801561025857600080fd5b5061022a610267366004612b74565b6107a5565b34801561027857600080fd5b5061022a6107cf565b61022a61028f366004612bd8565b61099f565b3480156102a057600080fd5b506102a9610a6f565b604051908152602001610201565b3480156102c357600080fd5b506102a96102d2366004612c80565b60cd60209081526000928352604080842090915290825290205481565b3480156102fb57600080fd5b5061022a610b22565b34801561031057600080fd5b506102a961031f366004612b74565b60cf6020526000908152604090205481565b34801561033d57600080fd5b5060c954610351906001600160a01b031681565b6040516001600160a01b039091168152602001610201565b34801561037557600080fd5b5061022a610384366004612cb9565b610b36565b34801561039557600080fd5b5060ca54610351906001600160a01b031681565b3480156103b557600080fd5b506102a96103c4366004612c80565b60cc60209081526000928352604080842090915290825290205481565b3480156103ed57600080fd5b506102a96103fc366004612cdb565b610f6d565b34801561040d57600080fd5b506033546001600160a01b0316610351565b34801561042b57600080fd5b506102a961043a366004612c80565b611150565b34801561044b57600080fd5b506102a961045a366004612b74565b60ce6020526000908152604090205481565b34801561047857600080fd5b5061022a610487366004612cf4565b61118c565b34801561049857600080fd5b506104a8670de0b6b3a764000081565b6040516fffffffffffffffffffffffffffffffff9091168152602001610201565b3480156104d557600080fd5b506102a960d15481565b3480156104eb57600080fd5b506104a86402540be40081565b34801561050457600080fd5b506102a960d05481565b34801561051a57600080fd5b5061022a610529366004612cb9565b61119f565b34801561053a57600080fd5b5061022a610549366004612b74565b6111ac565b34801561055a57600080fd5b5061022a610569366004612b74565b6112e9565b34801561057a57600080fd5b506102a9610589366004612d2d565b61135f565b34801561059a57600080fd5b506102a9600881565b336105ad816115b9565b6001600160a01b03818116600090815260cc60209081526040808320938616835292815282822080549083905560ce9091529181208054608084901c928392916105f8908490612d6f565b909155505060405163a9059cbb60e01b81526001600160a01b0384811660048301526024820183905285169063a9059cbb906044016020604051808303816000875af115801561064c573d6000803e3d6000fd5b505050506040513d601f19601f820116820180604052508101906106709190612d82565b50604080516001600160a01b038681168252602082018490528516917f70eb43c4a8ae8c40502dcf22436c509c28d6ff421cf07c491be56984bd987068910160405180910390a250505050565b6001600160a01b037f000000000000000000000000000000000000000000000000000000000000000016300361070e5760405162461bcd60e51b815260040161070590612da4565b60405180910390fd5b7f00000000000000000000000000000000000000000000000000000000000000006001600160a01b03166107576000805160206130a1833981519152546001600160a01b031690565b6001600160a01b03161461077d5760405162461bcd60e51b815260040161070590612df0565b61078681611993565b604080516000808252602082019092526107a29183919061199b565b50565b6107ad611b06565b60ca80546001600160a01b0319166001600160a01b0392909216919091179055565b6107d7611b60565b6001600160a01b031663e6f1daf26040518163ffffffff1660e01b8152600401600060405180830381600087803b15801561081157600080fd5b505af1158015610825573d6000803e3d6000fd5b50506040516370a0823160e01b81523060048201527311cdb42b0eb46d95f990bedd4695a6e3fa03497892506000915082906370a0823190602401602060405180830381865afa15801561087d573d6000803e3d6000fd5b505050506040513d601f19601f820116820180604052508101906108a19190612e3c565b9050816001600160a01b031663a9059cbb60c960009054906101000a90046001600160a01b03166001600160a01b031663ea9c5e0d6040518163ffffffff1660e01b8152600401602060405180830381865afa158015610905573d6000803e3d6000fd5b505050506040513d601f19601f820116820180604052508101906109299190612e55565b6040516001600160e01b031960e084901b1681526001600160a01b039091166004820152602481018490526044016020604051808303816000875af1158015610976573d6000803e3d6000fd5b505050506040513d601f19601f8201168201806040525081019061099a9190612d82565b505050565b6001600160a01b037f00000000000000000000000000000000000000000000000000000000000000001630036109e75760405162461bcd60e51b815260040161070590612da4565b7f00000000000000000000000000000000000000000000000000000000000000006001600160a01b0316610a306000805160206130a1833981519152546001600160a01b031690565b6001600160a01b031614610a565760405162461bcd60e51b815260040161070590612df0565b610a5f82611993565b610a6b8282600161199b565b5050565b6000306001600160a01b037f00000000000000000000000000000000000000000000000000000000000000001614610b0f5760405162461bcd60e51b815260206004820152603860248201527f555550535570677261646561626c653a206d757374206e6f742062652063616c60448201527f6c6564207468726f7567682064656c656761746563616c6c00000000000000006064820152608401610705565b506000805160206130a183398151915290565b610b2a611b06565b610b346000611bd0565b565b60c95460408051631c7f7d8f60e31b8152905133926000926001600160a01b039091169163e3fbec78916004808201926020929091908290030181865afa158015610b85573d6000803e3d6000fd5b505050506040513d601f19601f82011682018060405250810190610ba99190612e55565b9050610bb4826115b9565b6040516323b872dd60e01b81526001600160a01b038381166004830152306024830152604482018690528216906323b872dd906064016020604051808303816000875af1158015610c09573d6000803e3d6000fd5b505050506040513d601f19601f82011682018060405250810190610c2d9190612d82565b506001600160a01b038216600090815260cb6020526040812090610c5086611c22565b905080826000016000828254610c669190612e72565b9091555060009050610c76611dea565b60405163c661065760e01b8152600160048201526001600160a01b03919091169063c661065790602401602060405180830381865afa158015610cbd573d6000803e3d6000fd5b505050506040513d601f19601f82011682018060405250810190610ce19190612e55565b9050806001600160a01b03851663095ea7b3610cfb611dea565b6040516001600160e01b031960e084901b1681526001600160a01b039091166004820152602481018b90526044016020604051808303816000875af1158015610d48573d6000803e3d6000fd5b505050506040513d601f19601f82011682018060405250810190610d6c9190612d82565b50806001600160a01b031663095ea7b3610d84611dea565b6040516001600160e01b031960e084901b1681526001600160a01b039091166004820152602481018690526044016020604051808303816000875af1158015610dd1573d6000803e3d6000fd5b505050506040513d601f19601f82011682018060405250810190610df59190612d82565b5060408051808201909152888152602081018490526000610e14611dea565b6001600160a01b0316630b4c7e4d838b6040518363ffffffff1660e01b8152600401610e41929190612ea8565b6020604051808303816000875af1158015610e60573d6000803e3d6000fd5b505050506040513d601f19601f82011682018060405250810190610e849190612e3c565b905080866001016000828254610e9a9190612e72565b909155505060ca546001600160a01b031615610f1e5760ca54604051632b64038b60e11b81526001600160a01b038a81166004830152602482018d905260448201849052909116906356c8071690606401600060405180830381600087803b158015610f0557600080fd5b505af1158015610f19573d6000803e3d6000fd5b505050505b876001600160a01b03167febedb8b3c678666e7f36970bc8f57abf6d8fa2e828c0da91ea5b75bf68ed101a8b604051610f5991815260200190565b60405180910390a250505050505050505050565b60008060c960009054906101000a90046001600160a01b03166001600160a01b0316639b6b02bc6040518163ffffffff1660e01b8152600401602060405180830381865afa158015610fc3573d6000803e3d6000fd5b505050506040513d601f19601f82011682018060405250810190610fe79190612e55565b9050600083905083826001600160a01b0316635ea032af6040518163ffffffff1660e01b8152600401602060405180830381865afa15801561102d573d6000803e3d6000fd5b505050506040513d601f19601f820116820180604052508101906110519190612e3c565b10156110bc57816001600160a01b0316635ea032af6040518163ffffffff1660e01b8152600401602060405180830381865afa158015611095573d6000803e3d6000fd5b505050506040513d601f19601f820116820180604052508101906110b99190612e3c565b90505b60408051808201909152848152602081018290526110d8611dea565b6001600160a01b031663ed8e84f38260016040518363ffffffff1660e01b8152600401611106929190612ec3565b602060405180830381865afa158015611123573d6000803e3d6000fd5b505050506040513d601f19601f820116820180604052508101906111479190612e3c565b95945050505050565b600061115b836115b9565b506001600160a01b03808316600090815260cc602090815260408083209385168352929052205460801c5b92915050565b3361119981838686611e64565b50505050565b3361099a81808585611e64565b600054610100900460ff16158080156111cc5750600054600160ff909116105b806111e65750303b1580156111e6575060005460ff166001145b6112495760405162461bcd60e51b815260206004820152602e60248201527f496e697469616c697a61626c653a20636f6e747261637420697320616c72656160448201526d191e481a5b9a5d1a585b1a5e995960921b6064820152608401610705565b6000805460ff19166001179055801561126c576000805461ff0019166101001790555b611274612597565b61127c6125c6565b61128532611bd0565b60c980546001600160a01b0319166001600160a01b0384161790558015610a6b576000805461ff0019169055604051600181527f7f26b83ff96e1f2b6a682f133852f6798a09c465da95921460cefb38474024989060200160405180910390a15050565b6112f1611b06565b6001600160a01b0381166113565760405162461bcd60e51b815260206004820152602660248201527f4f776e61626c653a206e6577206f776e657220697320746865207a65726f206160448201526564647265737360d01b6064820152608401610705565b6107a281611bd0565b6001600160a01b038216600090815260cb60209081526040808320815180830190925280548252600101549181018290529082036113a1576000915050611186565b80602001518311156113b557806020015192505b60006113ca82600001518584602001516125ed565b905060006113d66126a2565b905060006113e2611dea565b604051634903b0d160e01b8152600060048201526001600160a01b039190911690634903b0d190602401602060405180830381865afa158015611429573d6000803e3d6000fd5b505050506040513d601f19601f8201168201806040525081019061144d9190612e3c565b90506000611459611dea565b604051634903b0d160e01b8152600160048201526001600160a01b039190911690634903b0d190602401602060405180830381865afa1580156114a0573d6000803e3d6000fd5b505050506040513d601f19601f820116820180604052508101906114c49190612e3c565b905060006114d38884866125ed565b905060006114e28984876125ed565b9050858111156114fd576114f68682612d6f565b9050611518565b6115078187612d6f565b6115119083612d6f565b9150600090505b80156115ac57611526611dea565b604051635e0d443f60e01b81526001600482015260006024820152604481018390526001600160a01b039190911690635e0d443f90606401602060405180830381865afa15801561157b573d6000803e3d6000fd5b505050506040513d601f19601f8201168201806040525081019061159f9190612e3c565b6115a99083612e72565b91505b5098975050505050505050565b6115c1611b60565b6001600160a01b031663e6f1daf26040518163ffffffff1660e01b8152600401600060405180830381600087803b1580156115fb57600080fd5b505af115801561160f573d6000803e3d6000fd5b5050506001600160a01b038216600090815260cb602090815260408083208151808301909252805482526001015491810191909152915061164e611dea565b6001600160a01b03166318160ddd6040518163ffffffff1660e01b8152600401602060405180830381865afa15801561168b573d6000803e3d6000fd5b505050506040513d601f19601f820116820180604052508101906116af9190612e3c565b9050806000036116be57505050565b60005b60088110156111995760006116d4611b60565b6001600160a01b03166354c49fe9836040518263ffffffff1660e01b815260040161170191815260200190565b602060405180830381865afa15801561171e573d6000803e3d6000fd5b505050506040513d601f19601f820116820180604052508101906117429190612e55565b90506001600160a01b0381166117585750611199565b6040516370a0823160e01b815230600482015260009081906001600160a01b038416906370a0823190602401602060405180830381865afa1580156117a1573d6000803e3d6000fd5b505050506040513d601f19601f820116820180604052508101906117c59190612e3c565b6001600160a01b038416600090815260ce602052604090205490915085906117ed9083612d6f565b6117ff90670de0b6b3a7640000612ee0565b6118099190612f0d565b6001600160a01b038416600090815260ce6020908152604080832085905560cf9091528120549193509061183e908490612e72565b90508215611862576001600160a01b038416600090815260cf602052604090208190555b6001600160a01b03808516600090815260cd60209081526040808320938c1683529290529081205490828210156118ea576001600160a01b03808716600090815260cd60209081526040808320938e16835292905220839055670de0b6b3a76400006118ce8385612d6f565b8a602001516118dd9190612ee0565b6118e79190612f0d565b90505b6001600160a01b03808b16600090815260cc60209081526040808320938a168352929052908120549061192183608084901c612e72565b90508015611978576000611939600160801b84612f21565b905083156119765761194f608083901b82612e72565b6001600160a01b03808f16600090815260cc60209081526040808320938e16835292905220555b505b5050505050505050808061198b90612f35565b9150506116c1565b6107a2611b06565b7f4910fdfa16fed3260ed0e7147f7cc6da11a60208b5b9406d12a635614ffd91435460ff16156119ce5761099a83612716565b826001600160a01b03166352d1902d6040518163ffffffff1660e01b8152600401602060405180830381865afa925050508015611a28575060408051601f3d908101601f19168201909252611a2591810190612e3c565b60015b611a8b5760405162461bcd60e51b815260206004820152602e60248201527f45524331393637557067726164653a206e657720696d706c656d656e7461746960448201526d6f6e206973206e6f74205555505360901b6064820152608401610705565b6000805160206130a18339815191528114611afa5760405162461bcd60e51b815260206004820152602960248201527f45524331393637557067726164653a20756e737570706f727465642070726f786044820152681a58589b195555525160ba1b6064820152608401610705565b5061099a8383836127b2565b6033546001600160a01b03163314610b345760405162461bcd60e51b815260206004820181905260248201527f4f776e61626c653a2063616c6c6572206973206e6f7420746865206f776e65726044820152606401610705565b6000611b6a611dea565b6001600160a01b03166364817b8a6040518163ffffffff1660e01b8152600401602060405180830381865afa158015611ba7573d6000803e3d6000fd5b505050506040513d601f19601f82011682018060405250810190611bcb9190612e55565b905090565b603380546001600160a01b038381166001600160a01b0319831681179093556040519116919082907f8be0079c531659141344cd1fd0a4f28419497f9722a3daafe3b4186f6b6457e090600090a35050565b60008060c960009054906101000a90046001600160a01b03166001600160a01b0316639b6b02bc6040518163ffffffff1660e01b8152600401602060405180830381865afa158015611c78573d6000803e3d6000fd5b505050506040513d601f19601f82011682018060405250810190611c9c9190612e55565b9050600083905083826001600160a01b0316635ea032af6040518163ffffffff1660e01b8152600401602060405180830381865afa158015611ce2573d6000803e3d6000fd5b505050506040513d601f19601f82011682018060405250810190611d069190612e3c565b1015611d7157816001600160a01b0316635ea032af6040518163ffffffff1660e01b8152600401602060405180830381865afa158015611d4a573d6000803e3d6000fd5b505050506040513d601f19601f82011682018060405250810190611d6e9190612e3c565b90505b60405163317afabb60e21b8152600481018290526001600160a01b0383169063c5ebeaec90602401600060405180830381600087803b158015611db357600080fd5b505af1158015611dc7573d6000803e3d6000fd5b505050508060d06000828254611ddd9190612e72565b9091555090949350505050565b60008060c960009054906101000a90046001600160a01b03166001600160a01b031663ea6b53286040518163ffffffff1660e01b8152600401602060405180830381865afa158015611e40573d6000803e3d6000fd5b505050506040513d601f19601f820116820180604052508101906111869190612e55565b6001600160a01b038416600090815260cb6020526040812090611e85611dea565b60405163c661065760e01b8152600060048201526001600160a01b03919091169063c661065790602401602060405180830381865afa158015611ecc573d6000803e3d6000fd5b505050506040513d601f19601f82011682018060405250810190611ef09190612e55565b90506000611efc611dea565b60405163c661065760e01b8152600160048201526001600160a01b03919091169063c661065790602401602060405180830381865afa158015611f43573d6000803e3d6000fd5b505050506040513d601f19601f82011682018060405250810190611f679190612e55565b90508483600101541015611fa65760405162461bcd60e51b815260040161070590602080825260049082015263756e303160e01b604082015260600190565b6000611fbb84600001548786600101546125ed565b9050611fc6886115b9565b6040516370a0823160e01b81523060048201526000906001600160a01b038516906370a0823190602401602060405180830381865afa15801561200d573d6000803e3d6000fd5b505050506040513d601f19601f820116820180604052508101906120319190612e3c565b6040516370a0823160e01b81523060048201529091506000906001600160a01b038516906370a0823190602401602060405180830381865afa15801561207b573d6000803e3d6000fd5b505050506040513d601f19601f8201168201806040525081019061209f9190612e3c565b60408051808201909152600080825260208201529091506120be611dea565b6001600160a01b031663095ea7b36120d4611dea565b6040516001600160e01b031960e084901b1681526001600160a01b039091166004820152602481018c90526044016020604051808303816000875af1158015612121573d6000803e3d6000fd5b505050506040513d601f19601f820116820180604052508101906121459190612d82565b5061214e611dea565b6001600160a01b0316635b36389c8a836040518363ffffffff1660e01b815260040161217b929190612f4e565b60408051808303816000875af1158015612199573d6000803e3d6000fd5b505050506040513d601f19601f820116820180604052508101906121bd9190612f62565b506040516370a0823160e01b815230600482015260009084906001600160a01b038916906370a0823190602401602060405180830381865afa158015612207573d6000803e3d6000fd5b505050506040513d601f19601f8201168201806040525081019061222b9190612e3c565b6122359190612d6f565b6040516370a0823160e01b815230600482015290915060009084906001600160a01b038916906370a0823190602401602060405180830381865afa158015612281573d6000803e3d6000fd5b505050506040513d601f19601f820116820180604052508101906122a59190612e3c565b6122af9190612d6f565b90508a8960010160008282546122c59190612d6f565b9091555050885486908a906000906122de908490612d6f565b909155506000905086821115612308576122f7876127d7565b6123018783612d6f565b9150612342565b612311826127d7565b61231b8288612d6f565b90508060d15461232b9190612e72565b60d1556123388184612d6f565b9250819650600091505b81156123df57612350611dea565b604051630f7c084960e21b8152600160048201526000602482018190526044820185905260648201526001600160a01b039190911690633df02124906084016020604051808303816000875af11580156123ae573d6000803e3d6000fd5b505050506040513d601f19601f820116820180604052508101906123d29190612e3c565b6123dc9084612e72565b92505b8a8310156124185760405162461bcd60e51b8152600401610705906020808252600490820152633ab7181960e11b604082015260600190565b60405163a9059cbb60e01b81526001600160a01b038e81166004830152602482018590528a169063a9059cbb906044016020604051808303816000875af1158015612467573d6000803e3d6000fd5b505050506040513d601f19601f8201168201806040525081019061248b9190612d82565b5060ca546001600160a01b0316156125315760ca60009054906101000a90046001600160a01b03166001600160a01b03166311748de38f858f6040518463ffffffff1660e01b81526004016124fe939291906001600160a01b039390931683526020830191909152604082015260600190565b600060405180830381600087803b15801561251857600080fd5b505af115801561252c573d6000803e3d6000fd5b505050505b604080516001600160a01b038f81168252602082018f905291810183905260608101899052908f16907fa4b627609e711628747558b171b04b9636337afdadac065ee7113fb91eab0b729060800160405180910390a25050505050505050505050505050565b600054610100900460ff166125be5760405162461bcd60e51b815260040161070590612fe2565b610b346129ac565b600054610100900460ff16610b345760405162461bcd60e51b815260040161070590612fe2565b60008080600019858709858702925082811083820303915050806000036126275783828161261d5761261d612ef7565b049250505061269b565b80841161263357600080fd5b600084868809851960019081018716968790049682860381900495909211909303600082900391909104909201919091029190911760038402600290811880860282030280860282030280860282030280860282030280860282030280860290910302029150505b9392505050565b60006126ac611dea565b6040516370a0823160e01b81523060048201526001600160a01b0391909116906370a0823190602401602060405180830381865afa1580156126f2573d6000803e3d6000fd5b505050506040513d601f19601f82011682018060405250810190611bcb9190612e3c565b6001600160a01b0381163b6127835760405162461bcd60e51b815260206004820152602d60248201527f455243313936373a206e657720696d706c656d656e746174696f6e206973206e60448201526c1bdd08184818dbdb9d1c9858dd609a1b6064820152608401610705565b6000805160206130a183398151915280546001600160a01b0319166001600160a01b0392909216919091179055565b6127bb836129dc565b6000825111806127c85750805b1561099a576111998383612a1c565b60c954604080516326dac0af60e21b815290516000926001600160a01b031691639b6b02bc9160048083019260209291908290030181865afa158015612821573d6000803e3d6000fd5b505050506040513d601f19601f820116820180604052508101906128459190612e55565b90506000612851611dea565b60405163c661065760e01b8152600160048201526001600160a01b03919091169063c661065790602401602060405180830381865afa158015612898573d6000803e3d6000fd5b505050506040513d601f19601f820116820180604052508101906128bc9190612e55565b60405163095ea7b360e01b81526001600160a01b03848116600483015260248201869052919250829182169063095ea7b3906044016020604051808303816000875af1158015612910573d6000803e3d6000fd5b505050506040513d601f19601f820116820180604052508101906129349190612d82565b50604051631b8fec7360e11b8152600481018590526001600160a01b0384169063371fd8e690602401600060405180830381600087803b15801561297757600080fd5b505af115801561298b573d6000803e3d6000fd5b505050508360d060008282546129a19190612d6f565b909155505050505050565b600054610100900460ff166129d35760405162461bcd60e51b815260040161070590612fe2565b610b3433611bd0565b6129e581612716565b6040516001600160a01b038216907fbc7cd75a20ee27fd9adebab32041f755214dbc6bffa90cc0225b39da2e5c2d3b90600090a250565b606061269b83836040518060600160405280602781526020016130c1602791396060600080856001600160a01b031685604051612a599190613051565b600060405180830381855af49150503d8060008114612a94576040519150601f19603f3d011682016040523d82523d6000602084013e612a99565b606091505b5091509150612aaa86838387612ab4565b9695505050505050565b60608315612b23578251600003612b1c576001600160a01b0385163b612b1c5760405162461bcd60e51b815260206004820152601d60248201527f416464726573733a2063616c6c20746f206e6f6e2d636f6e74726163740000006044820152606401610705565b5081612b2d565b612b2d8383612b35565b949350505050565b815115612b455781518083602001fd5b8060405162461bcd60e51b8152600401610705919061306d565b6001600160a01b03811681146107a257600080fd5b600060208284031215612b8657600080fd5b813561269b81612b5f565b634e487b7160e01b600052604160045260246000fd5b604051601f8201601f1916810167ffffffffffffffff81118282101715612bd057612bd0612b91565b604052919050565b60008060408385031215612beb57600080fd5b8235612bf681612b5f565b915060208381013567ffffffffffffffff80821115612c1457600080fd5b818601915086601f830112612c2857600080fd5b813581811115612c3a57612c3a612b91565b612c4c601f8201601f19168501612ba7565b91508082528784828501011115612c6257600080fd5b80848401858401376000848284010152508093505050509250929050565b60008060408385031215612c9357600080fd5b8235612c9e81612b5f565b91506020830135612cae81612b5f565b809150509250929050565b60008060408385031215612ccc57600080fd5b50508035926020909101359150565b600060208284031215612ced57600080fd5b5035919050565b600080600060608486031215612d0957600080fd5b83359250602084013591506040840135612d2281612b5f565b809150509250925092565b60008060408385031215612d4057600080fd5b8235612d4b81612b5f565b946020939093013593505050565b634e487b7160e01b600052601160045260246000fd5b8181038181111561118657611186612d59565b600060208284031215612d9457600080fd5b8151801515811461269b57600080fd5b6020808252602c908201527f46756e6374696f6e206d7573742062652063616c6c6564207468726f7567682060408201526b19195b1959d85d1958d85b1b60a21b606082015260800190565b6020808252602c908201527f46756e6374696f6e206d7573742062652063616c6c6564207468726f7567682060408201526b6163746976652070726f787960a01b606082015260800190565b600060208284031215612e4e57600080fd5b5051919050565b600060208284031215612e6757600080fd5b815161269b81612b5f565b8082018082111561118657611186612d59565b8060005b6002811015611199578151845260209384019390910190600101612e89565b60608101612eb68285612e85565b8260408301529392505050565b60608101612ed18285612e85565b82151560408301529392505050565b808202811582820484141761118657611186612d59565b634e487b7160e01b600052601260045260246000fd5b600082612f1c57612f1c612ef7565b500490565b600082612f3057612f30612ef7565b500690565b600060018201612f4757612f47612d59565b5060010190565b8281526060810161269b6020830184612e85565b600060408284031215612f7457600080fd5b82601f830112612f8357600080fd5b6040516040810181811067ffffffffffffffff82111715612fa657612fa6612b91565b8060405250806040840185811115612fbd57600080fd5b845b81811015612fd7578051835260209283019201612fbf565b509195945050505050565b6020808252602b908201527f496e697469616c697a61626c653a20636f6e7472616374206973206e6f74206960408201526a6e697469616c697a696e6760a81b606082015260800190565b60005b83811015613048578181015183820152602001613030565b50506000910152565b6000825161306381846020870161302d565b9190910192915050565b602081526000825180602084015261308c81604085016020870161302d565b601f01601f1916919091016040019291505056fe360894a13ba1a3210667c828492db98dca3e2076cc3735a920a3ca505d382bbc416464726573733a206c6f772d6c6576656c2064656c65676174652063616c6c206661696c6564a26469706673582212209ca34722aa5f08604dbc63bdc65e8bcfec9405c0b27f8e2c59c9d0c6425f4fd164736f6c63430008120033",
  "devdoc": {
    "events": {
      "AdminChanged(address,address)": {
        "details": "Emitted when the admin account has changed."
      },
      "BeaconUpgraded(address)": {
        "details": "Emitted when the beacon is changed."
      },
      "Initialized(uint8)": {
        "details": "Triggered when the contract has been initialized or reinitialized."
      },
      "Upgraded(address)": {
        "details": "Emitted when the implementation is upgraded."
      }
    },
    "kind": "dev",
    "methods": {
      "owner()": {
        "details": "Returns the address of the current owner."
      },
      "proxiableUUID()": {
        "details": "Implementation of the ERC1822 {proxiableUUID} function. This returns the storage slot used by the implementation. It is used to validate the implementation's compatibility when performing an upgrade. IMPORTANT: A proxy pointing at a proxiable contract should not be considered proxiable itself, because this risks bricking a proxy that upgrades to it, by delegating to itself until out of gas. Thus it is critical that this function revert if invoked through a proxy. This is guaranteed by the `notDelegated` modifier."
      },
      "renounceOwnership()": {
        "details": "Leaves the contract without owner. It will not be possible to call `onlyOwner` functions. Can only be called by the current owner. NOTE: Renouncing ownership will leave the contract without an owner, thereby disabling any functionality that is only available to the owner."
      },
      "transferOwnership(address)": {
        "details": "Transfers ownership of the contract to a new account (`newOwner`). Can only be called by the current owner."
      },
      "upgradeTo(address)": {
        "custom:oz-upgrades-unsafe-allow-reachable": "delegatecall",
        "details": "Upgrade the implementation of the proxy to `newImplementation`. Calls {_authorizeUpgrade}. Emits an {Upgraded} event."
      },
      "upgradeToAndCall(address,bytes)": {
        "custom:oz-upgrades-unsafe-allow-reachable": "delegatecall",
        "details": "Upgrade the implementation of the proxy to `newImplementation`, and subsequently execute the function call encoded in `data`. Calls {_authorizeUpgrade}. Emits an {Upgraded} event."
      }
    },
    "version": 1
  },
  "userdoc": {
    "kind": "user",
    "methods": {},
    "version": 1
  },
  "storageLayout": {
    "storage": [
      {
        "astId": 590,
        "contract": "contracts/LiquidityStake.sol:LiquidityStake",
        "label": "_initialized",
        "offset": 0,
        "slot": "0",
        "type": "t_uint8"
      },
      {
        "astId": 593,
        "contract": "contracts/LiquidityStake.sol:LiquidityStake",
        "label": "_initializing",
        "offset": 1,
        "slot": "0",
        "type": "t_bool"
      },
      {
        "astId": 1812,
        "contract": "contracts/LiquidityStake.sol:LiquidityStake",
        "label": "__gap",
        "offset": 0,
        "slot": "1",
        "type": "t_array(t_uint256)50_storage"
      },
      {
        "astId": 10,
        "contract": "contracts/LiquidityStake.sol:LiquidityStake",
        "label": "_owner",
        "offset": 0,
        "slot": "51",
        "type": "t_address"
      },
      {
        "astId": 130,
        "contract": "contracts/LiquidityStake.sol:LiquidityStake",
        "label": "__gap",
        "offset": 0,
        "slot": "52",
        "type": "t_array(t_uint256)49_storage"
      },
      {
        "astId": 572,
        "contract": "contracts/LiquidityStake.sol:LiquidityStake",
        "label": "__gap",
        "offset": 0,
        "slot": "101",
        "type": "t_array(t_uint256)50_storage"
      },
      {
        "astId": 887,
        "contract": "contracts/LiquidityStake.sol:LiquidityStake",
        "label": "__gap",
        "offset": 0,
        "slot": "151",
        "type": "t_array(t_uint256)50_storage"
      },
      {
        "astId": 14762,
        "contract": "contracts/LiquidityStake.sol:LiquidityStake",
        "label": "config",
        "offset": 0,
        "slot": "201",
        "type": "t_contract(IConfig)20550"
      },
      {
        "astId": 14765,
        "contract": "contracts/LiquidityStake.sol:LiquidityStake",
        "label": "hook",
        "offset": 0,
        "slot": "202",
        "type": "t_contract(LiquidityStakeHook)15997"
      },
      {
        "astId": 14775,
        "contract": "contracts/LiquidityStake.sol:LiquidityStake",
        "label": "stakeInfoByStaker",
        "offset": 0,
        "slot": "203",
        "type": "t_mapping(t_address,t_struct(StakeInfo)14770_storage)"
      },
      {
        "astId": 14781,
        "contract": "contracts/LiquidityStake.sol:LiquidityStake",
        "label": "claimDataByStaker",
        "offset": 0,
        "slot": "204",
        "type": "t_mapping(t_address,t_mapping(t_address,t_uint256))"
      },
      {
        "astId": 14787,
        "contract": "contracts/LiquidityStake.sol:LiquidityStake",
        "label": "rewardIntegralFor",
        "offset": 0,
        "slot": "205",
        "type": "t_mapping(t_address,t_mapping(t_address,t_uint256))"
      },
      {
        "astId": 14791,
        "contract": "contracts/LiquidityStake.sol:LiquidityStake",
        "label": "rewardBalances",
        "offset": 0,
        "slot": "206",
        "type": "t_mapping(t_address,t_uint256)"
      },
      {
        "astId": 14795,
        "contract": "contracts/LiquidityStake.sol:LiquidityStake",
        "label": "rewardIntegral",
        "offset": 0,
        "slot": "207",
        "type": "t_mapping(t_address,t_uint256)"
      },
      {
        "astId": 14797,
        "contract": "contracts/LiquidityStake.sol:LiquidityStake",
        "label": "totalLoaned2CRVAmount",
        "offset": 0,
        "slot": "208",
        "type": "t_uint256"
      },
      {
        "astId": 14799,
        "contract": "contracts/LiquidityStake.sol:LiquidityStake",
        "label": "totalBurnSCAmount",
        "offset": 0,
        "slot": "209",
        "type": "t_uint256"
      }
    ],
    "types": {
      "t_address": {
        "encoding": "inplace",
        "label": "address",
        "numberOfBytes": "20"
      },
      "t_array(t_uint256)49_storage": {
        "base": "t_uint256",
        "encoding": "inplace",
        "label": "uint256[49]",
        "numberOfBytes": "1568"
      },
      "t_array(t_uint256)50_storage": {
        "base": "t_uint256",
        "encoding": "inplace",
        "label": "uint256[50]",
        "numberOfBytes": "1600"
      },
      "t_bool": {
        "encoding": "inplace",
        "label": "bool",
        "numberOfBytes": "1"
      },
      "t_contract(IConfig)20550": {
        "encoding": "inplace",
        "label": "contract IConfig",
        "numberOfBytes": "20"
      },
      "t_contract(LiquidityStakeHook)15997": {
        "encoding": "inplace",
        "label": "contract LiquidityStakeHook",
        "numberOfBytes": "20"
      },
      "t_mapping(t_address,t_mapping(t_address,t_uint256))": {
        "encoding": "mapping",
        "key": "t_address",
        "label": "mapping(address => mapping(address => uint256))",
        "numberOfBytes": "32",
        "value": "t_mapping(t_address,t_uint256)"
      },
      "t_mapping(t_address,t_struct(StakeInfo)14770_storage)": {
        "encoding": "mapping",
        "key": "t_address",
        "label": "mapping(address => struct LiquidityStake.StakeInfo)",
        "numberOfBytes": "32",
        "value": "t_struct(StakeInfo)14770_storage"
      },
      "t_mapping(t_address,t_uint256)": {
        "encoding": "mapping",
        "key": "t_address",
        "label": "mapping(address => uint256)",
        "numberOfBytes": "32",
        "value": "t_uint256"
      },
      "t_struct(StakeInfo)14770_storage": {
        "encoding": "inplace",
        "label": "struct LiquidityStake.StakeInfo",
        "members": [
          {
            "astId": 14767,
            "contract": "contracts/LiquidityStake.sol:LiquidityStake",
            "label": "loaned2CRVAmount",
            "offset": 0,
            "slot": "0",
            "type": "t_uint256"
          },
          {
            "astId": 14769,
            "contract": "contracts/LiquidityStake.sol:LiquidityStake",
            "label": "totalSC2CRVLP",
            "offset": 0,
            "slot": "1",
            "type": "t_uint256"
          }
        ],
        "numberOfBytes": "64"
      },
      "t_uint256": {
        "encoding": "inplace",
        "label": "uint256",
        "numberOfBytes": "32"
      },
      "t_uint8": {
        "encoding": "inplace",
        "label": "uint8",
        "numberOfBytes": "1"
      }
    }
  }
}