{
  "address": "0x34761A02663c3CeAE65b3542b15161cEF8f5d8cA",
  "abi": [
    {
      "inputs": [
        {
          "internalType": "contract IConfig",
          "name": "config_",
          "type": "address"
        }
      ],
      "stateMutability": "nonpayable",
      "type": "constructor"
    },
    {
      "inputs": [],
      "name": "acceptCoin",
      "outputs": [
        {
          "internalType": "address",
          "name": "",
          "type": "address"
        }
      ],
      "stateMutability": "view",
      "type": "function"
    },
    {
      "inputs": [],
      "name": "acceptCoinIndex",
      "outputs": [
        {
          "internalType": "int128",
          "name": "",
          "type": "int128"
        }
      ],
      "stateMutability": "view",
      "type": "function"
    },
    {
      "inputs": [
        {
          "internalType": "uint256",
          "name": "payAmount",
          "type": "uint256"
        },
        {
          "internalType": "uint256",
          "name": "minLPAmount",
          "type": "uint256"
        },
        {
          "internalType": "uint256",
          "name": "mintVammAmount",
          "type": "uint256"
        }
      ],
      "name": "buy",
      "outputs": [],
      "stateMutability": "nonpayable",
      "type": "function"
    },
    {
      "inputs": [
        {
          "internalType": "uint256",
          "name": "buyAmount",
          "type": "uint256"
        },
        {
          "internalType": "uint256",
          "name": "minLPAmount",
          "type": "uint256"
        },
        {
          "internalType": "uint256",
          "name": "maxPayAmount",
          "type": "uint256"
        }
      ],
      "name": "buyWithPRToken",
      "outputs": [],
      "stateMutability": "nonpayable",
      "type": "function"
    },
    {
      "inputs": [
        {
          "internalType": "uint256",
          "name": "payAmount",
          "type": "uint256"
        }
      ],
      "name": "calcDeposit",
      "outputs": [
        {
          "internalType": "uint256",
          "name": "",
          "type": "uint256"
        }
      ],
      "stateMutability": "view",
      "type": "function"
    },
    {
      "inputs": [
        {
          "internalType": "uint256",
          "name": "tokenAmount",
          "type": "uint256"
        }
      ],
      "name": "calcWithdraw",
      "outputs": [
        {
          "internalType": "uint256",
          "name": "",
          "type": "uint256"
        }
      ],
      "stateMutability": "view",
      "type": "function"
    },
    {
      "inputs": [],
      "name": "config",
      "outputs": [
        {
          "internalType": "contract IConfig",
          "name": "",
          "type": "address"
        }
      ],
      "stateMutability": "view",
      "type": "function"
    },
    {
      "inputs": [],
      "name": "curvePool",
      "outputs": [
        {
          "internalType": "address",
          "name": "",
          "type": "address"
        }
      ],
      "stateMutability": "view",
      "type": "function"
    },
    {
      "inputs": [],
      "name": "get_virtual_price",
      "outputs": [
        {
          "internalType": "uint256",
          "name": "",
          "type": "uint256"
        }
      ],
      "stateMutability": "view",
      "type": "function"
    },
    {
      "inputs": [
        {
          "internalType": "uint256",
          "name": "burnAmount",
          "type": "uint256"
        },
        {
          "internalType": "uint256",
          "name": "minReceive2CRVAmount",
          "type": "uint256"
        },
        {
          "internalType": "uint256",
          "name": "minReceiveUSDTAmount",
          "type": "uint256"
        }
      ],
      "name": "sell",
      "outputs": [],
      "stateMutability": "nonpayable",
      "type": "function"
    }
  ],
  "transactionHash": "0x08bb03eac4f1578b329d94547f3a19b3254034600d3c165bfa1d4475f9c37b22",
  "args": [
    "0x1218554369a87Ce4B29F6De3C050C2D13BE9E71D"
  ],
  "numDeployments": 1,
  "solcInputHash": "9e3433254464ad8d77185c6cb44a57d0",
  "bytecode": "0x610100604052600060e0523480156200001757600080fd5b50604051620017c2380380620017c28339810160408190526200003a916200014e565b806001600160a01b031663e3fbec786040518163ffffffff1660e01b8152600401602060405180830381865afa15801562000079573d6000803e3d6000fd5b505050506040513d601f19601f820116820180604052508101906200009f91906200014e565b6001600160a01b03166080816001600160a01b031681525050806001600160a01b031663ea6b53286040518163ffffffff1660e01b8152600401602060405180830381865afa158015620000f7573d6000803e3d6000fd5b505050506040513d601f19601f820116820180604052508101906200011d91906200014e565b6001600160a01b0390811660a0521660c05262000175565b6001600160a01b03811681146200014b57600080fd5b50565b6000602082840312156200016157600080fd5b81516200016e8162000135565b9392505050565b60805160a05160c05160e0516115736200024f600039600081816101140152818161051901528181610a3c01528181610dab015261133001526000818161014e015281816101ea015281816102700152818161084001528181610edd0152610f6301526000818160a8015281816103c2015281816105720152818161098901528181610a9501528181610d1501528181610dd701528181610e54015281816110e201528181611178015261129d0152600081816101c40152818161030a015281816103f1015281816108da01526109b801526115736000f3fe608060405234801561001057600080fd5b506004361061009e5760003560e01c80638f2b29a7116100665780638f2b29a7146101705780639b05f5e414610191578063bb7b8b80146101a4578063d3c9727c146101ac578063f1073a74146101bf57600080fd5b8063218751b2146100a357806333f2fdbf146100e757806340993b26146100fc57806346d50bd11461010f57806379502c5514610149575b600080fd5b6100ca7f000000000000000000000000000000000000000000000000000000000000000081565b6040516001600160a01b0390911681526020015b60405180910390f35b6100fa6100f53660046113c6565b6101e6565b005b6100fa61010a3660046113c6565b61083c565b6101367f000000000000000000000000000000000000000000000000000000000000000081565b604051600f9190910b81526020016100de565b6100ca7f000000000000000000000000000000000000000000000000000000000000000081565b61018361017e3660046113f2565b610cea565b6040519081526020016100de565b61018361019f3660046113f2565b610d95565b610183610e50565b6100fa6101ba3660046113c6565b610ed9565b6100ca7f000000000000000000000000000000000000000000000000000000000000000081565b60007f00000000000000000000000000000000000000000000000000000000000000006001600160a01b031663316cb88a6040518163ffffffff1660e01b8152600401602060405180830381865afa158015610246573d6000803e3d6000fd5b505050506040513d601f19601f8201168201806040525081019061026a9190611423565b905060007f00000000000000000000000000000000000000000000000000000000000000006001600160a01b0316639b6b02bc6040518163ffffffff1660e01b8152600401602060405180830381865afa1580156102cc573d6000803e3d6000fd5b505050506040513d601f19601f820116820180604052508101906102f09190611423565b6040516323b872dd60e01b81529091506001600160a01b037f000000000000000000000000000000000000000000000000000000000000000016906323b872dd9061034390339030908890600401611440565b6020604051808303816000875af1158015610362573d6000803e3d6000fd5b505050506040513d601f19601f820116820180604052508101906103869190611464565b6103ab5760405162461bcd60e51b81526004016103a290611486565b60405180910390fd5b60405163095ea7b360e01b81526001600160a01b037f000000000000000000000000000000000000000000000000000000000000000081166004830152602482018590527f0000000000000000000000000000000000000000000000000000000000000000169063095ea7b3906044016020604051808303816000875af115801561043a573d6000803e3d6000fd5b505050506040513d601f19601f8201168201806040525081019061045e9190611464565b506040516323b872dd60e01b81526001600160a01b038316906323b872dd9061048f90339030908a90600401611440565b6020604051808303816000875af11580156104ae573d6000803e3d6000fd5b505050506040513d601f19601f820116820180604052508101906104d29190611464565b6105035760405162461bcd60e51b8152602060048201526002602482015261623160f01b60448201526064016103a2565b60408051808201909152838152602081018490527f0000000000000000000000000000000000000000000000000000000000000000600f0b600003610551578381526000602082015261055d565b60008152602081018490525b6040516370a0823160e01b81523060048201527f0000000000000000000000000000000000000000000000000000000000000000906000906001600160a01b038316906370a0823190602401602060405180830381865afa1580156105c6573d6000803e3d6000fd5b505050506040513d601f19601f820116820180604052508101906105ea91906114a2565b604051630b4c7e4d60e01b81529091506001600160a01b03831690630b4c7e4d9061061b9086908b906004016114e4565b6020604051808303816000875af115801561063a573d6000803e3d6000fd5b505050506040513d601f19601f8201168201806040525081019061065e91906114a2565b506040516370a0823160e01b815230600482015260009082906001600160a01b038516906370a0823190602401602060405180830381865afa1580156106a8573d6000803e3d6000fd5b505050506040513d601f19601f820116820180604052508101906106cc91906114a2565b6106d691906114ff565b60405163095ea7b360e01b81526001600160a01b038781166004830152602482018390529192509084169063095ea7b3906044016020604051808303816000875af1158015610729573d6000803e3d6000fd5b505050506040513d601f19601f8201168201806040525081019061074d9190611464565b5060405163095ea7b360e01b81526001600160a01b038681166004830152602482018b905287169063095ea7b3906044016020604051808303816000875af115801561079d573d6000803e3d6000fd5b505050506040513d601f19601f820116820180604052508101906107c19190611464565b50604051631a1c20f160e01b81526001600160a01b038481166004830152602482018b905260448201839052336064830152861690631a1c20f190608401600060405180830381600087803b15801561081957600080fd5b505af115801561082d573d6000803e3d6000fd5b50505050505050505050505050565b60007f00000000000000000000000000000000000000000000000000000000000000006001600160a01b0316639b6b02bc6040518163ffffffff1660e01b8152600401602060405180830381865afa15801561089c573d6000803e3d6000fd5b505050506040513d601f19601f820116820180604052508101906108c09190611423565b6040516323b872dd60e01b81529091506001600160a01b037f000000000000000000000000000000000000000000000000000000000000000016906323b872dd9061091390339030908990600401611440565b6020604051808303816000875af1158015610932573d6000803e3d6000fd5b505050506040513d601f19601f820116820180604052508101906109569190611464565b6109725760405162461bcd60e51b81526004016103a290611486565b60405163095ea7b360e01b81526001600160a01b037f000000000000000000000000000000000000000000000000000000000000000081166004830152602482018690527f0000000000000000000000000000000000000000000000000000000000000000169063095ea7b3906044016020604051808303816000875af1158015610a01573d6000803e3d6000fd5b505050506040513d601f19601f82011682018060405250810190610a259190611464565b5060408051808201909152848152602081018590527f0000000000000000000000000000000000000000000000000000000000000000600f0b600003610a745784815260006020820152610a80565b60008152602081018590525b6040516370a0823160e01b81523060048201527f0000000000000000000000000000000000000000000000000000000000000000906000906001600160a01b038316906370a0823190602401602060405180830381865afa158015610ae9573d6000803e3d6000fd5b505050506040513d601f19601f82011682018060405250810190610b0d91906114a2565b604051630b4c7e4d60e01b81529091506001600160a01b03831690630b4c7e4d90610b3e9086908a906004016114e4565b6020604051808303816000875af1158015610b5d573d6000803e3d6000fd5b505050506040513d601f19601f82011682018060405250810190610b8191906114a2565b506040516370a0823160e01b815230600482015260009082906001600160a01b038516906370a0823190602401602060405180830381865afa158015610bcb573d6000803e3d6000fd5b505050506040513d601f19601f82011682018060405250810190610bef91906114a2565b610bf991906114ff565b60405163095ea7b360e01b81526001600160a01b038781166004830152602482018390529192509084169063095ea7b3906044016020604051808303816000875af1158015610c4c573d6000803e3d6000fd5b505050506040513d601f19601f82011682018060405250810190610c709190611464565b50604051637ba5ff4760e11b81526001600160a01b038481166004830152602482018890526044820183905233606483015286169063f74bfe8e90608401600060405180830381600087803b158015610cc857600080fd5b505af1158015610cdc573d6000803e3d6000fd5b505050505050505050505050565b604080518082018252828152600060208201819052915163ed8e84f360e01b81526001600160a01b037f0000000000000000000000000000000000000000000000000000000000000000169063ed8e84f390610d4d908490600190600401611520565b602060405180830381865afa158015610d6a573d6000803e3d6000fd5b505050506040513d601f19601f82011682018060405250810190610d8e91906114a2565b9392505050565b60405163cc2b27d760e01b8152600481018290527f0000000000000000000000000000000000000000000000000000000000000000600f0b60248201526000907f00000000000000000000000000000000000000000000000000000000000000006001600160a01b03169063cc2b27d790604401602060405180830381865afa158015610e26573d6000803e3d6000fd5b505050506040513d601f19601f82011682018060405250810190610e4a91906114a2565b92915050565b60007f00000000000000000000000000000000000000000000000000000000000000006001600160a01b031663bb7b8b806040518163ffffffff1660e01b8152600401602060405180830381865afa158015610eb0573d6000803e3d6000fd5b505050506040513d601f19601f82011682018060405250810190610ed491906114a2565b905090565b60007f00000000000000000000000000000000000000000000000000000000000000006001600160a01b0316639b6b02bc6040518163ffffffff1660e01b8152600401602060405180830381865afa158015610f39573d6000803e3d6000fd5b505050506040513d601f19601f82011682018060405250810190610f5d9190611423565b905060007f00000000000000000000000000000000000000000000000000000000000000006001600160a01b0316626266796040518163ffffffff1660e01b8152600401602060405180830381865afa158015610fbe573d6000803e3d6000fd5b505050506040513d601f19601f82011682018060405250810190610fe29190611423565b6040516323b872dd60e01b81529091506001600160a01b038216906323b872dd9061101590339030908a90600401611440565b6020604051808303816000875af1158015611034573d6000803e3d6000fd5b505050506040513d601f19601f820116820180604052508101906110589190611464565b5060405163095ea7b360e01b81526001600160a01b0383811660048301526024820187905282169063095ea7b3906044016020604051808303816000875af11580156110a8573d6000803e3d6000fd5b505050506040513d601f19601f820116820180604052508101906110cc9190611464565b506040516370a0823160e01b81523060048201527f0000000000000000000000000000000000000000000000000000000000000000906000906001600160a01b038316906370a0823190602401602060405180830381865afa158015611136573d6000803e3d6000fd5b505050506040513d601f19601f8201168201806040525081019061115a91906114a2565b604051630bf7be2160e41b8152600481018990526001600160a01b037f000000000000000000000000000000000000000000000000000000000000000081166024830152604482018990523060648301529192509085169063bf7be21090608401600060405180830381600087803b1580156111d557600080fd5b505af11580156111e9573d6000803e3d6000fd5b50506040516370a0823160e01b8152306004820152600092508391506001600160a01b038516906370a0823190602401602060405180830381865afa158015611236573d6000803e3d6000fd5b505050506040513d601f19601f8201168201806040525081019061125a91906114a2565b61126491906114ff565b9050868110156112865760405162461bcd60e51b81526004016103a290611486565b60405163095ea7b360e01b81526001600160a01b037f0000000000000000000000000000000000000000000000000000000000000000811660048301526024820183905284169063095ea7b3906044016020604051808303816000875af11580156112f5573d6000803e3d6000fd5b505050506040513d601f19601f820116820180604052508101906113199190611464565b5060405163081579a560e01b8152600481018290527f0000000000000000000000000000000000000000000000000000000000000000600f0b6024820152604481018790523360648201526001600160a01b0384169063081579a5906084016020604051808303816000875af1158015611397573d6000803e3d6000fd5b505050506040513d601f19601f820116820180604052508101906113bb91906114a2565b505050505050505050565b6000806000606084860312156113db57600080fd5b505081359360208301359350604090920135919050565b60006020828403121561140457600080fd5b5035919050565b6001600160a01b038116811461142057600080fd5b50565b60006020828403121561143557600080fd5b8151610d8e8161140b565b6001600160a01b039384168152919092166020820152604081019190915260600190565b60006020828403121561147657600080fd5b81518015158114610d8e57600080fd5b602080825260029082015261062360f41b604082015260600190565b6000602082840312156114b457600080fd5b5051919050565b8060005b60028110156114de5781518452602093840193909101906001016114bf565b50505050565b606081016114f282856114bb565b8260408301529392505050565b81810381811115610e4a57634e487b7160e01b600052601160045260246000fd5b6060810161152e82856114bb565b8215156040830152939250505056fea2646970667358221220ef15fda18cb1f04c6fc1f92d1e08b16f52a5b1589e06d8b438476b4b202eb97864736f6c63430008120033",
  "devdoc": {
    "kind": "dev",
    "methods": {},
    "version": 1
  },
  "userdoc": {
    "kind": "user",
    "methods": {},
    "version": 1
  },
  "storageLayout": {
    "storage": [],
    "types": null
  }
}