{
  "address": "0x4Fcb394224FCa75E1B085FD59cc829526bB75ca9",
  "abi": [
    {
      "inputs": [
        {
          "internalType": "contract IConfig",
          "name": "config_",
          "type": "address"
        }
      ],
      "stateMutability": "nonpayable",
      "type": "constructor"
    },
    {
      "inputs": [
        {
          "internalType": "uint256",
          "name": "maxPayAmount",
          "type": "uint256"
        },
        {
          "internalType": "uint256",
          "name": "min2CRVAmount",
          "type": "uint256"
        },
        {
          "internalType": "uint256",
          "name": "mintVammAmount",
          "type": "uint256"
        }
      ],
      "name": "buy",
      "outputs": [],
      "stateMutability": "nonpayable",
      "type": "function"
    },
    {
      "inputs": [
        {
          "internalType": "uint256",
          "name": "buyAmount",
          "type": "uint256"
        },
        {
          "internalType": "uint256",
          "name": "min2CRVAmount",
          "type": "uint256"
        },
        {
          "internalType": "uint256",
          "name": "maxPayAmount",
          "type": "uint256"
        }
      ],
      "name": "buyWithPRToken",
      "outputs": [],
      "stateMutability": "nonpayable",
      "type": "function"
    },
    {
      "inputs": [
        {
          "internalType": "uint256",
          "name": "payAmount",
          "type": "uint256"
        }
      ],
      "name": "calcDeposit",
      "outputs": [
        {
          "internalType": "uint256",
          "name": "",
          "type": "uint256"
        }
      ],
      "stateMutability": "view",
      "type": "function"
    },
    {
      "inputs": [
        {
          "internalType": "uint256",
          "name": "tokenAmount",
          "type": "uint256"
        }
      ],
      "name": "calcWithdraw",
      "outputs": [
        {
          "internalType": "uint256",
          "name": "",
          "type": "uint256"
        }
      ],
      "stateMutability": "view",
      "type": "function"
    },
    {
      "inputs": [],
      "name": "config",
      "outputs": [
        {
          "internalType": "contract IConfig",
          "name": "",
          "type": "address"
        }
      ],
      "stateMutability": "view",
      "type": "function"
    },
    {
      "inputs": [],
      "name": "get_virtual_price",
      "outputs": [
        {
          "internalType": "uint256",
          "name": "",
          "type": "uint256"
        }
      ],
      "stateMutability": "view",
      "type": "function"
    },
    {
      "inputs": [
        {
          "internalType": "uint256",
          "name": "burnAmount",
          "type": "uint256"
        },
        {
          "internalType": "uint256",
          "name": "minReceive2CRVAmount",
          "type": "uint256"
        },
        {
          "internalType": "uint256",
          "name": "minReceiveLUAUSDAmount",
          "type": "uint256"
        }
      ],
      "name": "sell",
      "outputs": [],
      "stateMutability": "nonpayable",
      "type": "function"
    }
  ],
  "transactionHash": "0xeace0f7d3bf9fd60cd59330a6442448c1d8be23fb55447ed22a5b1eba21c40ca",
  "args": [
    "0x1218554369a87Ce4B29F6De3C050C2D13BE9E71D"
  ],
  "numDeployments": 1,
  "solcInputHash": "9e3433254464ad8d77185c6cb44a57d0",
  "bytecode": "0x608060405234801561001057600080fd5b506040516116d23803806116d283398101604081905261002f91610054565b600080546001600160a01b0319166001600160a01b0392909216919091179055610084565b60006020828403121561006657600080fd5b81516001600160a01b038116811461007d57600080fd5b9392505050565b61163f806100936000396000f3fe608060405234801561001057600080fd5b506004361061007d5760003560e01c80638f2b29a71161005b5780638f2b29a7146100da5780639b05f5e4146100fb578063bb7b8b801461010e578063d3c9727c1461011657600080fd5b806333f2fdbf1461008257806340993b261461009757806379502c55146100aa575b600080fd5b6100956100903660046114ed565b610129565b005b6100956100a53660046114ed565b6107fe565b6000546100bd906001600160a01b031681565b6040516001600160a01b0390911681526020015b60405180910390f35b6100ed6100e8366004611519565b610d37565b6040519081526020016100d1565b6100ed610109366004611519565b610e27565b6100ed610ed3565b6100956101243660046114ed565b610fab565b60008060009054906101000a90046001600160a01b03166001600160a01b031663316cb88a6040518163ffffffff1660e01b8152600401602060405180830381865afa15801561017d573d6000803e3d6000fd5b505050506040513d601f19601f820116820180604052508101906101a1919061154a565b905060008060009054906101000a90046001600160a01b03166001600160a01b0316639b6b02bc6040518163ffffffff1660e01b8152600401602060405180830381865afa1580156101f7573d6000803e3d6000fd5b505050506040513d601f19601f8201168201806040525081019061021b919061154a565b905060008060009054906101000a90046001600160a01b03166001600160a01b031663ea6b53286040518163ffffffff1660e01b8152600401602060405180830381865afa158015610271573d6000803e3d6000fd5b505050506040513d601f19601f82011682018060405250810190610295919061154a565b905060008060009054906101000a90046001600160a01b03166001600160a01b031663e3fbec786040518163ffffffff1660e01b8152600401602060405180830381865afa1580156102eb573d6000803e3d6000fd5b505050506040513d601f19601f8201168201806040525081019061030f919061154a565b60405163c661065760e01b8152600160048201529091506000906001600160a01b0384169063c661065790602401602060405180830381865afa15801561035a573d6000803e3d6000fd5b505050506040513d601f19601f8201168201806040525081019061037e919061154a565b6040516323b872dd60e01b81529091506001600160a01b038316906323b872dd906103b190339030908b90600401611567565b6020604051808303816000875af11580156103d0573d6000803e3d6000fd5b505050506040513d601f19601f820116820180604052508101906103f4919061158b565b6104195760405162461bcd60e51b8152600401610410906115ad565b60405180910390fd5b60405163095ea7b360e01b81526001600160a01b0384811660048301526024820188905283169063095ea7b3906044016020604051808303816000875af1158015610468573d6000803e3d6000fd5b505050506040513d601f19601f8201168201806040525081019061048c919061158b565b506040516323b872dd60e01b81526001600160a01b038616906323b872dd906104bd90339030908d90600401611567565b6020604051808303816000875af11580156104dc573d6000803e3d6000fd5b505050506040513d601f19601f82011682018060405250810190610500919061158b565b6105315760405162461bcd60e51b8152602060048201526002602482015261623160f01b6044820152606401610410565b6040516370a0823160e01b81523060048201526000906001600160a01b038316906370a0823190602401602060405180830381865afa158015610578573d6000803e3d6000fd5b505050506040513d601f19601f8201168201806040525081019061059c91906115c9565b604051630f7c084960e21b8152600060048201526001602482015260448101899052606481018a90529091506001600160a01b03851690633df02124906084016020604051808303816000875af11580156105fb573d6000803e3d6000fd5b505050506040513d601f19601f8201168201806040525081019061061f91906115c9565b506040516370a0823160e01b815230600482015260009082906001600160a01b038516906370a0823190602401602060405180830381865afa158015610669573d6000803e3d6000fd5b505050506040513d601f19601f8201168201806040525081019061068d91906115c9565b61069791906115e2565b60405163095ea7b360e01b81526001600160a01b038881166004830152602482018390529192509084169063095ea7b3906044016020604051808303816000875af11580156106ea573d6000803e3d6000fd5b505050506040513d601f19601f8201168201806040525081019061070e919061158b565b5060405163095ea7b360e01b81526001600160a01b038781166004830152602482018c905288169063095ea7b3906044016020604051808303816000875af115801561075e573d6000803e3d6000fd5b505050506040513d601f19601f82011682018060405250810190610782919061158b565b50604051631a1c20f160e01b81526001600160a01b038481166004830152602482018c905260448201839052336064830152871690631a1c20f190608401600060405180830381600087803b1580156107da57600080fd5b505af11580156107ee573d6000803e3d6000fd5b5050505050505050505050505050565b60008060009054906101000a90046001600160a01b03166001600160a01b0316639b6b02bc6040518163ffffffff1660e01b8152600401602060405180830381865afa158015610852573d6000803e3d6000fd5b505050506040513d601f19601f82011682018060405250810190610876919061154a565b905060008060009054906101000a90046001600160a01b03166001600160a01b031663ea6b53286040518163ffffffff1660e01b8152600401602060405180830381865afa1580156108cc573d6000803e3d6000fd5b505050506040513d601f19601f820116820180604052508101906108f0919061154a565b905060008060009054906101000a90046001600160a01b03166001600160a01b031663e3fbec786040518163ffffffff1660e01b8152600401602060405180830381865afa158015610946573d6000803e3d6000fd5b505050506040513d601f19601f8201168201806040525081019061096a919061154a565b60405163c661065760e01b8152600160048201529091506000906001600160a01b0384169063c661065790602401602060405180830381865afa1580156109b5573d6000803e3d6000fd5b505050506040513d601f19601f820116820180604052508101906109d9919061154a565b6040516323b872dd60e01b81529091506001600160a01b038316906323b872dd90610a0c90339030908c90600401611567565b6020604051808303816000875af1158015610a2b573d6000803e3d6000fd5b505050506040513d601f19601f82011682018060405250810190610a4f919061158b565b610a6b5760405162461bcd60e51b8152600401610410906115ad565b60405163095ea7b360e01b81526001600160a01b0384811660048301526024820189905283169063095ea7b3906044016020604051808303816000875af1158015610aba573d6000803e3d6000fd5b505050506040513d601f19601f82011682018060405250810190610ade919061158b565b506040516370a0823160e01b81523060048201526000906001600160a01b038316906370a0823190602401602060405180830381865afa158015610b26573d6000803e3d6000fd5b505050506040513d601f19601f82011682018060405250810190610b4a91906115c9565b604051630f7c084960e21b81526000600482015260016024820152604481018a9052606481018990529091506001600160a01b03851690633df02124906084016020604051808303816000875af1158015610ba9573d6000803e3d6000fd5b505050506040513d601f19601f82011682018060405250810190610bcd91906115c9565b506040516370a0823160e01b815230600482015260009082906001600160a01b038516906370a0823190602401602060405180830381865afa158015610c17573d6000803e3d6000fd5b505050506040513d601f19601f82011682018060405250810190610c3b91906115c9565b610c4591906115e2565b60405163095ea7b360e01b81526001600160a01b038881166004830152602482018390529192509084169063095ea7b3906044016020604051808303816000875af1158015610c98573d6000803e3d6000fd5b505050506040513d601f19601f82011682018060405250810190610cbc919061158b565b50604051637ba5ff4760e11b81526001600160a01b038481166004830152602482018990526044820183905233606483015287169063f74bfe8e90608401600060405180830381600087803b158015610d1457600080fd5b505af1158015610d28573d6000803e3d6000fd5b50505050505050505050505050565b6000805460408051631d4d6a6560e31b8152905183926001600160a01b03169163ea6b53289160048083019260209291908290030181865afa158015610d81573d6000803e3d6000fd5b505050506040513d601f19601f82011682018060405250810190610da5919061154a565b604051635e0d443f60e01b81526000600482015260016024820152604481018590529091506001600160a01b03821690635e0d443f906064015b602060405180830381865afa158015610dfc573d6000803e3d6000fd5b505050506040513d601f19601f82011682018060405250810190610e2091906115c9565b9392505050565b6000805460408051631d4d6a6560e31b8152905183926001600160a01b03169163ea6b53289160048083019260209291908290030181865afa158015610e71573d6000803e3d6000fd5b505050506040513d601f19601f82011682018060405250810190610e95919061154a565b604051635e0d443f60e01b81526001600482015260006024820152604481018590529091506001600160a01b03821690635e0d443f90606401610ddf565b6000805460408051631d4d6a6560e31b8152905183926001600160a01b03169163ea6b53289160048083019260209291908290030181865afa158015610f1d573d6000803e3d6000fd5b505050506040513d601f19601f82011682018060405250810190610f41919061154a565b9050806001600160a01b031663bb7b8b806040518163ffffffff1660e01b8152600401602060405180830381865afa158015610f81573d6000803e3d6000fd5b505050506040513d601f19601f82011682018060405250810190610fa591906115c9565b91505090565b60008060009054906101000a90046001600160a01b03166001600160a01b0316639b6b02bc6040518163ffffffff1660e01b8152600401602060405180830381865afa158015610fff573d6000803e3d6000fd5b505050506040513d601f19601f82011682018060405250810190611023919061154a565b905060008060009054906101000a90046001600160a01b03166001600160a01b031663ea6b53286040518163ffffffff1660e01b8152600401602060405180830381865afa158015611079573d6000803e3d6000fd5b505050506040513d601f19601f8201168201806040525081019061109d919061154a565b60405163c661065760e01b8152600160048201529091506000906001600160a01b0383169063c661065790602401602060405180830381865afa1580156110e8573d6000803e3d6000fd5b505050506040513d601f19601f8201168201806040525081019061110c919061154a565b905060008060009054906101000a90046001600160a01b03166001600160a01b0316626266796040518163ffffffff1660e01b8152600401602060405180830381865afa158015611161573d6000803e3d6000fd5b505050506040513d601f19601f82011682018060405250810190611185919061154a565b6040516323b872dd60e01b81529091506001600160a01b038216906323b872dd906111b890339030908c90600401611567565b6020604051808303816000875af11580156111d7573d6000803e3d6000fd5b505050506040513d601f19601f820116820180604052508101906111fb919061158b565b5060405163095ea7b360e01b81526001600160a01b0385811660048301526024820189905282169063095ea7b3906044016020604051808303816000875af115801561124b573d6000803e3d6000fd5b505050506040513d601f19601f8201168201806040525081019061126f919061158b565b506040516370a0823160e01b81523060048201526000906001600160a01b038416906370a0823190602401602060405180830381865afa1580156112b7573d6000803e3d6000fd5b505050506040513d601f19601f820116820180604052508101906112db91906115c9565b604051630bf7be2160e41b8152600481018a90526001600160a01b038581166024830152604482018a90523060648301529192509086169063bf7be21090608401600060405180830381600087803b15801561133657600080fd5b505af115801561134a573d6000803e3d6000fd5b50506040516370a0823160e01b8152306004820152600092508391506001600160a01b038616906370a0823190602401602060405180830381865afa158015611397573d6000803e3d6000fd5b505050506040513d601f19601f820116820180604052508101906113bb91906115c9565b6113c591906115e2565b9050878110156113e75760405162461bcd60e51b8152600401610410906115ad565b60405163095ea7b360e01b81526001600160a01b0386811660048301526024820183905285169063095ea7b3906044016020604051808303816000875af1158015611436573d6000803e3d6000fd5b505050506040513d601f19601f8201168201806040525081019061145a919061158b565b5060405163ddc1f59d60e01b8152600160048201526000602482015260448101829052606481018890523360848201526001600160a01b0386169063ddc1f59d9060a4016020604051808303816000875af11580156114bd573d6000803e3d6000fd5b505050506040513d601f19601f820116820180604052508101906114e191906115c9565b50505050505050505050565b60008060006060848603121561150257600080fd5b505081359360208301359350604090920135919050565b60006020828403121561152b57600080fd5b5035919050565b6001600160a01b038116811461154757600080fd5b50565b60006020828403121561155c57600080fd5b8151610e2081611532565b6001600160a01b039384168152919092166020820152604081019190915260600190565b60006020828403121561159d57600080fd5b81518015158114610e2057600080fd5b602080825260029082015261062360f41b604082015260600190565b6000602082840312156115db57600080fd5b5051919050565b8181038181111561160357634e487b7160e01b600052601160045260246000fd5b9291505056fea2646970667358221220c7562da14ec73c5afe77e5ae95375a0c6743e21ca248136bd2c047deeb7e0a1f64736f6c63430008120033",
  "devdoc": {
    "kind": "dev",
    "methods": {},
    "version": 1
  },
  "userdoc": {
    "kind": "user",
    "methods": {},
    "version": 1
  },
  "storageLayout": {
    "storage": [
      {
        "astId": 12980,
        "contract": "contracts/curve/LUAUSDExchangeProxy.sol:LUAUSDExchangeProxy",
        "label": "config",
        "offset": 0,
        "slot": "0",
        "type": "t_contract(IConfig)12016"
      }
    ],
    "types": {
      "t_contract(IConfig)12016": {
        "encoding": "inplace",
        "label": "contract IConfig",
        "numberOfBytes": "20"
      }
    }
  }
}