{
  "address": "0xb81e71B57cDcbBFb4695f52af4b7e7c9379F620C",
  "abi": [
    {
      "anonymous": false,
      "inputs": [
        {
          "indexed": false,
          "internalType": "address",
          "name": "previousAdmin",
          "type": "address"
        },
        {
          "indexed": false,
          "internalType": "address",
          "name": "newAdmin",
          "type": "address"
        }
      ],
      "name": "AdminChanged",
      "type": "event"
    },
    {
      "anonymous": false,
      "inputs": [
        {
          "indexed": true,
          "internalType": "address",
          "name": "beacon",
          "type": "address"
        }
      ],
      "name": "BeaconUpgraded",
      "type": "event"
    },
    {
      "anonymous": false,
      "inputs": [
        {
          "indexed": false,
          "internalType": "uint256",
          "name": "ownerCutPerMillion",
          "type": "uint256"
        }
      ],
      "name": "ChangedOwnerCutPerMillion",
      "type": "event"
    },
    {
      "anonymous": false,
      "inputs": [
        {
          "indexed": false,
          "internalType": "uint8",
          "name": "version",
          "type": "uint8"
        }
      ],
      "name": "Initialized",
      "type": "event"
    },
    {
      "anonymous": false,
      "inputs": [
        {
          "indexed": false,
          "internalType": "uint256",
          "name": "id",
          "type": "uint256"
        }
      ],
      "name": "OrderCanceled",
      "type": "event"
    },
    {
      "anonymous": false,
      "inputs": [
        {
          "indexed": false,
          "internalType": "uint256",
          "name": "id",
          "type": "uint256"
        },
        {
          "indexed": false,
          "internalType": "bytes32",
          "name": "productId",
          "type": "bytes32"
        },
        {
          "components": [
            {
              "internalType": "uint256",
              "name": "id",
              "type": "uint256"
            },
            {
              "internalType": "address",
              "name": "seller",
              "type": "address"
            },
            {
              "internalType": "uint256",
              "name": "tokenId",
              "type": "uint256"
            },
            {
              "internalType": "uint256",
              "name": "amount",
              "type": "uint256"
            },
            {
              "internalType": "address",
              "name": "nft",
              "type": "address"
            },
            {
              "internalType": "uint256",
              "name": "priceInWeiForUnit",
              "type": "uint256"
            }
          ],
          "indexed": false,
          "internalType": "struct IMarketplace.Order",
          "name": "order",
          "type": "tuple"
        }
      ],
      "name": "OrderCreated",
      "type": "event"
    },
    {
      "anonymous": false,
      "inputs": [
        {
          "indexed": false,
          "internalType": "uint256",
          "name": "id",
          "type": "uint256"
        },
        {
          "indexed": false,
          "internalType": "uint256",
          "name": "amount",
          "type": "uint256"
        },
        {
          "indexed": false,
          "internalType": "bool",
          "name": "isSellout",
          "type": "bool"
        },
        {
          "indexed": false,
          "internalType": "address",
          "name": "payment",
          "type": "address"
        },
        {
          "indexed": false,
          "internalType": "address",
          "name": "recipient",
          "type": "address"
        },
        {
          "indexed": false,
          "internalType": "uint256",
          "name": "paymentTotal",
          "type": "uint256"
        },
        {
          "indexed": false,
          "internalType": "uint256",
          "name": "fees",
          "type": "uint256"
        }
      ],
      "name": "OrderSellout",
      "type": "event"
    },
    {
      "anonymous": false,
      "inputs": [
        {
          "indexed": false,
          "internalType": "uint256",
          "name": "id",
          "type": "uint256"
        },
        {
          "indexed": false,
          "internalType": "uint256",
          "name": "newPriceInWeiForUnit",
          "type": "uint256"
        }
      ],
      "name": "OrderUpdated",
      "type": "event"
    },
    {
      "anonymous": false,
      "inputs": [
        {
          "indexed": true,
          "internalType": "address",
          "name": "previousOwner",
          "type": "address"
        },
        {
          "indexed": true,
          "internalType": "address",
          "name": "newOwner",
          "type": "address"
        }
      ],
      "name": "OwnershipTransferred",
      "type": "event"
    },
    {
      "anonymous": false,
      "inputs": [
        {
          "indexed": true,
          "internalType": "address",
          "name": "implementation",
          "type": "address"
        }
      ],
      "name": "Upgraded",
      "type": "event"
    },
    {
      "inputs": [],
      "name": "PRECENT_DENOMINATOR",
      "outputs": [
        {
          "internalType": "uint128",
          "name": "",
          "type": "uint128"
        }
      ],
      "stateMutability": "view",
      "type": "function"
    },
    {
      "inputs": [],
      "name": "PRICE_PRECISION",
      "outputs": [
        {
          "internalType": "uint128",
          "name": "",
          "type": "uint128"
        }
      ],
      "stateMutability": "view",
      "type": "function"
    },
    {
      "inputs": [],
      "name": "acceptedToken",
      "outputs": [
        {
          "internalType": "contract IERC20",
          "name": "",
          "type": "address"
        }
      ],
      "stateMutability": "view",
      "type": "function"
    },
    {
      "inputs": [
        {
          "internalType": "bytes32",
          "name": "productId",
          "type": "bytes32"
        },
        {
          "internalType": "address",
          "name": "recipient",
          "type": "address"
        },
        {
          "internalType": "uint256",
          "name": "amount",
          "type": "uint256"
        },
        {
          "internalType": "uint256",
          "name": "maxPayableAmount",
          "type": "uint256"
        }
      ],
      "name": "autoBuy",
      "outputs": [],
      "stateMutability": "nonpayable",
      "type": "function"
    },
    {
      "inputs": [
        {
          "internalType": "bytes32",
          "name": "productId",
          "type": "bytes32"
        },
        {
          "internalType": "uint256",
          "name": "neededAmount",
          "type": "uint256"
        }
      ],
      "name": "autoBuyPrice",
      "outputs": [
        {
          "components": [
            {
              "internalType": "uint256[]",
              "name": "execOrderIds",
              "type": "uint256[]"
            },
            {
              "internalType": "uint256[]",
              "name": "execOrderAmounts",
              "type": "uint256[]"
            },
            {
              "internalType": "uint256",
              "name": "poolBuyAmount",
              "type": "uint256"
            },
            {
              "internalType": "uint256",
              "name": "poolBuyPrice",
              "type": "uint256"
            },
            {
              "internalType": "uint256",
              "name": "needTotalPrice",
              "type": "uint256"
            }
          ],
          "internalType": "struct IMarketplace.AutoBuyFixStack2deepReturns",
          "name": "",
          "type": "tuple"
        }
      ],
      "stateMutability": "view",
      "type": "function"
    },
    {
      "inputs": [
        {
          "internalType": "uint256",
          "name": "orderId",
          "type": "uint256"
        }
      ],
      "name": "cancelOrder",
      "outputs": [],
      "stateMutability": "nonpayable",
      "type": "function"
    },
    {
      "inputs": [],
      "name": "config",
      "outputs": [
        {
          "internalType": "contract IConfig",
          "name": "",
          "type": "address"
        }
      ],
      "stateMutability": "view",
      "type": "function"
    },
    {
      "inputs": [
        {
          "internalType": "uint256",
          "name": "orderId",
          "type": "uint256"
        },
        {
          "internalType": "address",
          "name": "recipient",
          "type": "address"
        },
        {
          "internalType": "uint256",
          "name": "amount",
          "type": "uint256"
        },
        {
          "internalType": "uint256",
          "name": "priceInWeiForUnit",
          "type": "uint256"
        }
      ],
      "name": "executeOrder",
      "outputs": [],
      "stateMutability": "nonpayable",
      "type": "function"
    },
    {
      "inputs": [
        {
          "internalType": "bytes32",
          "name": "productId",
          "type": "bytes32"
        }
      ],
      "name": "getProductLowestPrice",
      "outputs": [
        {
          "internalType": "uint256",
          "name": "",
          "type": "uint256"
        }
      ],
      "stateMutability": "view",
      "type": "function"
    },
    {
      "inputs": [
        {
          "internalType": "contract IConfig",
          "name": "_config",
          "type": "address"
        }
      ],
      "name": "initialize",
      "outputs": [],
      "stateMutability": "nonpayable",
      "type": "function"
    },
    {
      "inputs": [
        {
          "internalType": "address",
          "name": "",
          "type": "address"
        },
        {
          "internalType": "address",
          "name": "_from",
          "type": "address"
        },
        {
          "internalType": "uint256[]",
          "name": "_ids",
          "type": "uint256[]"
        },
        {
          "internalType": "uint256[]",
          "name": "_amounts",
          "type": "uint256[]"
        },
        {
          "internalType": "bytes",
          "name": "_data",
          "type": "bytes"
        }
      ],
      "name": "onERC1155BatchReceived",
      "outputs": [
        {
          "internalType": "bytes4",
          "name": "",
          "type": "bytes4"
        }
      ],
      "stateMutability": "nonpayable",
      "type": "function"
    },
    {
      "inputs": [
        {
          "internalType": "address",
          "name": "_operator",
          "type": "address"
        },
        {
          "internalType": "address",
          "name": "_from",
          "type": "address"
        },
        {
          "internalType": "uint256",
          "name": "_id",
          "type": "uint256"
        },
        {
          "internalType": "uint256",
          "name": "_amount",
          "type": "uint256"
        },
        {
          "internalType": "bytes",
          "name": "_data",
          "type": "bytes"
        }
      ],
      "name": "onERC1155Received",
      "outputs": [
        {
          "internalType": "bytes4",
          "name": "",
          "type": "bytes4"
        }
      ],
      "stateMutability": "nonpayable",
      "type": "function"
    },
    {
      "inputs": [
        {
          "internalType": "uint256",
          "name": "",
          "type": "uint256"
        }
      ],
      "name": "orderById",
      "outputs": [
        {
          "internalType": "uint256",
          "name": "id",
          "type": "uint256"
        },
        {
          "internalType": "address",
          "name": "seller",
          "type": "address"
        },
        {
          "internalType": "uint256",
          "name": "tokenId",
          "type": "uint256"
        },
        {
          "internalType": "uint256",
          "name": "amount",
          "type": "uint256"
        },
        {
          "internalType": "address",
          "name": "nft",
          "type": "address"
        },
        {
          "internalType": "uint256",
          "name": "priceInWeiForUnit",
          "type": "uint256"
        }
      ],
      "stateMutability": "view",
      "type": "function"
    },
    {
      "inputs": [],
      "name": "owner",
      "outputs": [
        {
          "internalType": "address",
          "name": "",
          "type": "address"
        }
      ],
      "stateMutability": "view",
      "type": "function"
    },
    {
      "inputs": [],
      "name": "ownerCutPerMillion",
      "outputs": [
        {
          "internalType": "uint256",
          "name": "",
          "type": "uint256"
        }
      ],
      "stateMutability": "view",
      "type": "function"
    },
    {
      "inputs": [],
      "name": "proxiableUUID",
      "outputs": [
        {
          "internalType": "bytes32",
          "name": "",
          "type": "bytes32"
        }
      ],
      "stateMutability": "view",
      "type": "function"
    },
    {
      "inputs": [],
      "name": "renounceOwnership",
      "outputs": [],
      "stateMutability": "nonpayable",
      "type": "function"
    },
    {
      "inputs": [
        {
          "internalType": "uint256",
          "name": "_ownerCutPerMillion",
          "type": "uint256"
        }
      ],
      "name": "setOwnerCutPerMillion",
      "outputs": [],
      "stateMutability": "nonpayable",
      "type": "function"
    },
    {
      "inputs": [
        {
          "internalType": "bytes4",
          "name": "interfaceId",
          "type": "bytes4"
        }
      ],
      "name": "supportsInterface",
      "outputs": [
        {
          "internalType": "bool",
          "name": "",
          "type": "bool"
        }
      ],
      "stateMutability": "view",
      "type": "function"
    },
    {
      "inputs": [
        {
          "internalType": "address",
          "name": "newOwner",
          "type": "address"
        }
      ],
      "name": "transferOwnership",
      "outputs": [],
      "stateMutability": "nonpayable",
      "type": "function"
    },
    {
      "inputs": [
        {
          "internalType": "uint256",
          "name": "orderId",
          "type": "uint256"
        },
        {
          "internalType": "uint256",
          "name": "priceInWeiForUnit",
          "type": "uint256"
        }
      ],
      "name": "updateOrder",
      "outputs": [],
      "stateMutability": "nonpayable",
      "type": "function"
    },
    {
      "inputs": [
        {
          "internalType": "address",
          "name": "newImplementation",
          "type": "address"
        }
      ],
      "name": "upgradeTo",
      "outputs": [],
      "stateMutability": "nonpayable",
      "type": "function"
    },
    {
      "inputs": [
        {
          "internalType": "address",
          "name": "newImplementation",
          "type": "address"
        },
        {
          "internalType": "bytes",
          "name": "data",
          "type": "bytes"
        }
      ],
      "name": "upgradeToAndCall",
      "outputs": [],
      "stateMutability": "payable",
      "type": "function"
    },
    {
      "inputs": [],
      "name": "withdrawFees",
      "outputs": [],
      "stateMutability": "nonpayable",
      "type": "function"
    }
  ],
  "transactionHash": "0x877421341378ff9490ea6cadc4421288785e43542a8af3e0e08c578a7b92eda5",
  "args": [],
  "numDeployments": 1,
  "solcInputHash": "4f1f45ca5fe8f6515b42ba0264732978",
  "bytecode": "0x60a06040523060805234801561001457600080fd5b50608051613fa661004c60003960008181610547015281816105900152818161078d015281816107cd0152610be70152613fa66000f3fe60806040526004361061014b5760003560e01c806379502c55116100b6578063b1b61cf91161006f578063b1b61cf914610424578063bc197c8114610444578063c4d66de814610471578063e757a75214610491578063f23a6e61146104be578063f2fde38b146104de57600080fd5b806379502c55146102e05780638d77eba5146103015780638da5cb5b1461039957806395082d25146103b75780639cc182a4146103f4578063a01f79d41461040d57600080fd5b8063514fcac711610108578063514fcac714610228578063527808491461024857806352d1902d14610276578063587b71a61461028b57806365844402146102ab578063715018a6146102cb57600080fd5b806301ffc9a71461015057806319dad16d146101855780633659cfe6146101a7578063451c3d80146101c7578063476343ee146102005780634f1ef28614610215575b600080fd5b34801561015c57600080fd5b5061017061016b366004613797565b6104fe565b60405190151581526020015b60405180910390f35b34801561019157600080fd5b506101a56101a03660046137c1565b610529565b005b3480156101b357600080fd5b506101a56101c23660046137ef565b61053d565b3480156101d357600080fd5b5061012e546101e8906001600160a01b031681565b6040516001600160a01b03909116815260200161017c565b34801561020c57600080fd5b506101a5610622565b6101a5610223366004613853565b610783565b34801561023457600080fd5b506101a56102433660046137c1565b610853565b34801561025457600080fd5b506102686102633660046137c1565b610a81565b60405190815260200161017c565b34801561028257600080fd5b50610268610bda565b34801561029757600080fd5b506101a56102a63660046138fb565b610c8d565b3480156102b757600080fd5b506101a56102c636600461391d565b610c99565b3480156102d757600080fd5b506101a5610ea0565b3480156102ec57600080fd5b50610130546101e8906001600160a01b031681565b34801561030d57600080fd5b5061035f61031c3660046137c1565b6101316020526000908152604090208054600182015460028301546003840154600485015460059095015493946001600160a01b03938416949293919291169086565b604080519687526001600160a01b0395861660208801528601939093526060850191909152909116608083015260a082015260c00161017c565b3480156103a557600080fd5b5060c9546001600160a01b03166101e8565b3480156103c357600080fd5b506103d3670de0b6b3a764000081565b6040516fffffffffffffffffffffffffffffffff909116815260200161017c565b34801561040057600080fd5b506103d36402540be40081565b34801561041957600080fd5b5061026861012f5481565b34801561043057600080fd5b506101a561043f36600461391d565b610eb4565b34801561045057600080fd5b5061046461045f366004613a23565b610ec9565b60405161017c9190613ad7565b34801561047d57600080fd5b506101a561048c3660046137ef565b611015565b34801561049d57600080fd5b506104b16104ac3660046138fb565b6111da565b60405161017c9190613b27565b3480156104ca57600080fd5b506104646104d9366004613b8b565b6116af565b3480156104ea57600080fd5b506101a56104f93660046137ef565b6117df565b60006001600160e01b031982166301ffc9a760e01b1480610523575061052382611855565b92915050565b61053161188a565b61053a816118e4565b50565b6001600160a01b037f000000000000000000000000000000000000000000000000000000000000000016300361058e5760405162461bcd60e51b815260040161058590613bf5565b60405180910390fd5b7f00000000000000000000000000000000000000000000000000000000000000006001600160a01b03166105d7600080516020613f2a833981519152546001600160a01b031690565b6001600160a01b0316146105fd5760405162461bcd60e51b815260040161058590613c41565b610606816119b8565b6040805160008082526020820190925261053a918391906119c0565b610130546040805163ea9c5e0d60e01b815290516000926001600160a01b03169163ea9c5e0d9160048083019260209291908290030181865afa15801561066d573d6000803e3d6000fd5b505050506040513d601f19601f820116820180604052508101906106919190613c8d565b61012e546040516370a0823160e01b81523060048201529192506000916001600160a01b03909116906370a0823190602401602060405180830381865afa1580156106e0573d6000803e3d6000fd5b505050506040513d601f19601f820116820180604052508101906107049190613caa565b61012e5460405163a9059cbb60e01b81526001600160a01b0385811660048301526024820184905292935091169063a9059cbb906044016020604051808303816000875af115801561075a573d6000803e3d6000fd5b505050506040513d601f19601f8201168201806040525081019061077e9190613cc3565b505050565b6001600160a01b037f00000000000000000000000000000000000000000000000000000000000000001630036107cb5760405162461bcd60e51b815260040161058590613bf5565b7f00000000000000000000000000000000000000000000000000000000000000006001600160a01b0316610814600080516020613f2a833981519152546001600160a01b031690565b6001600160a01b03161461083a5760405162461bcd60e51b815260040161058590613c41565b610843826119b8565b61084f828260016119c0565b5050565b60008181526101316020908152604091829020825160c0810184528154815260018201546001600160a01b0390811693820184905260028301549482019490945260038201546060820152600482015490931660808401526005015460a0830152339190821461092b5760405162461bcd60e51b815260206004820152603760248201527f4d61726b6574706c6163652363616e63656c4f726465723a20546865206f706560448201527f7261746f72206973206e6f74207468652073656c6c65720000000000000000006064820152608401610585565b600081606001511161099e5760405162461bcd60e51b815260206004820152603660248201527f4d61726b6574706c6163652363616e63656c4f726465723a20546865206f7264604482015275195c881a5cc8185b1c9958591e48195e1958dd5d195960521b6064820152608401610585565b6080810151604082015160006109b48383611b2b565b90506109c7838330888860600151611cac565b600060608501818152878252610131602090815260409283902087518155908701516001820180546001600160a01b039283166001600160a01b03199182161790915593880151600283015591516003820155608087015160048201805491909316931692909217905560a0850151600590910155610a468187612041565b6040518681527fc41f4ceb2938876c35e61b705e9d2f18a02c4a26ce5e049a6308a943d46851b39060200160405180910390a1505050505050565b60008181526101326020908152604080832080548251818502810185019093528083528493830182828015610ad557602002820191906000526020600020905b815481526020019060010190808311610ac1575b505050505090508051600003610aee5750600092915050565b8051600103610b3157610131600082600081518110610b0f57610b0f613ce5565b6020026020010151815260200190815260200160002060050154915050919050565b6000610131600083600081518110610b4b57610b4b613ce5565b602002602001015181526020019081526020016000206005015490506000600190505b8251811015610bd2576000838281518110610b8b57610b8b613ce5565b602002602001015190506000811115610bbf5760008181526101316020526040902060050154610bbb84826121f7565b9350505b5080610bca81613d11565b915050610b6e565b509392505050565b6000306001600160a01b037f00000000000000000000000000000000000000000000000000000000000000001614610c7a5760405162461bcd60e51b815260206004820152603860248201527f555550535570677261646561626c653a206d757374206e6f742062652063616c60448201527f6c6564207468726f7567682064656c656761746563616c6c00000000000000006064820152608401610585565b50600080516020613f2a83398151915290565b3361077e83838361220f565b6000610ca585846111da565b905060003390508282608001511115610d1c5760405162461bcd60e51b815260206004820152603360248201527f4d61726b6574706c616365236175746f4275793a2054686520746f74616c20706044820152721c9a58d9481a5cc81b9bdd0818dbdc9c9958dd606a1b6064820152608401610585565b61012e54604051636eb1769f60e11b81526001600160a01b038381166004830152306024830152600092169063dd62ed3e90604401602060405180830381865afa158015610d6e573d6000803e3d6000fd5b505050506040513d601f19601f82011682018060405250810190610d929190613caa565b905083811015610dfd5760405162461bcd60e51b815260206004820152603060248201527f4d61726b6574706c616365236175746f4275793a2054686520616c6c6f77616e60448201526f0c6ca40d2e640dcdee840cadcdeeaced60831b6064820152608401610585565b60005b835151811015610e9657600084600001518281518110610e2257610e22613ce5565b602002602001015190506000811115610e8357600085602001518381518110610e4d57610e4d613ce5565b6020026020010151905060006101316000848152602001908152602001600020600501549050610e8083878c8585612398565b50505b5080610e8e81613d11565b915050610e00565b5050505050505050565b610ea861188a565b610eb26000612986565b565b33610ec28582868686612398565b5050505050565b600080610ed96004828587613d2a565b610ee291613d54565b90506001600160e01b0319811663868b573d60e01b14610f6a5760405162461bcd60e51b815260206004820152603f60248201527f4d61726b6574706c616365236f6e45524331313535426174636852656365697660448201527f6564353a20496e76616c69642066756e6374696f6e207369676e6174757265006064820152608401610585565b6000610f798460048188613d2a565b810190610f8691906137c1565b905060005b8751811015610fff57610fed338a8a8481518110610fab57610fab613ce5565b60200260200101518a8581518110610fc557610fc5613ce5565b60200260200101518b8681518110610fdf57610fdf613ce5565b6020026020010151876129d8565b80610ff781613d11565b915050610f8b565b5063bc197c8160e01b9998505050505050505050565b600054610100900460ff16158080156110355750600054600160ff909116105b8061104f5750303b15801561104f575060005460ff166001145b6110b25760405162461bcd60e51b815260206004820152602e60248201527f496e697469616c697a61626c653a20636f6e747261637420697320616c72656160448201526d191e481a5b9a5d1a585b1a5e995960921b6064820152608401610585565b6000805460ff1916600117905580156110d5576000805461ff0019166101001790555b6110dd612da4565b6110e5612dcb565b61013080546001600160a01b0319166001600160a01b03841690811790915560408051631c7f7d8f60e31b8152905163e3fbec78916004808201926020929091908290030181865afa15801561113f573d6000803e3d6000fd5b505050506040513d601f19601f820116820180604052508101906111639190613c8d565b61012e80546001600160a01b0319166001600160a01b03929092169190911790556111916311e1a3006118e4565b801561084f576000805461ff0019169055604051600181527f7f26b83ff96e1f2b6a682f133852f6798a09c465da95921460cefb38474024989060200160405180910390a15050565b61120c6040518060a0016040528060608152602001606081526020016000815260200160008152602001600081525090565b6000838152610132602090815260408083208054825181850281018501909352808352919290919083018282801561126357602002820191906000526020600020905b81548152602001906001019080831161124f575b50505050509050600060405180608001604052806000815260200160008152602001600081526020016000815250905060006040518060a00160405280845167ffffffffffffffff8111156112ba576112ba61380c565b6040519080825280602002602001820160405280156112e3578160200160208202803683370190505b508152602001845167ffffffffffffffff8111156113035761130361380c565b60405190808252806020026020018201604052801561132c578160200160208202803683370190505b50815260200183600001518152602001836020015181526020018360200151815250905082516000036113b6578151851115611381576000604082018190526060820181905260808201529250610523915050565b815160408083019190915260208301805160608401529083015190516113a79190613d84565b60808201529250610523915050565b6000851180156113c7575060008351115b1561167b5760006101316000856000815181106113e6576113e6613ce5565b60209081029190910181015182528181019290925260409081016000908120825160c0810184528154815260018201546001600160a01b0390811695820195909552600282015493810193909352600381015460608401526004810154909316608083015260059092015460a08201529150805b855181101561152f576000610131600088848151811061147c5761147c613ce5565b60209081029190910181015182528181019290925260409081016000908120825160c0810184528154815260018201546001600160a01b0390811695820195909552600282015493810193909352600381015460608401819052600482015490941660808401526005015460a0830152909250036114fa575061151d565b60a08101511561151b578360a001518160a00151101561151b578093508192505b505b8061152781613d11565b91505061145a565b506115438285602001518660000151612dfa565b158015611551575083518711155b1561158e578351604080850191909152602085018051606086015290850151905161157c9190613d84565b60808401525090935061052392505050565b600061159e8884606001516121f7565b855190915088036115d057845181116115cb5780856000018181516115c39190613d97565b9052506115d0565b600085525b6115da8189613d97565b9750808360a001516115ec9190613daa565b85604001516115fb9190613d84565b6040860152600060208601528251845160608701518151811061162057611620613ce5565b60200260200101818152505080846020015186606001518151811061164757611647613ce5565b60200260200101818152505061165d8683612e70565b60608601805191975061166f82613d11565b815250505050506113b6565b815160408083019190915260208301805160608401529083015190516116a19190613d84565b608082015295945050505050565b604080516001808252818301909252600091829190602080830190803683375050604080516001808252818301909252929350600092915060208083019080368337019050509050868260008151811061170b5761170b613ce5565b602002602001018181525050858160008151811061172b5761172b613ce5565b602002602001018181525050611745898984848989610ec9565b6001600160e01b03191663bc197c8160e01b146117ca5760405162461bcd60e51b815260206004820152603960248201527f4d61726b6574706c616365236f6e4552433131353552656365697665643a204960448201527f4e56414c49445f4f4e52454345495645445f4d455353414745000000000000006064820152608401610585565b5063f23a6e6160e01b98975050505050505050565b6117e761188a565b6001600160a01b03811661184c5760405162461bcd60e51b815260206004820152602660248201527f4f776e61626c653a206e6577206f776e657220697320746865207a65726f206160448201526564647265737360d01b6064820152608401610585565b61053a81612986565b60006001600160e01b03198216630271189760e51b148061052357506301ffc9a760e01b6001600160e01b0319831614610523565b60c9546001600160a01b03163314610eb25760405162461bcd60e51b815260206004820181905260248201527f4f776e61626c653a2063616c6c6572206973206e6f7420746865206f776e65726044820152606401610585565b6402540be400811061197c5760405162461bcd60e51b815260206004820152605560248201527f4d61726b6574706c616365235f7365744f776e65724375745065724d696c6c6960448201527f6f6e3a20546865206f776e6572206375742073686f756c642062652062657477606482015274065656e203020616e6420313030303030303030303605c1b608482015260a401610585565b61012f8190556040518181527ffa406a120a9e7f2b332bfb7a43d3bf1c3f079262202907a6b69c94b2821a02c69060200160405180910390a150565b61053a61188a565b7f4910fdfa16fed3260ed0e7147f7cc6da11a60208b5b9406d12a635614ffd91435460ff16156119f35761077e83612f78565b826001600160a01b03166352d1902d6040518163ffffffff1660e01b8152600401602060405180830381865afa925050508015611a4d575060408051601f3d908101601f19168201909252611a4a91810190613caa565b60015b611ab05760405162461bcd60e51b815260206004820152602e60248201527f45524331393637557067726164653a206e657720696d706c656d656e7461746960448201526d6f6e206973206e6f74205555505360901b6064820152608401610585565b600080516020613f2a8339815191528114611b1f5760405162461bcd60e51b815260206004820152602960248201527f45524331393637557067726164653a20756e737570706f727465642070726f786044820152681a58589b195555525160ba1b6064820152608401610585565b5061077e838383613014565b6040516301ffc9a760e01b815260009083906001600160a01b038216906301ffc9a790611b63906325964f3960e01b90600401613ad7565b602060405180830381865afa158015611b80573d6000803e3d6000fd5b505050506040513d601f19601f82011682018060405250810190611ba49190613cc3565b15611c4f576040516354d3b76760e11b8152600481018490526000906001600160a01b0386169063a9a76ece906024016040805180830381865afa158015611bf0573d6000803e3d6000fd5b505050506040513d601f19601f82011682018060405250810190611c149190613dc1565b915050600081604051602001611c2c91815260200190565b604051602081830303815290604052805190602001209050809350505050610523565b60405162461bcd60e51b815260206004820152602c60248201527f4d61726b6574706c6163652367657444656661756c7450726f6475637449643a60448201526b08125b9d985b1a590813919560a21b6064820152608401610585565b6040516301ffc9a760e01b815285906001600160a01b038216906301ffc9a790611ce1906325964f3960e01b90600401613ad7565b602060405180830381865afa158015611cfe573d6000803e3d6000fd5b505050506040513d601f19601f82011682018060405250810190611d229190613cc3565b15611e1757604080516001808252818301909252600091602080830190803683370190505090508581600081518110611d5d57611d5d613ce5565b60209081029190910101526040805160018082528183019092526000918160200160208202803683370190505090508381600081518110611da057611da0613ce5565b602090810291909101015260405163c5ad899b60e01b81526001600160a01b0389169063c5ad899b90611ddd908990899087908790600401613df5565b600060405180830381600087803b158015611df757600080fd5b505af1158015611e0b573d6000803e3d6000fd5b50505050505050610ec2565b6040516301ffc9a760e01b81526001600160a01b038216906301ffc9a790611e4a906380ac58cd60e01b90600401613ad7565b602060405180830381865afa158015611e67573d6000803e3d6000fd5b505050506040513d601f19601f82011682018060405250810190611e8b9190613cc3565b15611f0057604051632142170760e11b81526001600160a01b0385811660048301528481166024830152604482018790528716906342842e0e906064015b600060405180830381600087803b158015611ee357600080fd5b505af1158015611ef7573d6000803e3d6000fd5b50505050612039565b6040516301ffc9a760e01b81526001600160a01b038216906301ffc9a790611f3390636cdb3d1360e11b90600401613ad7565b602060405180830381865afa158015611f50573d6000803e3d6000fd5b505050506040513d601f19601f82011682018060405250810190611f749190613cc3565b15611fcb57604051637921219560e11b81526001600160a01b0385811660048301528481166024830152604482018790526064820184905260a06084830152600060a483015287169063f242432a9060c401611ec9565b60405162461bcd60e51b815260206004820152603860248201527f4d61726b6574706c616365235f657865637574654f726465723a206e6674206d60448201527f75737420626520657263373231206f72206572633131353500000000000000006064820152608401610585565b505050505050565b60008281526101326020526040812054815b818110156120a95760008581526101326020526040902080548591908390811061207f5761207f613ce5565b906000526020600020015403612097578092506120a9565b806120a181613d11565b915050612053565b506000848152610132602052604090208054849190849081106120ce576120ce613ce5565b90600052602060002001541461214c5760405162461bcd60e51b815260206004820152603a60248201527f4d61726b6574706c616365235f72656d6f76654f72646572496473427950726f60448201527f6475637449643a20206f726465724964206e6f7420666f756e640000000000006064820152608401610585565b600084815261013260205260408120612166600184613d97565b8154811061217657612176613ce5565b9060005260206000200154905080610132600087815260200190815260200160002084815481106121a9576121a9613ce5565b906000526020600020018190555061013260008681526020019081526020016000208054806121da576121da613e33565b600190038181906000526020600020016000905590555050505050565b600081831015612208575081610523565b5080610523565b60008381526101316020908152604091829020825160c0810184528154815260018201546001600160a01b039081169382018490526002830154948201949094526003820154606082015260048201548416608082015260059091015460a0820152918316146122e75760405162461bcd60e51b815260206004820152603860248201527f4d61726b6574706c616365235f7570646174654f726465723a20546865206f7060448201527f657261746f72206973206e6f74207468652073656c6c657200000000000000006064820152608401610585565b60a081018381526000858152610131602090815260409182902084518155818501516001820180546001600160a01b039283166001600160a01b031991821617909155848701516002840155606087015160038401556080870151600484018054919093169116179055925160059093019290925580518681529182018590527f8e73a807b83fde44e6e12224a9b4fade736ffe96ab8d511abd64e9a1b4e8c0ca910160405180910390a150505050565b60008581526101316020908152604091829020825160c0810184528154815260018201546001600160a01b0390811693820193909352600282015493810193909352600381015460608401819052600482015490921660808401526005015460a083015261247c5760405162461bcd60e51b8152602060048201526044602482018190527f4d61726b6574706c616365235f657865637574654f726465723a20546865206f908201527f7264657220616d6f756e742073686f756c6420626520677265617465722074686064820152630616e20360e41b608482015260a401610585565b818160a00151111561250f5760405162461bcd60e51b815260206004820152605060248201527f4d61726b6574706c616365235f657865637574654f726465723a20546865206f60448201527f726465722070726963652073686f756c64206265206c657373207468616e207460648201526f68652063757272656e7420707269636560801b608482015260a401610585565b82816060015110156125895760405162461bcd60e51b815260206004820152603b60248201527f4d61726b6574706c616365235f657865637574654f726465723a20496e73756660448201527f66696369656e742072656d61696e696e67207175616e746974792000000000006064820152608401610585565b61012e54604051636eb1769f60e11b81526001600160a01b038781166004830152306024830152600092169063dd62ed3e90604401602060405180830381865afa1580156125db573d6000803e3d6000fd5b505050506040513d601f19601f820116820180604052508101906125ff9190613caa565b9050600061260d8486613daa565b9050808210156126795760405162461bcd60e51b815260206004820152603160248201527f4d61726b6574706c616365235f657865637574654f726465723a20496e73756660448201527066696369656e7420616c6c6f77616e636560781b6064820152608401610585565b848360600181815161268b9190613d97565b90525060008881526101316020908152604080832086518155918601516001830180546001600160a01b03199081166001600160a01b0393841617909155918701516002840155606087015160038401556080870151600484018054909316911617905560a085015160059091015561012f54156127a55761012f54612723906402540be4009061271d90859061303f565b9061304b565b61012e546040516323b872dd60e01b81526001600160a01b038b81166004830152306024830152604482018490529293509116906323b872dd906064016020604051808303816000875af115801561277f573d6000803e3d6000fd5b505050506040513d601f19601f820116820180604052508101906127a39190613cc3565b505b61012e5460208501516001600160a01b03909116906323b872dd908a906127cc8686613057565b6040516001600160e01b031960e086901b1681526001600160a01b03938416600482015292909116602483015260448201526064016020604051808303816000875af1158015612820573d6000803e3d6000fd5b505050506040513d601f19601f820116820180604052508101906128449190613cc3565b6128ca5760405162461bcd60e51b815260206004820152604b60248201527f4d61726b6574706c616365235f657865637574654f726465723a205472616e7360448201527f666572696e67207468652073616c6520616d6f756e7420746f2074686520736560648201526a1b1b195c8819985a5b195960aa1b608482015260a401610585565b608084015160408501516128e18282308c8c611cac565b60006128ed8383611b2b565b9050866060015160000361290957612909818860000151612041565b606080880151604080518f8152602081018d90529115908201526001600160a01b03808e1692820192909252908b16608082015260a0810186905260c081018590527fc0d4f2a39dc640b5d58b661d102ed4e30c7898a8710fb98d1173cd03a9d39f899060e00160405180910390a1505050505050505050505050565b60c980546001600160a01b038381166001600160a01b0319831681179093556040519116919082907f8be0079c531659141344cd1fd0a4f28419497f9722a3daafe3b4186f6b6457e090600090a35050565b6129e761012d80546001019055565b6001600160a01b0386163b612a3e5760405162461bcd60e51b815260206004820152601960248201527f546865206e6674206973206e6f74206120636f6e7472616374000000000000006044820152606401610585565b60008111612a8e5760405162461bcd60e51b815260206004820152601d60248201527f50726963652073686f756c6420626520626967676572207468616e20300000006044820152606401610585565b6040516301ffc9a760e01b815286906001600160a01b038216906301ffc9a790612ac3906380ac58cd60e01b90600401613ad7565b602060405180830381865afa158015612ae0573d6000803e3d6000fd5b505050506040513d601f19601f82011682018060405250810190612b049190613cc3565b15612b1a57612b1587868689613063565b612c0e565b6040516301ffc9a760e01b81526001600160a01b038216906301ffc9a790612b4d90636cdb3d1360e11b90600401613ad7565b602060405180830381865afa158015612b6a573d6000803e3d6000fd5b505050506040513d601f19601f82011682018060405250810190612b8e9190613cc3565b15612ba057612b15878686868a61333a565b60405162461bcd60e51b815260206004820152603760248201527f4d61726b6574706c616365235f6372656174654f726465723a206e6674206d7560448201527f737420626520657263373231206f7220657263313135350000000000000000006064820152608401610585565b6000612c1a8887611b2b565b90506000612c2861012d5490565b905060006040518060c001604052808381526020018a6001600160a01b031681526020018981526020018881526020018b6001600160a01b031681526020018681525090508061013160008481526020019081526020016000206000820151816000015560208201518160010160006101000a8154816001600160a01b0302191690836001600160a01b03160217905550604082015181600201556060820151816003015560808201518160040160006101000a8154816001600160a01b0302191690836001600160a01b0316021790555060a08201518160050155905050612d118383613522565b6040805183815260208082018690528351828401528301516001600160a01b03908116606080840191909152928401516080808401919091529284015160a080840191909152928401511660c08201529082015160e08201527fe3619e9171e93f9dee00bfcdc752e8a94dda1ba2aa6bd74a6edb3f33f6e0511b906101000160405180910390a150505050505050505050565b600054610100900460ff16610eb25760405162461bcd60e51b815260040161058590613e49565b600054610100900460ff16612df25760405162461bcd60e51b815260040161058590613e49565b610eb2613584565b600081600003612e0c57506001612e69565b60a084015161012f54600090620f424090612e279084613daa565b612e319190613e94565b9050612e3d8183613d84565b91506000612e4b8587613e94565b905080831015612e615760019350505050612e69565b600093505050505b9392505050565b6060600060018451612e829190613d97565b67ffffffffffffffff811115612e9a57612e9a61380c565b604051908082528060200260200182016040528015612ec3578160200160208202803683370190505b50905060005b8151811015610bd257838114158015612ee157508381105b15612f2357848181518110612ef857612ef8613ce5565b6020026020010151828281518110612f1257612f12613ce5565b602002602001018181525050612f66565b84612f2f826001613d84565b81518110612f3f57612f3f613ce5565b6020026020010151828281518110612f5957612f59613ce5565b6020026020010181815250505b80612f7081613d11565b915050612ec9565b6001600160a01b0381163b612fe55760405162461bcd60e51b815260206004820152602d60248201527f455243313936373a206e657720696d706c656d656e746174696f6e206973206e60448201526c1bdd08184818dbdb9d1c9858dd609a1b6064820152608401610585565b600080516020613f2a83398151915280546001600160a01b0319166001600160a01b0392909216919091179055565b61301d836135b4565b60008251118061302a5750805b1561077e5761303983836135f4565b50505050565b6000612e698284613daa565b6000612e698284613e94565b6000612e698284613d97565b6040516331a9108f60e11b8152600481018490526001600160a01b038083169190861690636352211e90602401602060405180830381865afa1580156130ad573d6000803e3d6000fd5b505050506040513d601f19601f820116820180604052508101906130d19190613c8d565b6001600160a01b03161461315b5760405162461bcd60e51b8152602060048201526044602482018190527f4d61726b6574706c6163652365726337323176616c69646174653a2054686520908201527f73656e646572206973206e6f7420746865206f776e6572206f6620746865207460648201526337b5b2b760e11b608482015260a401610585565b60405163020604bf60e21b81526004810184905230906001600160a01b0386169063081812fc90602401602060405180830381865afa1580156131a2573d6000803e3d6000fd5b505050506040513d601f19601f820116820180604052508101906131c69190613c8d565b6001600160a01b03161480613246575060405163e985e9c560e01b81526001600160a01b03828116600483015230602483015285169063e985e9c590604401602060405180830381865afa158015613222573d6000803e3d6000fd5b505050506040513d601f19601f820116820180604052508101906132469190613cc3565b6132cf5760405162461bcd60e51b815260206004820152604e60248201527f4d61726b6574706c6163652365726337323176616c69646174653a205468652060448201527f636f6e7472616374206973206e6f7420617574686f72697a656420746f206d6160648201526d1b9859d9481d1a1948185cdcd95d60921b608482015260a401610585565b816001146130395760405162461bcd60e51b815260206004820152603260248201527f4d61726b6574706c6163652365726337323176616c69646174653a2054686520604482015271616d6f756e742073686f756c64206265203160701b6064820152608401610585565b818314610ec257604051627eeac760e11b81526001600160a01b038281166004830152602482018690526000919087169062fdd58e90604401602060405180830381865afa158015613390573d6000803e3d6000fd5b505050506040513d601f19601f820116820180604052508101906133b49190613caa565b116134275760405162461bcd60e51b815260206004820152603e60248201527f4d61726b6574706c616365235f6572633131353576616c69646174653a204f6e60448201527f6c7920746865206f776e65722063616e20637265617465206f726465727300006064820152608401610585565b60405163e985e9c560e01b81526001600160a01b03828116600483015230602483015286169063e985e9c590604401602060405180830381865afa158015613473573d6000803e3d6000fd5b505050506040513d601f19601f820116820180604052508101906134979190613cc3565b610ec25760405162461bcd60e51b815260206004820152605060248201527f4d61726b6574706c616365235f6572633131353576616c69646174653a20546860448201527f6520636f6e7472616374206973206e6f7420617574686f72697a656420746f2060648201526f1b585b9859d9481d1a1948185cdcd95d60821b608482015260a401610585565b60008281526101326020526040812054900361356057604080516020808201835283825260008581526101329091529190912061077e916001613737565b60009182526101326020908152604083208054600181018255908452922090910155565b600054610100900460ff166135ab5760405162461bcd60e51b815260040161058590613e49565b610eb233612986565b6135bd81612f78565b6040516001600160a01b038216907fbc7cd75a20ee27fd9adebab32041f755214dbc6bffa90cc0225b39da2e5c2d3b90600090a250565b6060612e698383604051806060016040528060278152602001613f4a602791396060600080856001600160a01b0316856040516136319190613eda565b600060405180830381855af49150503d806000811461366c576040519150601f19603f3d011682016040523d82523d6000602084013e613671565b606091505b50915091506136828683838761368c565b9695505050505050565b606083156136fb5782516000036136f4576001600160a01b0385163b6136f45760405162461bcd60e51b815260206004820152601d60248201527f416464726573733a2063616c6c20746f206e6f6e2d636f6e74726163740000006044820152606401610585565b5081613705565b613705838361370d565b949350505050565b81511561371d5781518083602001fd5b8060405162461bcd60e51b81526004016105859190613ef6565b828054828255906000526020600020908101928215613772579160200282015b82811115613772578251825591602001919060010190613757565b5061377e929150613782565b5090565b5b8082111561377e5760008155600101613783565b6000602082840312156137a957600080fd5b81356001600160e01b031981168114612e6957600080fd5b6000602082840312156137d357600080fd5b5035919050565b6001600160a01b038116811461053a57600080fd5b60006020828403121561380157600080fd5b8135612e69816137da565b634e487b7160e01b600052604160045260246000fd5b604051601f8201601f1916810167ffffffffffffffff8111828210171561384b5761384b61380c565b604052919050565b6000806040838503121561386657600080fd5b8235613871816137da565b915060208381013567ffffffffffffffff8082111561388f57600080fd5b818601915086601f8301126138a357600080fd5b8135818111156138b5576138b561380c565b6138c7601f8201601f19168501613822565b915080825287848285010111156138dd57600080fd5b80848401858401376000848284010152508093505050509250929050565b6000806040838503121561390e57600080fd5b50508035926020909101359150565b6000806000806080858703121561393357600080fd5b843593506020850135613945816137da565b93969395505050506040820135916060013590565b600082601f83011261396b57600080fd5b8135602067ffffffffffffffff8211156139875761398761380c565b8160051b613996828201613822565b92835284810182019282810190878511156139b057600080fd5b83870192505b848310156139cf578235825291830191908301906139b6565b979650505050505050565b60008083601f8401126139ec57600080fd5b50813567ffffffffffffffff811115613a0457600080fd5b602083019150836020828501011115613a1c57600080fd5b9250929050565b60008060008060008060a08789031215613a3c57600080fd5b8635613a47816137da565b95506020870135613a57816137da565b9450604087013567ffffffffffffffff80821115613a7457600080fd5b613a808a838b0161395a565b95506060890135915080821115613a9657600080fd5b613aa28a838b0161395a565b94506080890135915080821115613ab857600080fd5b50613ac589828a016139da565b979a9699509497509295939492505050565b6001600160e01b031991909116815260200190565b600081518084526020808501945080840160005b83811015613b1c57815187529582019590820190600101613b00565b509495945050505050565b602081526000825160a06020840152613b4360c0840182613aec565b90506020840151601f19848303016040850152613b608282613aec565b9150506040840151606084015260608401516080840152608084015160a08401528091505092915050565b60008060008060008060a08789031215613ba457600080fd5b8635613baf816137da565b95506020870135613bbf816137da565b94506040870135935060608701359250608087013567ffffffffffffffff811115613be957600080fd5b613ac589828a016139da565b6020808252602c908201527f46756e6374696f6e206d7573742062652063616c6c6564207468726f7567682060408201526b19195b1959d85d1958d85b1b60a21b606082015260800190565b6020808252602c908201527f46756e6374696f6e206d7573742062652063616c6c6564207468726f7567682060408201526b6163746976652070726f787960a01b606082015260800190565b600060208284031215613c9f57600080fd5b8151612e69816137da565b600060208284031215613cbc57600080fd5b5051919050565b600060208284031215613cd557600080fd5b81518015158114612e6957600080fd5b634e487b7160e01b600052603260045260246000fd5b634e487b7160e01b600052601160045260246000fd5b600060018201613d2357613d23613cfb565b5060010190565b60008085851115613d3a57600080fd5b83861115613d4757600080fd5b5050820193919092039150565b6001600160e01b03198135818116916004851015613d7c5780818660040360031b1b83161692505b505092915050565b8082018082111561052357610523613cfb565b8181038181111561052357610523613cfb565b808202811582820484141761052357610523613cfb565b60008060408385031215613dd457600080fd5b825160ff81168114613de557600080fd5b6020939093015192949293505050565b6001600160a01b03858116825284166020820152608060408201819052600090613e2190830185613aec565b82810360608401526139cf8185613aec565b634e487b7160e01b600052603160045260246000fd5b6020808252602b908201527f496e697469616c697a61626c653a20636f6e7472616374206973206e6f74206960408201526a6e697469616c697a696e6760a81b606082015260800190565b600082613eb157634e487b7160e01b600052601260045260246000fd5b500490565b60005b83811015613ed1578181015183820152602001613eb9565b50506000910152565b60008251613eec818460208701613eb6565b9190910192915050565b6020815260008251806020840152613f15816040850160208701613eb6565b601f01601f1916919091016040019291505056fe360894a13ba1a3210667c828492db98dca3e2076cc3735a920a3ca505d382bbc416464726573733a206c6f772d6c6576656c2064656c65676174652063616c6c206661696c6564a2646970667358221220377940a5c9ac64729809fc3e49986d00192f72a1c2b4ab767e9e771d58b0768e64736f6c63430008120033",
  "devdoc": {
    "events": {
      "AdminChanged(address,address)": {
        "details": "Emitted when the admin account has changed."
      },
      "BeaconUpgraded(address)": {
        "details": "Emitted when the beacon is changed."
      },
      "Initialized(uint8)": {
        "details": "Triggered when the contract has been initialized or reinitialized."
      },
      "Upgraded(address)": {
        "details": "Emitted when the implementation is upgraded."
      }
    },
    "kind": "dev",
    "methods": {
      "onERC1155Received(address,address,uint256,uint256,bytes)": {
        "details": "Will pass to onERC115Batch5Received"
      },
      "owner()": {
        "details": "Returns the address of the current owner."
      },
      "proxiableUUID()": {
        "details": "Implementation of the ERC1822 {proxiableUUID} function. This returns the storage slot used by the implementation. It is used to validate the implementation's compatibility when performing an upgrade. IMPORTANT: A proxy pointing at a proxiable contract should not be considered proxiable itself, because this risks bricking a proxy that upgrades to it, by delegating to itself until out of gas. Thus it is critical that this function revert if invoked through a proxy. This is guaranteed by the `notDelegated` modifier."
      },
      "renounceOwnership()": {
        "details": "Leaves the contract without owner. It will not be possible to call `onlyOwner` functions. Can only be called by the current owner. NOTE: Renouncing ownership will leave the contract without an owner, thereby disabling any functionality that is only available to the owner."
      },
      "supportsInterface(bytes4)": {
        "details": "See {IERC165-supportsInterface}."
      },
      "transferOwnership(address)": {
        "details": "Transfers ownership of the contract to a new account (`newOwner`). Can only be called by the current owner."
      },
      "upgradeTo(address)": {
        "custom:oz-upgrades-unsafe-allow-reachable": "delegatecall",
        "details": "Upgrade the implementation of the proxy to `newImplementation`. Calls {_authorizeUpgrade}. Emits an {Upgraded} event."
      },
      "upgradeToAndCall(address,bytes)": {
        "custom:oz-upgrades-unsafe-allow-reachable": "delegatecall",
        "details": "Upgrade the implementation of the proxy to `newImplementation`, and subsequently execute the function call encoded in `data`. Calls {_authorizeUpgrade}. Emits an {Upgraded} event."
      }
    },
    "version": 1
  },
  "userdoc": {
    "kind": "user",
    "methods": {},
    "version": 1
  },
  "storageLayout": {
    "storage": [
      {
        "astId": 590,
        "contract": "contracts/game/Marketplace.sol:Marketplace",
        "label": "_initialized",
        "offset": 0,
        "slot": "0",
        "type": "t_uint8"
      },
      {
        "astId": 593,
        "contract": "contracts/game/Marketplace.sol:Marketplace",
        "label": "_initializing",
        "offset": 1,
        "slot": "0",
        "type": "t_bool"
      },
      {
        "astId": 2040,
        "contract": "contracts/game/Marketplace.sol:Marketplace",
        "label": "__gap",
        "offset": 0,
        "slot": "1",
        "type": "t_array(t_uint256)50_storage"
      },
      {
        "astId": 572,
        "contract": "contracts/game/Marketplace.sol:Marketplace",
        "label": "__gap",
        "offset": 0,
        "slot": "51",
        "type": "t_array(t_uint256)50_storage"
      },
      {
        "astId": 887,
        "contract": "contracts/game/Marketplace.sol:Marketplace",
        "label": "__gap",
        "offset": 0,
        "slot": "101",
        "type": "t_array(t_uint256)50_storage"
      },
      {
        "astId": 1812,
        "contract": "contracts/game/Marketplace.sol:Marketplace",
        "label": "__gap",
        "offset": 0,
        "slot": "151",
        "type": "t_array(t_uint256)50_storage"
      },
      {
        "astId": 10,
        "contract": "contracts/game/Marketplace.sol:Marketplace",
        "label": "_owner",
        "offset": 0,
        "slot": "201",
        "type": "t_address"
      },
      {
        "astId": 130,
        "contract": "contracts/game/Marketplace.sol:Marketplace",
        "label": "__gap",
        "offset": 0,
        "slot": "202",
        "type": "t_array(t_uint256)49_storage"
      },
      {
        "astId": 1246,
        "contract": "contracts/game/Marketplace.sol:Marketplace",
        "label": "__gap",
        "offset": 0,
        "slot": "251",
        "type": "t_array(t_uint256)50_storage"
      },
      {
        "astId": 26027,
        "contract": "contracts/game/Marketplace.sol:Marketplace",
        "label": "_orderIdCounter",
        "offset": 0,
        "slot": "301",
        "type": "t_struct(Counter)1819_storage"
      },
      {
        "astId": 26030,
        "contract": "contracts/game/Marketplace.sol:Marketplace",
        "label": "acceptedToken",
        "offset": 0,
        "slot": "302",
        "type": "t_contract(IERC20)7811"
      },
      {
        "astId": 26032,
        "contract": "contracts/game/Marketplace.sol:Marketplace",
        "label": "ownerCutPerMillion",
        "offset": 0,
        "slot": "303",
        "type": "t_uint256"
      },
      {
        "astId": 26035,
        "contract": "contracts/game/Marketplace.sol:Marketplace",
        "label": "config",
        "offset": 0,
        "slot": "304",
        "type": "t_contract(IConfig)20550"
      },
      {
        "astId": 26040,
        "contract": "contracts/game/Marketplace.sol:Marketplace",
        "label": "orderById",
        "offset": 0,
        "slot": "305",
        "type": "t_mapping(t_uint256,t_struct(Order)25743_storage)"
      },
      {
        "astId": 26045,
        "contract": "contracts/game/Marketplace.sol:Marketplace",
        "label": "_orderIdsByProductId",
        "offset": 0,
        "slot": "306",
        "type": "t_mapping(t_bytes32,t_array(t_uint256)dyn_storage)"
      }
    ],
    "types": {
      "t_address": {
        "encoding": "inplace",
        "label": "address",
        "numberOfBytes": "20"
      },
      "t_array(t_uint256)49_storage": {
        "base": "t_uint256",
        "encoding": "inplace",
        "label": "uint256[49]",
        "numberOfBytes": "1568"
      },
      "t_array(t_uint256)50_storage": {
        "base": "t_uint256",
        "encoding": "inplace",
        "label": "uint256[50]",
        "numberOfBytes": "1600"
      },
      "t_array(t_uint256)dyn_storage": {
        "base": "t_uint256",
        "encoding": "dynamic_array",
        "label": "uint256[]",
        "numberOfBytes": "32"
      },
      "t_bool": {
        "encoding": "inplace",
        "label": "bool",
        "numberOfBytes": "1"
      },
      "t_bytes32": {
        "encoding": "inplace",
        "label": "bytes32",
        "numberOfBytes": "32"
      },
      "t_contract(IConfig)20550": {
        "encoding": "inplace",
        "label": "contract IConfig",
        "numberOfBytes": "20"
      },
      "t_contract(IERC20)7811": {
        "encoding": "inplace",
        "label": "contract IERC20",
        "numberOfBytes": "20"
      },
      "t_mapping(t_bytes32,t_array(t_uint256)dyn_storage)": {
        "encoding": "mapping",
        "key": "t_bytes32",
        "label": "mapping(bytes32 => uint256[])",
        "numberOfBytes": "32",
        "value": "t_array(t_uint256)dyn_storage"
      },
      "t_mapping(t_uint256,t_struct(Order)25743_storage)": {
        "encoding": "mapping",
        "key": "t_uint256",
        "label": "mapping(uint256 => struct IMarketplace.Order)",
        "numberOfBytes": "32",
        "value": "t_struct(Order)25743_storage"
      },
      "t_struct(Counter)1819_storage": {
        "encoding": "inplace",
        "label": "struct CountersUpgradeable.Counter",
        "members": [
          {
            "astId": 1818,
            "contract": "contracts/game/Marketplace.sol:Marketplace",
            "label": "_value",
            "offset": 0,
            "slot": "0",
            "type": "t_uint256"
          }
        ],
        "numberOfBytes": "32"
      },
      "t_struct(Order)25743_storage": {
        "encoding": "inplace",
        "label": "struct IMarketplace.Order",
        "members": [
          {
            "astId": 25732,
            "contract": "contracts/game/Marketplace.sol:Marketplace",
            "label": "id",
            "offset": 0,
            "slot": "0",
            "type": "t_uint256"
          },
          {
            "astId": 25734,
            "contract": "contracts/game/Marketplace.sol:Marketplace",
            "label": "seller",
            "offset": 0,
            "slot": "1",
            "type": "t_address"
          },
          {
            "astId": 25736,
            "contract": "contracts/game/Marketplace.sol:Marketplace",
            "label": "tokenId",
            "offset": 0,
            "slot": "2",
            "type": "t_uint256"
          },
          {
            "astId": 25738,
            "contract": "contracts/game/Marketplace.sol:Marketplace",
            "label": "amount",
            "offset": 0,
            "slot": "3",
            "type": "t_uint256"
          },
          {
            "astId": 25740,
            "contract": "contracts/game/Marketplace.sol:Marketplace",
            "label": "nft",
            "offset": 0,
            "slot": "4",
            "type": "t_address"
          },
          {
            "astId": 25742,
            "contract": "contracts/game/Marketplace.sol:Marketplace",
            "label": "priceInWeiForUnit",
            "offset": 0,
            "slot": "5",
            "type": "t_uint256"
          }
        ],
        "numberOfBytes": "192"
      },
      "t_uint256": {
        "encoding": "inplace",
        "label": "uint256",
        "numberOfBytes": "32"
      },
      "t_uint8": {
        "encoding": "inplace",
        "label": "uint8",
        "numberOfBytes": "1"
      }
    }
  }
}