{
  "address": "0x0c4Fb70394395B0b5EC6444EE9947cf370802791",
  "abi": [
    {
      "inputs": [
        {
          "internalType": "contract IConfig",
          "name": "config_",
          "type": "address"
        },
        {
          "internalType": "uint256",
          "name": "slope_",
          "type": "uint256"
        },
        {
          "internalType": "uint256",
          "name": "floorPrice_",
          "type": "uint256"
        }
      ],
      "stateMutability": "nonpayable",
      "type": "constructor"
    },
    {
      "anonymous": false,
      "inputs": [
        {
          "indexed": false,
          "internalType": "uint256",
          "name": "newFloorPrice",
          "type": "uint256"
        }
      ],
      "name": "UpdateFloorPrice",
      "type": "event"
    },
    {
      "inputs": [],
      "name": "PRECENT_DENOMINATOR",
      "outputs": [
        {
          "internalType": "uint128",
          "name": "",
          "type": "uint128"
        }
      ],
      "stateMutability": "view",
      "type": "function"
    },
    {
      "inputs": [],
      "name": "PRICE_PRECISION",
      "outputs": [
        {
          "internalType": "uint128",
          "name": "",
          "type": "uint128"
        }
      ],
      "stateMutability": "view",
      "type": "function"
    },
    {
      "inputs": [],
      "name": "b2",
      "outputs": [
        {
          "internalType": "uint256",
          "name": "",
          "type": "uint256"
        }
      ],
      "stateMutability": "view",
      "type": "function"
    },
    {
      "inputs": [],
      "name": "c",
      "outputs": [
        {
          "internalType": "uint256",
          "name": "",
          "type": "uint256"
        }
      ],
      "stateMutability": "view",
      "type": "function"
    },
    {
      "inputs": [],
      "name": "c1",
      "outputs": [
        {
          "internalType": "uint256",
          "name": "",
          "type": "uint256"
        }
      ],
      "stateMutability": "view",
      "type": "function"
    },
    {
      "inputs": [],
      "name": "exerciseAmount",
      "outputs": [
        {
          "internalType": "uint256",
          "name": "",
          "type": "uint256"
        }
      ],
      "stateMutability": "view",
      "type": "function"
    },
    {
      "inputs": [
        {
          "internalType": "uint256",
          "name": "x",
          "type": "uint256"
        },
        {
          "internalType": "bool",
          "name": "round",
          "type": "bool"
        }
      ],
      "name": "finalPrice1",
      "outputs": [
        {
          "internalType": "uint256",
          "name": "",
          "type": "uint256"
        }
      ],
      "stateMutability": "view",
      "type": "function"
    },
    {
      "inputs": [
        {
          "internalType": "uint256",
          "name": "x",
          "type": "uint256"
        },
        {
          "internalType": "bool",
          "name": "round",
          "type": "bool"
        }
      ],
      "name": "finalPrice2",
      "outputs": [
        {
          "internalType": "uint256",
          "name": "",
          "type": "uint256"
        }
      ],
      "stateMutability": "view",
      "type": "function"
    },
    {
      "inputs": [],
      "name": "floorPrice",
      "outputs": [
        {
          "internalType": "uint256",
          "name": "",
          "type": "uint256"
        }
      ],
      "stateMutability": "view",
      "type": "function"
    },
    {
      "inputs": [
        {
          "internalType": "uint256",
          "name": "amount",
          "type": "uint256"
        }
      ],
      "name": "getBuyPrice",
      "outputs": [
        {
          "internalType": "uint256",
          "name": "toLiquidityPrice",
          "type": "uint256"
        },
        {
          "internalType": "uint256",
          "name": "fees",
          "type": "uint256"
        }
      ],
      "stateMutability": "view",
      "type": "function"
    },
    {
      "inputs": [
        {
          "internalType": "uint256",
          "name": "xs",
          "type": "uint256"
        },
        {
          "internalType": "uint256",
          "name": "xe",
          "type": "uint256"
        },
        {
          "internalType": "bool",
          "name": "round",
          "type": "bool"
        }
      ],
      "name": "getPrice1",
      "outputs": [
        {
          "internalType": "uint256",
          "name": "",
          "type": "uint256"
        }
      ],
      "stateMutability": "view",
      "type": "function"
    },
    {
      "inputs": [
        {
          "internalType": "uint256",
          "name": "xs",
          "type": "uint256"
        },
        {
          "internalType": "uint256",
          "name": "xe",
          "type": "uint256"
        },
        {
          "internalType": "bool",
          "name": "round",
          "type": "bool"
        }
      ],
      "name": "getPrice2",
      "outputs": [
        {
          "internalType": "uint256",
          "name": "",
          "type": "uint256"
        }
      ],
      "stateMutability": "view",
      "type": "function"
    },
    {
      "inputs": [
        {
          "internalType": "uint256",
          "name": "xe",
          "type": "uint256"
        },
        {
          "internalType": "uint256",
          "name": "amount",
          "type": "uint256"
        }
      ],
      "name": "getSellPrice",
      "outputs": [
        {
          "internalType": "uint256",
          "name": "toUserPrice",
          "type": "uint256"
        },
        {
          "internalType": "uint256",
          "name": "fees",
          "type": "uint256"
        }
      ],
      "stateMutability": "view",
      "type": "function"
    },
    {
      "inputs": [
        {
          "internalType": "uint256",
          "name": "amount",
          "type": "uint256"
        }
      ],
      "name": "getSellPrice",
      "outputs": [
        {
          "internalType": "uint256",
          "name": "toUserPrice",
          "type": "uint256"
        },
        {
          "internalType": "uint256",
          "name": "fees",
          "type": "uint256"
        }
      ],
      "stateMutability": "view",
      "type": "function"
    },
    {
      "inputs": [
        {
          "internalType": "uint256",
          "name": "amount",
          "type": "uint256"
        }
      ],
      "name": "getUseFPBuyPrice",
      "outputs": [
        {
          "internalType": "uint256",
          "name": "toLiquidityPrice",
          "type": "uint256"
        },
        {
          "internalType": "uint256",
          "name": "fees",
          "type": "uint256"
        }
      ],
      "stateMutability": "view",
      "type": "function"
    },
    {
      "inputs": [
        {
          "internalType": "uint256",
          "name": "amount",
          "type": "uint256"
        }
      ],
      "name": "increaseSupplyWithNoPriceImpact",
      "outputs": [],
      "stateMutability": "nonpayable",
      "type": "function"
    },
    {
      "inputs": [],
      "name": "k",
      "outputs": [
        {
          "internalType": "uint256",
          "name": "",
          "type": "uint256"
        }
      ],
      "stateMutability": "view",
      "type": "function"
    },
    {
      "inputs": [
        {
          "internalType": "uint256",
          "name": "floorPrice_",
          "type": "uint256"
        }
      ],
      "name": "setFloorPrice",
      "outputs": [],
      "stateMutability": "nonpayable",
      "type": "function"
    },
    {
      "inputs": [],
      "name": "slope",
      "outputs": [
        {
          "internalType": "uint256",
          "name": "",
          "type": "uint256"
        }
      ],
      "stateMutability": "view",
      "type": "function"
    },
    {
      "inputs": [],
      "name": "slope0",
      "outputs": [
        {
          "internalType": "uint256",
          "name": "",
          "type": "uint256"
        }
      ],
      "stateMutability": "view",
      "type": "function"
    },
    {
      "inputs": [],
      "name": "x1",
      "outputs": [
        {
          "internalType": "uint256",
          "name": "",
          "type": "uint256"
        }
      ],
      "stateMutability": "view",
      "type": "function"
    },
    {
      "inputs": [],
      "name": "x2",
      "outputs": [
        {
          "internalType": "uint256",
          "name": "",
          "type": "uint256"
        }
      ],
      "stateMutability": "view",
      "type": "function"
    }
  ],
  "transactionHash": "0x01521f1f7c107eadc0fb6b0b670baf2f132f5d7386844beaff6651e98ea6c19e",
  "args": [
    "0x1218554369a87Ce4B29F6De3C050C2D13BE9E71D",
    35000,
    "500000000000000000"
  ],
  "numDeployments": 1,
  "solcInputHash": "4f1f45ca5fe8f6515b42ba0264732978",
  "bytecode": "0x60806040523480156200001157600080fd5b5060405162001aea38038062001aea833981016040819052620000349162000434565b600080546001600160a01b0319166001600160a01b038516178155600183905560025562000062816200006b565b50505062000584565b620000806002670de0b6b3a76400006200049a565b6001600160801b0316811015620000dd5760405162461bcd60e51b815260206004820152601360248201527f666c6f6f7220707269636520746f6f206c6f7700000000000000000000000000604482015260640160405180910390fd5b60008060009054906101000a90046001600160a01b03166001600160a01b0316626266796040518163ffffffff1660e01b8152600401602060405180830381865afa15801562000131573d6000803e3d6000fd5b505050506040513d601f19601f82011682018060405250810190620001579190620004c3565b6001600160a01b03166318160ddd6040518163ffffffff1660e01b8152600401602060405180830381865afa15801562000195573d6000803e3d6000fd5b505050506040513d601f19601f82011682018060405250810190620001bb9190620004e3565b9050620001c76200028d565b811115620002515760006002670de0b6b3a76400006200021b620001ea6200028d565b620001f69086620004fd565b6001546402540be4006001600160801b03166002620002db60201b62000adc1760201c565b62000227919062000513565b62000233919062000529565b90506200024c83826200034460201b62000b391760201c565b600355505b60038290556040518281527f0af85bb9d2ea3ff014a6fc0d1b7c90a4155b3ca822465cc2bd9ce4231dbb4fbb9060200160405180910390a15050565b6000620002d6620002a8670de0b6b3a7640000600262000540565b6001600160801b03166402540be4006001600160801b03166001546002620002db60201b62000adc1760201c565b905090565b600080620002eb86868662000360565b905060018360028111156200030457620003046200056e565b148015620003255750600084806200032057620003206200046e565b868809115b156200033b576200033860018262000513565b90505b95945050505050565b600081831062000355578162000357565b825b90505b92915050565b60008080600019858709858702925082811083820303915050806000036200039f578382816200039457620003946200046e565b049250505062000414565b808411620003ac57600080fd5b600084868809851960019081018716968790049682860381900495909211909303600082900391909104909201919091029190911760038402600290811880860282030280860282030280860282030280860282030280860282030280860290910302029150505b9392505050565b6001600160a01b03811681146200043157600080fd5b50565b6000806000606084860312156200044a57600080fd5b835162000457816200041b565b602085015160409095015190969495509392505050565b634e487b7160e01b600052601260045260246000fd5b634e487b7160e01b600052601160045260246000fd5b60006001600160801b0383811680620004b757620004b76200046e565b92169190910492915050565b600060208284031215620004d657600080fd5b815162000414816200041b565b600060208284031215620004f657600080fd5b5051919050565b818103818111156200035a576200035a62000484565b808201808211156200035a576200035a62000484565b6000826200053b576200053b6200046e565b500490565b6001600160801b0381811683821602808216919082811462000566576200056662000484565b505092915050565b634e487b7160e01b600052602160045260246000fd5b61155680620005946000396000f3fe608060405234801561001057600080fd5b50600436106101425760003560e01c80639363c812116100b8578063ba730e531161007c578063ba730e5314610261578063bfa2296d14610274578063c3da42b814610287578063d8950f421461028f578063e49b5f3314610297578063edcc85d7146102aa57600080fd5b80639363c8121461020b5780639477d85d1461021357806395082d25146102265780639cc182a41461024d578063b4f40c611461025957600080fd5b80633d05829d1161010a5780633d05829d146101b85780634ff13571146101cd5780635f57697c146101d557806360537537146101dd57806383caf275146101f05780638874ac15146101f857600080fd5b806308d4db14146101475780630add6ef21461017457806311a1b4a81461018a57806323220da51461019d578063343943bd146101b0575b600080fd5b61015a6101553660046112dd565b6102b2565b604080519283526020830191909152015b60405180910390f35b61017c610467565b60405190815260200161016b565b61017c61019836600461130b565b610492565b61015a6101ab3660046112dd565b6104a9565b61017c610541565b6101cb6101c63660046112dd565b610582565b005b61017c61063c565b61017c610658565b61017c6101eb366004611340565b610688565b60015461017c565b61017c61020636600461130b565b61069d565b60035461017c565b61015a61022136600461136c565b6106aa565b610235670de0b6b3a764000081565b6040516001600160801b03909116815260200161016b565b6102356402540be40081565b61017c610789565b61015a61026f3660046112dd565b6107a0565b61017c610282366004611340565b61096d565b61017c610979565b60025461017c565b6101cb6102a53660046112dd565b6109b3565b61017c610a72565b60008060008060009054906101000a90046001600160a01b03166001600160a01b0316626266796040518163ffffffff1660e01b8152600401602060405180830381865afa158015610308573d6000803e3d6000fd5b505050506040513d601f19601f8201168201806040525081019061032c91906113a3565b6001600160a01b03166318160ddd6040518163ffffffff1660e01b8152600401602060405180830381865afa158015610369573d6000803e3d6000fd5b505050506040513d601f19601f8201168201806040525081019061038d91906113c0565b6103989060016113ef565b905060006103a685836113ef565b905060006103b683836001610b4f565b905060006103c684846001610c9c565b905060006103d685856001610d7c565b9050806103e383856113ef565b6103ed91906113ef565b6000546040516381caaaf360e01b8152600481018390529198506001600160a01b0316906381caaaf390602401602060405180830381865afa158015610437573d6000803e3d6000fd5b505050506040513d601f19601f8201168201806040525081019061045b91906113c0565b95505050505050915091565b600061048d61047461063c565b6001546402540be4006001600160801b03166001610adc565b905090565b600061049f848484610b4f565b90505b9392505050565b6000806104cc60035484670de0b6b3a76400006001600160801b03166001610adc565b6000546040516381caaaf360e01b8152600481018390529193506001600160a01b0316906381caaaf390602401602060405180830381865afa158015610516573d6000803e3d6000fd5b505050506040513d601f19601f8201168201806040525081019061053a91906113c0565b9050915091565b600061048d670de0b6b3a76400006001600160801b031660035460026105679190611402565b6105719190611419565b6001546402540be400906002610adc565b60008054906101000a90046001600160a01b03166001600160a01b0316639b6b02bc6040518163ffffffff1660e01b8152600401602060405180830381865afa1580156105d3573d6000803e3d6000fd5b505050506040513d601f19601f820116820180604052508101906105f791906113a3565b6001600160a01b0316336001600160a01b0316146106305760405162461bcd60e51b81526004016106279061142c565b60405180910390fd5b61063981610e2d565b50565b6000610646610979565b61064e610541565b61048d91906113ef565b6000610646670de0b6b3a76400006001600160801b03166402540be4006001600160801b03166001546002610adc565b6000610694838361100a565b90505b92915050565b600061049f848484610c9c565b600080806106b88486611419565b905060006106c882876000610b4f565b905060006106d883886000610c9c565b905060006106e884896000610d7c565b90506000816106f784866113ef565b61070191906113ef565b600054604051630a45c6e560e31b8152600481018390529192506001600160a01b03169063522e372890602401602060405180830381865afa15801561074b573d6000803e3d6000fd5b505050506040513d601f19601f8201168201806040525081019061076f91906113c0565b955061077b8682611419565b965050505050509250929050565b6000600354610796610467565b61048d9190611419565b60008060008060009054906101000a90046001600160a01b03166001600160a01b0316626266796040518163ffffffff1660e01b8152600401602060405180830381865afa1580156107f6573d6000803e3d6000fd5b505050506040513d601f19601f8201168201806040525081019061081a91906113a3565b6001600160a01b03166318160ddd6040518163ffffffff1660e01b8152600401602060405180830381865afa158015610857573d6000803e3d6000fd5b505050506040513d601f19601f8201168201806040525081019061087b91906113c0565b9050806000036108915750600093849350915050565b600061089d8583611419565b905060006108ad82846000610b4f565b905060006108bd83856000610c9c565b905060006108cd84866000610d7c565b90506000816108dc84866113ef565b6108e691906113ef565b600054604051630a45c6e560e31b8152600481018390529192506001600160a01b03169063522e372890602401602060405180830381865afa158015610930573d6000803e3d6000fd5b505050506040513d601f19601f8201168201806040525081019061095491906113c0565b96506109608782611419565b9750505050505050915091565b600061069483836111b6565b600061048d610991670de0b6b3a7640000600261146e565b6001600160801b03166402540be4006001600160801b03166001546002610adc565b60008054906101000a90046001600160a01b03166001600160a01b0316639b6b02bc6040518163ffffffff1660e01b8152600401602060405180830381865afa158015610a04573d6000803e3d6000fd5b505050506040513d601f19601f82011682018060405250810190610a2891906113a3565b6001600160a01b0316336001600160a01b031614610a585760405162461bcd60e51b81526004016106279061142c565b8060026000828254610a6a91906113ef565b909155505050565b60008060035490506000610a9b600254610a8a61063c565b610a9491906113ef565b600061100a565b90506000610aa7610541565b610aaf61063c565b610ab99190611419565b9050610ad4610ac88484611419565b6402540be4008361122e565b935050505090565b600080610aea86868661122e565b90506001836002811115610b0057610b00611499565b148015610b1d575060008480610b1857610b186114af565b868809115b15610b3057610b2d6001826113ef565b90505b95945050505050565b6000818310610b485781610694565b5090919050565b600082841115610b715760405162461bcd60e51b8152600401610627906114c5565b60025484908490610b8061063c565b610b8a91906113ef565b861115610b9c576000925050506104a2565b600254610ba7610541565b610bb191906113ef565b851015610bc3576000925050506104a2565b600254610bce610541565b610bd891906113ef565b861015610bf757600254610bea610541565b610bf491906113ef565b91505b600254610c0261063c565b610c0c91906113ef565b851115610c37576001600254610c2061063c565b610c2a91906113ef565b610c349190611419565b90505b6000610c43838661100a565b90506000610c51838761100a565b9050670de0b6b3a76400006002610c688686611419565b610c7284866113ef565b610c7c9190611402565b610c8691906114e6565b610c9091906114e6565b98975050505050505050565b600082841115610cbe5760405162461bcd60e51b8152600401610627906114c5565b600254610cc961063c565b610cd391906113ef565b831015610ce2575060006104a2565b60025484908490610cf161063c565b610cfb91906113ef565b861015610d1a57600254610d0d61063c565b610d1791906113ef565b91505b6000610d2683866111b6565b90506000610d3483876111b6565b9050610c90610d4382846113ef565b610d4d8686611419565b610d60670de0b6b3a7640000600261146e565b6001600160801b031689610d75576002610adc565b6001610adc565b600082841115610d9e5760405162461bcd60e51b8152600401610627906114c5565b6000600254610dab610541565b610db591906113ef565b851015610ddf5784600254610dc8610541565b610dd291906113ef565b610ddc9190611419565b90505b600254610dea610541565b610df491906113ef565b841015610e0857610e058585611419565b90505b610b3081600354670de0b6b3a76400006001600160801b031686610d75576002610adc565b610e406002670de0b6b3a76400006114fa565b6001600160801b0316811015610e8e5760405162461bcd60e51b8152602060048201526013602482015272666c6f6f7220707269636520746f6f206c6f7760681b6044820152606401610627565b60008060009054906101000a90046001600160a01b03166001600160a01b0316626266796040518163ffffffff1660e01b8152600401602060405180830381865afa158015610ee1573d6000803e3d6000fd5b505050506040513d601f19601f82011682018060405250810190610f0591906113a3565b6001600160a01b03166318160ddd6040518163ffffffff1660e01b8152600401602060405180830381865afa158015610f42573d6000803e3d6000fd5b505050506040513d601f19601f82011682018060405250810190610f6691906113c0565b9050610f70610979565b811115610fce5760006002670de0b6b3a7640000610fa9610f8f610979565b610f999086611419565b6001546402540be4006002610adc565b610fb391906113ef565b610fbd91906114e6565b9050610fc98382610b39565b600355505b60038290556040518281527f0af85bb9d2ea3ff014a6fc0d1b7c90a4155b3ca822465cc2bd9ce4231dbb4fbb9060200160405180910390a15050565b6000600254611017610541565b61102191906113ef565b83101561105c5760405162461bcd60e51b81526020600482015260096024820152687820746f6f206c6f7760b81b6044820152606401610627565b60025461106761063c565b61107191906113ef565b8311156110ad5760405162461bcd60e51b815260206004820152600a6024820152690f040e8dede40d0d2ced60b31b6044820152606401610627565b6002546110b8610658565b6110c291906113ef565b83101561115357600354611142611107856002546110de610658565b6110e891906113ef565b6110f29190611419565b6001546402540be40087610d75576002610adc565b61111990670de0b6b3a7640000611419565b611121610789565b611134670de0b6b3a7640000600261146e565b6001600160801b031661122e565b61114c91906113ef565b9050610697565b6003546111ac670de0b6b3a76400006001600160801b03166111a2600254611179610658565b6111839089611419565b61118d9190611419565b6001546402540be40088610d75576002610adc565b61111991906113ef565b61069491906113ef565b60006002546111c361063c565b6111cd91906113ef565b8310156112085760405162461bcd60e51b81526020600482015260096024820152687820746f6f206c6f7760b81b6044820152606401610627565b610694600254846112199190611419565b6001546402540be40085610d75576002610adc565b60008080600019858709858702925082811083820303915050806000036112685783828161125e5761125e6114af565b04925050506104a2565b80841161127457600080fd5b60008486880960026001871981018816978890046003810283188082028403028082028403028082028403028082028403028082028403029081029092039091026000889003889004909101858311909403939093029303949094049190911702949350505050565b6000602082840312156112ef57600080fd5b5035919050565b8035801515811461130657600080fd5b919050565b60008060006060848603121561132057600080fd5b8335925060208401359150611337604085016112f6565b90509250925092565b6000806040838503121561135357600080fd5b82359150611363602084016112f6565b90509250929050565b6000806040838503121561137f57600080fd5b50508035926020909101359150565b6001600160a01b038116811461063957600080fd5b6000602082840312156113b557600080fd5b81516104a28161138e565b6000602082840312156113d257600080fd5b5051919050565b634e487b7160e01b600052601160045260246000fd5b80820180821115610697576106976113d9565b8082028115828204841417610697576106976113d9565b81810381811115610697576106976113d9565b60208082526022908201527f50726963654669656c643a2063616c6c6572206973206e6f74207468652076616040820152616d6d60f01b606082015260800190565b6001600160801b03818116838216028082169190828114611491576114916113d9565b505092915050565b634e487b7160e01b600052602160045260246000fd5b634e487b7160e01b600052601260045260246000fd5b6020808252600790820152667873203e20786560c81b604082015260600190565b6000826114f5576114f56114af565b500490565b60006001600160801b0380841680611514576115146114af565b9216919091049291505056fea2646970667358221220cd5ef1c7ac836dae7ddf09b2b53017ac6853a95bb3d8e956046c8525d7c0bbee64736f6c63430008120033",
  "devdoc": {
    "kind": "dev",
    "methods": {},
    "version": 1
  },
  "userdoc": {
    "kind": "user",
    "methods": {},
    "version": 1
  },
  "storageLayout": {
    "storage": [
      {
        "astId": 16245,
        "contract": "contracts/PriceField.sol:PriceField",
        "label": "_config",
        "offset": 0,
        "slot": "0",
        "type": "t_contract(IConfig)20550"
      },
      {
        "astId": 16247,
        "contract": "contracts/PriceField.sol:PriceField",
        "label": "_slope",
        "offset": 0,
        "slot": "1",
        "type": "t_uint256"
      },
      {
        "astId": 16249,
        "contract": "contracts/PriceField.sol:PriceField",
        "label": "_exerciseAmount",
        "offset": 0,
        "slot": "2",
        "type": "t_uint256"
      },
      {
        "astId": 16251,
        "contract": "contracts/PriceField.sol:PriceField",
        "label": "_floorPrice",
        "offset": 0,
        "slot": "3",
        "type": "t_uint256"
      }
    ],
    "types": {
      "t_contract(IConfig)20550": {
        "encoding": "inplace",
        "label": "contract IConfig",
        "numberOfBytes": "20"
      },
      "t_uint256": {
        "encoding": "inplace",
        "label": "uint256",
        "numberOfBytes": "32"
      }
    }
  }
}