{
  "address": "0x968583846697DDB2fa04e325fAd53C6B84c471A8",
  "abi": [
    {
      "anonymous": false,
      "inputs": [
        {
          "indexed": false,
          "internalType": "address",
          "name": "previousAdmin",
          "type": "address"
        },
        {
          "indexed": false,
          "internalType": "address",
          "name": "newAdmin",
          "type": "address"
        }
      ],
      "name": "AdminChanged",
      "type": "event"
    },
    {
      "anonymous": false,
      "inputs": [
        {
          "indexed": true,
          "internalType": "address",
          "name": "beacon",
          "type": "address"
        }
      ],
      "name": "BeaconUpgraded",
      "type": "event"
    },
    {
      "anonymous": false,
      "inputs": [
        {
          "indexed": false,
          "internalType": "uint8",
          "name": "version",
          "type": "uint8"
        }
      ],
      "name": "Initialized",
      "type": "event"
    },
    {
      "anonymous": false,
      "inputs": [
        {
          "indexed": true,
          "internalType": "address",
          "name": "previousOwner",
          "type": "address"
        },
        {
          "indexed": true,
          "internalType": "address",
          "name": "newOwner",
          "type": "address"
        }
      ],
      "name": "OwnershipTransferred",
      "type": "event"
    },
    {
      "anonymous": false,
      "inputs": [
        {
          "indexed": false,
          "internalType": "uint256",
          "name": "raffleId",
          "type": "uint256"
        },
        {
          "indexed": false,
          "internalType": "address",
          "name": "entrant",
          "type": "address"
        },
        {
          "indexed": false,
          "internalType": "uint256",
          "name": "prizeTokenId",
          "type": "uint256"
        },
        {
          "indexed": false,
          "internalType": "uint256",
          "name": "prizeQuantity",
          "type": "uint256"
        }
      ],
      "name": "RaffleClaimPrize",
      "type": "event"
    },
    {
      "anonymous": false,
      "inputs": [
        {
          "indexed": false,
          "internalType": "uint256",
          "name": "raffleId",
          "type": "uint256"
        },
        {
          "indexed": false,
          "internalType": "string",
          "name": "raffleName",
          "type": "string"
        },
        {
          "indexed": false,
          "internalType": "uint256",
          "name": "raffleStart",
          "type": "uint256"
        },
        {
          "indexed": false,
          "internalType": "uint256",
          "name": "raffleEnd",
          "type": "uint256"
        },
        {
          "indexed": false,
          "internalType": "address",
          "name": "creator",
          "type": "address"
        },
        {
          "components": [
            {
              "internalType": "uint256",
              "name": "ticketId",
              "type": "uint256"
            },
            {
              "internalType": "uint256",
              "name": "minTicket",
              "type": "uint256"
            },
            {
              "components": [
                {
                  "internalType": "uint256",
                  "name": "prizeTokenId",
                  "type": "uint256"
                },
                {
                  "internalType": "uint256",
                  "name": "oneTicketPrizeCount",
                  "type": "uint256"
                },
                {
                  "internalType": "uint256",
                  "name": "prizeQuantity",
                  "type": "uint256"
                }
              ],
              "internalType": "struct IRaffles.RaffleItemPrizeIO[]",
              "name": "raffleItemPrizes",
              "type": "tuple[]"
            }
          ],
          "indexed": false,
          "internalType": "struct IRaffles.RaffleItemInput",
          "name": "raffleItem",
          "type": "tuple"
        }
      ],
      "name": "RaffleCreated",
      "type": "event"
    },
    {
      "anonymous": false,
      "inputs": [
        {
          "indexed": false,
          "internalType": "uint256",
          "name": "raffleId",
          "type": "uint256"
        }
      ],
      "name": "RafflePrizeWithdraw",
      "type": "event"
    },
    {
      "anonymous": false,
      "inputs": [
        {
          "indexed": false,
          "internalType": "uint256",
          "name": "raffleId",
          "type": "uint256"
        },
        {
          "indexed": false,
          "internalType": "uint256",
          "name": "randomNumber",
          "type": "uint256"
        }
      ],
      "name": "RaffleRandomNumber",
      "type": "event"
    },
    {
      "anonymous": false,
      "inputs": [
        {
          "indexed": false,
          "internalType": "uint256",
          "name": "raffleId",
          "type": "uint256"
        },
        {
          "indexed": false,
          "internalType": "address",
          "name": "entrant",
          "type": "address"
        },
        {
          "components": [
            {
              "internalType": "uint256",
              "name": "ticketId",
              "type": "uint256"
            },
            {
              "internalType": "uint256",
              "name": "ticketQuantity",
              "type": "uint256"
            }
          ],
          "indexed": false,
          "internalType": "struct IRaffles.TicketItemIO",
          "name": "ticketItem",
          "type": "tuple"
        },
        {
          "components": [
            {
              "internalType": "bool",
              "name": "prizesClaimed",
              "type": "bool"
            },
            {
              "internalType": "uint256",
              "name": "rangeStart",
              "type": "uint256"
            },
            {
              "internalType": "uint256",
              "name": "rangeEnd",
              "type": "uint256"
            }
          ],
          "indexed": false,
          "internalType": "struct Entry",
          "name": "entry",
          "type": "tuple"
        },
        {
          "indexed": false,
          "internalType": "uint256",
          "name": "entryIndex",
          "type": "uint256"
        }
      ],
      "name": "RaffleTicketsEntered",
      "type": "event"
    },
    {
      "anonymous": false,
      "inputs": [
        {
          "indexed": true,
          "internalType": "address",
          "name": "implementation",
          "type": "address"
        }
      ],
      "name": "Upgraded",
      "type": "event"
    },
    {
      "inputs": [
        {
          "internalType": "uint256",
          "name": "_raffleId",
          "type": "uint256"
        },
        {
          "internalType": "address",
          "name": "_entrant",
          "type": "address"
        },
        {
          "components": [
            {
              "internalType": "uint256",
              "name": "entryIndex",
              "type": "uint256"
            },
            {
              "components": [
                {
                  "internalType": "uint256",
                  "name": "raffleItemPrizeIndex",
                  "type": "uint256"
                },
                {
                  "internalType": "uint256[]",
                  "name": "winningPrizeNumbers",
                  "type": "uint256[]"
                }
              ],
              "internalType": "struct IRaffles.PrizesWinIO[]",
              "name": "prizes",
              "type": "tuple[]"
            }
          ],
          "internalType": "struct IRaffles.TicketWinIO[]",
          "name": "_wins",
          "type": "tuple[]"
        }
      ],
      "name": "claimPrize",
      "outputs": [],
      "stateMutability": "nonpayable",
      "type": "function"
    },
    {
      "inputs": [],
      "name": "gameNFT",
      "outputs": [
        {
          "internalType": "address",
          "name": "",
          "type": "address"
        }
      ],
      "stateMutability": "view",
      "type": "function"
    },
    {
      "inputs": [
        {
          "internalType": "uint256",
          "name": "_raffleId",
          "type": "uint256"
        }
      ],
      "name": "getEntrants",
      "outputs": [
        {
          "internalType": "address[]",
          "name": "entrants_",
          "type": "address[]"
        }
      ],
      "stateMutability": "view",
      "type": "function"
    },
    {
      "inputs": [
        {
          "internalType": "address",
          "name": "_gameNFT",
          "type": "address"
        }
      ],
      "name": "initialize",
      "outputs": [],
      "stateMutability": "nonpayable",
      "type": "function"
    },
    {
      "inputs": [
        {
          "internalType": "address",
          "name": "",
          "type": "address"
        },
        {
          "internalType": "address",
          "name": "_from",
          "type": "address"
        },
        {
          "internalType": "uint256[]",
          "name": "_ids",
          "type": "uint256[]"
        },
        {
          "internalType": "uint256[]",
          "name": "_amounts",
          "type": "uint256[]"
        },
        {
          "internalType": "bytes",
          "name": "_data",
          "type": "bytes"
        }
      ],
      "name": "onERC1155BatchReceived",
      "outputs": [
        {
          "internalType": "bytes4",
          "name": "",
          "type": "bytes4"
        }
      ],
      "stateMutability": "nonpayable",
      "type": "function"
    },
    {
      "inputs": [
        {
          "internalType": "address",
          "name": "_operator",
          "type": "address"
        },
        {
          "internalType": "address",
          "name": "_from",
          "type": "address"
        },
        {
          "internalType": "uint256",
          "name": "_id",
          "type": "uint256"
        },
        {
          "internalType": "uint256",
          "name": "_amount",
          "type": "uint256"
        },
        {
          "internalType": "bytes",
          "name": "_data",
          "type": "bytes"
        }
      ],
      "name": "onERC1155Received",
      "outputs": [
        {
          "internalType": "bytes4",
          "name": "",
          "type": "bytes4"
        }
      ],
      "stateMutability": "nonpayable",
      "type": "function"
    },
    {
      "inputs": [],
      "name": "owner",
      "outputs": [
        {
          "internalType": "address",
          "name": "",
          "type": "address"
        }
      ],
      "stateMutability": "view",
      "type": "function"
    },
    {
      "inputs": [],
      "name": "proxiableUUID",
      "outputs": [
        {
          "internalType": "bytes32",
          "name": "",
          "type": "bytes32"
        }
      ],
      "stateMutability": "view",
      "type": "function"
    },
    {
      "inputs": [],
      "name": "raffleSupply",
      "outputs": [
        {
          "internalType": "uint256",
          "name": "raffleSupply_",
          "type": "uint256"
        }
      ],
      "stateMutability": "view",
      "type": "function"
    },
    {
      "inputs": [
        {
          "internalType": "uint256",
          "name": "",
          "type": "uint256"
        }
      ],
      "name": "raffles",
      "outputs": [
        {
          "components": [
            {
              "internalType": "uint256",
              "name": "totalEntered",
              "type": "uint256"
            },
            {
              "internalType": "uint256",
              "name": "minTicket",
              "type": "uint256"
            },
            {
              "components": [
                {
                  "internalType": "uint256",
                  "name": "prizeQuantityRemaining",
                  "type": "uint256"
                },
                {
                  "internalType": "uint256",
                  "name": "prizeQuantity",
                  "type": "uint256"
                },
                {
                  "internalType": "uint256",
                  "name": "oneTicketPrizeCount",
                  "type": "uint256"
                },
                {
                  "internalType": "uint256",
                  "name": "prizeTokenId",
                  "type": "uint256"
                }
              ],
              "internalType": "struct RaffleItemPrize[]",
              "name": "raffleItemPrizes",
              "type": "tuple[]"
            }
          ],
          "internalType": "struct RaffleItem",
          "name": "raffleItem",
          "type": "tuple"
        },
        {
          "internalType": "uint256",
          "name": "acceptedTicketId",
          "type": "uint256"
        },
        {
          "internalType": "address",
          "name": "creator",
          "type": "address"
        },
        {
          "internalType": "bool",
          "name": "closed",
          "type": "bool"
        },
        {
          "internalType": "uint256",
          "name": "randomNumber",
          "type": "uint256"
        },
        {
          "internalType": "bool",
          "name": "randomNumberPending",
          "type": "bool"
        },
        {
          "internalType": "uint256",
          "name": "raffleStart",
          "type": "uint256"
        },
        {
          "internalType": "uint256",
          "name": "raffleEnd",
          "type": "uint256"
        }
      ],
      "stateMutability": "view",
      "type": "function"
    },
    {
      "inputs": [
        {
          "internalType": "uint256",
          "name": "raffleId",
          "type": "uint256"
        }
      ],
      "name": "rawFulfillRandomness",
      "outputs": [],
      "stateMutability": "nonpayable",
      "type": "function"
    },
    {
      "inputs": [],
      "name": "renounceOwnership",
      "outputs": [],
      "stateMutability": "nonpayable",
      "type": "function"
    },
    {
      "inputs": [
        {
          "internalType": "bytes4",
          "name": "interfaceId",
          "type": "bytes4"
        }
      ],
      "name": "supportsInterface",
      "outputs": [
        {
          "internalType": "bool",
          "name": "",
          "type": "bool"
        }
      ],
      "stateMutability": "view",
      "type": "function"
    },
    {
      "inputs": [
        {
          "internalType": "address",
          "name": "newOwner",
          "type": "address"
        }
      ],
      "name": "transferOwnership",
      "outputs": [],
      "stateMutability": "nonpayable",
      "type": "function"
    },
    {
      "inputs": [
        {
          "internalType": "address",
          "name": "newImplementation",
          "type": "address"
        }
      ],
      "name": "upgradeTo",
      "outputs": [],
      "stateMutability": "nonpayable",
      "type": "function"
    },
    {
      "inputs": [
        {
          "internalType": "address",
          "name": "newImplementation",
          "type": "address"
        },
        {
          "internalType": "bytes",
          "name": "data",
          "type": "bytes"
        }
      ],
      "name": "upgradeToAndCall",
      "outputs": [],
      "stateMutability": "payable",
      "type": "function"
    },
    {
      "inputs": [
        {
          "internalType": "uint256",
          "name": "_raffleId",
          "type": "uint256"
        }
      ],
      "name": "withdrawPrize",
      "outputs": [],
      "stateMutability": "nonpayable",
      "type": "function"
    }
  ],
  "transactionHash": "0x5d9788cd5d0d6500863e72a785e0ab94fd8eccf58629210c17631ff1258cf029",
  "args": [],
  "numDeployments": 1,
  "solcInputHash": "4f1f45ca5fe8f6515b42ba0264732978",
  "bytecode": "0x60a06040523060805234801561001457600080fd5b506080516131b461004c600039600081816103a9015281816103f201528181610491015281816104d1015261056401526131b46000f3fe6080604052600436106100fe5760003560e01c80638da5cb5b11610095578063c4d66de811610064578063c4d66de8146102c7578063cfb5a435146102e7578063e63cb4f814610308578063f23a6e6114610328578063f2fde38b1461034857600080fd5b80638da5cb5b1461020f578063abc00bb414610241578063bc197c811461026e578063c20eec7b146102a757600080fd5b806357b0ef44116100d157806357b0ef4414610190578063599d127a146101b05780635d4bc0ce146101c6578063715018a6146101fa57600080fd5b806301ffc9a7146101035780633659cfe6146101385780634f1ef2861461015a57806352d1902d1461016d575b600080fd5b34801561010f57600080fd5b5061012361011e366004612741565b610368565b60405190151581526020015b60405180910390f35b34801561014457600080fd5b50610158610153366004612787565b61039f565b005b610158610168366004612841565b610487565b34801561017957600080fd5b50610182610557565b60405190815260200161012f565b34801561019c57600080fd5b506101586101ab3660046128a3565b61060a565b3480156101bc57600080fd5b5061012d54610182565b3480156101d257600080fd5b506101e66101e136600461292d565b610e82565b60405161012f989796959493929190612946565b34801561020657600080fd5b50610158610f93565b34801561021b57600080fd5b506097546001600160a01b03165b6040516001600160a01b03909116815260200161012f565b34801561024d57600080fd5b5061026161025c36600461292d565b610fa7565b60405161012f9190612a12565b34801561027a57600080fd5b5061028e610289366004612b28565b611057565b6040516001600160e01b0319909116815260200161012f565b3480156102b357600080fd5b506101586102c236600461292d565b61145a565b3480156102d357600080fd5b506101586102e2366004612787565b611709565b3480156102f357600080fd5b5061012e54610229906001600160a01b031681565b34801561031457600080fd5b5061015861032336600461292d565b61184d565b34801561033457600080fd5b5061028e610343366004612bd8565b611a0e565b34801561035457600080fd5b50610158610363366004612787565b611b40565b60006001600160e01b03198216630271189760e51b148061039957506301ffc9a760e01b6001600160e01b03198316145b92915050565b6001600160a01b037f00000000000000000000000000000000000000000000000000000000000000001630036103f05760405162461bcd60e51b81526004016103e790612c3e565b60405180910390fd5b7f00000000000000000000000000000000000000000000000000000000000000006001600160a01b0316610439600080516020613138833981519152546001600160a01b031690565b6001600160a01b03161461045f5760405162461bcd60e51b81526004016103e790612c8a565b61046881611bb6565b6040805160008082526020820190925261048491839190611bbe565b50565b6001600160a01b037f00000000000000000000000000000000000000000000000000000000000000001630036104cf5760405162461bcd60e51b81526004016103e790612c3e565b7f00000000000000000000000000000000000000000000000000000000000000006001600160a01b0316610518600080516020613138833981519152546001600160a01b031690565b6001600160a01b03161461053e5760405162461bcd60e51b81526004016103e790612c8a565b61054782611bb6565b61055382826001611bbe565b5050565b6000306001600160a01b037f000000000000000000000000000000000000000000000000000000000000000016146105f75760405162461bcd60e51b815260206004820152603860248201527f555550535570677261646561626c653a206d757374206e6f742062652063616c60448201527f6c6564207468726f7567682064656c656761746563616c6c000000000000000060648201526084016103e7565b5060008051602061313883398151915290565b61012d54841061062c5760405162461bcd60e51b81526004016103e790612cd6565b600061012d858154811061064257610642612d0d565b60009182526020909120600b909102016007810154600682015491925090600160a01b900460ff16156106b25760405162461bcd60e51b8152602060048201526018602482015277149859999b194e881c9859999b19481a5cc818db1bdcd95960421b60448201526064016103e7565b600081116107125760405162461bcd60e51b815260206004820152602760248201527f526166666c653a2052616e646f6d206e756d626572206e6f742067656e6572616044820152661d1959081e595d60ca1b60648201526084016103e7565b826107575760405162461bcd60e51b8152602060048201526015602482015274526166666c653a2057696e7320697320656d70747960581b60448201526064016103e7565b336001600160a01b038616146107c55760405162461bcd60e51b815260206004820152602d60248201527f526166666c653a204e6f7420636c61696d6564206279206f776e6572206f722060448201526c31b7b73a3930b1ba27bbb732b960991b60648201526084016103e7565b6001600160a01b0385166000908152600483016020526040812054905b84811015610e7857368686838181106107fd576107fd612d0d565b905060200281019061080f9190612d23565b9050803583116108925760405162461bcd60e51b815260206004820152604260248201527f526166666c653a205573657220656e74727920646f6573206e6f74206578697360448201527f74206f72206973206e6f74206c6573736572207468616e206c6173742076616c606482015261756560f01b608482015260a4016103e7565b6001600160a01b03881660009081526004860160205260408120805483359081106108bf576108bf612d0d565b6000918252602091829020604080516060810182526003909302909101805460ff161580158452600182015494840194909452600201549082015291506109605760405162461bcd60e51b815260206004820152602f60248201527f526166666c65733a20456e747279207072697a6573206861766520616c72656160448201526e191e481899595b8818db185a5b5959608a1b60648201526084016103e7565b6001600160a01b03891660009081526004870160205260409020805460019190843590811061099157610991612d0d565b60009182526020822060039190910201805460ff191692151592909217909155865460028801549550905b6109c96020850185612d43565b9050811015610e5e57366109e06020860186612d43565b838181106109f0576109f0612d0d565b9050602002810190610a029190612d23565b905080358711610a8c5760405162461bcd60e51b815260206004820152604960248201527f526166666c653a20526166666c65207072697a65207479706520646f6573206e60448201527f6f74206578697374206f72206973206e6f74206c6573736572207468616e206c6064820152686173742076616c756560b81b608482015260a4016103e7565b600289018054600091908335908110610aa757610aa7612d0d565b906000526020600020906004020190508060010154975060005b610ace6020840184612d43565b9050811015610c39576000610ae66020850185612d43565b83818110610af657610af6612d0d565b905060200201359050898110610b805760405162461bcd60e51b815260206004820152604360248201527f526166666c653a207072697a654e756d62657220646f6573206e6f742065786960448201527f7374206f72206973206e6f74206c6573736572207468616e206c6173742076616064820152626c756560e81b608482015260a4016103e7565b6040805160208082018e905286358284015260608083018590528351808403909101815260809092019092528051910120600090610bbf908890612da3565b905087602001518110158015610bd85750876040015181105b610c245760405162461bcd60e51b815260206004820152601960248201527f526166666c653a20446964206e6f742077696e207072697a650000000000000060448201526064016103e7565b50985080610c3181612dcd565b915050610ac1565b507f4207d0bd0a07abcf50f7718e6d2776de8e85496f5a532f43d486a0e9f2f641128e8e83600301548460020154868060200190610c779190612d43565b610c82929150612de6565b604080519485526001600160a01b03909316602085015291830152606082015260800160405180910390a1610cba6020830183612d43565b825410159050610d185760405162461bcd60e51b815260206004820152602360248201527f526166666c653a207072697a652072656d61696e67696e67206e6f7420656e6f6044820152620eaced60eb1b60648201526084016103e7565b610d256020830183612d43565b8254610d319250612dfd565b815560408051600180825281830190925260009160208083019080368337019050509050816003015481600081518110610d6d57610d6d612d0d565b60209081029190910101526040805160018082528183019092526000918160200160208202803683375050506002840154909150610dae6020860186612d43565b610db9929150612de6565b81600081518110610dcc57610dcc612d0d565b602090810291909101015261012e5460405163c5ad899b60e01b81526001600160a01b039091169063c5ad899b90610e0e903090339087908790600401612e4b565b600060405180830381600087803b158015610e2857600080fd5b505af1158015610e3c573d6000803e3d6000fd5b5050505083600001359950505050508080610e5690612dcd565b9150506109bc565b505090359250819050610e7081612dcd565b9150506107e2565b5050505050505050565b61012d8181548110610e9357600080fd5b90600052602060002090600b020160009150905080600001604051806060016040529081600082015481526020016001820154815260200160028201805480602002602001604051908101604052809291908181526020016000905b82821015610f49578382906000526020600020906004020160405180608001604052908160008201548152602001600182015481526020016002820154815260200160038201548152505081526020019060010190610eef565b5050509152505060038201546006830154600784015460088501546009860154600a90960154949593946001600160a01b03841694600160a01b90940460ff908116949216919088565b610f9b611d2e565b610fa56000611d88565b565b61012d546060908210610fcc5760405162461bcd60e51b81526004016103e790612cd6565b600061012d8381548110610fe257610fe2612d0d565b90600052602060002090600b020190508060050180548060200260200160405190810160405280929190818152602001828054801561104a57602002820191906000526020600020905b81546001600160a01b0316815260019091019060200180831161102c575b5050505050915050919050565b61012e546000906001600160a01b031633146110d25760405162461bcd60e51b815260206004820152603460248201527f526166666c65733a206f6e4552433131353542617463685265636569766564206044820152736f6e6c792067616d654e4654206164647265737360601b60648201526084016103e7565b60006110e16004828587612e89565b6110ea91612eb3565b9050636a87904b60e01b6001600160e01b03198216016113175761113d6040518060c001604052806060815260200160008152602001600081526020016000815260200160008152602001606081525090565b61116160405180606001604052806000815260200160008152602001606081525090565b61116e8560048189612e89565b81019061117b9190612ee3565b60a088015260808701526060860152604085015260208401528252875160009067ffffffffffffffff8111156111b3576111b36127a2565b60405190808252806020026020018201604052801561120857816020015b6111f560405180606001604052806000815260200160008152602001600081525090565b8152602001906001900390816111d15790505b50905060005b89518110156112d95760405180606001604052808b838151811061123457611234612d0d565b602002602001015181526020018560a00151838151811061125757611257612d0d565b602002602001015181526020018560a00151838151811061127a5761127a612d0d565b60200260200101518b848151811061129457611294612d0d565b60200260200101516112a69190612f83565b8152508282815181106112bb576112bb612d0d565b602002602001018190525080806112d190612dcd565b91505061120e565b5060808301516020808401919091526060840151835260408084018390528451918501519085015161130f928d92909186611dda565b505050611446565b63584c106960e01b6001600160e01b03198216016113fe5785516001146113805760405162461bcd60e51b815260206004820152601d60248201527f526166666c653a20656e746572207469636b6574206f6e6c79206f6e6500000060448201526064016103e7565b6000806040518060400160405280896000815181106113a1576113a1612d0d565b60200260200101518152602001886000815181106113c1576113c1612d0d565b6020908102919091010151905290506113dd8560048189612e89565b8101906113ea919061292d565b91506113f789838361212d565b5050611446565b60405162461bcd60e51b815260206004820152601760248201527f526166666c65733a20494e56414c49445f4d4554484f4400000000000000000060448201526064016103e7565b5063bc197c8160e01b979650505050505050565b61012d54811061147c5760405162461bcd60e51b81526004016103e790612cd6565b600061012d828154811061149257611492612d0d565b90600052602060002090600b020190506114a93390565b60068201546001600160a01b039081169116146115085760405162461bcd60e51b815260206004820152601d60248201527f526166666c653a206f6e6c792063726561746f7220776974686472617700000060448201526064016103e7565b6006810154600160a01b900460ff161561155f5760405162461bcd60e51b8152602060048201526018602482015277149859999b194e881c9859999b19481a5cc818db1bdcd95960421b60448201526064016103e7565b60068101805460ff60a01b1916600160a01b17905560005b60028201548110156116d057600082600001600201828154811061159d5761159d612d0d565b906000526020600020906004020190506000816000015411156116bd57604080516001808252818301909252600091602080830190803683370190505090508160030154816000815181106115f4576115f4612d0d565b602090810291909101015260408051600180825281830190925260009181602001602082028036833701905050905082600001548160008151811061163b5761163b612d0d565b602090810291909101015261012e54600686015460405163c5ad899b60e01b81526001600160a01b039283169263c5ad899b926116849230929091169087908790600401612e4b565b600060405180830381600087803b15801561169e57600080fd5b505af11580156116b2573d6000803e3d6000fd5b505060008555505050505b50806116c881612dcd565b915050611577565b506040518281527fc84cd6a7b86b7633d5947a296e6b8dfd194c415195abcf3bc8cb6d1ae9adf2a9906020015b60405180910390a15050565b600054610100900460ff16158080156117295750600054600160ff909116105b806117435750303b158015611743575060005460ff166001145b6117a65760405162461bcd60e51b815260206004820152602e60248201527f496e697469616c697a61626c653a20636f6e747261637420697320616c72656160448201526d191e481a5b9a5d1a585b1a5e995960921b60648201526084016103e7565b6000805460ff1916600117905580156117c9576000805461ff0019166101001790555b6117d1612465565b6117d961248c565b61012d8054600101815560005261012e80546001600160a01b0319166001600160a01b03841617905561180b32611d88565b8015610553576000805461ff0019169055604051600181527f7f26b83ff96e1f2b6a682f133852f6798a09c465da95921460cefb3847402498906020016116fd565b6000429050600061012d838154811061186857611868612d0d565b60009182526020909120600b909102018054600182015491925010156118d05760405162461bcd60e51b815260206004820152601f60248201527f526166666c653a204e6f7420656e6f756768207469636b65747320736f6c640060448201526064016103e7565b4281600a01541061192f5760405162461bcd60e51b815260206004820152602360248201527f526166666c653a20526166666c652074696d6520686173206e6f7420657870696044820152621c995960ea1b60648201526084016103e7565b6007810154156119915760405162461bcd60e51b815260206004820152602760248201527f526166666c653a2052616e646f6d206e756d62657220616c72656164792067656044820152661b995c985d195960ca1b60648201526084016103e7565b8161012d84815481106119a6576119a6612d0d565b600091825260209091206007600b90920201015560088101805460ff191690556040517f37e68548bed90aa11745696116f838a60b0bba40fc3f77a139aee9e3b828a08e90611a019085908590918252602082015260400190565b60405180910390a1505050565b6040805160018082528183019092526000918291906020808301908036833750506040805160018082528183019092529293506000929150602080830190803683370190505090508682600081518110611a6a57611a6a612d0d565b6020026020010181815250508581600081518110611a8a57611a8a612d0d565b602002602001018181525050611aa4898984848989611057565b6001600160e01b03191663bc197c8160e01b14611b2b576040805162461bcd60e51b81526020600482015260248101919091527f4d656c616e642e4d61726b6574706c616365236f6e455243313135355265636560448201527f697665643a20494e56414c49445f4f4e52454345495645445f4d45535341474560648201526084016103e7565b5063f23a6e6160e01b98975050505050505050565b611b48611d2e565b6001600160a01b038116611bad5760405162461bcd60e51b815260206004820152602660248201527f4f776e61626c653a206e6577206f776e657220697320746865207a65726f206160448201526564647265737360d01b60648201526084016103e7565b61048481611d88565b610484611d2e565b7f4910fdfa16fed3260ed0e7147f7cc6da11a60208b5b9406d12a635614ffd91435460ff1615611bf657611bf1836124bb565b505050565b826001600160a01b03166352d1902d6040518163ffffffff1660e01b8152600401602060405180830381865afa925050508015611c50575060408051601f3d908101601f19168201909252611c4d91810190612f97565b60015b611cb35760405162461bcd60e51b815260206004820152602e60248201527f45524331393637557067726164653a206e657720696d706c656d656e7461746960448201526d6f6e206973206e6f74205555505360901b60648201526084016103e7565b6000805160206131388339815191528114611d225760405162461bcd60e51b815260206004820152602960248201527f45524331393637557067726164653a20756e737570706f727465642070726f786044820152681a58589b195555525160ba1b60648201526084016103e7565b50611bf1838383612557565b6097546001600160a01b03163314610fa55760405162461bcd60e51b815260206004820181905260248201527f4f776e61626c653a2063616c6c6572206973206e6f7420746865206f776e657260448201526064016103e7565b609780546001600160a01b038381166001600160a01b0319831681179093556040519116919082907f8be0079c531659141344cd1fd0a4f28419497f9722a3daafe3b4186f6b6457e090600090a35050565b6000611de64285612dfd565b1015611e5a5760405162461bcd60e51b815260206004820152603a60248201527f526166666c653a205f726166666c6553746172744475726174696f6e206d757360448201527f742062652067726561746572207468616e2031206d696e74657300000000000060648201526084016103e7565b428211611ec85760405162461bcd60e51b815260206004820152603660248201527f526166666c653a205f726166666c65456e644475726174696f6e206d7573742060448201527531329033b932b0ba32b9103a3430b71018903437bab960511b60648201526084016103e7565b600081604001515111611f1d5760405162461bcd60e51b815260206004820152601760248201527f526166666c653a204e6f20726166666c65206974656d7300000000000000000060448201526064016103e7565b61012d546040517f530e8461be62ed386669234e413fd039359190fa677ce08c8259b9d19a3c0f1b90611f5b9083908890889088908c908990613000565b60405180910390a161012d8054600181018255600091909152600b027f193a3ae4da5049eb74cee39e4cf5827f7ce7b1d1d1775ef1c6311eb60558e6df81018490557f193a3ae4da5049eb74cee39e4cf5827f7ce7b1d1d1775ef1c6311eb60558e6de81018590557f193a3ae4da5049eb74cee39e4cf5827f7ce7b1d1d1775ef1c6311eb60558e6db810180546001600160a01b0389166001600160a81b03199091161790556040830151517f193a3ae4da5049eb74cee39e4cf5827f7ce7b1d1d1775ef1c6311eb60558e6d59091019061206c5760405162461bcd60e51b8152602060048201526011602482015270526166666c653a204e6f207072697a657360781b60448201526064016103e7565b825160038201556020830151600182015560005b836040015151811015610e78576000846040015182815181106120a5576120a5612d0d565b602090810291909101810151604080516080810182528183018051825251818501908152838501519282019283529251606082019081526002808901805460018181018355600092835297909120935160049091029093019283559351948201949094559051918101919091559051600390910155508061212581612dcd565b915050612080565b61012d54821061214f5760405162461bcd60e51b81526004016103e790612cd6565b60008160200151116121b25760405162461bcd60e51b815260206004820152602660248201527f526166666c653a205469636b6574207175616e746974792063616e6e6f74206260448201526565207a65726f60d01b60648201526084016103e7565b600061012d83815481106121c8576121c8612d0d565b90600052602060002090600b0201905080600301546000036121fc5760405162461bcd60e51b81526004016103e790612cd6565b4281600901541061224f5760405162461bcd60e51b815260206004820152601c60248201527f526166666c653a20526166666c652074696d65206e6f2073746172740000000060448201526064016103e7565b4281600a0154116122a25760405162461bcd60e51b815260206004820152601f60248201527f526166666c653a20526166666c652074696d652068617320657870697265640060448201526064016103e7565b81516003820154146123045760405162461bcd60e51b815260206004820152602560248201527f526166666c653a20526166666c652061636365707465645469636b65744964206044820152646e6f20657160d81b60648201526084016103e7565b6001600160a01b0384166000908152600482016020526040812054900361235657600581018054600181018255600091825260209091200180546001600160a01b0319166001600160a01b0386161790555b80546040805160608101825260008082526020808301859052860151909282019061238190856130b4565b90526001600160a01b0387166000818152600486016020908152604080832080546001808201835591855293839020865160038602909101805460ff1916911515919091178155868401805192820192909255868301805160029092019190915582518c8152808501969096528a5186840152928a015160608601528551151560808601525160a0850152905160c084015260e0830182905251929350917f938bd9980565eef5bf4916fa29982c6636597399fc7f414e431400f35cb69db991610100908290030190a1602085015161245a90846130b4565b909355505050505050565b600054610100900460ff16610fa55760405162461bcd60e51b81526004016103e7906130c7565b600054610100900460ff166124b35760405162461bcd60e51b81526004016103e7906130c7565b610fa5612582565b6001600160a01b0381163b6125285760405162461bcd60e51b815260206004820152602d60248201527f455243313936373a206e657720696d706c656d656e746174696f6e206973206e60448201526c1bdd08184818dbdb9d1c9858dd609a1b60648201526084016103e7565b60008051602061313883398151915280546001600160a01b0319166001600160a01b0392909216919091179055565b612560836125b2565b60008251118061256d5750805b15611bf15761257c83836125f2565b50505050565b600054610100900460ff166125a95760405162461bcd60e51b81526004016103e7906130c7565b610fa533611d88565b6125bb816124bb565b6040516001600160a01b038216907fbc7cd75a20ee27fd9adebab32041f755214dbc6bffa90cc0225b39da2e5c2d3b90600090a250565b606061261783836040518060600160405280602781526020016131586027913961261e565b9392505050565b6060600080856001600160a01b03168560405161263b9190613112565b600060405180830381855af49150503d8060008114612676576040519150601f19603f3d011682016040523d82523d6000602084013e61267b565b606091505b509150915061268c86838387612696565b9695505050505050565b606083156127055782516000036126fe576001600160a01b0385163b6126fe5760405162461bcd60e51b815260206004820152601d60248201527f416464726573733a2063616c6c20746f206e6f6e2d636f6e747261637400000060448201526064016103e7565b508161270f565b61270f8383612717565b949350505050565b8151156127275781518083602001fd5b8060405162461bcd60e51b81526004016103e79190613124565b60006020828403121561275357600080fd5b81356001600160e01b03198116811461261757600080fd5b80356001600160a01b038116811461278257600080fd5b919050565b60006020828403121561279957600080fd5b6126178261276b565b634e487b7160e01b600052604160045260246000fd5b604051601f8201601f1916810167ffffffffffffffff811182821017156127e1576127e16127a2565b604052919050565b600067ffffffffffffffff831115612803576128036127a2565b612816601f8401601f19166020016127b8565b905082815283838301111561282a57600080fd5b828260208301376000602084830101529392505050565b6000806040838503121561285457600080fd5b61285d8361276b565b9150602083013567ffffffffffffffff81111561287957600080fd5b8301601f8101851361288a57600080fd5b612899858235602084016127e9565b9150509250929050565b600080600080606085870312156128b957600080fd5b843593506128c96020860161276b565b9250604085013567ffffffffffffffff808211156128e657600080fd5b818701915087601f8301126128fa57600080fd5b81358181111561290957600080fd5b8860208260051b850101111561291e57600080fd5b95989497505060200194505050565b60006020828403121561293f57600080fd5b5035919050565b6101008082528951908201526020808a01516101208301526040808b0151606061014085018190528151610160860181905260009493928401929185916101808801905b808410156129c5578551805183528781015188840152858101518684015283015183830152948601946001939093019260809091019061298a565b508588018f90526001600160a01b038e168489015295508b15158782015250505050508560808301526129fc60a083018615159052565b60c082019390935260e001529695505050505050565b6020808252825182820181905260009190848201906040850190845b81811015612a535783516001600160a01b031683529284019291840191600101612a2e565b50909695505050505050565b600082601f830112612a7057600080fd5b8135602067ffffffffffffffff821115612a8c57612a8c6127a2565b8160051b612a9b8282016127b8565b9283528481018201928281019087851115612ab557600080fd5b83870192505b84831015612ad457823582529183019190830190612abb565b979650505050505050565b60008083601f840112612af157600080fd5b50813567ffffffffffffffff811115612b0957600080fd5b602083019150836020828501011115612b2157600080fd5b9250929050565b60008060008060008060a08789031215612b4157600080fd5b612b4a8761276b565b9550612b586020880161276b565b9450604087013567ffffffffffffffff80821115612b7557600080fd5b612b818a838b01612a5f565b95506060890135915080821115612b9757600080fd5b612ba38a838b01612a5f565b94506080890135915080821115612bb957600080fd5b50612bc689828a01612adf565b979a9699509497509295939492505050565b60008060008060008060a08789031215612bf157600080fd5b612bfa8761276b565b9550612c086020880161276b565b94506040870135935060608701359250608087013567ffffffffffffffff811115612c3257600080fd5b612bc689828a01612adf565b6020808252602c908201527f46756e6374696f6e206d7573742062652063616c6c6564207468726f7567682060408201526b19195b1959d85d1958d85b1b60a21b606082015260800190565b6020808252602c908201527f46756e6374696f6e206d7573742062652063616c6c6564207468726f7567682060408201526b6163746976652070726f787960a01b606082015260800190565b6020808252601d908201527f526166666c653a20526166666c6520646f6573206e6f74206578697374000000604082015260600190565b634e487b7160e01b600052603260045260246000fd5b60008235603e19833603018112612d3957600080fd5b9190910192915050565b6000808335601e19843603018112612d5a57600080fd5b83018035915067ffffffffffffffff821115612d7557600080fd5b6020019150600581901b3603821315612b2157600080fd5b634e487b7160e01b600052601260045260246000fd5b600082612db257612db2612d8d565b500690565b634e487b7160e01b600052601160045260246000fd5b600060018201612ddf57612ddf612db7565b5060010190565b808202811582820484141761039957610399612db7565b8181038181111561039957610399612db7565b600081518084526020808501945080840160005b83811015612e4057815187529582019590820190600101612e24565b509495945050505050565b6001600160a01b03858116825284166020820152608060408201819052600090612e7790830185612e10565b8281036060840152612ad48185612e10565b60008085851115612e9957600080fd5b83861115612ea657600080fd5b5050820193919092039150565b6001600160e01b03198135818116916004851015612edb5780818660040360031b1b83161692505b505092915050565b60008060008060008060c08789031215612efc57600080fd5b863567ffffffffffffffff80821115612f1457600080fd5b818901915089601f830112612f2857600080fd5b612f378a8335602085016127e9565b97506020890135965060408901359550606089013594506080890135935060a0890135915080821115612f6957600080fd5b50612f7689828a01612a5f565b9150509295509295509295565b600082612f9257612f92612d8d565b500490565b600060208284031215612fa957600080fd5b5051919050565b60005b83811015612fcb578181015183820152602001612fb3565b50506000910152565b60008151808452612fec816020860160208601612fb0565b601f01601f19169290920160200192915050565b8681526000602060c08184015261301a60c0840189612fd4565b604084810189905260608086018990526001600160a01b03881660808088019190915286840360a08801528751845284880151858501528783015184840183905280518584018190528187019560009301905b808410156130a15786518051835288810151898401528681015187840152968801966001949094019392509084019061306d565b509e9d5050505050505050505050505050565b8082018082111561039957610399612db7565b6020808252602b908201527f496e697469616c697a61626c653a20636f6e7472616374206973206e6f74206960408201526a6e697469616c697a696e6760a81b606082015260800190565b60008251612d39818460208701612fb0565b6020815260006126176020830184612fd456fe360894a13ba1a3210667c828492db98dca3e2076cc3735a920a3ca505d382bbc416464726573733a206c6f772d6c6576656c2064656c65676174652063616c6c206661696c6564a2646970667358221220a71be1d6d56dd544350132c15bb6463dbeea8103cb2bb94080620e5c9aa0bb0b64736f6c63430008120033",
  "devdoc": {
    "events": {
      "AdminChanged(address,address)": {
        "details": "Emitted when the admin account has changed."
      },
      "BeaconUpgraded(address)": {
        "details": "Emitted when the beacon is changed."
      },
      "Initialized(uint8)": {
        "details": "Triggered when the contract has been initialized or reinitialized."
      },
      "Upgraded(address)": {
        "details": "Emitted when the implementation is upgraded."
      }
    },
    "kind": "dev",
    "methods": {
      "onERC1155Received(address,address,uint256,uint256,bytes)": {
        "details": "Will pass to onERC115Batch5Received"
      },
      "owner()": {
        "details": "Returns the address of the current owner."
      },
      "proxiableUUID()": {
        "details": "Implementation of the ERC1822 {proxiableUUID} function. This returns the storage slot used by the implementation. It is used to validate the implementation's compatibility when performing an upgrade. IMPORTANT: A proxy pointing at a proxiable contract should not be considered proxiable itself, because this risks bricking a proxy that upgrades to it, by delegating to itself until out of gas. Thus it is critical that this function revert if invoked through a proxy. This is guaranteed by the `notDelegated` modifier."
      },
      "renounceOwnership()": {
        "details": "Leaves the contract without owner. It will not be possible to call `onlyOwner` functions. Can only be called by the current owner. NOTE: Renouncing ownership will leave the contract without an owner, thereby disabling any functionality that is only available to the owner."
      },
      "supportsInterface(bytes4)": {
        "details": "See {IERC165-supportsInterface}."
      },
      "transferOwnership(address)": {
        "details": "Transfers ownership of the contract to a new account (`newOwner`). Can only be called by the current owner."
      },
      "upgradeTo(address)": {
        "custom:oz-upgrades-unsafe-allow-reachable": "delegatecall",
        "details": "Upgrade the implementation of the proxy to `newImplementation`. Calls {_authorizeUpgrade}. Emits an {Upgraded} event."
      },
      "upgradeToAndCall(address,bytes)": {
        "custom:oz-upgrades-unsafe-allow-reachable": "delegatecall",
        "details": "Upgrade the implementation of the proxy to `newImplementation`, and subsequently execute the function call encoded in `data`. Calls {_authorizeUpgrade}. Emits an {Upgraded} event."
      }
    },
    "version": 1
  },
  "userdoc": {
    "kind": "user",
    "methods": {
      "raffleSupply()": {
        "notice": "Get total number of raffles that exist."
      }
    },
    "version": 1
  },
  "storageLayout": {
    "storage": [
      {
        "astId": 590,
        "contract": "contracts/game/Raffles.sol:Raffles",
        "label": "_initialized",
        "offset": 0,
        "slot": "0",
        "type": "t_uint8"
      },
      {
        "astId": 593,
        "contract": "contracts/game/Raffles.sol:Raffles",
        "label": "_initializing",
        "offset": 1,
        "slot": "0",
        "type": "t_bool"
      },
      {
        "astId": 572,
        "contract": "contracts/game/Raffles.sol:Raffles",
        "label": "__gap",
        "offset": 0,
        "slot": "1",
        "type": "t_array(t_uint256)50_storage"
      },
      {
        "astId": 887,
        "contract": "contracts/game/Raffles.sol:Raffles",
        "label": "__gap",
        "offset": 0,
        "slot": "51",
        "type": "t_array(t_uint256)50_storage"
      },
      {
        "astId": 1812,
        "contract": "contracts/game/Raffles.sol:Raffles",
        "label": "__gap",
        "offset": 0,
        "slot": "101",
        "type": "t_array(t_uint256)50_storage"
      },
      {
        "astId": 10,
        "contract": "contracts/game/Raffles.sol:Raffles",
        "label": "_owner",
        "offset": 0,
        "slot": "151",
        "type": "t_address"
      },
      {
        "astId": 130,
        "contract": "contracts/game/Raffles.sol:Raffles",
        "label": "__gap",
        "offset": 0,
        "slot": "152",
        "type": "t_array(t_uint256)49_storage"
      },
      {
        "astId": 2040,
        "contract": "contracts/game/Raffles.sol:Raffles",
        "label": "__gap",
        "offset": 0,
        "slot": "201",
        "type": "t_array(t_uint256)50_storage"
      },
      {
        "astId": 1246,
        "contract": "contracts/game/Raffles.sol:Raffles",
        "label": "__gap",
        "offset": 0,
        "slot": "251",
        "type": "t_array(t_uint256)50_storage"
      },
      {
        "astId": 27871,
        "contract": "contracts/game/Raffles.sol:Raffles",
        "label": "raffles",
        "offset": 0,
        "slot": "301",
        "type": "t_array(t_struct(Raffle)25835_storage)dyn_storage"
      },
      {
        "astId": 27873,
        "contract": "contracts/game/Raffles.sol:Raffles",
        "label": "gameNFT",
        "offset": 0,
        "slot": "302",
        "type": "t_address"
      }
    ],
    "types": {
      "t_address": {
        "encoding": "inplace",
        "label": "address",
        "numberOfBytes": "20"
      },
      "t_array(t_address)dyn_storage": {
        "base": "t_address",
        "encoding": "dynamic_array",
        "label": "address[]",
        "numberOfBytes": "32"
      },
      "t_array(t_struct(Entry)25842_storage)dyn_storage": {
        "base": "t_struct(Entry)25842_storage",
        "encoding": "dynamic_array",
        "label": "struct Entry[]",
        "numberOfBytes": "32"
      },
      "t_array(t_struct(Raffle)25835_storage)dyn_storage": {
        "base": "t_struct(Raffle)25835_storage",
        "encoding": "dynamic_array",
        "label": "struct Raffle[]",
        "numberOfBytes": "32"
      },
      "t_array(t_struct(RaffleItemPrize)25851_storage)dyn_storage": {
        "base": "t_struct(RaffleItemPrize)25851_storage",
        "encoding": "dynamic_array",
        "label": "struct RaffleItemPrize[]",
        "numberOfBytes": "32"
      },
      "t_array(t_uint256)49_storage": {
        "base": "t_uint256",
        "encoding": "inplace",
        "label": "uint256[49]",
        "numberOfBytes": "1568"
      },
      "t_array(t_uint256)50_storage": {
        "base": "t_uint256",
        "encoding": "inplace",
        "label": "uint256[50]",
        "numberOfBytes": "1600"
      },
      "t_bool": {
        "encoding": "inplace",
        "label": "bool",
        "numberOfBytes": "1"
      },
      "t_mapping(t_address,t_array(t_struct(Entry)25842_storage)dyn_storage)": {
        "encoding": "mapping",
        "key": "t_address",
        "label": "mapping(address => struct Entry[])",
        "numberOfBytes": "32",
        "value": "t_array(t_struct(Entry)25842_storage)dyn_storage"
      },
      "t_struct(Entry)25842_storage": {
        "encoding": "inplace",
        "label": "struct Entry",
        "members": [
          {
            "astId": 25837,
            "contract": "contracts/game/Raffles.sol:Raffles",
            "label": "prizesClaimed",
            "offset": 0,
            "slot": "0",
            "type": "t_bool"
          },
          {
            "astId": 25839,
            "contract": "contracts/game/Raffles.sol:Raffles",
            "label": "rangeStart",
            "offset": 0,
            "slot": "1",
            "type": "t_uint256"
          },
          {
            "astId": 25841,
            "contract": "contracts/game/Raffles.sol:Raffles",
            "label": "rangeEnd",
            "offset": 0,
            "slot": "2",
            "type": "t_uint256"
          }
        ],
        "numberOfBytes": "96"
      },
      "t_struct(Raffle)25835_storage": {
        "encoding": "inplace",
        "label": "struct Raffle",
        "members": [
          {
            "astId": 25811,
            "contract": "contracts/game/Raffles.sol:Raffles",
            "label": "raffleItem",
            "offset": 0,
            "slot": "0",
            "type": "t_struct(RaffleItem)25860_storage"
          },
          {
            "astId": 25813,
            "contract": "contracts/game/Raffles.sol:Raffles",
            "label": "acceptedTicketId",
            "offset": 0,
            "slot": "3",
            "type": "t_uint256"
          },
          {
            "astId": 25819,
            "contract": "contracts/game/Raffles.sol:Raffles",
            "label": "entries",
            "offset": 0,
            "slot": "4",
            "type": "t_mapping(t_address,t_array(t_struct(Entry)25842_storage)dyn_storage)"
          },
          {
            "astId": 25822,
            "contract": "contracts/game/Raffles.sol:Raffles",
            "label": "entrants",
            "offset": 0,
            "slot": "5",
            "type": "t_array(t_address)dyn_storage"
          },
          {
            "astId": 25824,
            "contract": "contracts/game/Raffles.sol:Raffles",
            "label": "creator",
            "offset": 0,
            "slot": "6",
            "type": "t_address"
          },
          {
            "astId": 25826,
            "contract": "contracts/game/Raffles.sol:Raffles",
            "label": "closed",
            "offset": 20,
            "slot": "6",
            "type": "t_bool"
          },
          {
            "astId": 25828,
            "contract": "contracts/game/Raffles.sol:Raffles",
            "label": "randomNumber",
            "offset": 0,
            "slot": "7",
            "type": "t_uint256"
          },
          {
            "astId": 25830,
            "contract": "contracts/game/Raffles.sol:Raffles",
            "label": "randomNumberPending",
            "offset": 0,
            "slot": "8",
            "type": "t_bool"
          },
          {
            "astId": 25832,
            "contract": "contracts/game/Raffles.sol:Raffles",
            "label": "raffleStart",
            "offset": 0,
            "slot": "9",
            "type": "t_uint256"
          },
          {
            "astId": 25834,
            "contract": "contracts/game/Raffles.sol:Raffles",
            "label": "raffleEnd",
            "offset": 0,
            "slot": "10",
            "type": "t_uint256"
          }
        ],
        "numberOfBytes": "352"
      },
      "t_struct(RaffleItem)25860_storage": {
        "encoding": "inplace",
        "label": "struct RaffleItem",
        "members": [
          {
            "astId": 25853,
            "contract": "contracts/game/Raffles.sol:Raffles",
            "label": "totalEntered",
            "offset": 0,
            "slot": "0",
            "type": "t_uint256"
          },
          {
            "astId": 25855,
            "contract": "contracts/game/Raffles.sol:Raffles",
            "label": "minTicket",
            "offset": 0,
            "slot": "1",
            "type": "t_uint256"
          },
          {
            "astId": 25859,
            "contract": "contracts/game/Raffles.sol:Raffles",
            "label": "raffleItemPrizes",
            "offset": 0,
            "slot": "2",
            "type": "t_array(t_struct(RaffleItemPrize)25851_storage)dyn_storage"
          }
        ],
        "numberOfBytes": "96"
      },
      "t_struct(RaffleItemPrize)25851_storage": {
        "encoding": "inplace",
        "label": "struct RaffleItemPrize",
        "members": [
          {
            "astId": 25844,
            "contract": "contracts/game/Raffles.sol:Raffles",
            "label": "prizeQuantityRemaining",
            "offset": 0,
            "slot": "0",
            "type": "t_uint256"
          },
          {
            "astId": 25846,
            "contract": "contracts/game/Raffles.sol:Raffles",
            "label": "prizeQuantity",
            "offset": 0,
            "slot": "1",
            "type": "t_uint256"
          },
          {
            "astId": 25848,
            "contract": "contracts/game/Raffles.sol:Raffles",
            "label": "oneTicketPrizeCount",
            "offset": 0,
            "slot": "2",
            "type": "t_uint256"
          },
          {
            "astId": 25850,
            "contract": "contracts/game/Raffles.sol:Raffles",
            "label": "prizeTokenId",
            "offset": 0,
            "slot": "3",
            "type": "t_uint256"
          }
        ],
        "numberOfBytes": "128"
      },
      "t_uint256": {
        "encoding": "inplace",
        "label": "uint256",
        "numberOfBytes": "32"
      },
      "t_uint8": {
        "encoding": "inplace",
        "label": "uint8",
        "numberOfBytes": "1"
      }
    }
  }
}