{
  "address": "0x658596f396CDd32438ca9b7Ffd0BFA6954A29c77",
  "abi": [
    {
      "anonymous": false,
      "inputs": [
        {
          "indexed": false,
          "internalType": "address",
          "name": "previousAdmin",
          "type": "address"
        },
        {
          "indexed": false,
          "internalType": "address",
          "name": "newAdmin",
          "type": "address"
        }
      ],
      "name": "AdminChanged",
      "type": "event"
    },
    {
      "anonymous": false,
      "inputs": [
        {
          "indexed": true,
          "internalType": "address",
          "name": "beacon",
          "type": "address"
        }
      ],
      "name": "BeaconUpgraded",
      "type": "event"
    },
    {
      "anonymous": false,
      "inputs": [
        {
          "indexed": true,
          "internalType": "address",
          "name": "staker",
          "type": "address"
        },
        {
          "indexed": false,
          "internalType": "uint256",
          "name": "amount",
          "type": "uint256"
        }
      ],
      "name": "Claim",
      "type": "event"
    },
    {
      "anonymous": false,
      "inputs": [
        {
          "indexed": false,
          "internalType": "uint256",
          "name": "amount",
          "type": "uint256"
        }
      ],
      "name": "DepositRewardToken",
      "type": "event"
    },
    {
      "anonymous": false,
      "inputs": [
        {
          "indexed": false,
          "internalType": "uint8",
          "name": "version",
          "type": "uint8"
        }
      ],
      "name": "Initialized",
      "type": "event"
    },
    {
      "anonymous": false,
      "inputs": [
        {
          "indexed": true,
          "internalType": "address",
          "name": "staker",
          "type": "address"
        },
        {
          "indexed": false,
          "internalType": "uint256",
          "name": "amount",
          "type": "uint256"
        }
      ],
      "name": "Lend",
      "type": "event"
    },
    {
      "anonymous": false,
      "inputs": [
        {
          "indexed": true,
          "internalType": "address",
          "name": "previousOwner",
          "type": "address"
        },
        {
          "indexed": true,
          "internalType": "address",
          "name": "newOwner",
          "type": "address"
        }
      ],
      "name": "OwnershipTransferred",
      "type": "event"
    },
    {
      "anonymous": false,
      "inputs": [
        {
          "indexed": true,
          "internalType": "address",
          "name": "staker",
          "type": "address"
        },
        {
          "indexed": false,
          "internalType": "uint256",
          "name": "amount",
          "type": "uint256"
        }
      ],
      "name": "Repay",
      "type": "event"
    },
    {
      "anonymous": false,
      "inputs": [
        {
          "indexed": true,
          "internalType": "address",
          "name": "staker",
          "type": "address"
        },
        {
          "indexed": false,
          "internalType": "uint256",
          "name": "amount",
          "type": "uint256"
        }
      ],
      "name": "Stake",
      "type": "event"
    },
    {
      "anonymous": false,
      "inputs": [
        {
          "indexed": true,
          "internalType": "address",
          "name": "staker",
          "type": "address"
        },
        {
          "indexed": false,
          "internalType": "uint256",
          "name": "amount",
          "type": "uint256"
        }
      ],
      "name": "UnStake",
      "type": "event"
    },
    {
      "anonymous": false,
      "inputs": [
        {
          "indexed": true,
          "internalType": "address",
          "name": "implementation",
          "type": "address"
        }
      ],
      "name": "Upgraded",
      "type": "event"
    },
    {
      "inputs": [],
      "name": "PRECENT_DENOMINATOR",
      "outputs": [
        {
          "internalType": "uint128",
          "name": "",
          "type": "uint128"
        }
      ],
      "stateMutability": "view",
      "type": "function"
    },
    {
      "inputs": [],
      "name": "PRICE_PRECISION",
      "outputs": [
        {
          "internalType": "uint128",
          "name": "",
          "type": "uint128"
        }
      ],
      "stateMutability": "view",
      "type": "function"
    },
    {
      "inputs": [
        {
          "internalType": "uint256",
          "name": "_amount",
          "type": "uint256"
        }
      ],
      "name": "calcLendAmount",
      "outputs": [
        {
          "internalType": "uint256",
          "name": "",
          "type": "uint256"
        }
      ],
      "stateMutability": "view",
      "type": "function"
    },
    {
      "inputs": [
        {
          "internalType": "address",
          "name": "staker",
          "type": "address"
        },
        {
          "internalType": "uint256",
          "name": "unstakeAmount",
          "type": "uint256"
        }
      ],
      "name": "calcUnstakeRepayAmount",
      "outputs": [
        {
          "internalType": "uint256",
          "name": "repayAmount",
          "type": "uint256"
        },
        {
          "internalType": "uint256",
          "name": "fees",
          "type": "uint256"
        }
      ],
      "stateMutability": "view",
      "type": "function"
    },
    {
      "inputs": [],
      "name": "claim",
      "outputs": [
        {
          "internalType": "uint256",
          "name": "",
          "type": "uint256"
        }
      ],
      "stateMutability": "nonpayable",
      "type": "function"
    },
    {
      "inputs": [],
      "name": "config",
      "outputs": [
        {
          "internalType": "contract IConfig",
          "name": "",
          "type": "address"
        }
      ],
      "stateMutability": "view",
      "type": "function"
    },
    {
      "inputs": [
        {
          "internalType": "uint256",
          "name": "amount",
          "type": "uint256"
        }
      ],
      "name": "depositRewardToken",
      "outputs": [],
      "stateMutability": "nonpayable",
      "type": "function"
    },
    {
      "inputs": [],
      "name": "hook",
      "outputs": [
        {
          "internalType": "contract UtilityStakeHook",
          "name": "",
          "type": "address"
        }
      ],
      "stateMutability": "view",
      "type": "function"
    },
    {
      "inputs": [
        {
          "internalType": "contract IConfig",
          "name": "config_",
          "type": "address"
        }
      ],
      "name": "initialize",
      "outputs": [],
      "stateMutability": "nonpayable",
      "type": "function"
    },
    {
      "inputs": [],
      "name": "lendPrice",
      "outputs": [
        {
          "internalType": "uint256",
          "name": "",
          "type": "uint256"
        }
      ],
      "stateMutability": "view",
      "type": "function"
    },
    {
      "inputs": [],
      "name": "owner",
      "outputs": [
        {
          "internalType": "address",
          "name": "",
          "type": "address"
        }
      ],
      "stateMutability": "view",
      "type": "function"
    },
    {
      "inputs": [],
      "name": "periodDuration",
      "outputs": [
        {
          "internalType": "uint256",
          "name": "",
          "type": "uint256"
        }
      ],
      "stateMutability": "view",
      "type": "function"
    },
    {
      "inputs": [],
      "name": "periodFinish",
      "outputs": [
        {
          "internalType": "uint256",
          "name": "",
          "type": "uint256"
        }
      ],
      "stateMutability": "view",
      "type": "function"
    },
    {
      "inputs": [],
      "name": "proxiableUUID",
      "outputs": [
        {
          "internalType": "bytes32",
          "name": "",
          "type": "bytes32"
        }
      ],
      "stateMutability": "view",
      "type": "function"
    },
    {
      "inputs": [],
      "name": "rate",
      "outputs": [
        {
          "internalType": "uint256",
          "name": "",
          "type": "uint256"
        }
      ],
      "stateMutability": "view",
      "type": "function"
    },
    {
      "inputs": [],
      "name": "renounceOwnership",
      "outputs": [],
      "stateMutability": "nonpayable",
      "type": "function"
    },
    {
      "inputs": [
        {
          "internalType": "contract UtilityStakeHook",
          "name": "hook_",
          "type": "address"
        }
      ],
      "name": "setHook",
      "outputs": [],
      "stateMutability": "nonpayable",
      "type": "function"
    },
    {
      "inputs": [
        {
          "internalType": "uint256",
          "name": "amount",
          "type": "uint256"
        }
      ],
      "name": "stake",
      "outputs": [],
      "stateMutability": "nonpayable",
      "type": "function"
    },
    {
      "inputs": [
        {
          "internalType": "address",
          "name": "",
          "type": "address"
        }
      ],
      "name": "stakeInfoByStaker",
      "outputs": [
        {
          "internalType": "uint256",
          "name": "stakedAmount",
          "type": "uint256"
        },
        {
          "internalType": "uint256",
          "name": "loanedAmount",
          "type": "uint256"
        },
        {
          "internalType": "uint256",
          "name": "claimedAmount",
          "type": "uint256"
        },
        {
          "internalType": "uint256",
          "name": "latestClaimedAt",
          "type": "uint256"
        }
      ],
      "stateMutability": "view",
      "type": "function"
    },
    {
      "inputs": [],
      "name": "timeoutClaimPeriod",
      "outputs": [
        {
          "internalType": "uint256",
          "name": "",
          "type": "uint256"
        }
      ],
      "stateMutability": "view",
      "type": "function"
    },
    {
      "inputs": [],
      "name": "totalStakeAmount",
      "outputs": [
        {
          "internalType": "uint256",
          "name": "",
          "type": "uint256"
        }
      ],
      "stateMutability": "view",
      "type": "function"
    },
    {
      "inputs": [
        {
          "internalType": "address",
          "name": "newOwner",
          "type": "address"
        }
      ],
      "name": "transferOwnership",
      "outputs": [],
      "stateMutability": "nonpayable",
      "type": "function"
    },
    {
      "inputs": [
        {
          "internalType": "uint256",
          "name": "unstakeAmount",
          "type": "uint256"
        }
      ],
      "name": "unstake",
      "outputs": [],
      "stateMutability": "nonpayable",
      "type": "function"
    },
    {
      "inputs": [],
      "name": "unstakeFee",
      "outputs": [
        {
          "internalType": "uint256",
          "name": "",
          "type": "uint256"
        }
      ],
      "stateMutability": "view",
      "type": "function"
    },
    {
      "inputs": [
        {
          "internalType": "address",
          "name": "newImplementation",
          "type": "address"
        }
      ],
      "name": "upgradeTo",
      "outputs": [],
      "stateMutability": "nonpayable",
      "type": "function"
    },
    {
      "inputs": [
        {
          "internalType": "address",
          "name": "newImplementation",
          "type": "address"
        },
        {
          "internalType": "bytes",
          "name": "data",
          "type": "bytes"
        }
      ],
      "name": "upgradeToAndCall",
      "outputs": [],
      "stateMutability": "payable",
      "type": "function"
    },
    {
      "inputs": [
        {
          "internalType": "address",
          "name": "staker",
          "type": "address"
        }
      ],
      "name": "userInfo",
      "outputs": [
        {
          "internalType": "uint256",
          "name": "stakedAmount",
          "type": "uint256"
        },
        {
          "internalType": "uint256",
          "name": "loanedAmount",
          "type": "uint256"
        },
        {
          "internalType": "uint256",
          "name": "canLendAmount",
          "type": "uint256"
        },
        {
          "internalType": "uint256",
          "name": "canClaimAmount",
          "type": "uint256"
        }
      ],
      "stateMutability": "view",
      "type": "function"
    },
    {
      "inputs": [],
      "name": "withdrawFees",
      "outputs": [],
      "stateMutability": "nonpayable",
      "type": "function"
    }
  ],
  "transactionHash": "0xf8c8ac1b2622ae087bcbab112a75d0c7623aaacc777945c289128ef4e42ee9d7",
  "args": [],
  "numDeployments": 1,
  "solcInputHash": "4f1f45ca5fe8f6515b42ba0264732978",
  "bytecode": "0x60a06040523060805234801561001457600080fd5b5060805161280561004c600039600081816108a2015281816108e201528181610d0701528181610d470152610dd601526128056000f3fe6080604052600436106101b75760003560e01c80638772359c116100ec578063b470aade1161008a578063c4d66de811610064578063c4d66de8146104df578063d2ad4ccc146104ff578063ebe2b12b14610515578063f2fde38b1461052b57600080fd5b8063b470aade14610494578063bc7b0557146104aa578063c089bd74146104bf57600080fd5b806394409a56116100c657806394409a561461041157806395082d25146104275780639cc182a41461045b578063a694fc3a1461047457600080fd5b80638772359c146103a85780638da5cb5b146103dd5780638ea97d26146103fb57600080fd5b8063476343ee1161015957806352d1902d1161013357806352d1902d14610326578063715018a61461033b57806379502c55146103505780637f5a7c7b1461038857600080fd5b8063476343ee146102e95780634e71d92d146102fe5780634f1ef2861461031357600080fd5b80632e17de78116101955780632e17de78146102675780633659cfe61461028957806336ea2b95146102a95780633dfd3873146102c957600080fd5b806302267cad146101bc5780631959a002146102235780632c4e722e14610243575b600080fd5b3480156101c857600080fd5b506101fe6101d73660046123f7565b60cf6020526000908152604090208054600182015460028301546003909301549192909184565b6040805194855260208501939093529183015260608201526080015b60405180910390f35b34801561022f57600080fd5b506101fe61023e3660046123f7565b61054b565b34801561024f57600080fd5b5061025960ca5481565b60405190815260200161021a565b34801561027357600080fd5b50610287610282366004612414565b6105b8565b005b34801561029557600080fd5b506102876102a43660046123f7565b610898565b3480156102b557600080fd5b506102596102c4366004612414565b610977565b3480156102d557600080fd5b506102876102e43660046123f7565b610add565b3480156102f557600080fd5b50610287610b07565b34801561030a57600080fd5b50610259610cd8565b610287610321366004612443565b610cfd565b34801561033257600080fd5b50610259610dc9565b34801561034757600080fd5b50610287610e7c565b34801561035c57600080fd5b5060c954610370906001600160a01b031681565b6040516001600160a01b03909116815260200161021a565b34801561039457600080fd5b5060d154610370906001600160a01b031681565b3480156103b457600080fd5b506103c86103c3366004612507565b610e90565b6040805192835260208301919091520161021a565b3480156103e957600080fd5b506033546001600160a01b0316610370565b34801561040757600080fd5b5061025960ce5481565b34801561041d57600080fd5b5061025960d05481565b34801561043357600080fd5b50610443670de0b6b3a764000081565b6040516001600160801b03909116815260200161021a565b34801561046757600080fd5b506104436402540be40081565b34801561048057600080fd5b5061028761048f366004612414565b610f28565b3480156104a057600080fd5b5061025960cd5481565b3480156104b657600080fd5b50610259611212565b3480156104cb57600080fd5b506102876104da366004612414565b611347565b3480156104eb57600080fd5b506102876104fa3660046123f7565b6114d8565b34801561050b57600080fd5b5061025960cc5481565b34801561052157600080fd5b5061025960cb5481565b34801561053757600080fd5b506102876105463660046123f7565b611624565b6001600160a01b038116600090815260cf60209081526040808320815160808101835281548082526001830154948201859052600283015493820193909352600390910154606082015290929081906105a38661169a565b92506105ae8661187f565b9150509193509193565b33600081815260cf602052604090206105d2828285611988565b6105dc8282611b4b565b50828160000160008282546105f19190612549565b925050819055508260d0600082825461060a9190612549565b909155505060c954604080516262667960e01b815290516000926001600160a01b031691626266799160048083019260209291908290030181865afa158015610657573d6000803e3d6000fd5b505050506040513d601f19601f8201168201806040525081019061067b919061255c565b60405163a9059cbb60e01b81526001600160a01b038581166004830152602482018790529192509082169063a9059cbb906044016020604051808303816000875af11580156106ce573d6000803e3d6000fd5b505050506040513d601f19601f820116820180604052508101906106f29190612579565b5060d0546040516370a0823160e01b81523060048201526001600160a01b038316906370a0823190602401602060405180830381865afa15801561073a573d6000803e3d6000fd5b505050506040513d601f19601f8201168201806040525081019061075e919061259b565b10156107d75760405162461bcd60e51b815260206004820152603d60248201527f5574696c6974795374616b653a2062616c616e63654f66203c20746f74616c5360448201527f74616b65416d6f756e742b746f74616c556e7374616b65416d6f756e7400000060648201526084015b60405180910390fd5b60d1546001600160a01b03161561084f5760d1546040516306eb0ddf60e31b81526001600160a01b03858116600483015260248201879052909116906337586ef890604401600060405180830381600087803b15801561083657600080fd5b505af115801561084a573d6000803e3d6000fd5b505050505b826001600160a01b03167fb24546d975e2628748efc9aced80665e0fad66272033e5c0ea25fd3afac997958560405161088a91815260200190565b60405180910390a250505050565b6001600160a01b037f00000000000000000000000000000000000000000000000000000000000000001630036108e05760405162461bcd60e51b81526004016107ce906125b4565b7f00000000000000000000000000000000000000000000000000000000000000006001600160a01b0316610929600080516020612789833981519152546001600160a01b031690565b6001600160a01b03161461094f5760405162461bcd60e51b81526004016107ce90612600565b61095881611cb2565b6040805160008082526020820190925261097491839190611cba565b50565b60008060c960009054906101000a90046001600160a01b03166001600160a01b0316639b6b02bc6040518163ffffffff1660e01b8152600401602060405180830381865afa1580156109cd573d6000803e3d6000fd5b505050506040513d601f19601f820116820180604052508101906109f1919061255c565b90506000816001600160a01b031663daeea5ba6040518163ffffffff1660e01b8152600401602060405180830381865afa158015610a33573d6000803e3d6000fd5b505050506040513d601f19601f82011682018060405250810190610a57919061255c565b90506000816001600160a01b0316639363c8126040518163ffffffff1660e01b8152600401602060405180830381865afa158015610a99573d6000803e3d6000fd5b505050506040513d601f19601f82011682018060405250810190610abd919061259b565b9050610ad48582670de0b6b3a76400006002611e2a565b95945050505050565b610ae5611e7b565b60d180546001600160a01b0319166001600160a01b0392909216919091179055565b60c95460408051631c7f7d8f60e31b815290516000926001600160a01b03169163e3fbec789160048083019260209291908290030181865afa158015610b51573d6000803e3d6000fd5b505050506040513d601f19601f82011682018060405250810190610b75919061255c565b9050806001600160a01b031663a9059cbb60c960009054906101000a90046001600160a01b03166001600160a01b031663ea9c5e0d6040518163ffffffff1660e01b8152600401602060405180830381865afa158015610bd9573d6000803e3d6000fd5b505050506040513d601f19601f82011682018060405250810190610bfd919061255c565b6040516370a0823160e01b81523060048201526001600160a01b038516906370a0823190602401602060405180830381865afa158015610c41573d6000803e3d6000fd5b505050506040513d601f19601f82011682018060405250810190610c65919061259b565b6040516001600160e01b031960e085901b1681526001600160a01b03909216600483015260248201526044016020604051808303816000875af1158015610cb0573d6000803e3d6000fd5b505050506040513d601f19601f82011682018060405250810190610cd49190612579565b5050565b33600081815260cf6020526040812090919082610cf58383611b4b565b949350505050565b6001600160a01b037f0000000000000000000000000000000000000000000000000000000000000000163003610d455760405162461bcd60e51b81526004016107ce906125b4565b7f00000000000000000000000000000000000000000000000000000000000000006001600160a01b0316610d8e600080516020612789833981519152546001600160a01b031690565b6001600160a01b031614610db45760405162461bcd60e51b81526004016107ce90612600565b610dbd82611cb2565b610cd482826001611cba565b6000306001600160a01b037f00000000000000000000000000000000000000000000000000000000000000001614610e695760405162461bcd60e51b815260206004820152603860248201527f555550535570677261646561626c653a206d757374206e6f742062652063616c60448201527f6c6564207468726f7567682064656c656761746563616c6c000000000000000060648201526084016107ce565b5060008051602061278983398151915290565b610e84611e7b565b610e8e6000611ed5565b565b6001600160a01b038216600090815260cf602090815260408083208151608081018352815481526001820154938101849052600282015492810192909252600301546060820152829115610f2057610f00610ef682602001518684600001516001611e2a565b8260200151611f27565b9250610f1d8360ce546402540be4006001600160801b0316611f3f565b91505b509250929050565b60c954604080516262667960e01b815290516000926001600160a01b031691626266799160048083019260209291908290030181865afa158015610f70573d6000803e3d6000fd5b505050506040513d601f19601f82011682018060405250810190610f94919061255c565b6040516323b872dd60e01b81523360048201819052306024830152604482018590529192506001600160a01b038316906323b872dd906064016020604051808303816000875af1158015610fec573d6000803e3d6000fd5b505050506040513d601f19601f820116820180604052508101906110109190612579565b506001600160a01b038116600090815260cf602052604090206110338282611b4b565b5083816000016000828254611048919061264c565b925050819055508360d06000828254611061919061264c565b90915550600090506110728361169a565b90508015611084576110848382611fed565b60d0546040516370a0823160e01b81523060048201526001600160a01b038616906370a0823190602401602060405180830381865afa1580156110cb573d6000803e3d6000fd5b505050506040513d601f19601f820116820180604052508101906110ef919061259b565b10156111505760405162461bcd60e51b815260206004820152602a60248201527f5574696c6974795374616b653a2062616c616e63654f66203c20746f74616c536044820152691d185ad9505b5bdd5b9d60b21b60648201526084016107ce565b60d1546001600160a01b0316156111c85760d15460405163ddc83fd160e01b81526001600160a01b038581166004830152602482018890529091169063ddc83fd190604401600060405180830381600087803b1580156111af57600080fd5b505af11580156111c3573d6000803e3d6000fd5b505050505b826001600160a01b03167febedb8b3c678666e7f36970bc8f57abf6d8fa2e828c0da91ea5b75bf68ed101a8660405161120391815260200190565b60405180910390a25050505050565b60c954604080516326dac0af60e21b815290516000926001600160a01b031691639b6b02bc9160048083019260209291908290030181865afa15801561125c573d6000803e3d6000fd5b505050506040513d601f19601f82011682018060405250810190611280919061255c565b6001600160a01b031663daeea5ba6040518163ffffffff1660e01b8152600401602060405180830381865afa1580156112bd573d6000803e3d6000fd5b505050506040513d601f19601f820116820180604052508101906112e1919061255c565b6001600160a01b0316639363c8126040518163ffffffff1660e01b8152600401602060405180830381865afa15801561131e573d6000803e3d6000fd5b505050506040513d601f19601f82011682018060405250810190611342919061259b565b905090565b60c954604080516318b65c4560e11b815290516000926001600160a01b03169163316cb88a9160048083019260209291908290030181865afa158015611391573d6000803e3d6000fd5b505050506040513d601f19601f820116820180604052508101906113b5919061255c565b6040516323b872dd60e01b8152336004820152306024820152604481018490529091506001600160a01b038216906323b872dd906064016020604051808303816000875af115801561140b573d6000803e3d6000fd5b505050506040513d601f19601f8201168201806040525081019061142f9190612579565b5060cb54421061144e5760cd546114469083612675565b60ca55611490565b60004260cb5461145e9190612549565b9050600060ca54826114709190612689565b60cd54909150611480828661264c565b61148a9190612675565b60ca5550505b60cd5461149d904261264c565b60cb556040518281527fe619301f0901e4a00d3162e32da1fe10865c5af10c99c45e134f72939166ab8f906020015b60405180910390a15050565b600054610100900460ff16158080156114f85750600054600160ff909116105b806115125750303b158015611512575060005460ff166001145b6115755760405162461bcd60e51b815260206004820152602e60248201527f496e697469616c697a61626c653a20636f6e747261637420697320616c72656160448201526d191e481a5b9a5d1a585b1a5e995960921b60648201526084016107ce565b6000805460ff191660011790558015611598576000805461ff0019166101001790555b6115a061212e565b6115a861215d565b6115b132611ed5565b60c980546001600160a01b0319166001600160a01b0384161790556311e1a30060ce5562093a8060cd556202a30060cc558015610cd4576000805461ff0019169055604051600181527f7f26b83ff96e1f2b6a682f133852f6798a09c465da95921460cefb3847402498906020016114cc565b61162c611e7b565b6001600160a01b0381166116915760405162461bcd60e51b815260206004820152602660248201527f4f776e61626c653a206e6577206f776e657220697320746865207a65726f206160448201526564647265737360d01b60648201526084016107ce565b61097481611ed5565b6001600160a01b038116600090815260cf60209081526040808320815160808101835281548082526001830154948201949094526002820154928101929092526003015460608201529082036116f35750600092915050565b60c954604080516326dac0af60e21b815290516000926001600160a01b031691639b6b02bc9160048083019260209291908290030181865afa15801561173d573d6000803e3d6000fd5b505050506040513d601f19601f82011682018060405250810190611761919061255c565b90506000816001600160a01b031663daeea5ba6040518163ffffffff1660e01b8152600401602060405180830381865afa1580156117a3573d6000803e3d6000fd5b505050506040513d601f19601f820116820180604052508101906117c7919061255c565b90506000816001600160a01b0316639363c8126040518163ffffffff1660e01b8152600401602060405180830381865afa158015611809573d6000803e3d6000fd5b505050506040513d601f19601f8201168201806040525081019061182d919061259b565b845190915060009061184a9083670de0b6b3a76400006002611e2a565b90508460200151811015611865575060009695505050505050565b60208501516118749082612549565b979650505050505050565b6001600160a01b038116600090815260cf60209081526040808320815160808101835281548082526001830154948201949094526002820154928101929092526003015460608201529082036118d85750600092915050565b80606001516000036118ed5750600092915050565b42816060015111156119025750600092915050565b60d0546000036119155750600092915050565b60ca546000036119285750600092915050565b600081606001514261193a9190612549565b9050600060cc548261194c91906126a0565b905060cc54820361195c575060cc545b600061197e8285600001516119719190612689565b60ca5460d0546002611e2a565b9695505050505050565b6000806119958584610e90565b91509150818460010160008282546119ad9190612549565b909155505060c95460408051631c7f7d8f60e31b815290516000926001600160a01b03169163e3fbec789160048083019260209291908290030181865afa1580156119fc573d6000803e3d6000fd5b505050506040513d601f19601f82011682018060405250810190611a20919061255c565b60405163079cc67960e41b81526001600160a01b03888116600483015260248201869052919250908216906379cc679090604401600060405180830381600087803b158015611a6e57600080fd5b505af1158015611a82573d6000803e3d6000fd5b50506040516323b872dd60e01b81526001600160a01b03898116600483015230602483015260448201869052841692506323b872dd91506064016020604051808303816000875af1158015611adb573d6000803e3d6000fd5b505050506040513d601f19601f82011682018060405250810190611aff9190612579565b50856001600160a01b03167f5c16de4f8b59bd9caf0f49a545f25819a895ed223294290b408242e72a59423184604051611b3b91815260200190565b60405180910390a2505050505050565b600080611b578461187f565b42600385015590508015611c665760c954604080516318b65c4560e11b815290516000926001600160a01b03169163316cb88a9160048083019260209291908290030181865afa158015611baf573d6000803e3d6000fd5b505050506040513d601f19601f82011682018060405250810190611bd3919061255c565b60405163a9059cbb60e01b81526001600160a01b038781166004830152602482018590529192509082169063a9059cbb906044016020604051808303816000875af1158015611c26573d6000803e3d6000fd5b505050506040513d601f19601f82011682018060405250810190611c4a9190612579565b5081846002016000828254611c5f919061264c565b9091555050505b836001600160a01b03167f47cee97cb7acd717b3c0aa1435d004cd5b3c8c57d70dbceb4e4458bbd60e39d482604051611ca191815260200190565b60405180910390a290505b92915050565b610974611e7b565b7f4910fdfa16fed3260ed0e7147f7cc6da11a60208b5b9406d12a635614ffd91435460ff1615611cf257611ced83612184565b505050565b826001600160a01b03166352d1902d6040518163ffffffff1660e01b8152600401602060405180830381865afa925050508015611d4c575060408051601f3d908101601f19168201909252611d499181019061259b565b60015b611daf5760405162461bcd60e51b815260206004820152602e60248201527f45524331393637557067726164653a206e657720696d706c656d656e7461746960448201526d6f6e206973206e6f74205555505360901b60648201526084016107ce565b6000805160206127898339815191528114611e1e5760405162461bcd60e51b815260206004820152602960248201527f45524331393637557067726164653a20756e737570706f727465642070726f786044820152681a58589b195555525160ba1b60648201526084016107ce565b50611ced838383612220565b600080611e38868686611f3f565b90506001836002811115611e4e57611e4e6126b4565b148015611e6b575060008480611e6657611e6661265f565b868809115b15610ad45761197e60018261264c565b6033546001600160a01b03163314610e8e5760405162461bcd60e51b815260206004820181905260248201527f4f776e61626c653a2063616c6c6572206973206e6f7420746865206f776e657260448201526064016107ce565b603380546001600160a01b038381166001600160a01b0319831681179093556040519116919082907f8be0079c531659141344cd1fd0a4f28419497f9722a3daafe3b4186f6b6457e090600090a35050565b6000818310611f365781611f38565b825b9392505050565b6000808060001985870985870292508281108382030391505080600003611f7957838281611f6f57611f6f61265f565b0492505050611f38565b808411611f8557600080fd5b600084868809600260036001881981018916988990049182028318808302840302808302840302808302840302808302840302808302840302918202909203026000889003889004909101858311909403939093029303949094049190911702949350505050565b6001600160a01b038216600090815260cf602052604081206001810180549192849261201a90849061264c565b909155505060c95460408051631c7f7d8f60e31b815290516000926001600160a01b03169163e3fbec789160048083019260209291908290030181865afa158015612069573d6000803e3d6000fd5b505050506040513d601f19601f8201168201806040525081019061208d919061255c565b6040516340c10f1960e01b81526001600160a01b03868116600483015260248201869052919250908216906340c10f1990604401600060405180830381600087803b1580156120db57600080fd5b505af11580156120ef573d6000803e3d6000fd5b50505050836001600160a01b03167f41b123d2493c7b2067b8b7f49cf71532523d83ead11494d793531ece1fd4d0468460405161088a91815260200190565b600054610100900460ff166121555760405162461bcd60e51b81526004016107ce906126ca565b610e8e61224b565b600054610100900460ff16610e8e5760405162461bcd60e51b81526004016107ce906126ca565b6001600160a01b0381163b6121f15760405162461bcd60e51b815260206004820152602d60248201527f455243313936373a206e657720696d706c656d656e746174696f6e206973206e60448201526c1bdd08184818dbdb9d1c9858dd609a1b60648201526084016107ce565b60008051602061278983398151915280546001600160a01b0319166001600160a01b0392909216919091179055565b6122298361227b565b6000825111806122365750805b15611ced5761224583836122bb565b50505050565b600054610100900460ff166122725760405162461bcd60e51b81526004016107ce906126ca565b610e8e33611ed5565b61228481612184565b6040516001600160a01b038216907fbc7cd75a20ee27fd9adebab32041f755214dbc6bffa90cc0225b39da2e5c2d3b90600090a250565b6060611f3883836040518060600160405280602781526020016127a9602791396060600080856001600160a01b0316856040516122f89190612739565b600060405180830381855af49150503d8060008114612333576040519150601f19603f3d011682016040523d82523d6000602084013e612338565b606091505b509150915061197e86838387606083156123b35782516000036123ac576001600160a01b0385163b6123ac5760405162461bcd60e51b815260206004820152601d60248201527f416464726573733a2063616c6c20746f206e6f6e2d636f6e747261637400000060448201526064016107ce565b5081610cf5565b610cf583838151156123c85781518083602001fd5b8060405162461bcd60e51b81526004016107ce9190612755565b6001600160a01b038116811461097457600080fd5b60006020828403121561240957600080fd5b8135611f38816123e2565b60006020828403121561242657600080fd5b5035919050565b634e487b7160e01b600052604160045260246000fd5b6000806040838503121561245657600080fd5b8235612461816123e2565b9150602083013567ffffffffffffffff8082111561247e57600080fd5b818501915085601f83011261249257600080fd5b8135818111156124a4576124a461242d565b604051601f8201601f19908116603f011681019083821181831017156124cc576124cc61242d565b816040528281528860208487010111156124e557600080fd5b8260208601602083013760006020848301015280955050505050509250929050565b6000806040838503121561251a57600080fd5b8235612525816123e2565b946020939093013593505050565b634e487b7160e01b600052601160045260246000fd5b81810381811115611cac57611cac612533565b60006020828403121561256e57600080fd5b8151611f38816123e2565b60006020828403121561258b57600080fd5b81518015158114611f3857600080fd5b6000602082840312156125ad57600080fd5b5051919050565b6020808252602c908201527f46756e6374696f6e206d7573742062652063616c6c6564207468726f7567682060408201526b19195b1959d85d1958d85b1b60a21b606082015260800190565b6020808252602c908201527f46756e6374696f6e206d7573742062652063616c6c6564207468726f7567682060408201526b6163746976652070726f787960a01b606082015260800190565b80820180821115611cac57611cac612533565b634e487b7160e01b600052601260045260246000fd5b6000826126845761268461265f565b500490565b8082028115828204841417611cac57611cac612533565b6000826126af576126af61265f565b500690565b634e487b7160e01b600052602160045260246000fd5b6020808252602b908201527f496e697469616c697a61626c653a20636f6e7472616374206973206e6f74206960408201526a6e697469616c697a696e6760a81b606082015260800190565b60005b83811015612730578181015183820152602001612718565b50506000910152565b6000825161274b818460208701612715565b9190910192915050565b6020815260008251806020840152612774816040850160208701612715565b601f01601f1916919091016040019291505056fe360894a13ba1a3210667c828492db98dca3e2076cc3735a920a3ca505d382bbc416464726573733a206c6f772d6c6576656c2064656c65676174652063616c6c206661696c6564a264697066735822122085ac4a9f19c60c625d2391ff40c8c4805880ee52c23ba33c259ffcc662580fad64736f6c63430008120033",
  "devdoc": {
    "events": {
      "AdminChanged(address,address)": {
        "details": "Emitted when the admin account has changed."
      },
      "BeaconUpgraded(address)": {
        "details": "Emitted when the beacon is changed."
      },
      "Initialized(uint8)": {
        "details": "Triggered when the contract has been initialized or reinitialized."
      },
      "Upgraded(address)": {
        "details": "Emitted when the implementation is upgraded."
      }
    },
    "kind": "dev",
    "methods": {
      "owner()": {
        "details": "Returns the address of the current owner."
      },
      "proxiableUUID()": {
        "details": "Implementation of the ERC1822 {proxiableUUID} function. This returns the storage slot used by the implementation. It is used to validate the implementation's compatibility when performing an upgrade. IMPORTANT: A proxy pointing at a proxiable contract should not be considered proxiable itself, because this risks bricking a proxy that upgrades to it, by delegating to itself until out of gas. Thus it is critical that this function revert if invoked through a proxy. This is guaranteed by the `notDelegated` modifier."
      },
      "renounceOwnership()": {
        "details": "Leaves the contract without owner. It will not be possible to call `onlyOwner` functions. Can only be called by the current owner. NOTE: Renouncing ownership will leave the contract without an owner, thereby disabling any functionality that is only available to the owner."
      },
      "transferOwnership(address)": {
        "details": "Transfers ownership of the contract to a new account (`newOwner`). Can only be called by the current owner."
      },
      "upgradeTo(address)": {
        "custom:oz-upgrades-unsafe-allow-reachable": "delegatecall",
        "details": "Upgrade the implementation of the proxy to `newImplementation`. Calls {_authorizeUpgrade}. Emits an {Upgraded} event."
      },
      "upgradeToAndCall(address,bytes)": {
        "custom:oz-upgrades-unsafe-allow-reachable": "delegatecall",
        "details": "Upgrade the implementation of the proxy to `newImplementation`, and subsequently execute the function call encoded in `data`. Calls {_authorizeUpgrade}. Emits an {Upgraded} event."
      }
    },
    "version": 1
  },
  "userdoc": {
    "kind": "user",
    "methods": {},
    "version": 1
  },
  "storageLayout": {
    "storage": [
      {
        "astId": 590,
        "contract": "contracts/UtilityStake.sol:UtilityStake",
        "label": "_initialized",
        "offset": 0,
        "slot": "0",
        "type": "t_uint8"
      },
      {
        "astId": 593,
        "contract": "contracts/UtilityStake.sol:UtilityStake",
        "label": "_initializing",
        "offset": 1,
        "slot": "0",
        "type": "t_bool"
      },
      {
        "astId": 1812,
        "contract": "contracts/UtilityStake.sol:UtilityStake",
        "label": "__gap",
        "offset": 0,
        "slot": "1",
        "type": "t_array(t_uint256)50_storage"
      },
      {
        "astId": 10,
        "contract": "contracts/UtilityStake.sol:UtilityStake",
        "label": "_owner",
        "offset": 0,
        "slot": "51",
        "type": "t_address"
      },
      {
        "astId": 130,
        "contract": "contracts/UtilityStake.sol:UtilityStake",
        "label": "__gap",
        "offset": 0,
        "slot": "52",
        "type": "t_array(t_uint256)49_storage"
      },
      {
        "astId": 572,
        "contract": "contracts/UtilityStake.sol:UtilityStake",
        "label": "__gap",
        "offset": 0,
        "slot": "101",
        "type": "t_array(t_uint256)50_storage"
      },
      {
        "astId": 887,
        "contract": "contracts/UtilityStake.sol:UtilityStake",
        "label": "__gap",
        "offset": 0,
        "slot": "151",
        "type": "t_array(t_uint256)50_storage"
      },
      {
        "astId": 17280,
        "contract": "contracts/UtilityStake.sol:UtilityStake",
        "label": "config",
        "offset": 0,
        "slot": "201",
        "type": "t_contract(IConfig)20550"
      },
      {
        "astId": 17282,
        "contract": "contracts/UtilityStake.sol:UtilityStake",
        "label": "rate",
        "offset": 0,
        "slot": "202",
        "type": "t_uint256"
      },
      {
        "astId": 17284,
        "contract": "contracts/UtilityStake.sol:UtilityStake",
        "label": "periodFinish",
        "offset": 0,
        "slot": "203",
        "type": "t_uint256"
      },
      {
        "astId": 17286,
        "contract": "contracts/UtilityStake.sol:UtilityStake",
        "label": "timeoutClaimPeriod",
        "offset": 0,
        "slot": "204",
        "type": "t_uint256"
      },
      {
        "astId": 17288,
        "contract": "contracts/UtilityStake.sol:UtilityStake",
        "label": "periodDuration",
        "offset": 0,
        "slot": "205",
        "type": "t_uint256"
      },
      {
        "astId": 17290,
        "contract": "contracts/UtilityStake.sol:UtilityStake",
        "label": "unstakeFee",
        "offset": 0,
        "slot": "206",
        "type": "t_uint256"
      },
      {
        "astId": 17304,
        "contract": "contracts/UtilityStake.sol:UtilityStake",
        "label": "stakeInfoByStaker",
        "offset": 0,
        "slot": "207",
        "type": "t_mapping(t_address,t_struct(StakeInfo)17299_storage)"
      },
      {
        "astId": 17306,
        "contract": "contracts/UtilityStake.sol:UtilityStake",
        "label": "totalStakeAmount",
        "offset": 0,
        "slot": "208",
        "type": "t_uint256"
      },
      {
        "astId": 17309,
        "contract": "contracts/UtilityStake.sol:UtilityStake",
        "label": "hook",
        "offset": 0,
        "slot": "209",
        "type": "t_contract(UtilityStakeHook)18208"
      }
    ],
    "types": {
      "t_address": {
        "encoding": "inplace",
        "label": "address",
        "numberOfBytes": "20"
      },
      "t_array(t_uint256)49_storage": {
        "base": "t_uint256",
        "encoding": "inplace",
        "label": "uint256[49]",
        "numberOfBytes": "1568"
      },
      "t_array(t_uint256)50_storage": {
        "base": "t_uint256",
        "encoding": "inplace",
        "label": "uint256[50]",
        "numberOfBytes": "1600"
      },
      "t_bool": {
        "encoding": "inplace",
        "label": "bool",
        "numberOfBytes": "1"
      },
      "t_contract(IConfig)20550": {
        "encoding": "inplace",
        "label": "contract IConfig",
        "numberOfBytes": "20"
      },
      "t_contract(UtilityStakeHook)18208": {
        "encoding": "inplace",
        "label": "contract UtilityStakeHook",
        "numberOfBytes": "20"
      },
      "t_mapping(t_address,t_struct(StakeInfo)17299_storage)": {
        "encoding": "mapping",
        "key": "t_address",
        "label": "mapping(address => struct UtilityStake.StakeInfo)",
        "numberOfBytes": "32",
        "value": "t_struct(StakeInfo)17299_storage"
      },
      "t_struct(StakeInfo)17299_storage": {
        "encoding": "inplace",
        "label": "struct UtilityStake.StakeInfo",
        "members": [
          {
            "astId": 17292,
            "contract": "contracts/UtilityStake.sol:UtilityStake",
            "label": "stakedAmount",
            "offset": 0,
            "slot": "0",
            "type": "t_uint256"
          },
          {
            "astId": 17294,
            "contract": "contracts/UtilityStake.sol:UtilityStake",
            "label": "loanedAmount",
            "offset": 0,
            "slot": "1",
            "type": "t_uint256"
          },
          {
            "astId": 17296,
            "contract": "contracts/UtilityStake.sol:UtilityStake",
            "label": "claimedAmount",
            "offset": 0,
            "slot": "2",
            "type": "t_uint256"
          },
          {
            "astId": 17298,
            "contract": "contracts/UtilityStake.sol:UtilityStake",
            "label": "latestClaimedAt",
            "offset": 0,
            "slot": "3",
            "type": "t_uint256"
          }
        ],
        "numberOfBytes": "128"
      },
      "t_uint256": {
        "encoding": "inplace",
        "label": "uint256",
        "numberOfBytes": "32"
      },
      "t_uint8": {
        "encoding": "inplace",
        "label": "uint8",
        "numberOfBytes": "1"
      }
    }
  }
}