{
  "address": "0x03398C5D024073dEB9E80a308e4225b4517A8D3B",
  "abi": [
    {
      "inputs": [],
      "stateMutability": "nonpayable",
      "type": "constructor"
    },
    {
      "anonymous": false,
      "inputs": [
        {
          "indexed": false,
          "internalType": "address",
          "name": "previousAdmin",
          "type": "address"
        },
        {
          "indexed": false,
          "internalType": "address",
          "name": "newAdmin",
          "type": "address"
        }
      ],
      "name": "AdminChanged",
      "type": "event"
    },
    {
      "anonymous": false,
      "inputs": [
        {
          "indexed": true,
          "internalType": "address",
          "name": "beacon",
          "type": "address"
        }
      ],
      "name": "BeaconUpgraded",
      "type": "event"
    },
    {
      "anonymous": false,
      "inputs": [
        {
          "indexed": true,
          "internalType": "address",
          "name": "seller",
          "type": "address"
        },
        {
          "indexed": false,
          "internalType": "uint256",
          "name": "tokenAmount",
          "type": "uint256"
        },
        {
          "indexed": false,
          "internalType": "uint256",
          "name": "payAmount",
          "type": "uint256"
        },
        {
          "indexed": false,
          "internalType": "uint256",
          "name": "fees",
          "type": "uint256"
        }
      ],
      "name": "Burn",
      "type": "event"
    },
    {
      "anonymous": false,
      "inputs": [
        {
          "indexed": false,
          "internalType": "uint8",
          "name": "version",
          "type": "uint8"
        }
      ],
      "name": "Initialized",
      "type": "event"
    },
    {
      "anonymous": false,
      "inputs": [
        {
          "indexed": true,
          "internalType": "address",
          "name": "buyer",
          "type": "address"
        },
        {
          "indexed": false,
          "internalType": "uint256",
          "name": "tokenAmount",
          "type": "uint256"
        },
        {
          "indexed": false,
          "internalType": "uint256",
          "name": "payAmount",
          "type": "uint256"
        },
        {
          "indexed": false,
          "internalType": "uint256",
          "name": "fees",
          "type": "uint256"
        }
      ],
      "name": "Mint",
      "type": "event"
    },
    {
      "anonymous": false,
      "inputs": [
        {
          "indexed": true,
          "internalType": "address",
          "name": "previousOwner",
          "type": "address"
        },
        {
          "indexed": true,
          "internalType": "address",
          "name": "newOwner",
          "type": "address"
        }
      ],
      "name": "OwnershipTransferred",
      "type": "event"
    },
    {
      "anonymous": false,
      "inputs": [
        {
          "indexed": false,
          "internalType": "uint256",
          "name": "t",
          "type": "uint256"
        },
        {
          "indexed": false,
          "internalType": "uint256",
          "name": "x",
          "type": "uint256"
        }
      ],
      "name": "UpdateMFR",
      "type": "event"
    },
    {
      "anonymous": false,
      "inputs": [
        {
          "indexed": false,
          "internalType": "uint256",
          "name": "newMarketPrice",
          "type": "uint256"
        }
      ],
      "name": "UpdateMarketPrice",
      "type": "event"
    },
    {
      "anonymous": false,
      "inputs": [
        {
          "indexed": true,
          "internalType": "address",
          "name": "implementation",
          "type": "address"
        }
      ],
      "name": "Upgraded",
      "type": "event"
    },
    {
      "inputs": [],
      "name": "PRECENT_DENOMINATOR",
      "outputs": [
        {
          "internalType": "uint128",
          "name": "",
          "type": "uint128"
        }
      ],
      "stateMutability": "view",
      "type": "function"
    },
    {
      "inputs": [],
      "name": "PRICE_PRECISION",
      "outputs": [
        {
          "internalType": "uint128",
          "name": "",
          "type": "uint128"
        }
      ],
      "stateMutability": "view",
      "type": "function"
    },
    {
      "inputs": [
        {
          "internalType": "address",
          "name": "tokenAddress",
          "type": "address"
        }
      ],
      "name": "balanceOf",
      "outputs": [
        {
          "internalType": "uint256",
          "name": "",
          "type": "uint256"
        }
      ],
      "stateMutability": "view",
      "type": "function"
    },
    {
      "inputs": [
        {
          "internalType": "uint256",
          "name": "_borrowAmount",
          "type": "uint256"
        }
      ],
      "name": "borrow",
      "outputs": [],
      "stateMutability": "nonpayable",
      "type": "function"
    },
    {
      "inputs": [
        {
          "internalType": "uint256",
          "name": "brunAmount",
          "type": "uint256"
        },
        {
          "internalType": "address",
          "name": "receiveTokenAddress",
          "type": "address"
        },
        {
          "internalType": "uint256",
          "name": "minReceiveAmount",
          "type": "uint256"
        }
      ],
      "name": "burn",
      "outputs": [],
      "stateMutability": "nonpayable",
      "type": "function"
    },
    {
      "inputs": [
        {
          "internalType": "uint256",
          "name": "brunAmount",
          "type": "uint256"
        },
        {
          "internalType": "address",
          "name": "receiveTokenAddress",
          "type": "address"
        },
        {
          "internalType": "uint256",
          "name": "minReceiveAmount",
          "type": "uint256"
        },
        {
          "internalType": "address",
          "name": "recipient",
          "type": "address"
        }
      ],
      "name": "burn",
      "outputs": [],
      "stateMutability": "nonpayable",
      "type": "function"
    },
    {
      "inputs": [],
      "name": "canBorrowAmount",
      "outputs": [
        {
          "internalType": "uint256",
          "name": "",
          "type": "uint256"
        }
      ],
      "stateMutability": "view",
      "type": "function"
    },
    {
      "inputs": [],
      "name": "getLiquidity",
      "outputs": [
        {
          "internalType": "uint256",
          "name": "total",
          "type": "uint256"
        },
        {
          "internalType": "uint256",
          "name": "floorPriceSupport",
          "type": "uint256"
        },
        {
          "internalType": "uint256",
          "name": "marketSupport",
          "type": "uint256"
        },
        {
          "internalType": "uint256",
          "name": "mfr",
          "type": "uint256"
        }
      ],
      "stateMutability": "view",
      "type": "function"
    },
    {
      "inputs": [],
      "name": "getPriceField",
      "outputs": [
        {
          "internalType": "contract PriceField",
          "name": "",
          "type": "address"
        }
      ],
      "stateMutability": "view",
      "type": "function"
    },
    {
      "inputs": [
        {
          "internalType": "contract IConfig",
          "name": "config_",
          "type": "address"
        },
        {
          "internalType": "contract PriceField",
          "name": "priceField_",
          "type": "address"
        },
        {
          "internalType": "uint256",
          "name": "t_",
          "type": "uint256"
        },
        {
          "internalType": "uint256",
          "name": "x_",
          "type": "uint256"
        }
      ],
      "name": "initialize",
      "outputs": [],
      "stateMutability": "nonpayable",
      "type": "function"
    },
    {
      "inputs": [
        {
          "internalType": "address",
          "name": "payTokenAddress",
          "type": "address"
        },
        {
          "internalType": "uint256",
          "name": "mintAmount",
          "type": "uint256"
        },
        {
          "internalType": "uint256",
          "name": "maxPayAmount",
          "type": "uint256"
        }
      ],
      "name": "mint",
      "outputs": [],
      "stateMutability": "nonpayable",
      "type": "function"
    },
    {
      "inputs": [
        {
          "internalType": "address",
          "name": "payToken",
          "type": "address"
        },
        {
          "internalType": "uint256",
          "name": "mintAmount",
          "type": "uint256"
        },
        {
          "internalType": "uint256",
          "name": "maxPayAmount",
          "type": "uint256"
        },
        {
          "internalType": "address",
          "name": "recipient",
          "type": "address"
        }
      ],
      "name": "mint",
      "outputs": [],
      "stateMutability": "nonpayable",
      "type": "function"
    },
    {
      "inputs": [
        {
          "internalType": "address",
          "name": "payTokenAddress",
          "type": "address"
        },
        {
          "internalType": "uint256",
          "name": "mintAmount",
          "type": "uint256"
        },
        {
          "internalType": "uint256",
          "name": "maxPayAmount",
          "type": "uint256"
        },
        {
          "internalType": "address",
          "name": "recipient",
          "type": "address"
        }
      ],
      "name": "mintByPRToken",
      "outputs": [],
      "stateMutability": "nonpayable",
      "type": "function"
    },
    {
      "inputs": [
        {
          "internalType": "address",
          "name": "payTokenAddress",
          "type": "address"
        },
        {
          "internalType": "uint256",
          "name": "mintAmount",
          "type": "uint256"
        },
        {
          "internalType": "uint256",
          "name": "maxPayAmount",
          "type": "uint256"
        }
      ],
      "name": "mintByPRToken",
      "outputs": [],
      "stateMutability": "nonpayable",
      "type": "function"
    },
    {
      "inputs": [],
      "name": "owner",
      "outputs": [
        {
          "internalType": "address",
          "name": "",
          "type": "address"
        }
      ],
      "stateMutability": "view",
      "type": "function"
    },
    {
      "inputs": [],
      "name": "proxiableUUID",
      "outputs": [
        {
          "internalType": "bytes32",
          "name": "",
          "type": "bytes32"
        }
      ],
      "stateMutability": "view",
      "type": "function"
    },
    {
      "inputs": [],
      "name": "renounceOwnership",
      "outputs": [],
      "stateMutability": "nonpayable",
      "type": "function"
    },
    {
      "inputs": [
        {
          "internalType": "uint256",
          "name": "_repayAmount",
          "type": "uint256"
        }
      ],
      "name": "repay",
      "outputs": [],
      "stateMutability": "nonpayable",
      "type": "function"
    },
    {
      "inputs": [
        {
          "internalType": "contract PriceField",
          "name": "priceField_",
          "type": "address"
        }
      ],
      "name": "setPriceField",
      "outputs": [],
      "stateMutability": "nonpayable",
      "type": "function"
    },
    {
      "inputs": [],
      "name": "tForMFR",
      "outputs": [
        {
          "internalType": "uint256",
          "name": "",
          "type": "uint256"
        }
      ],
      "stateMutability": "view",
      "type": "function"
    },
    {
      "inputs": [],
      "name": "totalBorrowAmount",
      "outputs": [
        {
          "internalType": "uint256",
          "name": "",
          "type": "uint256"
        }
      ],
      "stateMutability": "view",
      "type": "function"
    },
    {
      "inputs": [],
      "name": "totalFees",
      "outputs": [
        {
          "internalType": "uint256",
          "name": "",
          "type": "uint256"
        }
      ],
      "stateMutability": "view",
      "type": "function"
    },
    {
      "inputs": [
        {
          "internalType": "address",
          "name": "newOwner",
          "type": "address"
        }
      ],
      "name": "transferOwnership",
      "outputs": [],
      "stateMutability": "nonpayable",
      "type": "function"
    },
    {
      "inputs": [
        {
          "internalType": "uint256",
          "name": "t_",
          "type": "uint256"
        },
        {
          "internalType": "uint256",
          "name": "x_",
          "type": "uint256"
        }
      ],
      "name": "updateMFR",
      "outputs": [],
      "stateMutability": "nonpayable",
      "type": "function"
    },
    {
      "inputs": [
        {
          "internalType": "address",
          "name": "newImplementation",
          "type": "address"
        }
      ],
      "name": "upgradeTo",
      "outputs": [],
      "stateMutability": "nonpayable",
      "type": "function"
    },
    {
      "inputs": [
        {
          "internalType": "address",
          "name": "newImplementation",
          "type": "address"
        },
        {
          "internalType": "bytes",
          "name": "data",
          "type": "bytes"
        }
      ],
      "name": "upgradeToAndCall",
      "outputs": [],
      "stateMutability": "payable",
      "type": "function"
    },
    {
      "inputs": [],
      "name": "withdrawFees",
      "outputs": [],
      "stateMutability": "nonpayable",
      "type": "function"
    },
    {
      "inputs": [],
      "name": "xForMFR",
      "outputs": [
        {
          "internalType": "uint256",
          "name": "",
          "type": "uint256"
        }
      ],
      "stateMutability": "view",
      "type": "function"
    }
  ],
  "transactionHash": "0x7cd1c50b03794523079a4b12c61a4ca260e3d4c7457c321490e2fb21888b2fd8",
  "args": [],
  "numDeployments": 1,
  "solcInputHash": "4f1f45ca5fe8f6515b42ba0264732978",
  "bytecode": "0x60a060405230608052600060cf5534801561001957600080fd5b50608051613fee610051600039600081816108400152818161088001528181610e4801528181610e880152610f270152613fee6000f3fe6080604052600436106101b75760003560e01c806370a08231116100ec578063bf7be2101161008a578063eb990c5911610064578063eb990c59146104ac578063f2fde38b146104cc578063f74bfe8e146104ec578063f9d4ff0f1461050c57600080fd5b8063bf7be2101461044e578063c5ebeaec1461046e578063daeea5ba1461048e57600080fd5b806395082d25116100c657806395082d25146103c15780639cc182a4146103f55780639eea5f661461040e578063a56290af1461042e57600080fd5b806370a082311461035a578063715018a61461037a5780638da5cb5b1461038f57600080fd5b8063371fd8e6116101595780634f1ef286116101335780634f1ef286146102fd5780635213890c1461031057806352d1902d146103305780635ea032af1461034557600080fd5b8063371fd8e6146102b25780634550079d146102d2578063476343ee146102e857600080fd5b80631930594511610195578063193059451461023c5780631a1c20f11461025c5780631c198e501461027c5780633659cfe61461029257600080fd5b80630910a510146101bc57806313114a9d146101f6578063156e29f61461021a575b600080fd5b3480156101c857600080fd5b506101d1610522565b6040805194855260208501939093529183015260608201526080015b60405180910390f35b34801561020257600080fd5b5061020c60cb5481565b6040519081526020016101ed565b34801561022657600080fd5b5061023a6102353660046137e6565b6106ee565b005b34801561024857600080fd5b5061023a61025736600461381b565b6106ff565b34801561026857600080fd5b5061023a61027736600461383d565b610824565b34801561028857600080fd5b5061020c60cd5481565b34801561029e57600080fd5b5061023a6102ad366004613887565b610836565b3480156102be57600080fd5b5061023a6102cd3660046138a4565b610915565b3480156102de57600080fd5b5061020c60cf5481565b3480156102f457600080fd5b5061023a610b54565b61023a61030b366004613904565b610e3e565b34801561031c57600080fd5b5061023a61032b3660046137e6565b610f0e565b34801561033c57600080fd5b5061020c610f1a565b34801561035157600080fd5b5061020c610fcd565b34801561036657600080fd5b5061020c610375366004613887565b6110c8565b34801561038657600080fd5b5061023a611254565b34801561039b57600080fd5b506033546001600160a01b03165b6040516001600160a01b0390911681526020016101ed565b3480156103cd57600080fd5b506103dd670de0b6b3a764000081565b6040516001600160801b0390911681526020016101ed565b34801561040157600080fd5b506103dd6402540be40081565b34801561041a57600080fd5b5061023a6104293660046139ac565b611268565b34801561043a57600080fd5b5061023a610449366004613887565b611274565b34801561045a57600080fd5b5061023a6104693660046139e4565b61129e565b34801561047a57600080fd5b5061023a6104893660046138a4565b6112aa565b34801561049a57600080fd5b5060cc546001600160a01b03166103a9565b3480156104b857600080fd5b5061023a6104c7366004613a23565b61146f565b3480156104d857600080fd5b5061023a6104e7366004613887565b6115cf565b3480156104f857600080fd5b5061023a61050736600461383d565b611645565b34801561051857600080fd5b5061020c60ce5481565b60008060008060ca54600003610543575060009250829150819050806106e8565b60ca549350600060cc60009054906101000a90046001600160a01b03166001600160a01b0316639363c8126040518163ffffffff1660e01b8152600401602060405180830381865afa15801561059d573d6000803e3d6000fd5b505050506040513d601f19601f820116820180604052508101906105c19190613a69565b9050600060c960009054906101000a90046001600160a01b03166001600160a01b0316626266796040518163ffffffff1660e01b8152600401602060405180830381865afa158015610617573d6000803e3d6000fd5b505050506040513d601f19601f8201168201806040525081019061063b9190613a82565b6001600160a01b03166318160ddd6040518163ffffffff1660e01b8152600401602060405180830381865afa158015610678573d6000803e3d6000fd5b505050506040513d601f19601f8201168201806040525081019061069c9190613a69565b9050670de0b6b3a76400006106b18284613ab5565b6106bb9190613ae2565b94506106c78587613b04565b9350856106d96402540be40086613ab5565b6106e39190613ae2565b925050505b90919293565b6106fa8383833361164d565b505050565b60c954604051631f8e5f9160e01b81523360048201526000916001600160a01b031690631f8e5f9190602401602060405180830381865afa158015610748573d6000803e3d6000fd5b505050506040513d601f19601f8201168201806040525081019061076c9190613b2c565b90506107806033546001600160a01b031690565b6001600160a01b0316336001600160a01b0316148061079c5750805b6107dc5760405162461bcd60e51b815260206004820152600c60248201526b30b1b1b2b9b99032b93937b960a11b60448201526064015b60405180910390fd5b60cd83905560ce82905560408051848152602081018490527f41c7e89c6d755d5204c5c6cc7da6d84fa4d7af1aa421896dd94398f2a333e892910160405180910390a1505050565b61083084848484611c13565b50505050565b6001600160a01b037f000000000000000000000000000000000000000000000000000000000000000016300361087e5760405162461bcd60e51b81526004016107d390613b47565b7f00000000000000000000000000000000000000000000000000000000000000006001600160a01b03166108c7600080516020613f72833981519152546001600160a01b031690565b6001600160a01b0316146108ed5760405162461bcd60e51b81526004016107d390613b93565b6108f681612172565b604080516000808252602082019092526109129183919061217a565b50565b60c954604080516319bf6c9d60e11b815290516000926001600160a01b03169163337ed93a9160048083019260209291908290030181865afa15801561095f573d6000803e3d6000fd5b505050506040513d601f19601f820116820180604052508101906109839190613a82565b9050336001600160a01b038216146109d35760405162461bcd60e51b81526020600482015260136024820152726f6e6c79206c69717564697479207374616b6560681b60448201526064016107d3565b60c95460408051631d4d6a6560e31b815290516000926001600160a01b03169163ea6b53289160048083019260209291908290030181865afa158015610a1d573d6000803e3d6000fd5b505050506040513d601f19601f82011682018060405250810190610a419190613a82565b60405163c661065760e01b8152600160048201529091506000906001600160a01b0383169063c661065790602401602060405180830381865afa158015610a8c573d6000803e3d6000fd5b505050506040513d601f19601f82011682018060405250810190610ab09190613a82565b6040516323b872dd60e01b81523360048201523060248201526044810186905290915081906001600160a01b038216906323b872dd906064016020604051808303816000875af1158015610b08573d6000803e3d6000fd5b505050506040513d601f19601f82011682018060405250810190610b2c9190613b2c565b50610b36826122e5565b8460cf6000828254610b489190613b04565b90915550505050505050565b610b5c6124d3565b60c95460408051633886564160e21b815290516000926001600160a01b03169163e219590491600480830192869291908290030181865afa158015610ba5573d6000803e3d6000fd5b505050506040513d6000823e601f3d908101601f19168201604052610bcd9190810190613bdf565b9050600060cb54600003610bdf575050565b60005b8251811015610cce576000610c0f848381518110610c0257610c02613c91565b60200260200101516110c8565b90506000610cab82670de0b6b3a7640000878681518110610c3257610c32613c91565b60200260200101516001600160a01b031663313ce5676040518163ffffffff1660e01b8152600401602060405180830381865afa158015610c77573d6000803e3d6000fd5b505050506040513d601f19601f82011682018060405250810190610c9b9190613ca7565b610ca690600a613dae565b6128ff565b9050610cb78185613dbd565b935050508080610cc690613dd0565b915050610be2565b5060005b8251811015610e34576000838281518110610cef57610cef613c91565b602002602001015190506000610d10858481518110610c0257610c02613c91565b90506000610d5f82670de0b6b3a7640000856001600160a01b031663313ce5676040518163ffffffff1660e01b8152600401602060405180830381865afa158015610c77573d6000803e3d6000fd5b90506000610d7b610d738360cb54896128ff565b8560006129b4565b90508015610e1d57610e1d878681518110610d9857610d98613c91565b602002602001015160c960009054906101000a90046001600160a01b03166001600160a01b031663ea9c5e0d6040518163ffffffff1660e01b8152600401602060405180830381865afa158015610df3573d6000803e3d6000fd5b505050506040513d601f19601f82011682018060405250810190610e179190613a82565b83612a43565b505050508080610e2c90613dd0565b915050610cd2565b5050600060cb5550565b6001600160a01b037f0000000000000000000000000000000000000000000000000000000000000000163003610e865760405162461bcd60e51b81526004016107d390613b47565b7f00000000000000000000000000000000000000000000000000000000000000006001600160a01b0316610ecf600080516020613f72833981519152546001600160a01b031690565b6001600160a01b031614610ef55760405162461bcd60e51b81526004016107d390613b93565b610efe82612172565b610f0a8282600161217a565b5050565b6106fa83838333611c13565b6000306001600160a01b037f00000000000000000000000000000000000000000000000000000000000000001614610fba5760405162461bcd60e51b815260206004820152603860248201527f555550535570677261646561626c653a206d757374206e6f742062652063616c60448201527f6c6564207468726f7567682064656c656761746563616c6c000000000000000060648201526084016107d3565b50600080516020613f7283398151915290565b60008060c960009054906101000a90046001600160a01b03166001600160a01b031663ea6b53286040518163ffffffff1660e01b8152600401602060405180830381865afa158015611023573d6000803e3d6000fd5b505050506040513d601f19601f820116820180604052508101906110479190613a82565b60405163c661065760e01b8152600160048201529091506000906001600160a01b0383169063c661065790602401602060405180830381865afa158015611092573d6000803e3d6000fd5b505050506040513d601f19601f820116820180604052508101906110b69190613a82565b90506110c1816110c8565b9250505090565b60c9546040516328fd151f60e01b81526001600160a01b03808416600483015260009284928492909116906328fd151f9060240160a060405180830381865afa158015611119573d6000803e3d6000fd5b505050506040513d601f19601f8201168201806040525081019061113d9190613de9565b6040516370a0823160e01b81523060048201529091506000906001600160a01b038416906370a0823190602401602060405180830381865afa158015611187573d6000803e3d6000fd5b505050506040513d601f19601f820116820180604052508101906111ab9190613a69565b60608301519091506001600160a01b0316158015906111cc57508160800151155b1561124c5760608201516040516370a0823160e01b81523060048201526001600160a01b03909116906370a0823190602401602060405180830381865afa15801561121b573d6000803e3d6000fd5b505050506040513d601f19601f8201168201806040525081019061123f9190613a69565b6112499082613dbd565b90505b949350505050565b61125c612c6f565b6112666000612cc9565b565b6106fa83838333612d1b565b61127c612c6f565b60cc80546001600160a01b0319166001600160a01b0392909216919091179055565b61083084848484612d1b565b60c954604080516319bf6c9d60e11b815290516000926001600160a01b03169163337ed93a9160048083019260209291908290030181865afa1580156112f4573d6000803e3d6000fd5b505050506040513d601f19601f820116820180604052508101906113189190613a82565b9050336001600160a01b038216146113685760405162461bcd60e51b81526020600482015260136024820152726f6e6c79206c69717564697479207374616b6560681b60448201526064016107d3565b60c95460408051631d4d6a6560e31b815290516000926001600160a01b03169163ea6b53289160048083019260209291908290030181865afa1580156113b2573d6000803e3d6000fd5b505050506040513d601f19601f820116820180604052508101906113d69190613a82565b60405163c661065760e01b8152600160048201529091506000906001600160a01b0383169063c661065790602401602060405180830381865afa158015611421573d6000803e3d6000fd5b505050506040513d601f19601f820116820180604052508101906114459190613a82565b9050611452818486612a43565b8360cf60008282546114649190613dbd565b909155505050505050565b600054610100900460ff161580801561148f5750600054600160ff909116105b806114a95750303b1580156114a9575060005460ff166001145b61150c5760405162461bcd60e51b815260206004820152602e60248201527f496e697469616c697a61626c653a20636f6e747261637420697320616c72656160448201526d191e481a5b9a5d1a585b1a5e995960921b60648201526084016107d3565b6000805460ff19166001179055801561152f576000805461ff0019166101001790555b6115376132f4565b61153f613323565b61154832612cc9565b60c980546001600160a01b038088166001600160a01b03199283161790925560cc80549287169290911691909117905560cd83905560ce82905580156115c8576000805461ff0019169055604051600181527f7f26b83ff96e1f2b6a682f133852f6798a09c465da95921460cefb38474024989060200160405180910390a15b5050505050565b6115d7612c6f565b6001600160a01b03811661163c5760405162461bcd60e51b815260206004820152602660248201527f4f776e61626c653a206e6577206f776e657220697320746865207a65726f206160448201526564647265737360d01b60648201526084016107d3565b61091281612cc9565b610830848484845b60c954604080516262667960e01b8152905186926000926001600160a01b039091169162626679916004808201926020929091908290030181865afa15801561169a573d6000803e3d6000fd5b505050506040513d601f19601f820116820180604052508101906116be9190613a82565b60c9546040516328fd151f60e01b81526001600160a01b0385811660048301529293509116906328fd151f9060240160a060405180830381865afa15801561170a573d6000803e3d6000fd5b505050506040513d601f19601f8201168201806040525081019061172e9190613de9565b516117655760405162461bcd60e51b8152602060048201526007602482015266056414d4d3a6d360cc1b60448201526064016107d3565b60c960009054906101000a90046001600160a01b03166001600160a01b031663abc505056040518163ffffffff1660e01b8152600401602060405180830381865afa1580156117b8573d6000803e3d6000fd5b505050506040513d601f19601f820116820180604052508101906117dc9190613a69565b84106118145760405162461bcd60e51b815260206004820152600760248201526656414d4d3a6d3160c81b60448201526064016107d3565b60cc5460405163023536c560e21b81526004810187905260009182916001600160a01b03909116906308d4db14906024016040805180830381865afa158015611861573d6000803e3d6000fd5b505050506040513d601f19601f820116820180604052508101906118859190613e79565b91509150858211156118c35760405162461bcd60e51b81526020600482015260076024820152662b20a6a69d369960c91b60448201526064016107d3565b6118cd8287613b04565b8111156119065760405162461bcd60e51b815260206004820152600760248201526656414d4d3a6d3560c81b60448201526064016107d3565b6119108287613b04565b90506000611920878660016129b4565b604051636eb1769f60e11b815233600482015230602482015290915081906001600160a01b0387169063dd62ed3e90604401602060405180830381865afa15801561196f573d6000803e3d6000fd5b505050506040513d601f19601f820116820180604052508101906119939190613a69565b10156119cb5760405162461bcd60e51b815260206004820152600760248201526656414d4d3a6d3360c81b60448201526064016107d3565b6040516323b872dd60e01b8152336004820152306024820152604481018290526001600160a01b038616906323b872dd906064016020604051808303816000875af1158015611a1e573d6000803e3d6000fd5b505050506040513d601f19601f82011682018060405250810190611a429190613b2c565b611a785760405162461bcd60e51b8152602060048201526007602482015266159053534e9b4d60ca1b60448201526064016107d3565b611a818261334a565b8260ca6000828254611a939190613dbd565b90915550506040516340c10f1960e01b81526001600160a01b038781166004830152602482018a90528516906340c10f1990604401600060405180830381600087803b158015611ae257600080fd5b505af1158015611af6573d6000803e3d6000fd5b50505050611b03896122e5565b611b0b613364565b60408051898152602081018590529081018390526001600160a01b038716907fb4c03061fb5b7fed76389d5af8f2e0ddb09f8c70d1333abbb62582835e10accb9060600160405180910390a260cc5460405163023536c560e21b8152670de0b6b3a764000060048201526000916001600160a01b0316906308d4db14906024016040805180830381865afa158015611ba7573d6000803e3d6000fd5b505050506040513d601f19601f82011682018060405250810190611bcb9190613e79565b5090507ff288b44ce3328a0b51d009bc60c1d10e49010de34f9e3aec6a9db60b2d5b974481604051611bff91815260200190565b60405180910390a150505050505050505050565b60c954604080516262667960e01b8152905186926000926001600160a01b039091169162626679916004808201926020929091908290030181865afa158015611c60573d6000803e3d6000fd5b505050506040513d601f19601f82011682018060405250810190611c849190613a82565b9050600060c960009054906101000a90046001600160a01b03166001600160a01b031663316cb88a6040518163ffffffff1660e01b8152600401602060405180830381865afa158015611cdb573d6000803e3d6000fd5b505050506040513d601f19601f82011682018060405250810190611cff9190613a82565b6040516370a0823160e01b815233600482015290915086906001600160a01b038316906370a0823190602401602060405180830381865afa158015611d48573d6000803e3d6000fd5b505050506040513d601f19601f82011682018060405250810190611d6c9190613a69565b1015611da55760405162461bcd60e51b8152602060048201526008602482015267056414d4d3a6d70360c41b60448201526064016107d3565b604051636eb1769f60e11b815233600482015230602482015286906001600160a01b0383169063dd62ed3e90604401602060405180830381865afa158015611df1573d6000803e3d6000fd5b505050506040513d601f19601f82011682018060405250810190611e159190613a69565b1015611e4e5760405162461bcd60e51b815260206004820152600860248201526756414d4d3a6d703160c01b60448201526064016107d3565b60cc546040516323220da560e01b81526004810188905260009182916001600160a01b03909116906323220da5906024016040805180830381865afa158015611e9b573d6000803e3d6000fd5b505050506040513d601f19601f82011682018060405250810190611ebf9190613e79565b909250905086611ecf8284613dbd565b1115611f085760405162461bcd60e51b81526020600482015260086024820152672b20a6a69d36b81960c11b60448201526064016107d3565b611f128288613b04565b90506000611f22888760016129b4565b60cc5460405163e49b5f3360e01b8152600481018c90529192506001600160a01b03169063e49b5f3390602401600060405180830381600087803b158015611f6957600080fd5b505af1158015611f7d573d6000803e3d6000fd5b50506040516323b872dd60e01b8152336004820152306024820152604481018490526001600160a01b03891692506323b872dd91506064016020604051808303816000875af1158015611fd4573d6000803e3d6000fd5b505050506040513d601f19601f82011682018060405250810190611ff89190613b2c565b61202f5760405162461bcd60e51b815260206004820152600860248201526756414d4d3a6d703360c01b60448201526064016107d3565b60405163079cc67960e41b8152336004820152602481018a90526001600160a01b038516906379cc679090604401600060405180830381600087803b15801561207757600080fd5b505af115801561208b573d6000803e3d6000fd5b505050506120988261334a565b8260ca60008282546120aa9190613dbd565b90915550506040516340c10f1960e01b81526001600160a01b038881166004830152602482018b90528616906340c10f1990604401600060405180830381600087803b1580156120f957600080fd5b505af115801561210d573d6000803e3d6000fd5b5050505061211a8a6122e5565b604080518a8152602081018590529081018390526001600160a01b038816907fb4c03061fb5b7fed76389d5af8f2e0ddb09f8c70d1333abbb62582835e10accb9060600160405180910390a250505050505050505050565b610912612c6f565b7f4910fdfa16fed3260ed0e7147f7cc6da11a60208b5b9406d12a635614ffd91435460ff16156121ad576106fa83613510565b826001600160a01b03166352d1902d6040518163ffffffff1660e01b8152600401602060405180830381865afa925050508015612207575060408051601f3d908101601f1916820190925261220491810190613a69565b60015b61226a5760405162461bcd60e51b815260206004820152602e60248201527f45524331393637557067726164653a206e657720696d706c656d656e7461746960448201526d6f6e206973206e6f74205555505360901b60648201526084016107d3565b600080516020613f7283398151915281146122d95760405162461bcd60e51b815260206004820152602960248201527f45524331393637557067726164653a20756e737570706f727465642070726f786044820152681a58589b195555525160ba1b60648201526084016107d3565b506106fa8383836135ac565b60c9546040516328fd151f60e01b81526001600160a01b03808416600483015283926000929116906328fd151f9060240160a060405180830381865afa158015612333573d6000803e3d6000fd5b505050506040513d601f19601f820116820180604052508101906123579190613de9565b60608101519091506001600160a01b031661237157505050565b80608001511561238057505050565b6040516370a0823160e01b81523060048201526000906001600160a01b038416906370a0823190602401602060405180830381865afa1580156123c7573d6000803e3d6000fd5b505050506040513d601f19601f820116820180604052508101906123eb9190613a69565b9050801561083057606082015160405163095ea7b360e01b81526001600160a01b039182166004820152602481018390529084169063095ea7b3906044016020604051808303816000875af1158015612448573d6000803e3d6000fd5b505050506040513d601f19601f8201168201806040525081019061246c9190613b2c565b50606082015160405163b6b55f2560e01b8152600481018390526001600160a01b039091169063b6b55f2590602401600060405180830381600087803b1580156124b557600080fd5b505af11580156124c9573d6000803e3d6000fd5b5050505050505050565b60c95460408051633886564160e21b815290516000926001600160a01b03169163e219590491600480830192869291908290030181865afa15801561251c573d6000803e3d6000fd5b505050506040513d6000823e601f3d908101601f191682016040526125449190810190613bdf565b905060005b81518110156127875760c95482516000916001600160a01b0316906328fd151f9085908590811061257c5761257c613c91565b60200260200101516040518263ffffffff1660e01b81526004016125af91906001600160a01b0391909116815260200190565b60a060405180830381865afa1580156125cc573d6000803e3d6000fd5b505050506040513d601f19601f820116820180604052508101906125f09190613de9565b60608101519091506001600160a01b031661260b5750612775565b80606001516001600160a01b0316639faceb1b3060c960009054906101000a90046001600160a01b03166001600160a01b031663ea9c5e0d6040518163ffffffff1660e01b8152600401602060405180830381865afa158015612672573d6000803e3d6000fd5b505050506040513d601f19601f820116820180604052508101906126969190613a82565b6040516001600160e01b031960e085901b1681526001600160a01b03928316600482015291166024820152604401600060405180830381600087803b1580156126de57600080fd5b505af11580156126f2573d6000803e3d6000fd5b5050505080608001516127735760608101516040516335313c2160e11b81526001600160a01b03909116600482015273abc000d88f23bb45525e447528dbf656a9d55bf590636a62784290602401600060405180830381600087803b15801561275a57600080fd5b505af115801561276e573d6000803e3d6000fd5b505050505b505b8061277f81613dd0565b915050612549565b506040516370a0823160e01b81523060048201527311cdb42b0eb46d95f990bedd4695a6e3fa0349789060009082906370a0823190602401602060405180830381865afa1580156127dc573d6000803e3d6000fd5b505050506040513d601f19601f820116820180604052508101906128009190613a69565b905080156106fa57816001600160a01b031663a9059cbb60c960009054906101000a90046001600160a01b03166001600160a01b031663ea9c5e0d6040518163ffffffff1660e01b8152600401602060405180830381865afa15801561286a573d6000803e3d6000fd5b505050506040513d601f19601f8201168201806040525081019061288e9190613a82565b6040516001600160e01b031960e084901b1681526001600160a01b039091166004820152602481018490526044016020604051808303816000875af11580156128db573d6000803e3d6000fd5b505050506040513d601f19601f820116820180604052508101906108309190613b2c565b60008080600019858709858702925082811083820303915050806000036129395783828161292f5761292f613acc565b04925050506129ad565b80841161294557600080fd5b600084868809851960019081018716968790049682860381900495909211909303600082900391909104909201919091029190911760038402600290811880860282030280860282030280860282030280860282030280860282030280860290910302029150505b9392505050565b600061124c84846001600160a01b031663313ce5676040518163ffffffff1660e01b8152600401602060405180830381865afa1580156129f8573d6000803e3d6000fd5b505050506040513d601f19601f82011682018060405250810190612a1c9190613ca7565b612a2790600a613dae565b670de0b6b3a764000085612a3c5760026135d1565b60016135d1565b60c9546040516328fd151f60e01b81526001600160a01b03808616600483015285926000929116906328fd151f9060240160a060405180830381865afa158015612a91573d6000803e3d6000fd5b505050506040513d601f19601f82011682018060405250810190612ab59190613de9565b6040516370a0823160e01b81523060048201529091506000906001600160a01b038416906370a0823190602401602060405180830381865afa158015612aff573d6000803e3d6000fd5b505050506040513d601f19601f82011682018060405250810190612b239190613a69565b9050838110612ba95760405163a9059cbb60e01b81526001600160a01b0386811660048301526024820186905284169063a9059cbb906044015b6020604051808303816000875af1158015612b7c573d6000803e3d6000fd5b505050506040513d601f19601f82011682018060405250810190612ba09190613b2c565b50505050505050565b60608201516001600160a01b031615801590612bc757508160800151155b15612c3a5760608201516001600160a01b0316632e1a7d4d612be98387613b04565b6040518263ffffffff1660e01b8152600401612c0791815260200190565b600060405180830381600087803b158015612c2157600080fd5b505af1158015612c35573d6000803e3d6000fd5b505050505b60405163a9059cbb60e01b81526001600160a01b0386811660048301526024820186905284169063a9059cbb90604401612b5d565b6033546001600160a01b031633146112665760405162461bcd60e51b815260206004820181905260248201527f4f776e61626c653a2063616c6c6572206973206e6f7420746865206f776e657260448201526064016107d3565b603380546001600160a01b038381166001600160a01b0319831681179093556040519116919082907f8be0079c531659141344cd1fd0a4f28419497f9722a3daafe3b4186f6b6457e090600090a35050565b60c954604080516262667960e01b8152905185926000926001600160a01b039091169162626679916004808201926020929091908290030181865afa158015612d68573d6000803e3d6000fd5b505050506040513d601f19601f82011682018060405250810190612d8c9190613a82565b60c9546040516328fd151f60e01b81526001600160a01b0385811660048301529293509116906328fd151f9060240160a060405180830381865afa158015612dd8573d6000803e3d6000fd5b505050506040513d601f19601f82011682018060405250810190612dfc9190613de9565b60200151612e365760405162461bcd60e51b8152602060048201526007602482015266056414d4d3a62360cc1b60448201526064016107d3565b60c960009054906101000a90046001600160a01b03166001600160a01b031663abc505056040518163ffffffff1660e01b8152600401602060405180830381865afa158015612e89573d6000803e3d6000fd5b505050506040513d601f19601f82011682018060405250810190612ead9190613a69565b8410612ee55760405162461bcd60e51b815260206004820152600760248201526656414d4d3a623160c81b60448201526064016107d3565b6040516370a0823160e01b815233600482015286906001600160a01b038316906370a0823190602401602060405180830381865afa158015612f2b573d6000803e3d6000fd5b505050506040513d601f19601f82011682018060405250810190612f4f9190613a69565b1015612f875760405162461bcd60e51b81526020600482015260076024820152662b20a6a69d311960c91b60448201526064016107d3565b604051636eb1769f60e11b815233600482015230602482015286906001600160a01b0383169063dd62ed3e90604401602060405180830381865afa158015612fd3573d6000803e3d6000fd5b505050506040513d601f19601f82011682018060405250810190612ff79190613a69565b101561302f5760405162461bcd60e51b815260206004820152600760248201526656414d4d3a623360c81b60448201526064016107d3565b60cc5460405163ba730e5360e01b81526004810188905260009182916001600160a01b039091169063ba730e53906024016040805180830381865afa15801561307c573d6000803e3d6000fd5b505050506040513d601f19601f820116820180604052508101906130a09190613e79565b91509150858210156130de5760405162461bcd60e51b8152602060048201526007602482015266159053534e988d60ca1b60448201526064016107d3565b856130e98383613dbd565b6130f39190613b04565b90508591506000613106838660006129b4565b9050613113888783612a43565b61311c8261334a565b60405163079cc67960e41b8152336004820152602481018a90526001600160a01b038516906379cc679090604401600060405180830381600087803b15801561316457600080fd5b505af1158015613178573d6000803e3d6000fd5b50505050818360ca5461318b9190613b04565b6131959190613b04565b60ca5560006131a2610522565b50509150508060ca5410156131e35760405162461bcd60e51b815260206004820152600760248201526656414d4d3a623560c81b60448201526064016107d3565b6131eb613364565b604080518b8152602081018690529081018490526001600160a01b038816907f743033787f4738ff4d6a7225ce2bd0977ee5f86b91a902a58f5e4d0b297b46449060600160405180910390a260cc5460405163023536c560e21b8152670de0b6b3a764000060048201526000916001600160a01b0316906308d4db14906024016040805180830381865afa158015613287573d6000803e3d6000fd5b505050506040513d601f19601f820116820180604052508101906132ab9190613e79565b5090507ff288b44ce3328a0b51d009bc60c1d10e49010de34f9e3aec6a9db60b2d5b9744816040516132df91815260200190565b60405180910390a15050505050505050505050565b600054610100900460ff1661331b5760405162461bcd60e51b81526004016107d390613e9d565b61126661362c565b600054610100900460ff166112665760405162461bcd60e51b81526004016107d390613e9d565b8060cb600082825461335c9190613dbd565b909155505050565b6000806000613371610522565b93509350935050600060c960009054906101000a90046001600160a01b03166001600160a01b0316626266796040518163ffffffff1660e01b8152600401602060405180830381865afa1580156133cc573d6000803e3d6000fd5b505050506040513d601f19601f820116820180604052508101906133f09190613a82565b6001600160a01b03166318160ddd6040518163ffffffff1660e01b8152600401602060405180830381865afa15801561342d573d6000803e3d6000fd5b505050506040513d601f19601f820116820180604052508101906134519190613a69565b905060cd54821180156134645750600081115b156108305760006134868460ce546402540be4006001600160801b03166128ff565b90506134928186613dbd565b945060006134a986670de0b6b3a7640000856128ff565b60cc54604051633d05829d60e01b8152600481018390529192506001600160a01b031690633d05829d90602401600060405180830381600087803b1580156134f057600080fd5b505af1158015613504573d6000803e3d6000fd5b50505050505050505050565b6001600160a01b0381163b61357d5760405162461bcd60e51b815260206004820152602d60248201527f455243313936373a206e657720696d706c656d656e746174696f6e206973206e60448201526c1bdd08184818dbdb9d1c9858dd609a1b60648201526084016107d3565b600080516020613f7283398151915280546001600160a01b0319166001600160a01b0392909216919091179055565b6135b58361365c565b6000825111806135c25750805b156106fa57610830838361369c565b6000806135df8686866128ff565b905060018360028111156135f5576135f5613ee8565b14801561361257506000848061360d5761360d613acc565b868809115b1561124957613622600182613dbd565b9695505050505050565b600054610100900460ff166136535760405162461bcd60e51b81526004016107d390613e9d565b61126633612cc9565b61366581613510565b6040516001600160a01b038216907fbc7cd75a20ee27fd9adebab32041f755214dbc6bffa90cc0225b39da2e5c2d3b90600090a250565b60606136c18383604051806060016040528060278152602001613f92602791396136ca565b90505b92915050565b6060600080856001600160a01b0316856040516136e79190613f22565b600060405180830381855af49150503d8060008114613722576040519150601f19603f3d011682016040523d82523d6000602084013e613727565b606091505b509150915061362286838387606083156137a257825160000361379b576001600160a01b0385163b61379b5760405162461bcd60e51b815260206004820152601d60248201527f416464726573733a2063616c6c20746f206e6f6e2d636f6e747261637400000060448201526064016107d3565b508161124c565b61124c83838151156137b75781518083602001fd5b8060405162461bcd60e51b81526004016107d39190613f3e565b6001600160a01b038116811461091257600080fd5b6000806000606084860312156137fb57600080fd5b8335613806816137d1565b95602085013595506040909401359392505050565b6000806040838503121561382e57600080fd5b50508035926020909101359150565b6000806000806080858703121561385357600080fd5b843561385e816137d1565b93506020850135925060408501359150606085013561387c816137d1565b939692955090935050565b60006020828403121561389957600080fd5b81356129ad816137d1565b6000602082840312156138b657600080fd5b5035919050565b634e487b7160e01b600052604160045260246000fd5b604051601f8201601f1916810167ffffffffffffffff811182821017156138fc576138fc6138bd565b604052919050565b6000806040838503121561391757600080fd5b8235613922816137d1565b915060208381013567ffffffffffffffff8082111561394057600080fd5b818601915086601f83011261395457600080fd5b813581811115613966576139666138bd565b613978601f8201601f191685016138d3565b9150808252878482850101111561398e57600080fd5b80848401858401376000848284010152508093505050509250929050565b6000806000606084860312156139c157600080fd5b8335925060208401356139d3816137d1565b929592945050506040919091013590565b600080600080608085870312156139fa57600080fd5b843593506020850135613a0c816137d1565b925060408501359150606085013561387c816137d1565b60008060008060808587031215613a3957600080fd5b8435613a44816137d1565b93506020850135613a54816137d1565b93969395505050506040820135916060013590565b600060208284031215613a7b57600080fd5b5051919050565b600060208284031215613a9457600080fd5b81516129ad816137d1565b634e487b7160e01b600052601160045260246000fd5b80820281158282048414176136c4576136c4613a9f565b634e487b7160e01b600052601260045260246000fd5b600082613aff57634e487b7160e01b600052601260045260246000fd5b500490565b818103818111156136c4576136c4613a9f565b80518015158114613b2757600080fd5b919050565b600060208284031215613b3e57600080fd5b6136c182613b17565b6020808252602c908201527f46756e6374696f6e206d7573742062652063616c6c6564207468726f7567682060408201526b19195b1959d85d1958d85b1b60a21b606082015260800190565b6020808252602c908201527f46756e6374696f6e206d7573742062652063616c6c6564207468726f7567682060408201526b6163746976652070726f787960a01b606082015260800190565b60006020808385031215613bf257600080fd5b825167ffffffffffffffff80821115613c0a57600080fd5b818501915085601f830112613c1e57600080fd5b815181811115613c3057613c306138bd565b8060051b9150613c418483016138d3565b8181529183018401918481019088841115613c5b57600080fd5b938501935b83851015613c855784519250613c75836137d1565b8282529385019390850190613c60565b98975050505050505050565b634e487b7160e01b600052603260045260246000fd5b600060208284031215613cb957600080fd5b815160ff811681146129ad57600080fd5b600181815b80851115613d05578160001904821115613ceb57613ceb613a9f565b80851615613cf857918102915b93841c9390800290613ccf565b509250929050565b600082613d1c575060016136c4565b81613d29575060006136c4565b8160018114613d3f5760028114613d4957613d65565b60019150506136c4565b60ff841115613d5a57613d5a613a9f565b50506001821b6136c4565b5060208310610133831016604e8410600b8410161715613d88575081810a6136c4565b613d928383613cca565b8060001904821115613da657613da6613a9f565b029392505050565b60006136c160ff841683613d0d565b808201808211156136c4576136c4613a9f565b600060018201613de257613de2613a9f565b5060010190565b600060a08284031215613dfb57600080fd5b60405160a0810181811067ffffffffffffffff82111715613e1e57613e1e6138bd565b604052613e2a83613b17565b8152613e3860208401613b17565b6020820152613e4960408401613b17565b60408201526060830151613e5c816137d1565b6060820152613e6d60808401613b17565b60808201529392505050565b60008060408385031215613e8c57600080fd5b505080516020909101519092909150565b6020808252602b908201527f496e697469616c697a61626c653a20636f6e7472616374206973206e6f74206960408201526a6e697469616c697a696e6760a81b606082015260800190565b634e487b7160e01b600052602160045260246000fd5b60005b83811015613f19578181015183820152602001613f01565b50506000910152565b60008251613f34818460208701613efe565b9190910192915050565b6020815260008251806020840152613f5d816040850160208701613efe565b601f01601f1916919091016040019291505056fe360894a13ba1a3210667c828492db98dca3e2076cc3735a920a3ca505d382bbc416464726573733a206c6f772d6c6576656c2064656c65676174652063616c6c206661696c6564a26469706673582212201167339d814d4878aacea26da2fe7b80c112bc09d49e9439c5ac841dcf09183664736f6c63430008120033",
  "devdoc": {
    "events": {
      "AdminChanged(address,address)": {
        "details": "Emitted when the admin account has changed."
      },
      "BeaconUpgraded(address)": {
        "details": "Emitted when the beacon is changed."
      },
      "Initialized(uint8)": {
        "details": "Triggered when the contract has been initialized or reinitialized."
      },
      "Upgraded(address)": {
        "details": "Emitted when the implementation is upgraded."
      }
    },
    "kind": "dev",
    "methods": {
      "constructor": {
        "custom:oz-upgrades-unsafe-allow": "constructor"
      },
      "owner()": {
        "details": "Returns the address of the current owner."
      },
      "proxiableUUID()": {
        "details": "Implementation of the ERC1822 {proxiableUUID} function. This returns the storage slot used by the implementation. It is used to validate the implementation's compatibility when performing an upgrade. IMPORTANT: A proxy pointing at a proxiable contract should not be considered proxiable itself, because this risks bricking a proxy that upgrades to it, by delegating to itself until out of gas. Thus it is critical that this function revert if invoked through a proxy. This is guaranteed by the `notDelegated` modifier."
      },
      "renounceOwnership()": {
        "details": "Leaves the contract without owner. It will not be possible to call `onlyOwner` functions. Can only be called by the current owner. NOTE: Renouncing ownership will leave the contract without an owner, thereby disabling any functionality that is only available to the owner."
      },
      "transferOwnership(address)": {
        "details": "Transfers ownership of the contract to a new account (`newOwner`). Can only be called by the current owner."
      },
      "upgradeTo(address)": {
        "custom:oz-upgrades-unsafe-allow-reachable": "delegatecall",
        "details": "Upgrade the implementation of the proxy to `newImplementation`. Calls {_authorizeUpgrade}. Emits an {Upgraded} event."
      },
      "upgradeToAndCall(address,bytes)": {
        "custom:oz-upgrades-unsafe-allow-reachable": "delegatecall",
        "details": "Upgrade the implementation of the proxy to `newImplementation`, and subsequently execute the function call encoded in `data`. Calls {_authorizeUpgrade}. Emits an {Upgraded} event."
      }
    },
    "version": 1
  },
  "userdoc": {
    "kind": "user",
    "methods": {
      "balanceOf(address)": {
        "notice": "gauge --- ///"
      },
      "totalBorrowAmount()": {
        "notice": "liquidity stake borrow"
      }
    },
    "version": 1
  },
  "storageLayout": {
    "storage": [
      {
        "astId": 590,
        "contract": "contracts/VAMM.sol:VAMM",
        "label": "_initialized",
        "offset": 0,
        "slot": "0",
        "type": "t_uint8"
      },
      {
        "astId": 593,
        "contract": "contracts/VAMM.sol:VAMM",
        "label": "_initializing",
        "offset": 1,
        "slot": "0",
        "type": "t_bool"
      },
      {
        "astId": 1812,
        "contract": "contracts/VAMM.sol:VAMM",
        "label": "__gap",
        "offset": 0,
        "slot": "1",
        "type": "t_array(t_uint256)50_storage"
      },
      {
        "astId": 10,
        "contract": "contracts/VAMM.sol:VAMM",
        "label": "_owner",
        "offset": 0,
        "slot": "51",
        "type": "t_address"
      },
      {
        "astId": 130,
        "contract": "contracts/VAMM.sol:VAMM",
        "label": "__gap",
        "offset": 0,
        "slot": "52",
        "type": "t_array(t_uint256)49_storage"
      },
      {
        "astId": 572,
        "contract": "contracts/VAMM.sol:VAMM",
        "label": "__gap",
        "offset": 0,
        "slot": "101",
        "type": "t_array(t_uint256)50_storage"
      },
      {
        "astId": 887,
        "contract": "contracts/VAMM.sol:VAMM",
        "label": "__gap",
        "offset": 0,
        "slot": "151",
        "type": "t_array(t_uint256)50_storage"
      },
      {
        "astId": 18355,
        "contract": "contracts/VAMM.sol:VAMM",
        "label": "_config",
        "offset": 0,
        "slot": "201",
        "type": "t_contract(IConfig)20550"
      },
      {
        "astId": 18363,
        "contract": "contracts/VAMM.sol:VAMM",
        "label": "_totalLiquidity",
        "offset": 0,
        "slot": "202",
        "type": "t_uint256"
      },
      {
        "astId": 18365,
        "contract": "contracts/VAMM.sol:VAMM",
        "label": "totalFees",
        "offset": 0,
        "slot": "203",
        "type": "t_uint256"
      },
      {
        "astId": 18368,
        "contract": "contracts/VAMM.sol:VAMM",
        "label": "_priceField",
        "offset": 0,
        "slot": "204",
        "type": "t_contract(PriceField)17252"
      },
      {
        "astId": 18370,
        "contract": "contracts/VAMM.sol:VAMM",
        "label": "tForMFR",
        "offset": 0,
        "slot": "205",
        "type": "t_uint256"
      },
      {
        "astId": 18372,
        "contract": "contracts/VAMM.sol:VAMM",
        "label": "xForMFR",
        "offset": 0,
        "slot": "206",
        "type": "t_uint256"
      },
      {
        "astId": 19637,
        "contract": "contracts/VAMM.sol:VAMM",
        "label": "totalBorrowAmount",
        "offset": 0,
        "slot": "207",
        "type": "t_uint256"
      }
    ],
    "types": {
      "t_address": {
        "encoding": "inplace",
        "label": "address",
        "numberOfBytes": "20"
      },
      "t_array(t_uint256)49_storage": {
        "base": "t_uint256",
        "encoding": "inplace",
        "label": "uint256[49]",
        "numberOfBytes": "1568"
      },
      "t_array(t_uint256)50_storage": {
        "base": "t_uint256",
        "encoding": "inplace",
        "label": "uint256[50]",
        "numberOfBytes": "1600"
      },
      "t_bool": {
        "encoding": "inplace",
        "label": "bool",
        "numberOfBytes": "1"
      },
      "t_contract(IConfig)20550": {
        "encoding": "inplace",
        "label": "contract IConfig",
        "numberOfBytes": "20"
      },
      "t_contract(PriceField)17252": {
        "encoding": "inplace",
        "label": "contract PriceField",
        "numberOfBytes": "20"
      },
      "t_uint256": {
        "encoding": "inplace",
        "label": "uint256",
        "numberOfBytes": "32"
      },
      "t_uint8": {
        "encoding": "inplace",
        "label": "uint8",
        "numberOfBytes": "1"
      }
    }
  }
}